:060000000A128A11122809
:10000800FE00030EF9000408FA000A08FB00831238
:1000180003137F08FC000A128A15BE2D0A128A15DE
:100028000029FF3083120313DE005E08E500E101BA
:10003800E2010A128A15D1200A128A112328F01F18
:10004800262827283928F01302300A128A11D123CA
:100058000A128A110A128A156A260A128A110A12C3
:100068008A1133250A128A1139287D08031D3D2873
:100078000D2A7D080A128A1508220A128A1183128B
:100088000313DE005E08E500FD010D2A0D2A0A12A1
:100098008A15B8230A128A11232A232AA630831222
:1000A8000313D300FF30D4009030D5000130D600C0
:1000B8000A128A1516250A128A110A128A156A2640
:1000C8000A128A11831203136708E401E407660819
:1000D800E301E3076309DE006409DF00DE0A0319B0
:1000E800DF0A5E08DC3ED3005F080318013E053EC8
:1000F800D4009030D5000130D6000A128A151B278B
:100108000A128A11A63083120313D300FF30D400D9
:100118009030D5000130D6000A128A1516250A1229
:100128008A11A03083120313D3000F30D40090300B
:10013800D5000130D6000A128A151B270A128A1127
:100148005A3083120313D3000030D4009030D50006
:100158000130D6000A128A1516250A128A11E830CB
:1001680083120313D3000330D4009030D50001303C
:10017800D6000A128A151B270A128A115A308312CE
:100188000313D3000030D4009030D5000130D600DE
:100198000A128A1516250A128A11E83083120313E7
:1001A800D3000330D4009030D5000130D6000A12B5
:1001B8008A151B270A128A11232A03308312031374
:1001C800E0008A30DF005630DE00DE0BE928DF0B66
:1001D800E928E00BE928F028E83083120313D3005C
:1001E8000330D4009030D5000130D6000A128A15A9
:1001F8001B270A128A11503083120313D3000030D0
:10020800D400C830D5000030D6000A128A15162549
:100218000A128A11E83083120313D3000330D40082
:100228009030D5000130D6000A128A151B270A1211
:100238008A11503083120313D3000030D400C83021
:10024800D5000030D6000A128A1516250A128A111E
:10025800D03083120313D3000730D4009030D50078
:100268000130D6000A128A151B270A128A11B030EB
:1002780083120313D300FF30D400C830D5000030F8
:10028800D6000A128A1516250A128A11232AFB2972
:10029800E429E83083120313D3000330D4002C3050
:1002A800D5000130D6006708D801D8076608D701FD
:1002B800D7070A128A112E220A128A11FB29FB2952
:1002C800FB29FB295A3083120313D3000030D400D2
:1002D8009030D5000130D6000A128A1516250A1268
:1002E8008A110A128A156A260A128A11E8308312BC
:1002F8000313D3000330D4002C30D5000130D600CE
:100308006608F63ED70067080318013EFF3ED8008E
:100318000A128A112E220A128A11FB29BC30831272
:100328000313D3000230D4002C30D5000130D6009E
:100338000A128A151B270A128A11A6308312031380
:10034800D300FF30D4009030D5000130D6000A1217
:100358008A1516250A128A110A128A156A260A129D
:100368008A11E83083120313D3000330D4002C30F1
:10037800D5000130D6006608F63ED7006708031896
:10038800013EFF3ED8000A128A112E220A128A1153
:10039800FB29E83083120313D3000330D4002C3038
:1003A800D5000130D6006708D801D8076608D701FC
:1003B800D7070A128A112E220A128A11FB29FB2951
:1003C800831603134E08003A03194D29013A0319FD
:1003D800FB29033A0319FB29013A0319FB29093AB6
:1003E80003196629013A03199229CD29FB29831695
:1003F80003134E08013A031D022A032AE429232A7B
:10040800232A0A128A15D2220A128A11232A232A97
:10041800232A831203136508003A03194B28013A6B
:100428000319232A033A03195228013A0319E12828
:10043800073A0319FB29013A0319052A232AFF3031
:1004480083120313DE005E08E500232823280A121E
:100458008A11122883160313BC01BD0183120313EA
:100468005608A301A3075508A201A207FF30A4005C
:100478007F30A5000A128A1594210A128A11831660
:100488000313CE01762B0A128A156A260A128A11DC
:10049800831203135708053ED90058080318013E74
:1004A800003EDA0067085A02031D5C2A66085902F2
:1004B80003185F2A602A822A57081E3ED900580866
:1004C8000318013E003EDA005A086702031D6E2A2F
:1004D800590866020318712A722A822A5608A3014B
:1004E800A3075508A201A2070830A4000730A500F9
:1004F8000A128A1594210A128A11022B83120313F5
:100508005708FB3ED90058080318013EFF3EDA00A1
:100518005A086702031D922A590866020318952A89
:10052800962AB82A5708E23ED90058080318013E0F
:10053800FF3EDA0067085A02031DA42A660859021A
:100548000318A72AA82AB82A5608A301A3075508FA
:10055800A201A207F830A400F830A5000A128A15F3
:1005680094210A128A11022B831203135708E23EC0
:10057800D90058080318013EFF3EDA0067085A02FE
:10058800031DC82A66085902031CCB2ACC2AD42A80
:100598000A30D900590883160313CE00AB2B022B5F
:1005A800831257081E3ED90058080318013E003E22
:1005B800DA005A086702031DE32A59086602031C79
:1005C800E62AE72AEF2A0B30D900590883160313C5
:1005D800CE00AB2B022B83125608A301A3075508A4
:1005E800A201A207FF30A4007F30A5000A128A15D5
:1005F80094210A128A11022B022B022B00300A12B4
:100608008A11D1230A128A11831203136A08031D5F
:100618000E2B142B83160313CE010314CE0DAB2B14
:1006280083126B08031D192B202B0230D90059089F
:1006380083160313CE00AB2B831603134908031D3F
:10064800262B2F2B033083120313D9005908831646
:100658000313CE00AB2B4A0883120313D900DA0127
:100668005908DC005A08DD005D08DA005C08D9008A
:100678005908DA00D9015908DC005A08DD00831648
:1006880003134B0883120313D900DA015908DC0756
:100698000318DD0A5A08DD075C0883160313BC0734
:1006A8000318BD0A831203135D0883160313BD07DD
:1006B800831203135C0883160313B8070318B90AD7
:1006C800831203135D0883160313B9073D08B301AA
:1006D800B3073C08B201B2070A128A1133250A127D
:1006E8008A11762B831603133D0883120313A7017F
:1006F800A707831603133C0883120313A601A60752
:100708000A128A155F210A128A1183120313260816
:10071800D9002708DA005408A701A7075308A6013B
:10072800A6070A128A155F210A128A118312031377
:100738005A08803ADB002708803A5B02031DA62B83
:1007480026085902031CA92BAA2B472AAB2B831670
:1007580003134E0883120313D900DA0159088316CC
:100768000313B200831203135A0883160313B3004A
:100778000A128A1133250A128A11003083120313D0
:10078800A2000030A300FF30A4007F30A5000A12A9
:100798008A1594210A128A11080083120313A400EF
:1007A8008E300A168A110B270A128A1107300A1688
:1007B8008A110B270A128A11213083120313A3000E
:1007C8007630A200A20BE62BA30BE62B64000A12DC
:1007D8008A15AF200A128A1183120313A200220875
:1007E800EA008E300A168A110B270A128A110D3078
:1007F8000A168A110B270A128A1121308312031351
:10080800A3007630A200A20B072CA30B072C6400D0
:100818000A128A15AF200A128A1183120313A20042
:100828002208EB008E300A168A110B270A128A1149
:100838000A300A168A110B270A128A1121308312EC
:100848000313A3007630A200A20B282CA30B282C9C
:1008580064000A128A15AF200A128A118312031340
:10086800A200220883160313C9008E300A168A11C3
:100878000B270A128A110B300A168A110B270A1243
:100888008A11213083120313A3007630A200A20B31
:100898004B2CA30B4B2C64000A128A15AF200A12AA
:1008A8008A1183120313A200220883160313C907AF
:1008B80083120313A408031D622C632C932C8E301F
:1008C8000A168A110B270A128A1113300A168A117E
:1008D8000B270A128A11213083120313A3007630E2
:1008E800A200A20B752CA30B752C64000A128A15A2
:1008F800AF200A128A1183120313A200220883165A
:100908000313CA000A128A15AF200A128A11831229
:100918000313A200220883160313CB00322D83127F
:100928002408013A031D992C9A2CCA2C8E300A16D9
:100938008A110B270A128A1114300A168A110B27FA
:100948000A128A11213083120313A3007630A20001
:10095800A20BAC2CA30BAC2C64000A128A15AF2096
:100968000A128A1183120313A200220883160313A2
:10097800C6000A128A15AF200A128A1183120313BD
:10098800A200220883160313C700322D83122408FD
:10099800023A031DD02CD12C322D8E300A168A1122
:1009A8000B270A128A1113300A168A110B270A120A
:1009B8008A11213083120313A3007630A200A20B00
:1009C800E32CA30BE32C64000A128A15AF200A1249
:1009D8008A1183120313A200220883160313CA0084
:1009E8000A128A15AF200A128A1183120313A20071
:1009F800220883160313CB008E300A168A110B27A0
:100A08000A128A1114300A168A110B270A128A113F
:100A1800213083120313A3007630A200A20B122DFB
:100A2800A30B122D64000A128A15AF200A128A112C
:100A380083120313A200220883160313C6000A12A6
:100A48008A15AF200A128A1183120313A200220802
:100A580083160313C700322D322D322D0800433080
:100A68008400903083120313BF000408C0001030C4
:100A7800C1003F08840083170008C200BF0A40086D
:100A88008400831342088000C00AC10B3D2D762ED6
:100A980001300A168A119B260A128A112B308312FA
:100AA8000313BF003F08AE008316031331088312F7
:100AB8000313B001B007831603133008831203131E
:100AC800AF01AF0783160313330883120313B20170
:100AD800B20783160313320883120313B101B10757
:100AE80043300A128A1184260A128A1100300A1623
:100AF8008A1149260A128A11433083120313A70068
:100B08000030A8000A168A11D4270A128A11403028
:100B18000A168A1149260A128A11831203136908D0
:100B2800803AFF0080307F02031D9C2D013068024F
:100B3800031C9F2DA02DB12D831203136808FF3EBF
:100B4800DD3E840083130008A7008030A8000A1641
:100B58008A11D4270A128A11C22D83120313680836
:100B6800053EDD3E840083130008A7008030A800FE
:100B78000A168A11D4270A128A11C22D44300A167D
:100B88008A1149260A128A11831203136808D73E6C
:100B9800840083130008A7008030A8000A168A1171
:100BA800D4270A128A114D300A168A1149260A12C8
:100BB8008A11063083120313A0000030A1006808D0
:100BC800013EA20069080318013E003EA3000A1274
:100BD8008A1516240A128A11831203132008DD3E8F
:100BE800840083130008A7008030A8000A168A1121
:100BF800D4270A128A11832E01300A168A119B26DD
:100C08000A128A1100300A168A1149260A128A1114
:100C18001B3083120313A7008030A8000A168A111C
:100C2800D4270A128A1140300A168A1149260A1254
:100C38008A11823083120313A7008030A8000A1695
:100C48008A11D4270A128A1144300A168A114926B1
:100C58000A128A11763083120313A7008030A80085
:100C68000A168A11D4270A128A114D300A168A11D7
:100C780049260A128A11863083120313A70080308E
:100C8800A8000A168A11D4270A128A11832E013065
:100C98000A168A119B260A128A1100300A168A112E
:100CA80049260A128A110B3083120313A7008030D9
:100CB800A8000A168A11D4270A128A1144300A1683
:100CC8008A1149260A128A11383083120313A700A1
:100CD8008030A8000A168A11D4270A128A11832E96
:100CE800832E832E831603135108003A03194C2DC3
:100CF800013A0319002E033A03194B2E832E0800DC
:100D080083120313BD002F30B3003308B6006A2FD7
:100D18003E08253A0319912E922E9E2E3E08B300C6
:100D28003D0884003308831380000130B300330882
:100D3800BD076A2FB701A52E7E2FBA2EBA2E6A2FAD
:100D4800BA2E0130AE07FF302E0784000A128A152A
:100D58000A200A128A11BE00003A03197E2F643A4B
:100D68000319BA2E0D3A0319BA2E6A2F36088400D1
:100D780083130008B900840A0008BA000230B300DF
:100D88003308B607BA1FC92ECA2ED42E0330B300B3
:100D98003308B704B909BA09B90A0319BA0AD42E2B
:100DA800BE010314BE0D3E08053A031DDC2EDD2EE0
:100DB800DF2E072F072F3E08B3003307013E8400BC
:100DC8000A128A150A200A128A11B4000A128A1510
:100DD8000A200A128A11B50035083A02031DF62EB8
:100DE800340839020318F92EFA2EFC2E072F072F84
:100DF8000130B3003308BE073E08053A031D052F2E
:100E0800062FDF2E072F3708033903190C2F0D2F54
:100E1800192F2D30B3003D08840033088313800058
:100E28000130B3003308BD07192F3E08B30033085B
:100E3800B8005E2F0A30A8000030A9003808B300B7
:100E48003307013E84000A128A150A200A128A1101
:100E5800A0000A128A150A200A128A11A1003A086B
:100E6800A301A3073908A201A2070A128A151823A9
:100E78000A128A11831203132108AB01AB07200859
:100E8800AA01AA070A128A158C220A128A11831249
:100E980003132808303EB4003408BE003E08B300EF
:100EA8003D0884003308831380000130B300330801
:100EB800BD075E2FFF30B3003308B8073808FF3A84
:100EC800031D672F682F1E2F6A2F6A2F0130AE0768
:100ED800FF302E0784000A128A150A200A128A1186
:100EE800B3003308BE00BE08031D7B2F7C2F8C2E59
:100EF8007E2F7E2F3D08840083138001832F0800F6
:100F0800831203132308803AFF0080307F02031DF9
:100F18008F2F01302202031C922F932FB22F89307A
:100F28000A168A110B270A128A1100300A168A112A
:100F38000B270A128A11C8300A168A110B270A12BF
:100F48008A1100300A168A110B270A128A110130F9
:100F58000A168A110B270A128A11F72F8312031314
:100F6800A31FB72FB82FD72F89300A168A110B273E
:100F78000A128A1100300A168A110B270A128A11DE
:100F8800C8300A168A110B270A128A11FF300A166E
:100F98008A110B270A128A11FF300A168A110B27A9
:100FA8000A128A11F72F89300A168A110B270A129A
:100FB8008A1100300A168A110B270A128A1100308A
:100FC8000A168A110B270A128A1100300A168A118A
:100FD8000B270A128A1100300A168A110B270A12E7
:100FE8008A11F72FF72F080064008001840A04068D
:100FF800031900340406F92FFF1B0A2883137F18EE
:1010080083170008840A0319FF0A080008308A00B9
:101018000408840A82070034013400340A34003496
:1010280064340034E834033410342734203443342F
:10103800683461347234673469346E346734203408
:101048004D346F3464346534203400345A34653494
:1010580072346F34203453347434653470345F34EC
:101068004D346F3474346F3472340034493452342C
:101078003A342534643463346D34203444343A3497
:101088002534643400342034203445345834493409
:1010980054342034203400342034433468346134E8
:1010A8007234673465342034003453346334613423
:1010B8006E345F343334363430340034433461347E
:1010C8006C34693462345F34493452340034463401
:1010D8006C3477345F34573461346C346C34003496
:1010E800443472346934763465345F3432346D3460
:1010F8000034443472346934763465345F344C34A3
:10110800003443344F344E344634493452344D3429
:10111800003444347234323400343C343C343C348B
:1011280000343E343E343E340034443472344C345B
:1011380000344334683467340034433461346C34E5
:101148000034533463346E34003446346C347734AA
:02115800003461
:10115E00B128B1280A168A11DB260A128A15031C39
:10116E00B928BA28B1288B13831203136D08A03E39
:10117E00840083130008A0002008A1000130A00005
:10118E002008ED070F30A0002008ED058B17210871
:10119E00D0280800FD01FC30831603138600903022
:1011AE0083120313A300230883160313870540300D
:1011BE009400A1308312031394000430831603139A
:1011CE0081000A168A112C270A128A150A168A110C
:1011DE00AF260A128A150A168A117D270A128A1557
:1011EE000A168A11F2260A128A158B160B178B17FE
:1011FE000800F001F101FD018313663084007030A8
:10120E000A128A11F8270A128A15A0308400D730E4
:10121E000A128A11F8270A128A1583179030840051
:10122E00B0300A128A11F8270A128A158313E43095
:10123E00FD001630FE005430FF00D73084000A1631
:10124E008A1178260A128A1583010A128A11152824
:10125E000A128A157E240A128A15F11D3729382999
:10126E003C29F11101305E295E29701D3F2940296C
:10127E004429701102305E295E29701E47294829C3
:10128E004C29701203305E295E29F11C4F2950291A
:10129E005429F11004305E295E29701C57295829F3
:1012AE005C29701005305E295E2900305E29080029
:1012BE00003083120313A71B0130A800A901A8094F
:1012CE00A909A80A0319A90A2708803AFF00803045
:1012DE007F02031D742901302602003003180130ED
:1012EE00831203132807A00029080318290AA10056
:1012FE002708A301A3072608A201A2070A168A112E
:10130E00A8270A128A15831203132108A701A7071B
:10131E002008A601A60793290800831203132208AA
:10132E00A6002608A7002308A6002608A800240861
:10133E00A6002608A9002508A6002608AA008930BE
:10134E000A168A110B270A128A158312031328080C
:10135E000A168A110B270A128A15831203132708FD
:10136E000A168A110B270A128A15831203132A08EA
:10137E000A168A110B270A128A15831203132908DB
:10138E000A168A110B270A128A15080083120313F4
:10139E00A700E9299F111F129F12FA299F151F12EC
:1013AE009F12FA299F111F169F12FA299F151F16B9
:1013BE009F12FA299F111F129F16FA290030072A31
:1013CE00072AFA292708003A0319D129013A0319E5
:1013DE00D529033A0319D929013A0319DD29073A08
:1013EE000319E129E5295330A600A60BFC290A169C
:1013FE008A1154270A128A15831203132008072A0A
:10140E00080083120313A000342A452A452AFF3010
:10141E00E8070318E90AFF30E907E91F172A182A17
:10142E00452A0530E8000030E900452A452A0130FA
:10143E00E8070318E90A0030E90706306806690470
:10144E00031D2A2A2B2A452AE801E901452A452AA5
:10145E006808472A472A452A452A2008013A0319CF
:10146E00452A033A0319452A013A03190E2A073A67
:10147E0003191E2A013A03192F2A452AFF30472A3B
:10148E0008007308720403194D2A4E2A842AF701A4
:10149E000314F70D5E2A01300310F20DF30DFF3E1B
:1014AE00031D532A0130F6007608F7075E2AF31F54
:1014BE00612A622A522A642A642A73087502031D5D
:1014CE006A2A72087402031C6D2A6E2A752A720823
:1014DE00F4027308031CF503F502752A013003109C
:1014EE00F30CF20CFF3E031D762A0130F702031DAA
:1014FE00812A822A642A842A842A7508F301F30732
:10150E007408F201F2078B2A0800831203132908CC
:10151E0028040319932A942ACA2AAD010314AD0D87
:10152E00A42A01300310A80DA90DFF3E031D992A10
:10153E000130AC002C08AD07A42AA91FA72AA82A9F
:10154E00982AAA2AAA2A29082B02031DB02A28089B
:10155E002A02031CB32AB42ABB2A2808AA02290885
:10156E00031CAB03AB02BB2A01300310A90CA80C61
:10157E00FF3E031DBC2A0130AD02031DC72AC82A37
:10158E00AA2ACA2ACA2A2B08A901A9072A08A80129
:10159E00A807D12A0800023083120313D300530880
:1015AE0083160313D10080300A168A110B270A12F4
:1015BE008A15E12AF01FE42AE52A042BF0130A12F9
:1015CE008A1133250A128A15042B042BFD01E12AF8
:1015DE00FD01E12AFD01E12AFD01E12A84300A160E
:1015EE008A110B270A128A15FD0183160313D101E6
:1015FE00172B172BFD01E12AE12A7D08013A031969
:10160E00ED2A033A0319EF2A013A0319F12A073A90
:10161E000319F32A013A0319F52A012BE12AE12ACB
:10162E00080083120313A501A60121082004031943
:10163E00212B222B602BA7010314A70D322B013077
:10164E000310A00DA10DFF3E031D272B0130A4009A
:10165E002408A707322BA11F352B362B262B382B10
:10166E00382B01300310A50DA60DFF3E031D392B9F
:10167E0021082302031D452B20082202031C482BA0
:10168E00492B512B2008A2022108031CA303A302FD
:10169E002514512B01300310A10CA00CFF3E031D8D
:1016AE00522B0130A702031D5D2B5E2B382B602BB6
:1016BE00602B2608A101A1072508A001A007672B12
:1016CE0008008312031307148714A508031D702B3B
:1016DE00712B782B0B300A168A1187260A128A155F
:1016EE007F2B09300A168A1187260A128A157F2B3C
:1016FE008312031307108710A801A9019C2B07154D
:10170E0000008312031307116230A7006530A60094
:10171E00A60B8F2BA70B8F2B942B01308312031349
:10172E00A8070318A90A0030A90724082902031DD7
:10173E00A22B23082802031CA52BA62B862B0714ED
:10174E00871400300A168A1187260A128A15831208
:10175E0003130710871007150000831203130711D8
:10176E00080083160313D1010314D10D0830831220
:10177E000313A3000030A400A5010A128A156823E2
:10178E000A128A15CA2BF01FCD2BCE2B022CF0136A
:10179E000A128A1133250A128A15022C022CFD0117
:1017AE00CA2BFD01CA2B013083120313A300003094
:1017BE00A400A5010314A50D0A128A1568230A12A6
:1017CE008A15FD01CA2B013083120313A3000030CA
:1017DE00A400A5010A128A1568230A128A15FD01B2
:1017EE00CA2B83160313C401C501FD01D101152CAB
:1017FE00152CCA2BCA2B7D08013A0319D62B033A96
:10180E000319D82B013A0319DA2B073A0319EA2BDD
:10181E00013A0319F82BCA2BCA2BCA2B08008312C4
:10182E000313A601A31F1C2C1D2C262CA209A309F1
:10183E00A20A0319A30AA6010314A60D262CA11FA2
:10184E00292C2A2C302CA009A109A00A0319A10ABF
:10185E00302C210820040319352C362C6C2CA501B4
:10186E000314A50D462C01300310A00DA10DFF3E53
:10187E00031D3B2C0130A4002408A507462CA11FF4
:10188E00492C4A2C3A2C4C2C4C2C21082302031D9B
:10189E00522C20082202031C552C562C5D2C20089D
:1018AE00A2022108031CA303A3025D2C0130031026
:1018BE00A10CA00CFF3E031D5E2C0130A502031DE2
:1018CE00692C6A2C4C2C6C2C6C2C2608031D702C4D
:1018DE00762CA209A309A20A0319A30A762C2308BF
:1018EE00A101A1072208A001A0077D2C08008312E8
:1018FE0003130619832C842C982C0130F2007208E5
:10190E0083160313D0070A305002031C8F2C902C21
:10191E009C2C711E932C942C9C2CF11571129C2CCA
:10192E009C2C83160313D001711683120313861990
:10193E00A12CA22CB62C0130F200720883160313D0
:10194E00CC070A304C02031CAD2CAE2CBA2CF01D69
:10195E00B12CB22CBA2C7015F011BA2CBA2C8316ED
:10196E000313CC01F01583120313061ABF2CC02CDF
:10197E00D42C0130F200720883160313CD070A30FF
:10198E004D02031CCB2CCC2CD82CF01ECF2CD02CE3
:10199E00D82C7016F012D82CD82C83160313CD0128
:1019AE00F01683120313861ADD2CDE2CF22C013076
:1019BE00F200720883160313CF070A304F02031C7E
:1019CE00E92CEA2CF62C711DED2CEE2CF62CF114D4
:1019DE007111F62CF62C83160313CF017115831299
:1019EE000313061BFB2CFC2C102D0130F200720889
:1019FE0083160313C8070A304802031C072D082D4F
:101A0E00152DF01C0B2D0C2D152D7014F010152D01
:101A1E00152D83160313C801F014152D0800831617
:101A2E000313BA01BB0183120313DA01DB0154085D
:101A3E00A301A3075308A201A2070A128A11842741
:101A4E000A128A157D2D01300A128A11D1230A122B
:101A5E008A1583120313EA08031D362D372D3C2DEC
:101A6E006B08031D3B2D422D3C2D83160313CE0117
:101A7E000314CE0DB22D83160313460883120313DF
:101A8E00D700D8015708DA005808DB005B08D800E9
:101A9E005A08D7005708D800D7015708DA00580857
:101AAE00DB0083160313470883120313D700D801F4
:101ABE005708DA070318DB0A5808DB075A0883169B
:101ACE000313BA070318BB0A831203135B088316AA
:101ADE000313BB073B08B301B3073A08B201B207C1
:101AEE000A128A1133250A128A157D2D83160313C5
:101AFE003B0883120313A701A707831603133A08A3
:101B0E0083120313A601A6070A128A155F210A1271
:101B1E008A15831203132608D7002708D800540805
:101B2E00A701A7075308A601A6070A128A155F2167
:101B3E000A128A15831203135808803AD90027080F
:101B4E00803A5902031DAD2D26085702031CB02DF5
:101B5E00B12D2A2DB22D003083120313A2000030B6
:101B6E00A3000A128A1184270A128A1508000B1D77
:101B7E00C12DC22D112E0B11643081000130831640
:101B8E000313B6070318B70A0030B7077017FA30F9
:101B9E00F2000030F3003708F501F5073608F401BE
:101BAE00F4070A128A1548220A128A15730872045B
:101BBE00031DE22DE32DE52DF017E52DF430F20097
:101BCE000130F300831603133708F501F5073608C5
:101BDE00F401F4070A128A1548220A128A157308AC
:101BEE007204031DFB2DFC2D022E711483120313A0
:101BFE0001308606022EFD08031D062E072E112E1D
:101C0E000A128A152F210A128A15F8007808FD008B
:101C1E00112E112E831203138C1E162E172E392EF3
:101C2E001A08F8006C08A03E840078088313800020
:101C3E006C08013E0F39F800780883160313D400A0
:101C4E005408831203136D0603192E2E2F2E392ED0
:101C5E00831603135408F800780883120313EC005C
:101C6E00392E392E0C1E3C2E3D2E5E2E831603135E
:101C7E000C1E422E432E5E2E831203136F08A03EBF
:101C8E0084008317000899000130F8007808EF07E8
:101C9E000F30F8007808EF056F086E06031D582EFA
:101CAE00592E5E2E831603130C125E2E5E2E7C08AA
:101CBE008312FF007B088A007A088400790E830065
:101CCE00FE0E7E0E090083120313B401B501C4018A
:101CDE00C501C70107304702031C762E772E792ED9
:101CEE00952E952E0A168A11C5260A128A1583126A
:101CFE0003134708AE002E07363E840028088313D0
:101D0E008000840A290880000130AE002E08C70723
:101D1E0007304702031C942E952E792EC7010730EB
:101D2E004702031C9B2E9C2E9E2E082F082F470821
:101D3E00AE002E08C60007304602031CA72EA82EA2
:101D4E00AA2EFD2EFD2E4708AE002E07363E84002D
:101D5E0083130008AF00840A0008B0004608B100E3
:101D6E003107363E84000008B200840A0008B30032
:101D7E0030083302031DC52E2F0832020318C82E59
:101D8E00C92EF22E4708AE002E07363E84000008FC
:101D9E00C400840A0008C5004608AE002E07363E71
:101DAE0084000008AF00840A0008B0004708B100A4
:101DBE003107363E84002F088000840A30088000E8
:101DCE004608AE002E07363E840044088000840A82
:101DDE0045088000F22E0130AE002E08C6070730EF
:101DEE004602031CFB2EFC2EAA2EFD2E0130AE0049
:101DFE002E08C70707304702031C062F072F9E2EFB
:101E0E00082F3D08E701E7073C08E601E6076708EB
:101E1E0083160313B101B1078312031366088316E9
:101E2E000313B001B007080083160313BC01BD01F4
:101E3E00831203135608A301A3075508A201A20794
:101E4E00FF30A4007F30A5000A128A1594210A12D1
:101E5E008A15A52F00300A128A11D1230A128A156B
:101E6E00831203136A08031D3D2F432F831603139A
:101E7E00CE010314CE0DDA2F83126B08031D482FEB
:101E8E004F2F0230D700570883160313CE00DA2FD8
:101E9E00831603134908031D552F5E2F033083123B
:101EAE000313D700570883160313CE00DA2F4A0800
:101EBE0083120313D700D8015708DA005808DB0045
:101ECE005B08D8005A08D7005708D800D701570822
:101EDE00DA005808DB00831603134B088312031332
:101EEE00D700D8015708DA070318DB0A5808DB07B2
:101EFE005A0883160313BC070318BD0A8312031373
:101F0E005B0883160313BD07831203135A08831647
:101F1E000313B8070318B90A831203135B08831659
:101F2E000313B9073D08B301B3073C08B201B2076A
:101F3E000A128A1133250A128A15A52F8316031346
:101F4E003D0883120313A701A707831603133C084A
:101F5E0083120313A601A6070A128A155F210A121D
:101F6E008A15831203132608D7002708D8005408B1
:101F7E00A701A7075308A601A6070A128A155F2113
:101F8E000A128A15831203135808803AD9002708BB
:101F9E00803A5902031DD52F26085702031CD82F4D
:101FAE00D92F312FDA2F831603134E088312031302
:101FBE00D700D801570883160313B20083120313F8
:101FCE00580883160313B3000A128A1133250A1216
:101FDE008A15003083120313A2000030A300FF30D5
:101FEE00A4007F30A5000A128A1594210A128A15C0
:021FFE000800D9
:102C920083120313A300A31723080A168A119B2683
:102CA2000A168A11080053344A3465346E345C348F
:102CB2004134923496347E348A349A348E343C349D
:102CC20083120313A2000911891009142208880033
:102CD200091509110730A1007D30A000A00B6F2E4D
:102CE200A10B6F2E08007E088A007F0882000A1658
:102CF2008A1174260A168A118000840A04087D0645
:102D020003190034FF0A0319FE0A782E83120313F3
:102D1200A200A1018C11220893008F2E8C1D922EED
:102D2200932E8F2E942E1308A0002008A1008C1140
:102D32009A2E080083120313A200091189100910A8
:102D420022088800091509110D30A100FB30A000EE
:102D5200A00BA92EA10BA92EAE2E080083120313DD
:102D620085013F30831603138500A13083120313BC
:102D72009F000230831603139F0053308312031304
:102D8200A000A00BC22E080000300A128A15CD2125
:102D92000A168A1183120313AA00AB012A08AC0097
:102DA2002B08AD002D08A901A9072C08A801A80726
:102DB200DA2E080083120313981CE02EE12EE62E71
:102DC200181218160310F12EF12E6C086D06031D51
:102DD200EB2EEC2EEE2E0310F12E0314F12EF12E1B
:102DE200080080300A168A110B270A168A118430CD
:102DF2000A168A110B270A168A1196300A168A11A8
:102E02000B270A168A1100300A168A110B270A1696
:102E12008A11080083120313A100102F102F6E08CD
:102E2200013E0F396F060319172F182F102F8B131E
:102E32002108A0006E08A03E8400200883178000AD
:102E42006E08013E0F39A0002008EE00831603131E
:102E52000C168B170800831603138717BF308312D3
:102E62000313A000200883160313870518151430D6
:102E720099001813831203131813831603131812DD
:102E82008312031398171816831603130C128C1649
:102E92009816003083120313EF00EE00ED00A0003D
:102EA2002008EC000800831203139E011F15592FFE
:102EB2001F195C2F5D2F592F0000000000008312A4
:102EC20003131E08A200A3012208A4002308A500E0
:102ED20001300310A40DA50DFF3E031D6A2F8316BA
:102EE20003131E08831203132508A101A107240856
:102EF200A001A0077C2F08000230831603139F0055
:102F0200831203138801890183160313880189013F
:102F120001300A168A119B260A168A1138300A16BF
:102F22008A119B260A168A110C300A168A119B26D0
:102F32000A168A1106300A168A119B260A168A1167
:102F420002300A168A119B260A168A110800831279
:102F52000313A401A501AD2F201CB02FB12FB72F51
:102F62002208A4070318A50A2308A50701300310A5
:102F7200A20DA30DFF3E031DB82F01300310A10CBB
:102F8200A00CFF3E031DBF2F21082004031DCA2FE2
:102F9200CB2FAD2FCC2F2508A101A1072408A0011A
:102FA200A007D32F0800EE2F831203132808FF0077
:102FB200270884000A128A1500200A168A110A16A6
:102FC2008A1161260A168A11013083120313A70798
:102FD2000318A80A0030A807EE2F8312031328084B
:102FE200FF00270884000A128A1500200A168A1197
:0E2FF2000038031DFD2FFE2FD52FFF2F0800E6
:02400E0032FF7F
:00000001FF
