:060000000A128A11122809
:10000800FE00030EF9000408FA000A08FB00831238
:1000180003137F08FC000A128A15372D0A168A1165
:10002800D72D0030831203136D02D53003196C02EB
:10003800031C1F282028632800306D02EA300319AA
:100048006C0203182828292863281530A6000030D8
:10005800A7006C09AE006D09AF00AE0A0319AF0A1C
:100068002E08EA3EA0002F080318013E003EA1001A
:100078000530A2000030A3000A168A1102260A12CF
:100088008A11831203132108A901A9072008A801CE
:10009800A8070A128A159F210A128A1183120313CC
:1000A80026080F3E83160313B40083120313270890
:1000B8000318013E003E83160313B500372A0030AB
:1000C80083126D02AA3003196C02031C6C286D2878
:1000D800B02800306D02D53003196C02031875285A
:1000E8007628B0282B30A6000030A7006C09AE0097
:1000F8006D09AF00AE0A0319AF0A2E08D53EA0005D
:100108002F080318013E003EA1000A30A20000306B
:10011800A3000A168A1102260A128A1183120313EF
:100128002108A901A9072008A801A8070A128A1509
:100138009F210A128A11831203132608143E83167C
:100148000313B4008312031327080318013E003E6B
:1001580083160313B500372A003083126D028030EE
:1001680003196C02031CB928BA28FD2800306D0257
:10017800AA3003196C020318C228C328FD282A30A4
:10018800A6000030A7006C09AE006D09AF00AE0AEA
:100198000319AF0A2E08AA3EA0002F080318013E33
:1001A800003EA1000A30A2000030A3000A168A11FE
:1001B80002260A128A11831203132108A901A9072A
:1001C8002008A801A8070A128A159F210A128A1175
:1001D8008312031326081E3E83160313B4008312EA
:1001E800031327080318013E003E83160313B500C6
:1001F800372A003083126D026B3003196C02031C1E
:10020800062907294A2900306D02803003196C023B
:1002180003180F2910294A291530A6000030A70015
:100228006C09AE006D09AF00AE0A0319AF0A2E08BB
:10023800803EA0002F080318013E003EA1000A30AE
:10024800A2000030A3000A168A1102260A128A1197
:10025800831203132108A901A9072008A801A807E8
:100268000A128A159F210A128A118312031326087B
:10027800283E83160313B4008312031327080318B8
:10028800013E003E83160313B500372A003083125F
:100298006D024D3003196C02031C53295429972908
:1002A80000306D026B3003196C0203185C295D295C
:1002B80097291E30A6000030A7006C09AE006D0912
:1002C800AF00AE0A0319AF0A2E086B3EA0002F0834
:1002D8000318013E003EA1000A30A2000030A3002E
:1002E8000A168A1102260A128A1183120313210898
:1002F800A901A9072008A801A8070A128A159F21A1
:100308000A128A11831203132608323E8316031336
:10031800B4008312031327080318013E003E831616
:100328000313B500372A003083126D0238300319E1
:100338006C02031CA029A129E42900306D024D306C
:1003480003196C020318A929AA29E4291530A60063
:100358000030A7006C09AE006D09AF00AE0A0319A2
:10036800AF0A2E084D3EA0002F080318013E003E9C
:10037800A1000A30A2000030A3000A168A11022642
:100388000A128A11831203132108A901A907200858
:10039800A801A8070A128A159F210A128A11831236
:1003A800031326083C3E83160313B4008312031379
:1003B80027080318013E003E83160313B500372AA9
:1003C800003083126D022B3003196C02031CED29D7
:1003D800EE29372A00306D02383003196C020318F1
:1003E800F629F729372A0D30A6000030A7006C0936
:1003F800AE006D09AF00AE0A0319AF0A2E08383EE9
:10040800A0002F080318013E003EA1000A30A200F8
:100418000030A3000A168A1102260A128A118312D2
:1004280003132108A901A9072008A801A8070A128F
:100438008A159F210A128A11831203132608463E41
:1004480083160313B4008312031327080318013E0D
:10045800003E83160313B500372A372A372A372A6E
:10046800372A372A372A0800FF3083120313E4009B
:100478006408EB00E701E8010A168A11B4260A129B
:100488008A11462AF01F492A4A2A5C2AF0130230A8
:100498000A128A15E2260A128A110A128A15792383
:1004A8000A128A110A128A11C3250A128A115C2AB1
:1004B8007D08031D602A282C7D080A128A155821F8
:1004C8000A128A1183120313E4006408EB00FD0189
:1004D800282C282C0A128A153F220A128A113E2C2F
:1004E8003E2CA63083120313D900FF30DA00903077
:1004F800DB000130DC000A128A158F240A128A11E7
:100508000A128A1579230A128A11831203136D08B5
:10051800EA01EA076C08E901E9076909E4006A09E0
:10052800E500E40A0319E50A6408DC3ED900650819
:100538000318013E053EDA009030DB000130DC0094
:100548000A128A1122270A128A11A630831203136B
:10055800D900FF30DA009030DB000130DC000A12ED
:100568008A158F240A128A11A03083120313D90026
:100578000F30DA009030DB000130DC000A128A11FB
:1005880022270A128A115A3083120313D900003025
:10059800DA009030DB000130DC000A128A158F2463
:1005A8000A128A11E83083120313D9000330DA00E3
:1005B8009030DB000130DC000A128A1122270A126F
:1005C8008A115A3083120313D9000030DA009030B0
:1005D800DB000130DC000A128A158F240A128A1106
:1005E800E83083120313D9000330DA009030DB00BF
:1005F8000130DC000A128A1122270A128A113E2CC5
:10060800033083120313E6008A30E5005630E40015
:10061800E40B0C2BE50B0C2BE60B0C2B132BE83007
:1006280083120313D9000330DA009030DB00013065
:10063800DC000A128A1122270A128A11503083120A
:100648000313D9000030DA00C830DB000030DC00CA
:100658000A128A158F240A128A11E83083120313AA
:10066800D9000330DA009030DB000130DC000A12D8
:100678008A1122270A128A11503083120313D900D3
:100688000030DA00C830DB000030DC000A128A15BE
:100698008F240A128A11D03083120313D90007302D
:1006A800DA009030DB000130DC000A128A112227C0
:1006B8000A128A11B03083120313D900FF30DA000E
:1006C800C830DB000030DC000A128A158F240A12B9
:1006D8008A113E2C162C052CE83083120313D900FE
:1006E8000330DA002C30DB000130DC006D08DE015D
:1006F800DE076C08DD01DD070A128A1149240A1297
:100708008A11162C162C5A3083120313D900003084
:10071800DA009030DB000130DC000A128A158F24E1
:100728000A128A110A128A1579230A128A11E830E4
:1007380083120313D9000330DA002C30DB000130B8
:10074800DC006C08F63EDD006D080318013EFF3E34
:10075800DE000A128A1149240A128A11162CBC30AA
:1007680083120313D9000230DA002C30DB00013089
:10077800DC000A128A1122270A128A11A630831273
:100788000313D900FF30DA009030DB000130DC00C1
:100798000A128A158F240A128A110A128A157923D5
:1007A8000A128A11E83083120313D9000330DA00E1
:1007B8002C30DB000130DC006C08F63EDD006D08F3
:1007C8000318013EFF3EDE000A128A1149240A126C
:1007D8008A11162CE83083120313D9000330DA008B
:1007E8002C30DB000130DC006D08DE01DE076C0810
:1007F800DD01DD070A128A1149240A128A11162C12
:10080800162C831603134F08003A0319702B013A6C
:100818000319162C0B3A0319872B013A0319B32B2A
:10082800EE2B162C831603134F08013A031D1D2CBB
:100838001E2C052C3E2C3E2C0A128A1512210A1257
:100848008A113E2C3E2C3E2C831203136B08003A6F
:1008580003196E2A013A03193E2C033A0319752A23
:10086800013A0319042B073A0319162C013A031904
:10087800202C3E2CFF3083120313E4006408EB00A5
:10088800462A462A0A128A11122883160313BC0123
:10089800BD01831203135C08A301A3075B08A2012F
:1008A800A207FF30A4007F30A5000A168A11482746
:1008B8000A128A1183160313CF017E2D0A128A1594
:1008C80079230A128A11831203135D08053EDF009B
:1008D8005E080318013E003EE0006D086002031D3B
:1008E800772C6C085F0203187A2C7B2C9D2C5D08F2
:1008F8001E3EDF005E080318013E003EE00060086F
:100908006D02031D892C5F086C0203188C2C8D2C3A
:100918009D2C5C08A301A3075B08A201A20708306D
:10092800A4000730A5000A168A1148270A128A115E
:100938001D2D831203135D08FB3EDF005E080318BC
:10094800013EFF3EE00060086D02031DAD2C5F080C
:100958006C020318B02CB12CD32C5D08E23EDF00EA
:100968005E080318013EFF3EE0006D086002031DAB
:10097800BF2C6C085F020318C22CC32CD32C5C0854
:10098800A301A3075B08A201A207F830A400F8306E
:10099800A5000A168A1148270A128A111D2D8312EA
:1009A80003135D08E23EDF005E080318013EFF3EC8
:1009B800E0006D086002031DE32C6C085F02031C55
:1009C800E62CE72CEF2C0A30DF005F0883160313B0
:1009D800CF00B32D1D2D83125D081E3EDF005E087B
:1009E8000318013E003EE00060086D02031DFE2C66
:1009F8005F086C02031C012D022D0A2D0B30DF004D
:100A08005F0883160313CF00B32D1D2D83125C08D6
:100A1800A301A3075B08A201A207FF30A4007F304F
:100A2800A5000A168A1148270A128A111D2D1D2DA4
:100A38001D2D00300A128A15E2260A128A11831225
:100A48000313EE08031D292D2A2D312D83160313B8
:100A58005208031D302D372D312D83160313CF0176
:100A68000314CF0DB32D4B0883120313DF00E001ED
:100A78005F08E2006008E3006308E0006208DF0046
:100A88005F08E000DF015F08E2006008E30083160A
:100A980003134C0883120313DF00E0015F08E20729
:100AA8000318E30A6008E307620883160313BC0708
:100AB8000318BD0A83120313630883160313BD07C3
:100AC80083120313620883160313B8070318B90ABD
:100AD80083120313630883160313B9073D08B30190
:100AE800B3073C08B201B2070A128A11C3250A12D9
:100AF8008A117E2D831603133D0883120313A70161
:100B0800A707831603133C0883120313A601A6073D
:100B18000A168A1113270A128A1183120313260848
:100B2800DF002708E0005A08A701A7075908A6010F
:100B3800A6070A168A1113270A128A1183120313A9
:100B48006008803AE1002708803A6102031DAE2D53
:100B580026085F02031CB12DB22D622CB32D003084
:100B680083120313A2000030A300FF30A4007F30DB
:100B7800A5000A168A1148270A128A110800493066
:100B88008400903083120313C5000408C600103097
:100B9800C7004508840083170008C800C50A46082E
:100BA8008400831348088000C60AC70BCD2D142F74
:100BB80001300A168A111D250A128A112B30831258
:100BC8000313C5004508B4008316031331088312C4
:100BD8000313B601B60783160313300883120313F1
:100BE800B501B50783160313330883120313B8013D
:100BF800B80783160313320883120313B701B70724
:100C080049300A128A15E2250A128A1100300A169A
:100C18008A11CB240A128A11493083120313A700C0
:100C28000030A8000A168A115A260A128A11403082
:100C38000A168A11CB240A128A1183160313430851
:100C4800803AFF0080307F02031D2C2E01304202C3
:100C5800031C2F2E302E432E831603134208FF3E0B
:100C6800E23E84008313000883120313A700803038
:100C7800A8000A168A115A260A128A11562E8316B5
:100C880003134208053EE23E8400831300088312E2
:100C98000313A7008030A8000A168A115A260A12E0
:100CA8008A11562E44300A168A11CB240A128A1148
:100CB800831603134208DC3E840083130008831262
:100CC8000313A7008030A8000A168A115A260A12B0
:100CD8008A114D300A168A11CB240A128A1106305D
:100CE80083120313A0000030A100831603134208E7
:100CF800013E83120313A20083160313430803184B
:100D0800013E003E83120313A3000A128A159D2296
:100D18000A128A11831203132008E23E8400831307
:100D28000008A7008030A8000A168A115A260A125D
:100D38008A11212F01300A168A111D250A128A11DB
:100D480000300A168A11CB240A128A111B3083122A
:100D58000313A7008030A8000A168A115A260A121F
:100D68008A1140300A168A11CB240A128A1182305D
:100D780083120313A7008030A8000A168A115A2686
:100D88000A128A1144300A168A11CB240A128A11CF
:100D9800763083120313A7008030A8000A168A1140
:100DA8005A260A128A114D300A168A11CB240A12C1
:100DB8008A11863083120313A7008030A8000A1610
:100DC8008A115A260A128A11212F01300A168A110D
:100DD8001D250A128A1100300A168A11CB240A121C
:100DE8008A110B3083120313A7008030A8000A165B
:100DF8008A115A260A128A1144300A168A11CB24FB
:100E08000A128A11383083120313A7008030A80011
:100E18000A168A115A260A128A11212F212F212FE8
:100E2800831603135308003A0319DC2D013A0319FA
:100E38009E2E033A0319E92E212F08008316031367
:100E4800BC01BD01831203135C08A301A3075B085F
:100E5800A201A207FF30A4007F30A5000A168A115C
:100E680048270A128A11992F00300A128A15E22699
:100E78000A128A1183120313EE08031D442F452F0B
:100E88004C2F831603135208031D4B2F522F4C2F40
:100E980083160313CF010314CF0DCE2F4B088312F3
:100EA8000313DD00DE015D08E0005E08E100610873
:100EB800DE006008DD005D08DE00DD015D08E000A1
:100EC8005E08E100831603134C0883120313DD0048
:100ED800DE015D08E0070318E10A5E08E107600823
:100EE80083160313BC070318BD0A83120313610892
:100EF80083160313BD0783120313600883160313B5
:100F0800B8070318B90A8312031361088316031379
:100F1800B9073D08B301B3073C08B201B2070A128A
:100F28008A11C3250A128A11992F831603133D08C3
:100F380083120313A701A707831603133C08831220
:100F48000313A601A6070A168A1113270A128A1183
:100F5800831203132608DD002708DE005A08A701BC
:100F6800A7075908A601A6070A168A1113270A1205
:100F78008A11831203135E08803ADF002708803A3B
:100F88005F02031DC92F26085D02031CCC2FCD2F3D
:100F9800382FCE2F003083120313A2000030A30095
:100FA800FF30A4007F30A5000A168A1148270A12CC
:100FB8008A11080080300A168A115D250A128A11E2
:100FC80084300A168A115D250A128A1196300A168B
:100FD8008A115D250A128A1100300A168A115D25C8
:100FE8000A128A11080064008001840A04060319A1
:060FF80000340406F82F8E
:10100000FF1B0A2883137F1883170008840A03191B
:10101000FF0A080008308A000408840A82070034A6
:10102000013400340A34003464340034E8340334C6
:1010300010342734203443346834613472346734D4
:1010400069346E34673420344D346F34643465341D
:10105000203400345A34653472346F3420345334BD
:101060007434653470345F344D346F3474346F3499
:1010700072340034493452343A342534643463349D
:101080006D34203444343A3425346434003420340C
:101090002034453458344934543420342034003416
:1010A0002034433468346134723467346534203416
:1010B00000345334633461346E345F343334363443
:1010C00030340034433461346C34693462345F3416
:1010D00049345234003446346C3477345F345734F6
:1010E00061346C346C340034443472346934763492
:1010F00065345F3432346D340034443472346934CE
:10110000763465345F344C34003443344F344E34D9
:101110004634493452344D34003444347234323419
:1011200000343C343C343C3400343E343E343E34B1
:101130000034443472344C340034433468346734FB
:101140000034433461346C340034533463346E34CB
:0A115000003446346C347734003468
:1011660083120313981CB828B928BE28181218161B
:101176000310CB28CB288316031356085706031DE6
:10118600C528C628C8280310CB280314CB28CB288B
:101196000800831203132F082E040319D328D4281A
:1011A6000A29B3010314B30DE42801300310AE0D70
:1011B600AF0DFF3E031DD9280130B2003208B30738
:1011C600E428AF1FE728E828D828EA28EA282F08C5
:1011D6003102031DF0282E083002031CF328F428E0
:1011E600FB282E08B0022F08031CB103B102FB280E
:1011F60001300310AF0CAE0CFF3E031DFC2801307E
:10120600B302031D07290829EA280A290A293108F1
:10121600AF01AF073008AE01AE0711290800023052
:1012260083120313D900590883160313D3008030A1
:101236000A168A115D250A128A152129F01F24290A
:1012460025294429F0130A128A11C3250A128A1580
:1012560044294429FD012129FD012129FD012129D6
:10126600FD01212984300A168A115D250A128A1584
:10127600FD0183160313D30157295729FD0121299F
:1012860021297D08013A03192D29033A03192F292B
:10129600013A03193129073A03193329013A031987
:1012A6003529412921292129080083120313A00089
:1012B6008A299C299C29FF3083160313C207031829
:1012C600C30AFF30C307C31F69296A299C29053051
:1012D600C2000030C3009C299C29013083160313E9
:1012E600C2070318C30A0030C30706304206430488
:1012F600031D7E297F299C29C201C3019C299C29A3
:101306008316031342089E299E299C299C29831231
:101316002008013A03199C29033A03199C29013A2A
:1013260003195E29073A03197029013A031983291B
:101336009C29FF309E29080083120313AB01AC01E0
:10134600270826040319A829A929E729AD010314AA
:10135600AD0DB92901300310A60DA70DFF3E031DE3
:10136600AE290130AA002A08AD07B929A71FBC2952
:10137600BD29AD29BF29BF2901300310AB0DAC0D26
:10138600FF3E031DC02927082902031DCC29260874
:101396002802031CCF29D029D8292608A802270805
:1013A600031CA903A9022B14D82901300310A70C8A
:1013B600A60CFF3E031DD9290130AD02031DE42909
:1013C600E529BF29E729E7292C08A701A7072B0844
:1013D600A601A607EE290800831203130714871433
:1013E600A508031DF729F829FF290B300A168A11CB
:1013F60009250A128A15062A09300A168A110925AC
:101406000A128A15062A8312031307108710A801E9
:10141600A901232A0715000083120313071162305E
:10142600A7006530A600A60B162AA70B162A1B2AAC
:10143600013083120313A8070318A90A0030A9076D
:1014460024082902031D292A23082802031C2C2A02
:101456002D2A0D2A0714871400300A168A11092529
:101466000A128A1583120313071087100715000046
:10147600831203130711080083160313D301031401
:10148600D30D083083120313A3000030A400A50176
:101496000A128A15EF210A128A15512AF01F542AB8
:1014A600552A892AF0130A128A11C3250A128A15A7
:1014B600892A892AFD01512AFD01512A0130831208
:1014C6000313A3000030A400A5010314A50D0A12FE
:1014D6008A15EF210A128A15FD01512A013083125D
:1014E6000313A3000030A400A5010A128A15EF21F8
:1014F6000A128A15FD01512A83160313C601C70174
:10150600FD01D3019C2A9C2A512A512A7D08013AC1
:1015160003195D2A033A03195F2A013A0319612A5E
:10152600073A0319712A013A03197F2A512A512AC7
:10153600512A080083120313A601A31FA32AA42A73
:10154600AD2AA209A309A20A0319A30AA601031434
:10155600A60DAD2AA11FB02AB12AB72AA009A10952
:10156600A00A0319A10AB72A210820040319BC2AD4
:10157600BD2AF32AA5010314A50DCD2A01300310B7
:10158600A00DA10DFF3E031DC22A0130A4002408B0
:10159600A507CD2AA11FD02AD12AC12AD32AD32A08
:1015A60021082302031DD92A20082202031CDC2A53
:1015B600DD2AE42A2008A2022108031CA303A302B1
:1015C600E42A01300310A10CA00CFF3E031DE52AFE
:1015D6000130A502031DF02AF12AD32AF32AF32AA1
:1015E6002608031DF72AFD2AA209A309A20A031940
:1015F600A30AFD2A2308A101A1072208A001A0072A
:10160600042B0800831203132308803AFF0080305E
:101616007F02031D102B01302202031C132B142BF7
:10162600332B89300A168A115D250A128A15003075
:101636000A168A115D250A128A15C8300A168A11F9
:101646005D250A128A1500300A168A115D250A12CE
:101656008A1501300A168A115D250A128A15782B19
:1016660083120313A31F382B392B582B89300A16E4
:101676008A115D250A128A1500300A168A115D251F
:101686000A128A15C8300A168A115D250A128A15A9
:10169600FF300A168A115D250A128A15FF300A16CE
:1016A6008A115D250A128A15782B89300A168A1145
:1016B6005D250A128A1500300A168A115D250A125E
:1016C6008A1500300A168A115D250A128A1500301D
:1016D6000A168A115D250A128A1500300A168A1121
:1016E6005D250A128A15782B782B080083120313BE
:1016F600B001B101B401B501B201B301B601B70140
:101706003708803AFF0080307F02031D8C2B08309B
:101716003602031C8F2B902B922BC82BC82B0A1634
:101726008A1147250A128A15831203132908B5015F
:10173600B5072808B401B40703303502E9300319A8
:1017460034020318A72BA82BB42B3408B0070318B0
:10175600B10A3508B1070130B2070318B30A0030E1
:10176600B3070130B6070318B70A0030B7073708C2
:10177600803AFF0080307F02031DC32B08303602FB
:10178600031CC62BC72B922BC82B831203133308BB
:10179600A701A7073208A601A6073108A901A907CC
:1017A6003008A801A8070A128A159F210A128A156D
:1017B600831203132708ED01ED072608EC01EC0759
:1017C6000A128A1115200A128A15831203136D084C
:1017D60083160313B101B107831203136C08831632
:1017E6000313B001B0070800831203130619FC2B7C
:1017F600FD2B112C0130F200720883160313D1075A
:101806000A305102031C082C092C152C711E0C2CB5
:101816000D2C152CF1157112152C152C831603138E
:10182600D10171168312031386191A2C1B2C2F2C27
:101836000130F200720883160313CD070A304D02F9
:10184600031C262C272C332CF01D2A2C2B2C332C56
:101856007015F011332C332C83160313CD01F015BC
:1018660083120313061A382C392C4D2C0130F20042
:10187600720883160313CE070A304E02031C442C4B
:10188600452C512CF01E482C492C512C7016F01268
:10189600512C512C83160313CE01F0168312031319
:1018A600861A562C572C6B2C0130F20072088316C0
:1018B6000313D0070A305002031C622C632C6F2CD2
:1018C600711D662C672C6F2CF11471116F2C6F2C07
:1018D60083160313D001711583120313061B742C90
:1018E600752C892C0130F200720883160313CA077F
:1018F6000A304A02031C802C812C8E2CF01C842C6E
:10190600852C8E2C7014F0108E2C8E2C83160313BF
:10191600CA01F0148E2C080083160313BA01BB010A
:1019260083120313E001E1015A08A301A307590832
:10193600A201A2070A128A1505230A128A15F62C95
:1019460001300A128A15E2260A128A158312031337
:10195600EE08031DAF2CB02CB72C831603135208C8
:10196600031DB62CBD2CB72C83160313CF0103140D
:10197600CF0D2B2D480883120313DD00DE015D0811
:10198600E0005E08E1006108DE006008DD005D0839
:10199600DE00DD015D08E0005E08E100831603134A
:1019A600490883120313DD00DE015D08E007031812
:1019B600E10A5E08E107600883160313BA070318F5
:1019C600BB0A83120313610883160313BB073B0884
:1019D600B301B3073A08B201B2070A128A11C32546
:1019E6000A128A15F62C831603133B088312031377
:1019F600A701A707831603133A0883120313A60148
:101A0600A6070A168A1113270A128A1583120313C8
:101A16002608DD002708DE005A08A701A70759088F
:101A2600A601A6070A168A1113270A128A15831217
:101A360003135E08803ADF002708803A5F02031D21
:101A4600262D26085D02031C292D2A2DA32C2B2DBD
:101A5600003083120313A2000030A3000A128A1575
:101A660005230A128A1508000B1D3A2D3B2D8A2DD7
:101A76000B1164308100013083160313B607031877
:101A8600B70A0030B7077017FA30F2000030F300DB
:101A96003708F501F5073608F401F4070A168A1126
:101AA600BC270A128A1573087204031D5B2D5C2D70
:101AB6005E2DF0175E2DF430F2000130F300831630
:101AC60003133708F501F5073608F401F4070A167B
:101AD6008A11BC270A128A1573087204031D742D15
:101AE600752D7B2D711483120313013086067B2D11
:101AF600FD08031D7F2D802D8A2D0A168A11E326E7
:101B06000A128A15F8007808FD008A2D8A2D83129C
:101B160003138C1E8F2D902DAC2D1A08F8008316FA
:101B260003135608A03E84007808831380005608E5
:101B3600013E0F39F8007808D800580857060319EF
:101B4600A52DA62DAC2D5808F8007808D600AC2D8A
:101B5600AC2D83120C1EB02DB12DD62D831603137A
:101B66000C1EB62DB72DD62D5B08A03E840083171C
:101B760000088312031399000130F80078088316D1
:101B86000313DB070F30F8007808DB055B088312C8
:101B960003136F06031DD02DD12DD62D83160313E7
:101BA6000C12D62DD62D7C088312FF007B088A00E6
:101BB6007A088400790E8300FE0E7E0E09008312D9
:101BC6000313C3003530B9003908BC00C82E4408D9
:101BD600253A0319EF2DF02DFC2D4408B9004308D2
:101BE60084003908831380000130B9003908C3071F
:101BF600C82EBD01032EDC2E182E182EC82E182E28
:101C06000130B407FF30340784000A128A150A200F
:101C16000A128A15C400003A0319DC2E643A031925
:101C2600182E0D3A0319182EC82E3C08840083136B
:101C36000008BF00840A0008C0000230B900390855
:101C4600BC07C01F272E282E322E0330B9003908B4
:101C5600BD04BF09C009BF0A0319C00A322EC40158
:101C66000314C40D4408053A031D3A2E3B2E3D2E9F
:101C7600652E652E4408B9003907013E84000A1214
:101C86008A150A200A128A15BA000A128A150A202B
:101C96000A128A15BB003B084002031D542E3A085F
:101CA6003F020318572E582E5A2E652E652E0130E8
:101CB600B9003908C4074408053A031D632E642E8B
:101CC6003D2E652E3D08033903196A2E6B2E772E9D
:101CD6002D30B90043088400390883138000013091
:101CE600B9003908C307772E4408B9003908BE0081
:101CF600BC2E0A30AE000030AF003E08B9003907EE
:101D0600013E84000A128A150A200A128A15A600C4
:101D16000A128A150A200A128A15A7004008A90184
:101D2600A9073F08A801A8070A128A159F210A12C7
:101D36008A15831203132708B101B1072608B001DB
:101D4600B0070A128A15CC200A128A1583120313C9
:101D56002E08303EBA003A08C4004408B9004308C9
:101D660084003908831380000130B9003908C3079D
:101D7600BC2EFF30B9003908BE073E08FF3A031DE6
:101D8600C52EC62E7C2EC82EC82E0130B407FF30B5
:101D9600340784000A128A150A200A128A15B90025
:101DA6003908C400C408031DD92EDA2EEA2DDC2E0C
:101DB600DC2E4308840083138001E12E0800831281
:101DC6000313A4008E300A168A115D250A128A159D
:101DD60007300A168A115D250A128A1521308312E8
:101DE6000313A3007630A200A20BF72EA30BF72E47
:101DF60064000A168A112E260A128A158312031304
:101E0600A2002208EE008E300A168A115D250A12FB
:101E16008A150D300A168A115D250A128A15213097
:101E260083120313A3007630A200A20B182FA30B74
:101E3600182F64000A168A112E260A128A15831292
:101E46000313A200220883160313D200831203137E
:101E5600A408031D2F2F302F602F8E300A168A11EB
:101E66005D250A128A1513300A168A115D250A1293
:101E76008A15213083120313A3007630A200A20B29
:101E8600422FA30B422F64000A168A112E260A122D
:101E96008A1583120313A200220883160313CB00AC
:101EA6000A168A112E260A128A1583120313A20015
:101EB600220883160313CC00FF2F83122408013A4D
:101EC600031D662F672F972F8E300A168A115D2500
:101ED6000A128A1514300A168A115D250A128A1505
:101EE600213083120313A3007630A200A20B792FB0
:101EF600A30B792F64000A168A112E260A128A1558
:101F060083120313A200220883160313C8000A16BD
:101F16008A112E260A128A1583120313A20022089A
:101F260083160313C900FF2F83122408023A031DE8
:101F36009D2F9E2FFF2F8E300A168A115D250A12BD
:101F46008A1513300A168A115D250A128A15213060
:101F560083120313A3007630A200A20BB02FA30BAB
:101F6600B02F64000A168A112E260A128A158312C9
:101F76000313A200220883160313CB000A168A1144
:101F86002E260A128A1583120313A200220883162C
:101F96000313CC008E300A168A115D250A128A15A3
:101FA60014300A168A115D250A128A152130831209
:101FB6000313A3007630A200A20BDF2FA30BDF2FA3
:101FC60064000A168A112E260A128A158312031332
:101FD600A200220883160313C8000A168A112E26A9
:101FE6000A128A1583120313A2002208831603130A
:0A1FF600C900FF2FFF2FFF2F080086
:1029960083120313A300A31723080A168A111D2501
:1029A6000A168A11080053344A3465346E345C348E
:1029B6004134923496347E348A349A348E343C349C
:1029C60083120313A2000911891009142208880032
:1029D600091509110730A1007D30A000A00BF12CCC
:1029E600A10BF12C08007E088A007F0882000A16D7
:1029F6008A11F6240A168A118000840A04087D06C4
:102A060003190034FF0A0319FE0AFA2C8312031372
:102A1600A200A1018C1122089300112D8C1D142DEA
:102A2600152D112D162D1308A0002008A1008C11BC
:102A36001C2D080083120313A20009118910091026
:102A460022088800091509110D30A100FB30A000ED
:102A5600A00B2B2DA10B2B2D302D08008312031359
:102A660085013F30831603138500A13083120313BB
:102A76009F000230831603139F0053308312031303
:102A8600A000A00B442D080000300A168A118127E9
:102A96000A168A1183120313AA00AB012A08AC0096
:102AA6002B08AD002D08A901A9072C08A801A80725
:102AB6005C2D080083120313A100622D622D831280
:102AC6006F08013E0F39831603135B0603196C2D3D
:102AD6006D2D622D8B13831203132108A0006F083E
:102AE600A03E84002008831780006F08013E0F393E
:102AF600A0002008EF00831603130C168B1708009E
:102B0600831203139E011F15882D1F198B2D8C2DE3
:102B1600882D000000000000831203131E08A20087
:102B2600A3012208A4002308A50001300310A40D68
:102B3600A50DFF3E031D992D831603131E08831250
:102B460003132508A101A1072408A001A007AB2DA6
:102B560008000230831603139F00831203138801B3
:102B66008901831603138801890101300A168A1127
:102B76001D250A168A1138300A168A111D250A16CD
:102B86008A110C300A168A111D250A168A1106307A
:102B96000A168A111D250A168A1102300A168A118A
:102BA6001D250A168A110800F001F101FD01EC014C
:102BB600ED01EE01EF018313A0308400DC300A1230
:102BC6008A11F7270A168A11831790308400B030CD
:102BD6000A128A11F7270A168A118313E930FD00B3
:102BE6001430FE00D630FF00DC3084000A168A114D
:102BF600FA240A168A1183010A128A11382A8312C4
:102C06000313A401A501072E201C0A2E0B2E112E3C
:102C16002208A4070318A50A2308A50701300310F4
:102C2600A20DA30DFF3E031D122E01300310A10CB1
:102C3600A00CFF3E031D192E21082004031D242E7F
:102C4600252E072E262E2508A101A1072408A0015E
:102C5600A0072D2E0800302E302E0A128A15B3201A
:102C66000A168A11031C382E392E302E8B13831622
:102C760003135708A03E840083130008831203132E
:102C8600A0002008A1000130A0002008831603132D
:102C9600D7070F3083120313A000200883160313EF
:102CA600D7058B17831203132108592E0800742E9B
:102CB600831203132808FF00270884000A128A15C6
:102CC60000200A168A110A168A11E3240A168A11A6
:102CD600013083120313A7070318A80A0030A807B8
:102CE600742E831203132808FF00270884000A1293
:102CF6008A1500200A168A110038031D832E842E99
:102D06005B2E852E0800831603138717BF308312A8
:102D16000313A00020088316031387051815143023
:102D2600990018138312031318138316031318122A
:102D36008312031398171816831603130C128C1696
:102D460098160030DB0083120313EF00831603137B
:102D5600D70083120313A000200883160313D6009E
:102D66000800FD01FC3083160313860090308312A1
:102D76000313A3002308831603138705403094002A
:102D8600A1308312031394000430831603138100C9
:102D96000A168A1186260A168A110A168A113125FA
:102DA6000A168A110A168A11AC250A168A110A12FF
:102DB6008A11DE270A168A118B160B178B17080045
:102DC6000A128A15F7230A168A11F11DEB2EEC2E2C
:102DD600F02EF1110130122F122F701DF32EF42E4A
:102DE600F82E70110230122F122F701EFB2EFC2EA1
:102DF600002F70120330122F122FF11C032F042FF5
:102E0600082FF1100430122F122F701C0B2F0C2FCD
:102E1600102F70100530122F122F0030122F0800BD
:102E2600003083120313A71B0130A800A901A809CB
:102E3600A909A80A0319A90A2708803AFF008030C1
:102E46007F02031D282F01302602003003180130AF
:102E5600831203132807A00029080318290AA100D2
:102E66002708A301A3072608A201A2070A168A11AA
:102E760002260A168A11831203132108A701A7073F
:102E86002008A601A607472F08008312031322086D
:102E9600A6002608A7002308A6002608A8002408DE
:102EA600A6002608A9002508A6002608AA0089303B
:102EB6000A168A115D250A168A1183120313280839
:102EC6000A168A115D250A168A118312031327082A
:102ED6000A168A115D250A168A11831203132A0817
:102EE6000A168A115D250A168A1183120313290808
:102EF6000A168A115D250A168A1108008312031321
:102F0600A7009D2F9F111F129F12AE2F9F151F12F4
:102F16009F12AE2F9F111F169F12AE2F9F151F16C1
:102F26009F12AE2F9F111F129F16AE2F0030BB2F80
:102F3600BB2FAE2F2708003A0319852F013A031934
:102F4600892F033A03198D2F013A0319912F073A56
:102F56000319952F992F5330A600A60BB02F0A16EA
:102F66008A1183250A168A11831203132008BB2FA0
:102F76000800730872040319C12FC22FF82FF70136
:102F86000314F70DD22F01300310F20DF30DFF3E9F
:102F9600031DC72F0130F6007608F707D22FF31F5F
:102FA600D52FD62FC62FD82FD82F73087502031DFD
:102FB600DE2F72087402031CE12FE22FE92F72083C
:102FC600F4027308031CF503F502E92F0130031020
:102FD600F30CF20CFF3E031DEA2F0130F702031D2E
:102FE600F52FF62FD82FF82FF82F7508F301F307D2
:0A2FF6007408F201F207FF2F080033
:02400E0032FF7F
:00000001FF
