:060000000A128A11122809
:10000800FE00030EF9000408FA000A08FB00831238
:1000180003137F08FC000A168A15562F0A168A153C
:100028006A2983160313B001B10183120313E50192
:10003800E6016108AA01AA076008A901A907FF301B
:10004800AB007F30AC000A168A1524230A128A11E5
:1000580083160313C901193083120313A300003058
:10006800A400A5010A168A15B6240A128A110A16CE
:100078008A15DF260A128A11831603132F088312A2
:100088000313E801E807831603132E0883120313EA
:10009800E701E7074F280A168A15DF260A128A1190
:1000A800831603132F08831203136802031D6228A3
:1000B800831603132E088312031367020318652897
:1000C8006628902867080F3EE20068080318013E7A
:1000D800003EE3006308831603132F02031D7A28EA
:1000E800831203136208831603132E0203187D2854
:1000F8007E289028831203136108AA01AA076008C2
:10010800A901A907A430AB000630AC000A168A156D
:1001180024230A128A1118298312031368088316E4
:1001280003132F02031D9E288312031367088316E7
:1001380003132E020318A128A228CE288312031322
:100148006708F13EE20068080318013EFF3EE3003D
:10015800831603132F08831203136302031DBA289F
:10016800831603132E088312031362020318BD2893
:10017800BE28CE286108AA01AA076008A901A90714
:100188005C30AB00F930AC000A168A1524230A1239
:100198008A111829831203136708CE3EE200680803
:1001A8000318013EFF3EE300831603132F08831252
:1001B80003136302031DE628831603132E08831214
:1001C800031362020318E928EA280D2A67080F3E7C
:1001D800E20068080318013E003EE3006308831646
:1001E80003132F02031DFE288312031362088316CC
:1001F80003132E02031C0129022905290D2A0D2AA1
:100208001829831203136108AA01AA076008A90123
:10021800A907FF30AB007F30AC000A168A152423EB
:100228000A128A111829182902300A168A11332548
:100238000A128A11831603134208031D2429392937
:10024800003083120313A9000030AA00FF30AB006E
:100258007F30AC000A168A1524230A128A118316E5
:100268000313C9010314C90D0D2A4E08031D3D29A6
:100278005529003083120313A9000030AA00FF306B
:10028800AB007F30AC000A168A1524230A128A11A3
:10029800023083120313E200620883160313C900B5
:1002A8000D2A4408031D5929712938308312031374
:1002B800A900FF30AA00FF30AB007F30AC000A165F
:1002C8008A1524230A128A11033083120313E200C9
:1002D800620883160313C9000D2A4D08FF3A031953
:1002E800762977298F29003083120313A90000305B
:1002F800AA00FF30AB007F30AC000A168A15242311
:100308000A128A11043083120313E200620883166A
:100318000313C9000D2A7D0883120313E200E301C9
:100328006208E9006308EA006A08E3006908E20075
:100338006208E300E2016208E9006308EA00831644
:100348000313450883120313E200E3016208E90777
:100358000318EA0A6308EA07690883160313B20751
:100368000318B30A831203136A0883160313B30727
:1003780083120313690883160313AC070318AD0A25
:10038800831203136A0883160313AD074008831208
:100398000313E200E3016208E9006308EA006A085F
:1003A800E3006908E2006208E300E2016208E9008C
:1003B8006308EA0083160313410883120313E2005B
:1003C800E3016208E9070318EA0A6308EA0769080B
:1003D80083160313B0070318B10A831203136A08BC
:1003E80083160313B1074B0883120313E200E301DA
:1003F800620883160313A600831203136308831687
:100408000313A7000A128A157B250A128A114F289E
:100418004F2883160313B001B101F02A0330831269
:100428000313A0000030A1006108A301A30760081E
:10043800A201A2070A168A1569260A128A118312CE
:1004480003132108AA01AA072008A901A9077030E7
:10045800AB00FE30AC000A168A1524230A128A1152
:100468009C3083120313E500FF30E6000C2B831247
:100478006108AA01AA076008A901A9070C30AB0006
:10048800FE30AC000A168A1524230A128A11473056
:1004980083120313E500FF30E6000C2B831261087A
:1004A800AA01AA076008A901A9077030AB00FE30AD
:1004B800AC000A168A1524230A128A11A630831260
:1004C8000313E500FF30E6000C2B83126108AA0134
:1004D800AA076008A901A9070C30AB00FE30AC00E0
:1004E8000A168A1524230A128A114230831203132A
:1004F800E500FF30E6000C2B83126108AA01AA0769
:100508006008A901A9073E30AB00FE30AC000A160E
:100518008A1524230A128A11473083120313E5002F
:10052800FF30E6000C2B83126108AA01AA076008B5
:10053800A901A9070C30AB00FE30AC000A168A15D9
:1005480024230A128A11423083120313E500FF3074
:10055800E6000C2B58308312D7000230D800C83080
:10056800D9000030DA000A168A113C240A128A11CE
:1005780083120313E501E6010C2B83126108AA011B
:10058800AA076008A901A9070C30AB00FE30AC002F
:100598000A168A1524230A128A1142308312031379
:1005A800E500FF30E6000C2B83126108AA01AA07B8
:1005B8006008A901A9077030AB00FE30AC000A162C
:1005C8008A1524230A128A11B53083120313E50011
:1005D800FF30E6000C2B0C2B831603134B08033A51
:1005E8000319122A043A03193B2A0D3A0319522A0D
:1005F800013A0319692A073A0319802A033A0319A9
:10060800972A1C3A0319AE2A073A0319C12AD82A8D
:1006180019308312A3000030A400A5010314A50D0E
:100628000A168A15B6240A128A11F02B02300A1605
:100638008A1133250A128A11831603134208031DEF
:10064800262B3B2B003083120313A9000030AA008D
:10065800FF30AB007F30AC000A168A1524230A123B
:100668008A1183160313C9010314C90D252C4E08DA
:10067800031D3F2B572B003083120313A9000030B2
:10068800AA00FF30AB007F30AC000A168A1524237D
:100698000A128A11023083120313E20062088316D9
:1006A8000313C900252C4408031D5B2B642B03305E
:1006B80083120313E200620883160313C900252C72
:1006C8004D08FF3A0319692B6A2B822B00308312DD
:1006D8000313A9000030AA00FF30AB007F30AC0044
:1006E8000A168A1524230A128A1104308312031366
:1006F800E200620883160313C900252C4008831200
:100708000313E200E3016208E9006308EA006A08EB
:10071800E3006908E2006208E300E2016208E90018
:100728006308EA0083160313410883120313E200E7
:10073800E3016208E9070318EA0A6308EA07690897
:1007480083160313B0070318B10A831203136A0848
:1007580083160313B1077D0883120313E200E30134
:100768006208E9006308EA006A08E3006908E20031
:100778006208E300E2016208E9006308EA00831600
:100788000313450883120313E200E3016208E90733
:100798000318EA0A6308EA07690883160313B2070D
:1007A8000318B30A831203136A0883160313B307E3
:1007B80083120313690883160313AC070318AD0AE1
:1007C800831203136A0883160313AD070A128A15E6
:1007D8007B250A128A11F02B831603133108831222
:1007E8000313A701A7078316031330088312031303
:1007F800A601A6070A168A15EF220A128A11831281
:1008080003132608E2002708E3006608A701A707E4
:100818006508A601A6070A168A15EF220A128A1188
:10082800831203136308803AE4002708803A6402BD
:10083800031D202C26086202031C232C242C1A2BAF
:10084800252C83160313490883120313E200E301DE
:10085800620883160313A600831203136308831622
:100868000313A7000A128A157B250A128A110800A9
:1008780083160313B201B301143083120313E40087
:100888006408EA006108AA01AA076008A901A90783
:10089800FF30AB007F30AC000A168A1524230A12F9
:1008A8008A1183160313C901592C83120313630891
:1008B800803AFF0080307F02031D642CBA30620248
:1008C800031C672C682CAA2C8D300A168A159322D3
:1008D8000A128A1100300A168A1593220A128A11FE
:1008E800463083120313D7000030D8009030D90067
:1008F8000130DA000A168A1138210A128A11643086
:1009080083120313D7000030D800C830D900003054
:10091800DA000A168A113C240A128A11BA308312A4
:100928000313D700FF30D8009030D9000130DA0027
:100938000A168A1138210A128A110A168A15DF2620
:100948000A128A1183160313C901582F831203133D
:100958006308803AFF0080307F02031DB52C6530A4
:100968006202031CB82CB92CC22CFF30831203136B
:10097800E2070318E30AFF30E307C22C83120313CC
:100988006308803AFF0080307F02031DCD2C64305D
:1009980062020318D02CD12CDA2C013083120313F5
:1009A800E2070318E30A0030E307DA2C0A168A156F
:1009B800DF260A128A11831603132F0883120313E2
:1009C8006302031DED2C831603132E0883120313F1
:1009D80062020318F02CF12C3A2D6A086207E40031
:1009E80063080318630AE5006508831603132F02DA
:1009F800031D042D831203136408831603132E02A8
:100A08000318072D082D3A2D5108013A031D0D2D05
:100A18000E2D202D831203136108AA01AA0760086E
:100A2800A901A9075C30AB00F930AC000A168A1599
:100A380024230A128A11202D83160313D108031DBB
:100A4800262D272D302E831203136108AA01AA0729
:100A58006008A901A907A430AB000630AC000A164B
:100A68008A1524230A128A11302E302E831203137A
:100A78006308831603132F02031D482D83120313E3
:100A88006208831603132E0203184B2D4C2DA42D38
:100A9800831203136A08E400E501E409E509E40A9E
:100AA8000319E50A62086407E60063080318630A85
:100AB8006507E700831603132F08831203136702E1
:100AC800031D6C2D831603132E088312031366026D
:100AD80003186F2D702DA42D831603135108013AA6
:100AE800031D772D782D8A2D831203136108AA011F
:100AF800AA076008A901A907A430AB000630AC001A
:100B08000A168A1524230A128A118A2D83160313BA
:100B1800D108031D902D912D302E831203136108E7
:100B2800AA01AA076008A901A9075C30AB00F9303F
:100B3800AC000A168A1524230A128A11302E302E88
:100B4800831203136A08E400E501E409E509E40AED
:100B58000319E50A62086407E60063080318630AD4
:100B68006507E700831603132F0883120313670230
:100B7800031DC42D831603132E0883120313660264
:100B88000318C72DC82DE02D6A086207E400630822
:100B98000318630AE5006508831603132F02031D73
:100BA800DB2D831203136408831603132E02031C20
:100BB800DE2DDF2D1D2EE02D0A308312A30000301C
:100BC800A400A5010314A50D0A168A15B6240A1255
:100BD8008A110A168A15DF260A128A110A30831228
:100BE8000313A3000030A400A5010A168A15B62431
:100BF8000A128A110030831603132F0232300319A8
:100C08002E020318082E092E122E0B3083120313FE
:100C1800E400640883160313C900582F0A308312AE
:100C28000313E400640883160313C900582F582FD0
:100C3800302E831203136108AA01AA076008A901CC
:100C4800A907FF30AB007F30AC000A168A152423B1
:100C58000A128A11302E302E00300A168A113325D6
:100C68000A128A11831603134208031D3C2E512EC3
:100C7800003083120313A9000030AA00FF30AB0034
:100C88007F30AC000A168A1524230A128A118316AB
:100C98000313C9010314C90D582F4E08031D552EFF
:100CA8006D2E003083120313A9000030AA00FF3014
:100CB800AB007F30AC000A168A1524230A128A1169
:100CC800023083120313E400640883160313C90077
:100CD800582F4408031D712E892E383083120313B0
:100CE800A900FF30AA00FF30AB007F30AC000A1625
:100CF8008A1524230A128A11033083120313E4008D
:100D0800640883160313C900582F4D08FF3A0319C6
:100D18008E2E8F2EA72E003083120313A9000030C9
:100D2800AA00FF30AB007F30AC000A168A152423D6
:100D38000A128A11043083120313E400640883162C
:100D48000313C900582F7D0883120313E400E5013B
:100D58006408E8006508E9006908E5006808E40037
:100D68006408E500E4016408E8006508E900831602
:100D78000313450883120313E400E5016408E80738
:100D88000318E90A6508E907680883160313B20718
:100D98000318B30A83120313690883160313B307EE
:100DA80083120313680883160313AC070318AD0AEC
:100DB80083120313690883160313AD073F08803AAB
:100DC800FF0080307F02031DEB2E01303E02031C22
:100DD800EE2EEF2E402F831603132C08FE3E8312AF
:100DE8000313E400831603132D080318013EF73E8E
:100DF80083120313E5006508803AE600831603139F
:100E08003F08803A831203136602031D112F8316CD
:100E180003133E08831203136402031C142F152FB7
:100E2800402F503083120313D7000030D800903081
:100E3800D9000130DA000A168A1138210A128A11FB
:100E4800903083120313D7000130D800C830D9007E
:100E58000030DA000A168A113C240A128A11831615
:100E68000313BE01BF01013083120313E4006408B9
:100E780083160313CB07582F831603134B088312CB
:100E88000313E400E501640883160313A600831224
:100E98000313650883160313A7000A128A157B2516
:100EA8000A128A11592C592C831603134B088312E2
:100EB8000313E400E501640883160313A6008312F4
:100EC8000313650883160313A7000A128A157B25E6
:100ED8000A128A11080083120313A401A5018E3097
:100EE8000A168A1593220A128A1119300A168A15C7
:100EF80093220A128A11213083120313A300763039
:100F0800A200A20B852FA30B852F64000A168A1551
:100F18003B220A128A1183120313A2002208FD0041
:100F28000A168A153B220A128A1183120313A20099
:100F3800220883160313C5008E300A168A159322D9
:100F48000A128A1115300A168A1593220A128A1172
:100F5800213083120313A3007630A200A20BB22F14
:100F6800A30BB22F64000A168A153B220A128A11B3
:100F780083120313A200A301220883160313A200FD
:100F880083120313230883160313A3007D08831217
:100F98000313A200A3012208A4002308A500250822
:100FA800A3002408A2002208A300A2012208A4008A
:100FB8002308A50083160313450883120313A20010
:100FC800A3012208A4070318A50A2308A5072508D2
:100FD80083160313A101A1078312031324088316A0
:100FE8000313A001A007080064008001840A040616
:100FF800031900340406F92F0A168A1585250A12E2
:101008008A150D3083120313D900AF30D800C130D0
:10101800D700D70B0D28D80B0D28D90B0D28640045
:10102800193083120313A3000030A400A5010A1687
:101038008A15B6240A128A1508004E28AF30831282
:101048000313D7000030D8009030D9000130DA00FF
:101058000A168A1138210A128A158429AF30831298
:101068000313D7000030D8009030D9000130DA00DF
:101078000A168A1138210A128A15C83083120313F6
:10108800E0000030E1000A128A1115200A128A15C0
:1010980084298429831603134B08073A0319222845
:1010A800083A031932288429842967290A168A15D7
:1010B800DF260A128A15C83083120313E0000030B5
:1010C800E100831603132F0883120313E301E307D8
:1010D800831603132E0883120313E201E2070A1290
:1010E8008A113C240A128A158429093083120313B1
:1010F800EB006B0883160313C90084298D300A1688
:101108008A1593220A128A1500300A168A15932224
:101118000A128A15093083120313EB006B08831631
:101128000313C9008429093083120313EB006B08E9
:1011380083160313C9008429C9018429842901302D
:1011480083120313EB006B0883160313CB075108B4
:10115800013A031DB028B128BD28C83083120313F3
:10116800E0000030E1000A128A1115200A128A15DF
:10117800BD2883160313D108031DC328C428CA2811
:101188000A168A11A3220A128A15CA28831603137B
:101198004B08113A031DD128D228D9282D08BF01A0
:1011A800BF072C08BE01BE07D9284B08153A031DF6
:1011B800DE28DF28E128842984290A168A15DF26F3
:1011C8000A128A15C83083120313E0000030E100C8
:1011D800831603132E08F63E83120313E2008316C8
:1011E80003132F080318013EFF3E83120313E30085
:1011F8000A128A113C240A128A15842901308312A2
:101208000313EB006B0883160313CB075108013A4D
:10121800031D0F29102916290A168A11A3220A125A
:101228008A15162983160313D108031D1C291D29A5
:101238002829C83083120313E0000030E1000A12A5
:101248008A1115200A128A150A168A15DF260A122B
:101258008A15C83083120313E0000030E1008316BA
:1012680003132F0883120313E301E3078316031301
:101278002E0883120313E201E2070A128A113C24A2
:101288000A128A1584290A168A15DF260A128A156F
:10129800C83083120313E0000030E1008316031303
:1012A8002F0883120313E301E307831603132E08A1
:1012B80083120313E201E2070A128A113C240A127C
:1012C8008A1584298429831603134908003A0319C7
:1012D8005A28013A03197928033A03198228013A4E
:1012E80003199728073A0319A0280D3A03198429E6
:1012F800033A0319A328013A031902294729842923
:10130800831603134908093A031D8B298C29672979
:101318008D29080083120313BD002F30B300330852
:10132800B600262B4008253A03199B299C29A82991
:101338004008B3003D08840033088313800001305F
:10134800B3003308BD07262BBE01BF01B8012E0824
:1013580084000A168A110A200A128A150A168A15A2
:1013680021210A128A15031CBA29BB29052A8312CE
:101378000313BE01BF01C029831203133F08A10153
:10138800A1073E08A001A0070A30A2000030A30070
:101398000A168A150F220A128A15831203132E08B9
:1013A80084000A168A110A200A128A152007B30037
:1013B8000030031801302107B4003308D03EBE00C6
:1013C80034080318013EFF3EBF000130B300330864
:1013D800AE072E0884000A168A110A200A128A15F6
:1013E8000A168A1521210A128A150318FC29FD29D3
:1013F800C029052A052A052A3C2B1C2A1C2A262B2B
:101408001C2A013083120313AE07FF302E07840015
:101418000A168A110A200A128A15C000003A03190E
:101428003C2B643A03191C2A0D3A03191C2A262B53
:10143800831203133608840083130008B900840A52
:101448000008BA000230B3003308B607BA1F2D2AC5
:101458002E2A382A0330B3003308B804B909BA0968
:10146800B90A0319BA0A382AC0010314C00D400882
:10147800053A031D402A412A432A6B2A6B2A400851
:10148800B3003307013E84000A168A110A200A12A3
:101498008A15B4000A168A110A200A128A15B5009C
:1014A80035083A02031D5A2A3408390203185D2AFE
:1014B8005E2A602A6B2A6B2A0130B3003308C00702
:1014C8004008053A031D692A6A2A432A6B2A3F08FD
:1014D8003E040319702A712A7D2A38080339031932
:1014E800762A772A7D2AFF30BE070318BF0AFF3005
:1014F800BF074008B300B401B31BB4033408803AF3
:10150800B5003F08803A3502031D8C2A3E08330295
:1015180003188F2A902A9E2A831203134008B300C7
:10152800B401B31BB4033308BE023408031CBF0361
:10153800BF02A32A83120313BE01BF01A32A3F08D7
:101548003E040319A82AA92AC32AAA2A2030B300CC
:101558003D0884003308831380000130B30033084A
:10156800BD07FF30BE070318BF0AFF30BF073F089B
:101578003E04031DC02AC12AAA2AC32AC32A38083E
:1015880003390319C82AC92AD52A2D30B3003D08C2
:1015980084003308831380000130B3003308BD078B
:1015A800D52A4008B3003308B7001A2B0A30A80020
:1015B8000030A9003708B3003307013E84000A163B
:1015C8008A110A200A128A15A0000A168A110A200E
:1015D8000A128A15A1003A08A301A3073908A20133
:1015E800A2070A168A11E8200A128A158312031321
:1015F8002108AB01AB072008AA01AA070A168A1519
:10160800DC230A128A15831203132808303EB4001B
:101618003408C0004008B3003D0884003308831331
:1016280080000130B3003308BD071A2BFF30B30028
:101638003308B7073708FF3A031D232B242BDA2A70
:10164800262B262B013083120313AE07FF302E07FB
:1016580084000A168A110A200A128A15B300330870
:10166800C000C008031D392B3A2B96293C2B3C2B74
:10167800831203133D08840083138001432B080061
:10168800712D542D0A168A15DF260A128A15C830BC
:1016980083120313E0000030E100831603132F08C0
:1016A80083120313E301E307831603132E0883123F
:1016B8000313E201E2070A128A113C240A128A156E
:1016C800712D831603134B080A3A031D6C2B6D2BDF
:1016D800B52B383083120313A900FF30AA00FF305E
:1016E800AB007F30AC000A168A1524230A128A152B
:1016F800063083120313ED001330EC00B130EB0019
:10170800EB0B842BEC0B842BED0B842B8B2B0130F8
:1017180083120313EB006B0883160313CB07C9016D
:101728003008B53E83120313EB0083160313310808
:101738000318013EFF3E83120313EC00EB09EC098A
:10174800EB0A0319EC0A6B08D7006C08D800903034
:10175800D9000130DA000A168A1138210A128A15CE
:10176800712D093083120313EB006B0883160313E2
:10177800C900712D712D8D300A168A1593220A120F
:101788008A1500300A168A1593220A128A153830EB
:1017980083120313A900FF30AA00FF30AB007F308B
:1017A800AC000A168A1524230A128A1506308312F9
:1017B8000313ED001330EC00B130EB00EB0BE22B20
:1017C800EC0BE22BED0BE22BE92BB4308312031365
:1017D800D7000030D8009030D9000130DA000A165E
:1017E8008A1138210A128A1583160313C901712D2B
:1017F800013083120313EB006B0883160313CB0726
:10180800C9011A3083120313ED005E30EC008630F4
:10181800EB00EB0B0D2CEC0B0D2CED0B0D2C6400E1
:10182800383083120313D700FF30D8003830D9007E
:10183800FF30DA000A168A113C240A128A15831628
:10184800031330080A3E83120313EB0083160313B5
:1018580031080318013E003E83120313EC00EB0924
:10186800EC09EB0A0319EC0A6B08D7006C08D800DE
:101878009030D9000130DA000A168A1138210A128C
:101888008A15FA3083120313D7000030D800C83005
:10189800D9000030DA000A168A113C240A128A1587
:1018A8000A168A15DF260A128A15C830831203130E
:1018B800E0000030E100831603132E08F63E831281
:1018C8000313E200831603132F080318013EFF3E9B
:1018D80083120313E3000A128A113C240A128A15A0
:1018E800712DC83083120313A9000030AA00FF30FD
:1018F800AB007F30AC000A168A1524230A128A1519
:101908001A3083120313ED005E30EC008630EB00D2
:10191800EB0B8C2CEC0B8C2CED0B8C2C64008D3091
:101928000A168A1593220A128A1504300A168A158D
:1019380093220A128A15013083120313EB006B08F5
:1019480083160313CB07C7010314C70D093083128D
:101958000313EB006B0883160313C900712D0930BC
:1019680083120313EB006B0883160313C900712D50
:101978008D300A168A1593220A128A1502300A1621
:101988008A1593220A128A15013083120313EB0079
:101998006B0883160313CB070A168A11A3220A12AF
:1019A8008A150A168A15DF260A128A15C830831284
:1019B8000313E0000030E100831603132E08F63EFF
:1019C80083120313E200831603132F080318013E42
:1019D800FF3E83120313E3000A128A113C240A1201
:1019E8008A15712D8D300A168A1593220A128A15C6
:1019F80002300A168A1593220A128A1501308312B8
:101A08000313EB006B0883160313CB07C83083124C
:101A18000313E0000030E1000A128A1115200A12AF
:101A28008A150A168A15DF260A128A15C830831203
:101A38000313E0000030E100831603132F0883121C
:101A48000313E301E307831603132E08831203131A
:101A5800E201E2070A128A113C240A128A15712D42
:101A68000A168A15DF260A128A15C830831203134C
:101A7800E0000030E100831603132F0883120313DC
:101A8800E301E307831603132E0883120313E2010D
:101A9800E2070A128A113C240A128A15712D712D47
:101AA800831603134908003A0319462B013A031910
:101AB800652B033A0319BF2B013A0319FC2B073A8C
:101AC8000319752C0D3A0319B32C033A0319BC2CCE
:101AD800013A0319F62C342D712D83160313490886
:101AE800093A031D782D792D542D7A2D080045309B
:101AF8008400903083120313C1000408C200103020
:101B0800C3004108840083170008C400C10A4208C2
:101B18008400831344088000C20AC30B852DEF2F6D
:101B280001300A168A15E1200A128A153B30831201
:101B38000313C1004108AE0083160313250883125E
:101B48000313B001B0078316031324088312031389
:101B5800AF01AF0783160313270883120313B201DB
:101B6800B20783160313260883120313B101B107C2
:101B780045300A128A158E210A128A1500300A1673
:101B88008A1590200A128A15453083120313A7007C
:101B98000030A8000A168A1567220A128A154030F2
:101BA8000A168A1590200A128A1583160313390813
:101BB800803AFF0080307F02031DE42D0130380297
:101BC800031CE72DE82DFB2D831603133808FF3E71
:101BD800E13E84008313000883120313A7008030BA
:101BE800A8000A168A1567220A128A150E2E83166D
:101BF80003133808053EE13E84008313000883126E
:101C08000313A7008030A8000A168A1567220A1253
:101C18008A150E2E44300A168A1590200A128A1543
:101C2800831603133808DB3E8400831300088312ED
:101C38000313A7008030A8000A168A1567220A1223
:101C48008A154D300A168A1590200A128A15063010
:101C580083120313A0000030A10083160313380871
:101C6800013E83120313A2008316031339080318D5
:101C7800013E003E83120313A3000A168A151D2590
:101C88000A128A15831203132008E13E8400831385
:101C98000008A7008030A8000A168A1567220A12D1
:101CA8008A15FF2F01300A168A15E1200A128A15B3
:101CB80000300A168A1590200A128A152B308312D2
:101CC8000313A7008030A8000A168A1567220A1293
:101CD8008A1540300A168A1590200A128A15A830EB
:101CE80083120313A7008030A8000A168A156722FA
:101CF8000A128A1544300A168A1590200A128A1583
:101D0800973083120313A7008030A8000A168A159B
:101D180067220A128A154D300A168A1590200A126F
:101D28008A15AC3083120313A7008030A8000A1666
:101D38008A1567220A128A15FF2F01300A168A159A
:101D4800E1200A128A1500300A168A1590200A1214
:101D58008A150B3083120313A7008030A8000A16D7
:101D68008A1567220A128A1540300A168A159020A9
:101D78000A128A159F3083120313C1004108AE006E
:101D880083160313210883120313B001B0078316C7
:101D98000313200883120313AF01AF0745300A125B
:101DA8008A158E210A128A15453083120313A7005B
:101DB8000030A8000A168A1567220A128A154D30C3
:101DC8000A168A1590200A128A15332FC7308312F3
:101DD8000313A7008030A8000A168A1567220A1282
:101DE8008A154E2FCA3083120313A7008030A8002B
:101DF8000A168A1567220A128A154E2FC4308312D2
:101E08000313A7008030A8000A168A1567220A1251
:101E18008A154E2FCD3083120313A7008030A800F7
:101E28000A168A1567220A128A154E2FD030831295
:101E38000313A7008030A8000A168A1567220A1221
:101E48008A154E2FC43083120313A7008030A800D0
:101E58000A168A1567220A128A154E2F4E2F8316E4
:101E680003132308003A03193A2F4E2F2208003A89
:101E78000319EA2E013A0319F62E033A0319022F21
:101E8800013A03190E2F073A03191A2F013A0319B9
:101E9800262F4E2F44300A168A1590200A128A15CA
:101EA800593083120313A7008030A8000A168A1538
:101EB80067220A128A15FF2F01300A168A15E120B7
:101EC8000A128A151B3083120313C1004108AE00A1
:101ED800831603132F0883120313B001B007831668
:101EE80003132E0883120313AF01AF0783160313DE
:101EF8004B0883120313C200C3014208B100430810
:101F0800B20045300A128A158E210A128A1500304D
:101F18000A168A1590200A128A154530831203136F
:101F2800A7000030A8000A168A1567220A128A1527
:101F38000A3083120313A0000030A1008316031394
:101F48002D0883120313A301A307831603132C0878
:101F580083120313A201A2070A168A1569260A1218
:101F68008A15831203132108D601D6072008D50144
:101F7800D5074A30C1004108AE005608B001B00785
:101F88005508AF01AF0783160313310883120313F3
:101F9800B201B20783160313300883120313B10189
:101FA800B10745300A128A158E210A128A15403067
:101FB8000A168A1590200A128A15453083120313CF
:101FC800A7000030A8000A168A1567220A128A1587
:101FD800FF2FFF2FFF2F831603135008003A031912
:101FE800942D013A0319562E033A0319A12E013AEA
:101FF8000319602FFF2F0800FF1B0A2883137F187F
:1020080083170008840A0319FF0A080010308A00A1
:102018000408840A82070034013400340A34003486
:1020280064340034E834033410342734203443341F
:10203800683461347234673469346E3467342034F8
:102048004D346F34643465342034003449345234A8
:102058003A3425343334643463346D3420344334AF
:1020680050343A3425343334643400345A346534C3
:1020780072346F34203453347434653470345F34BC
:102088004D346F3474346F347234003449345234FC
:102098003A3425343334643463346D34203444346E
:1020A8003A34253433346434003444343A342534EF
:1020B8003434643463346D342034413454343A3421
:1020C80025343334643400342034203445345834CF
:1020D80049345434203420340034203443346834B0
:1020E80061347234673465342034003453346334D3
:1020F80061346E345F34333436343034003443342E
:1021080061346C34693462345F3449345234003495
:1021180046346C3477345F34573461346C346C34FF
:102128000034443472346934763465345F3432347C
:102138006D340034443472346934763465345F3431
:102148004C34003443344F344E34463449345234DA
:102158004D340034253464346D344134003444340F
:102168007234323400343C343C343C3400343E3431
:102178003E343E340034443472344C3400344334F6
:10218800683467340034433461346C340034533475
:1021980063346E34003446346C3477340034463457
:1021A800433400344E34433400345234433400341E
:0C21B80054344334003457346134003494
:1021D00083120313A501A601210820040319F12885
:1021E000F2283029A7010314A70D0229013003109A
:1021F000A00DA10DFF3E031DF7280130A400240807
:10220000A7070229A11F05290629F6280829082958
:1022100001300310A50DA60DFF3E031D092921085D
:102220002302031D152920082202031C182919293D
:1022300021292008A2022108031CA303A3022514BC
:10224000212901300310A10CA00CFF3E031D2229FF
:102250000130A702031D2D292E29082930293029F4
:102260002608A101A1072508A001A0073729080019
:1022700002300A168A1133250A168A1183160313AF
:10228000B001B10183120313DE01DF015808A3017D
:10229000A3075708A201A2070A168A15F5250A16F0
:1022A0008A11A12901300A168A1133250A168A11CA
:1022B00083160313C208031D5E295F2964294E0893
:1022C000031D632968296429C9010314C90DD6298E
:1022D000400883120313DB00DC015B08DE005C08AE
:1022E000DF005F08DC005E08DB005B08DC00DB0170
:1022F0005B08DE005C08DF008316031341088312CD
:102300000313DB00DC015B08DE070318DF0A5C084F
:10231000DF075E0883160313B0070318B10A8312A0
:1023200003135F0883160313B1073108A701A7073A
:102330003008A601A6070A128A157B250A168A11FB
:10234000A12983160313310883120313A701A707DA
:1023500083160313300883120313A601A6070A1677
:102360008A15EF220A168A11831203132608DB004E
:102370002708DC005808A701A7075708A601A607E9
:102380000A168A15EF220A168A11831203135C08B3
:10239000803ADD002708803A5D02031DD129260816
:1023A0005B02031CD429D5295229D6290030831277
:1023B0000313A2000030A3000A168A15F5250A1699
:1023C0008A110800831203130619E729E829FC295A
:1023D0000130F200720883160313CC070A304C0256
:1023E000031CF329F429002A711EF729F829002A71
:1023F000F1157112002A002A83160313CC017116FD
:10240000831203138619052A062A1A2A0130F200BC
:10241000720883160313C6070A304602031C112AEA
:10242000122A1E2AF01D152A162A1E2A7015F011CE
:102430001E2A1E2A83160313C601F01583120313E6
:10244000061A232A242A382A0130F2007208831639
:102450000313C8070A304802031C2F2A302A3C2ADB
:10246000F01E332A342A3C2A7016F0123C2A3C2AE9
:1024700083160313C801F01683120313861A412A28
:10248000422A562A0130F200720883160313CA0743
:102490000A304A02031C4D2A4E2A5A2A711D512A1B
:1024A000522A5A2AF11471115A2A5A2A83160313EE
:1024B000CA01711583120313061B5F2A602A742A4E
:1024C0000130F200720883160313C3070A30430277
:1024D000031C6B2A6C2A782AF01C6F2A702A782A2F
:1024E0007014F010782A782A83160313C301F014AD
:1024F000F11D7B2A7C2A802AF1110130A22AA22A0E
:10250000701D832A842A882A70110230A22AA22AE6
:10251000701E8B2A8C2A902A70120330A22AA22ABB
:10252000F11C932A942A982AF1100430A22AA22A94
:10253000701C9B2A9C2AA02A70100530A22AA22A6D
:102540000030A22A0800552BA03083120313D700B5
:102550000030D8009030D9000130DA000A168A1114
:1025600038210A168A11013083120313E000600833
:1025700083160313CB076E2B503083120313D7003F
:102580000030D8009030D9000130DA000A168A11E4
:1025900038210A168A116E2B503083120313D7008C
:1025A0000030D8009030D9000130DA000A168A11C4
:1025B00038210A168A118D300A168A1593220A16B6
:1025C0008A1103300A168A1593220A168A116E2B75
:1025D000A03083120313D7000030D8009030D90008
:1025E0000130DA000A168A1138210A168A110130E0
:1025F00083120313E000600883160313CB076E2BCE
:10260000463083120313D7000030D8009030D90031
:102610000130DA000A168A1138210A168A116E2B47
:10262000503083120313D7000030D8009030D90007
:102630000130DA000A168A1138210A168A116E2B27
:10264000003083120313A9000030AA00FF30AB0052
:102650007F30AC000A168A1524230A168A118D30A1
:102660000A168A1593220A168A1104300A168A1548
:1026700093220A168A11093083120313E0006008BE
:1026800083160313C9006E2B503083120313D70037
:102690000030D8009030D9000130DA000A168A11D3
:1026A00038210A168A116E2B6E2B831603134B08E2
:1026B000083A0319A42A043A0319BC2A023A031956
:1026C000CC2A013A0319E82A1F3A0319002B013AD0
:1026D0000319102B043A0319202B442B0800FF3058
:1026E00083120313EE006E0883160313E700D10173
:1026F000CB01D0010A168A15C0220A168A110A16C1
:102700008A1155260A168A11852BF01F882B892BD2
:10271000AC2BF01302300A168A1133250A168A11DF
:102720000A168A15DF260A168A11831603134B0828
:1027300083120313EE00EF016E0883160313A60045
:10274000831203136F0883160313A7000A128A1556
:102750007B250A168A11AC2B831603134F08031D21
:10276000B22B192C4F080A168A1522240A168A1130
:1027700083120313EE006E0883160313E700CF01E4
:10278000192C192C0A168A1585250A168A112F2C40
:10279000103083120313EE006E0883160313CB0070
:1027A0000A128A1500200A168A110A128A15212097
:1027B0000A168A112F2C063083120313EE006E08BE
:1027C00083160313CB002F2C0C3083120313EE005F
:1027D0006E0883160313CB002F2CC7010A128A152B
:1027E00000200A168A11033083120313EE006E08CC
:1027F00083160313D0000A128A1544230A168A117D
:10280000831603134708031D062C0C2C0A128A1585
:1028100021200A168A110C2C83160313C901D0013A
:102820002F2C0A168A1569240A168A112F2C2F2C90
:102830002F2C831603136708003A0319C22B013AA1
:102840000319C82B033A0319DB2B013A0319E42BB4
:10285000073A0319ED2B013A0319112C2F2CFF30E5
:1028600083120313EE006E0883160313E700852B13
:10287000852B0A128A11122802300A168A11332572
:102880000A168A1183160313B201B30183120313CC
:102890005A08AA01AA075908A901A907FF30AB00E5
:1028A0007F30AC000A168A1524230A168A11D82C08
:1028B00000300A168A1133250A168A11831603136B
:1028C0004208031D642C682CC9010314C90D0D2D89
:1028D0004E08031D6C2C752C023083120313DB0091
:1028E0005B0883160313C9000D2D4408031D792CC2
:1028F000822C033083120313DB005B08831603135F
:10290000C9000D2D4D08FF3A0319872C882C912CF6
:10291000043083120313DB005B0883160313C90022
:102920000D2D7D0883120313DB00DC015B08DE0044
:102930005C08DF005F08DC005E08DB005B08DC0091
:10294000DB015B08DE005C08DF008316031345082B
:1029500083120313DB00DC015B08DE070318DF0AC8
:102960005C08DF075E0883160313B2070318B30A77
:10297000831203135F0883160313B3078312031331
:102980005E0883160313AC070318AD0A8312031302
:102990005F0883160313AD073308A701A7073208A2
:1029A000A601A6070A128A157B250A168A11D82CB9
:1029B00083160313330883120313A701A707831693
:1029C0000313320883120313A601A6070A168A15F9
:1029D000EF220A168A11831203132608DB00270848
:1029E000DC005808A701A7075708A601A6070A1682
:1029F0008A15EF220A168A11831203135C08803AA3
:102A0000DD002708803A5D02031D082D26085B02C1
:102A1000031C0B2D0C2D582C0D2D83160313490868
:102A200083120313DB00DC015B0883160313A6008B
:102A3000831203135C0883160313A7000A128A1576
:102A40007B250A168A11003083120313A900003077
:102A5000AA00FF30AB007F30AC000A168A15242391
:102A60000A168A11080083120313A3008E300A1677
:102A70008A1593220A168A110A300A168A15932299
:102A80000A168A110A168A153B220A168A1183121F
:102A90000313A200220883160313C4008E300A1603
:102AA0008A1593220A168A110B300A168A15932268
:102AB0000A168A110A168A153B220A168A118312EF
:102AC0000313A200220883160313C4078E300A16CC
:102AD0008A1593220A168A1107300A168A1593223C
:102AE0000A168A110A168A153B220A168A118312BF
:102AF0000313A200220883160313C2008E300A16A5
:102B00008A1593220A168A110D300A168A15932205
:102B10000A168A110A168A153B220A168A1183128E
:102B20000313A200220883160313CE008E300A1668
:102B30008A1593220A168A1111300A168A159322D1
:102B40000A168A110A168A153B220A168A1183125E
:102B50000313A200220883160313CD00831203136C
:102B6000A308031DB42DB52DD82D8E300A168A1555
:102B700093220A168A1113300A168A1593220A160E
:102B80008A110A168A153B220A168A118312031328
:102B9000A2002208FD000A168A153B220A168A1195
:102BA00083120313A200220883160313C500542EB8
:102BB00083122308013A031DDE2DDF2D042E8E30F3
:102BC0000A168A1593220A168A1114300A168A15D3
:102BD00093220A168A110A168A153B220A168A11AE
:102BE00083120313A200220883160313C0000A16DF
:102BF0008A153B220A168A1183120313A2002208A7
:102C000083160313C100542E83122308023A031DB6
:102C10000A2E0B2E542E8E300A168A1593220A166F
:102C20008A1113300A168A1593220A168A110A1677
:102C30008A153B220A168A1183120313A200220866
:102C4000FD000A168A153B220A168A118312031305
:102C5000A200220883160313C5008E300A168A15B7
:102C600093220A168A1114300A168A1593220A161C
:102C70008A110A168A153B220A168A118312031337
:102C8000A200220883160313C0000A168A153B22ED
:102C90000A168A1183120313A20022088316031353
:102CA000C100542E542E542E08008C300A168A155A
:102CB00093220A168A1100300A168A1593220A16E0
:102CC0008A1102300A168A1593220A168A11483090
:102CD0000A168A1593220A168A1110300A168A15C6
:102CE00093220A168A1154300A168A1593220A165C
:102CF0008A1110300A168A1593220A168A118C300E
:102D00000A168A1593220A168A1101300A168A15A4
:102D100093220A168A1102300A168A1593220A167D
:102D20008A1154300A168A1593220A168A11103015
:102D30000A168A1593220A168A1148300A168A152D
:102D400093220A168A1110300A168A1593220A163F
:102D50008A118C300A168A1593220A168A110230BB
:102D60000A168A1593220A168A1102300A168A1543
:102D700093220A168A1130300A168A1593220A16EF
:102D80008A1130300A168A1593220A168A113130B8
:102D90000A168A1593220A168A1110300A168A1505
:102DA00093220A168A118C300A168A1593220A1663
:102DB0008A1103300A168A1593220A168A111030D6
:102DC0000A168A1593220A168A1130300A168A15B5
:102DD00093220A168A1110300A168A1593220A16AF
:102DE0008A1131300A168A1593220A168A11103078
:102DF0000A168A1593220A168A1130300A168A1585
:102E000093220A168A1110300A168A1593220A167E
:102E10008A1131300A168A1593220A168A11103047
:102E20000A168A1593220A168A1130300A168A1554
:102E300093220A168A1110300A168A1593220A164E
:102E40008A1131300A168A1593220A168A11103017
:102E50000A168A1593220A168A1130300A168A1524
:102E600093220A168A1110300A168A1593220A161E
:102E70008A1131300A168A1593220A168A111030E7
:102E80000A168A1593220A168A1130300A168A15F4
:102E900093220A168A1110300A168A1593220A16EE
:102EA0008A1131300A168A1593220A168A111030B7
:102EB0000A168A1593220A168A1130300A168A15C4
:102EC00093220A168A1110300A168A1593220A16BE
:102ED0008A1131300A168A1593220A168A11103087
:102EE0000A168A1593220A168A1130300A168A1594
:102EF00093220A168A1110300A168A1593220A168E
:102F00008A1131300A168A1593220A168A11103056
:102F10000A168A1593220A168A1130300A168A1563
:102F200093220A168A1110300A168A1593220A165D
:102F30008A1131300A168A1593220A168A11103026
:102F40000A168A1593220A168A118C300A168A15D7
:102F500093220A168A1104300A168A1593220A1639
:102F60008A1106300A168A1593220A168A113F30F2
:102F70000A168A1593220A168A1108300A168A152B
:102F800093220A168A1143300A168A1593220A16CA
:102F90008A1108300A168A1593220A168A114930B6
:102FA0000A168A1593220A168A1130300A168A15D3
:102FB00093220A168A113F300A168A1593220A169E
:102FC0008A1108300A168A1593220A168A1143308C
:102FD0000A168A1593220A168A1108300A168A15CB
:102FE00093220A168A114B300A168A1593220A1662
:102FF0008A1140300A168A1593220A168A1108008F
:1031200083120313A300A31723080A168A15E120AC
:103130000A168A15080074346B3486348F347D3453
:103140006234B834BC34A434B034C034B4348312E0
:103150000313A20009118910091422088800091517
:1031600009110730A1007D30A000A00BB528A10BEC
:10317000B52808007E088A007F0882000A168A1592
:10318000BA200A168A158000840A04087D060319ED
:103190000034FF0A0319FE0ABE2883120313A2009B
:1031A000A1018C1122089300D5288C1DD828D9287C
:1031B000D528DA281308A0002008A1008C11E028E7
:1031C000080083120313A2000911891009102208B4
:1031D0008800091509110D30A100FB30A000A00BDB
:1031E000EF28A10BEF28F4280800831203138501B0
:1031F0003F30831603138500A130831203139F0011
:103200000230831603139F00533083120313A00070
:10321000A00B0829080000300A168A155D230A163B
:103220008A1583120313AA00AB012A08AC002B08ED
:10323000AD002D08A901A9072C08A801A80720297D
:10324000080083120313A100A0013A3021020318E1
:103250002A292B29352930302102031C3029312914
:103260003529A0010314A00D3529200C37290800A9
:1032700083120313981C3D293E294329181218165E
:103280000310502950298316031354085506031DB3
:103290004A294B294D29031050290314502950293C
:1032A000080080300A168A1593220A168A1584307F
:1032B0000A168A1593220A168A1596300A168A1556
:1032C00093220A168A1500300A168A1593220A16C6
:1032D0008A150800F001F101FD018313A03084007C
:1032E000DB300A128A11F8270A168A1583179030E4
:1032F0008400C0300A128A11F8270A168A1583132F
:10330000E730FD001830FE009B30FF00DB3084000A
:103310000A168A15BE200A168A1583010A168A1112
:103320006F2B831203139E011F1596291F199929CC
:103330009A299629000000000000831203131E083A
:10334000A200A3012208A4002308A5000130031055
:10335000A40DA50DFF3E031DA729831603131E0808
:10336000831203132508A101A1072408A001A007C7
:10337000B9290800831603138717BF30831203137C
:10338000A000200883160313870518151430990030
:1033900018138312031318138316031318128312BE
:1033A000031398171816831603130C128C1698160D
:1033B0000030DA00D900D50083120313A0002008E2
:1033C00083160313D40008000230831603139F00F2
:1033D000831203138801890183160313880189016D
:1033E00001300A168A15E1200A168A1538300A16A5
:1033F0008A15E1200A168A150C300A168A15E12072
:103400000A168A1506300A168A15E1200A168A1548
:1034100002300A168A15E1200A168A15080083125E
:103420000313A401A501142A201C172A182A1E2AF6
:103430002208A4070318A50A2308A50701300310D2
:10344000A20DA30DFF3E031D1F2A01300310A10C86
:10345000A00CFF3E031D262A21082004031D312A4B
:10346000322A142A332A2508A101A1072408A00121
:10347000A0073A2A08003D2A3D2A0A168A15382153
:103480000A168A15031C452A462A3D2A8B138316E1
:1034900003135508A03E840083170008831203130A
:1034A000A0002008A1000130A0002008831603130B
:1034B000D5070F3083120313A000200883160313CF
:1034C000D5058B17831203132108662A0800812A69
:1034D000831203132808FF00270884000A168A11A4
:1034E00000200A168A150A168A15A7200A168A15B8
:1034F000013083120313A7070318A80A0030A80796
:10350000812A831203132808FF00270884000A1663
:103510008A1100200A168A150038031D902A912A64
:10352000682A922A080083120313A100982A982A75
:10353000831603135908013E0F395A060319A12AAD
:10354000A22A982A8B13831203132108A000831642
:1035500003135908B03E8400831203132008831715
:103560008000831603135908013E0F398312031399
:10357000A000200883160313D9000C168B1708002F
:1035800083160313CF01FC3086009030831203139F
:10359000A300230883160313870540309400A1304D
:1035A00083120313940004308316031381000A1658
:1035B0008A15BA210A168A150A168A15F5200A16DE
:1035C0008A150A168A15E4210A168A150A168A151A
:1035D00051210A168A158B160B178B17080000301D
:1035E00083120313A71B0130A800A901A809A90988
:1035F000A80A0319A90A2708803AFF0080307F0231
:10360000031D042B01302602003003180130831201
:1036100003132807A00029080318290AA100270876
:10362000A301A3072608A201A2070A168A150F22E2
:103630000A168A15831203132108A701A707200879
:10364000A601A607232B0800831203132908AD0047
:103650002D08AE002A08AD002D08AF002B08AD00E4
:103660002D08B0002C08AD002D08B10089300A16D5
:103670008A1593220A168A15831203132F080A1635
:103680008A1593220A168A15831203132E080A1626
:103690008A1593220A168A158312031331080A1613
:1036A0008A1593220A168A158312031330080A1604
:1036B0008A1593220A168A15080083120313A7009D
:1036C000792B9F111F129F128A2B9F151F129F1279
:1036D0008A2B9F111F169F128A2B9F151F169F1250
:1036E0008A2B9F111F129F168A2B0030972B972B26
:1036F0008A2B2708003A0319612B013A0319652B1D
:10370000033A0319692B013A03196D2B073A031980
:10371000712B752B5330A600A60B8C2B0A168A151D
:1037200091210A168A15831203132008972B08008B
:103730007308720403199D2B9E2BD42BF7010314DD
:10374000F70DAE2B01300310F20DF30DFF3E031DFC
:10375000A32B0130F6007608F707AE2BF31FB12B31
:10376000B22BA22BB42BB42B73087502031DBA2BFA
:1037700072087402031CBD2BBE2BC52B7208F40209
:103780007308031CF503F502C52B01300310F30C7D
:10379000F20CFF3E031DC62B0130F702031DD12B97
:1037A000D22BB42BD42BD42B7508F301F307740858
:1037B000F201F207DB2B0800831203132908280407
:1037C0000319E32BE42B1A2CAD010314AD0DF42BDC
:1037D00001300310A80DA90DFF3E031DE92B013098
:1037E000AC002C08AD07F42BA91FF72BF82BE82B06
:1037F000FA2BFA2B29082B02031D002C28082A0279
:10380000031C032C042C0B2C2808AA022908031CD7
:10381000AB03AB020B2C01300310A90CA80CFF3E2C
:10382000031D0C2C0130AD02031D172C182CFA2B94
:103830001A2C1A2C2B08A901A9072A08A801A807E5
:10384000212C080083120313A000542C662C662C34
:10385000FF3083160313B8070318B90AFF30B907FE
:10386000B91F332C342C662C0530B8000030B90059
:10387000662C662C013083160313B8070318B90AA7
:103880000030B907063038063904031D482C492C8E
:10389000662CB801B901662C662C83160313380810
:1038A000682C682C662C662C83122008013A0319B8
:1038B000662C033A0319662C013A0319282C073A9F
:1038C00003193A2C013A03194D2C662CFF30682C51
:1038D0000800023083120313D7005708831603131E
:1038E000D00080300A168A1593220A168A15782C81
:1038F000F01F7B2C7C2CA02CF0130A128A116F274E
:103900000A168A150A128A157B250A168A15A02C12
:10391000A02CCF01782CCF01782CCF01782CCF01AF
:10392000782C84300A168A1593220A168A15831673
:103930000313CF01D001B52CB52CCF01782C782CF6
:10394000831603134F08013A0319892C033A03190C
:103950008B2C013A03198D2C073A03198F2C013A4D
:103960000319912C9D2C782C782C080083120313BA
:1039700007148714A508031DBE2CBF2CC62C0B30C2
:103980000A168A15CD200A168A15CD2C09300A167A
:103990008A15CD200A168A15CD2C83120313071021
:1039A0008710A801A901012D071500008312031338
:1039B00007112508031DDD2CE62C013083160313A7
:1039C000BC070318BD0A0030BD07EE2CFF3083167C
:1039D0000313BC070318BD0AFF30BD076230831212
:1039E0000313A7006530A600A60BF42CA70BF42C3C
:1039F000F92C013083120313A8070318A90A003019
:103A0000A90724082902031D072D23082802031CE7
:103A10000A2D0B2DD42C0714871400300A168A1592
:103A2000CD200A168A158312031307108710071575
:103A30000000831203130711080083120313A60169
:103A4000A31F232D242D2D2DA209A309A20A03199A
:103A5000A30AA6010314A60D2D2DA11F302D312D73
:103A6000372DA009A109A00A0319A10A372D2108A1
:103A7000200403193C2D3D2D732DA5010314A50D24
:103A80004D2D01300310A00DA10DFF3E031D422D51
:103A90000130A4002408A5074D2DA11F502D512D44
:103AA000412D532D532D21082302031D592D20088C
:103AB0002202031C5C2D5D2D642D2008A20221082A
:103AC000031CA303A302642D01300310A10CA00C5E
:103AD000FF3E031D652D0130A502031D702D712DC4
:103AE000532D732D732D2608031D772D7D2DA209CF
:103AF000A309A20A0319A30A7D2D2308A101A10786
:103B00002208A001A007842D080083160313D0010A
:103B10000314D00D083083120313A3000030A40057
:103B2000A5010A168A15B6240A168A1508308312CA
:103B30000313A3000030A400A5010314A50D0A1669
:103B40008A15B6240A168A15A52DF01FA82DA92DB1
:103B5000DF2DF0130A128A157B250A168A15DF2D30
:103B6000DF2DCF01A52DCF01A52D01308312031329
:103B7000A3000030A400A5010314A50D0A168A15A0
:103B8000B6240A168A1583160313CF01A52D01301A
:103B900083120313A3000030A400A5010A168A159E
:103BA000B6240A168A1583160313CF01A52DBC016E
:103BB000BD01CF01D001F42DF42DA52DA52D831627
:103BC00003134F08013A0319B12D033A0319B32D1A
:103BD000013A0319B52D073A0319C72D013A031904
:103BE000D72DA52DA52DA52D08008312031323087D
:103BF000803AFF0080307F02031D002E0130220238
:103C0000031C032E042E232E89300A168A159322B4
:103C10000A168A1500300A168A1593220A168A1582
:103C2000C8300A168A1593220A168A1500300A1619
:103C30008A1593220A168A1501300A168A159322CC
:103C40000A168A15682E83120313A31F282E292E05
:103C5000482E89300A168A1593220A168A150030D2
:103C60000A168A1593220A168A15C8300A168A156A
:103C700093220A168A15FF300A168A1593220A160D
:103C80008A15FF300A168A1593220A168A15682E9D
:103C900089300A168A1593220A168A1500300A16E8
:103CA0008A1593220A168A1500300A168A1593225D
:103CB0000A168A1500300A168A1593220A168A15E2
:103CC00000300A168A1593220A168A15682E682E65
:103CD000080083120313A601A11F6F2E702E792EE8
:103CE000A009A109A00A0319A10AA6010314A60D9F
:103CF000792EA31F7C2E7D2E872EA209A309A20A4E
:103D00000319A30A0130A4002408A606872EA701E0
:103D1000A8012108200403198E2E8F2ECD2EA50177
:103D20000314A50D9F2E01300310A00DA10DFF3E21
:103D3000031D942E0130A4002408A5079F2EA11F67
:103D4000A22EA32E932EA52EA52E01300310A70D73
:103D5000A80DFF3E031DA62E21082302031DB22E2F
:103D600020082202031CB52EB62EBE2E2008A20269
:103D70002108031CA303A3022714BE2E0130031045
:103D8000A10CA00CFF3E031DBF2E0130A502031D98
:103D9000CA2ECB2EA52ECD2ECD2E2608031DD12E1C
:103DA000D72EA709A809A70A0319A80AD72E2808F9
:103DB000A101A1072708A001A007DE2E0800831299
:103DC0000313AE01AF01B201B301B001B101B401FF
:103DD000B5013508803AFF0080307F02031DF22EC6
:103DE00008303402031CF52EF62EF82E2E2F2E2F1F
:103DF0000A168A150B210A168A158312031329083D
:103E0000B301B3072808B201B20703303302E93027
:103E10000319320203180D2F0E2F1A2F3208AE0786
:103E20000318AF0A3308AF070130B0070318B10A0F
:103E30000030B1070130B4070318B50A0030B507E8
:103E40003508803AFF0080307F02031D292F08309B
:103E50003402031C2C2F2D2FF82E2E2F8312031328
:103E60003108A101A1073008A001A0072F08A30174
:103E7000A3072E08A201A2070A168A11E8200A1633
:103E80008A1583120313210883160313AF01AF07AA
:103E900083120313200883160313AE01AE072F0805
:103EA000A501A5072E08A401A40708000B1D592F82
:103EB0005A2FAD2F0B11643081000130831603138C
:103EC000AA070318AB0A0030AB077017FA30F200EC
:103ED0000030F3002B08F501F5072A08F401F40778
:103EE0000A168A1598230A168A1573087204031D88
:103EF0007A2F7B2F7D2FF0177D2FF430F2000130C9
:103F0000F300831603132B08F501F5072A08F401C3
:103F1000F4070A168A1598230A168A15730872047C
:103F2000031D932F942F9A2F7114831203130130C2
:103F300086069A2F83160313CF08031DA02FA12FE7
:103F4000AD2F0A168A11E2210A168A15F8007808A0
:103F500083160313CF00AD2FAD2F83128C1EB12F0C
:103F6000B22FCE2F1A08F800831603135408A03E70
:103F700084007808831780005408013E0F39F80048
:103F80007808D600560855060319C72FC82FCE2F1C
:103F90005608F8007808D400CE2FCE2F83120C1EBE
:103FA000D22FD32FF42F831603130C1ED82FD92F03
:103FB000F42F5A08B03E84008317000883120313BD
:103FC00099000130F800780883160313DA070F30E0
:103FD000F8007808DA055A085906031DF02FF12F6A
:103FE000F42F0C12F42FF42F7C088312FF007B08AF
:103FF0008A007A088400790E8300FE0E7E0E090086
:02400E0032FF7F
:00000001FF
