:060000000A128A11122809
:10000800FE00030EF9000408FA000A08FB00831238
:1000180003137F08FC000A128A157E2B0A168A1120
:10002800AD2BFF3083120313E70067088316031311
:10003800E900E701E8010A168A11DA230A128A118F
:100048002528F01F282829283B28F01302300A12F7
:100058008A15E0260A128A110A128A15BE200A1287
:100068008A110A128A11CA240A128A113B287D08A9
:10007800031D3F28842A7D080A168A1179250A1249
:100088008A1183120313E700670883160313E90034
:10009800FD01842A842A0A168A1160260A128A1106
:1000A8009A2A0A168A1126270A128A11831203131A
:1000B8005A0883160313E801E80783120313590843
:1000C80083160313E701E707670983120313E700A1
:1000D80083160313680983120313E800E70A031958
:1000E800E80A6708C83EA30068080318013E003EF6
:1000F800A400A5010A168A1110260A128A119A2A42
:10010800E83083120313DB000330DC009030DD009D
:100118000130DE000A128A1129260A128A119A2A47
:100128005A3083120313D9000030DA000130DB00A3
:100138000030DC000A128A153A220A128A119A2A19
:1001480083160313B401B501742A0A168A112627E7
:100158000A128A11831203135A0883160313EB0138
:10016800EB0783120313590883160313EA01EA07FE
:10017800EC01ED01E301E4016B08803AFF008030F7
:100188007F02031DC928C9306A02031CCC28CD2868
:10019800D828831603136A08643EEC006B0803181A
:1001A800013E003EED00D828831603136B08803A01
:1001B800FF0080307F02031DE328C8306A0203185D
:1001C800E628E728F228831603136A089C3EEC0009
:1001D8006B080318013EFF3EED00F2288316031357
:1001E8006D08803AFF0081307F02031DFD289030A2
:1001F8006C02031C002901291F29831603136D08AB
:10020800803AFF0081307F02031D0C29F4306C0214
:1002180003180F2910291F29831603136C08703E31
:10022800EC006D080318013EFE3EED000130E300CE
:100238000030E4001F29831603136D08803AFF007D
:1002480080307F02031D2A29C8306C02031C2D2927
:100258002E296229831603136D08803AFF00813026
:100268007F02031D392990306C0203183C293D296F
:100278006229831603136C0983120313E70083169C
:1002880003136D0983120313E800E70A0319E80A48
:100298006708903E83160313EC0083120313680863
:1002A8000318013E013E83160313ED00EC09ED0926
:1002B800EC0A0319ED0AE301E4016229831603132A
:1002C8006D08803AFF0080307F02031D6D29C83019
:1002D8006C020318702971297C2983160313ED1BFE
:1002E800762977297C290130E3000030E4007C2955
:1002F80083160313ED1F8129822994296D08803AFA
:10030800FF007F307F02031D8B2938306C02031CED
:100318008E298F29942983160313E301E401942974
:10032800831603136D08803AFF007F307F02031D98
:100338009F2938306C02031CA229A3299A2A831604
:1003480003136D08803AFF0081307F02031DAE2938
:10035800F5306C02031CB129B229B4299A2A9A2AC9
:10036800831603136A0983120313E7008316031322
:100378006B0983120313E800E70A0319E80A670800
:10038800903EA30068080318013E013EA400A501A1
:100398000A168A1110260A128A11033083120313CF
:1003A800E9008A30E8005630E700E70BD929E80B66
:1003B800D929E90BD929E029831603136D0883127B
:1003C8000313B701B707831603136C0883120313CB
:1003D800B601B6070A168A1128230A128A1183124F
:1003E80003133608C9003708CA003808CB0066303E
:1003F800C6006630C7003F30C8000A128A15F224CA
:100408000A128A11831203134608A8004708A90094
:100418004808AA000A128A15D8220A128A118312D9
:100428000313290883160313E601E607831203134F
:10043800280883160313E501E507660883120313EA
:10044800A301A30783160313650883120313A201EC
:10045800A2070A128A152E210A128A110330831262
:100468000313E9008A30E8005630E700E70B3A2A20
:10047800E80B3A2AE90B3A2A412A831603136B0838
:1004880083120313A401A407831603136A088312B3
:100498000313A301A307A5010A168A1110260A123D
:1004A8008A11033083120313E9008A30E8005630BA
:1004B800E700E70B5D2AE80B5D2AE90B5D2A642A51
:1004C800F43083120313DB000130DC00C830DD0098
:1004D8000030DE000A128A1129260A128A11742AAB
:1004E800831603134C08031D7A2AA9289A2A9A2AE4
:1004F8000A168A1133250A128A119A2A9A2A9A2ADE
:10050800831603136908003A03194F28013A03199F
:100518005528033A03198428013A03199428073AFD
:100528000319A428013A03197C2A9A2AFF30831256
:100538000313E700670883160313E9002528252815
:100548000A128A1112280030831203136B02D53065
:1005580003196A02031CB12AB22AF52A00306B0279
:10056800EA3003196A020318BA2ABB2AF52A153099
:10057800A6000030A7006A09AE006B09AF00AE0AFA
:100588000319AF0A2E08EA3EA0002F080318013EFF
:10059800003EA1000530A2000030A3000A168A110F
:1005A800FC220A128A11831203132108A901A90740
:1005B8002008A801A8070A168A11C0250A128A115C
:1005C8008312031326080F3E83160313B000831209
:1005D800031327080318013E003E83160313B100D6
:1005E800C92C003083126B02AA3003196A02031C5B
:1005F800FE2AFF2A422B00306B02D53003196A020B
:100608000318072B082B422B2B30A6000030A7001D
:100618006A09AE006B09AF00AE0A0319AF0A2E08CB
:10062800D53EA0002F080318013E003EA1000A3065
:10063800A2000030A3000A168A11FC220A128A11AD
:10064800831203132108A901A9072008A801A807F4
:100658000A168A11C0250A128A1183120313260862
:10066800143E83160313B0008312031327080318DC
:10067800013E003E83160313B100C92C00308312DB
:100688006B02803003196A02031C4B2B4C2B8F2BF7
:1006980000306B02AA3003196A020318542B552B39
:1006A8008F2B2A30A6000030A7006A09AE006B091C
:1006B800AF00AE0A0319AF0A2E08AA3EA0002F0801
:1006C8000318013E003EA1000A30A2000030A3003A
:1006D8000A168A11FC220A128A11831203132108AE
:1006E800A901A9072008A801A8070A168A11C02588
:1006F8000A128A118312031326081E3E8316031357
:10070800B0008312031327080318013E003E831626
:100718000313B100C92C003083126B026B3003192C
:100728006A02031C982B992BDC2B00306B0280305B
:1007380003196A020318A12BA22BDC2B1530A60083
:100748000030A7006A09AE006B09AF00AE0A0319B2
:10075800AF0A2E08803EA0002F080318013E003E75
:10076800A1000A30A2000030A3000A168A11FC2258
:100778000A128A11831203132108A901A907200864
:10078800A801A8070A168A11C0250A128A1183121D
:1007980003132608283E83160313B000831203139D
:1007A80027080318013E003E83160313B100C92C25
:1007B800003083126B024D3003196A02031CE52BCB
:1007C800E62B292C00306B026B3003196A020318E0
:1007D800EE2BEF2B292C1E30A6000030A7006A094B
:1007E800AE006B09AF00AE0A0319AF0A2E086B3EC4
:1007F800A0002F080318013E003EA1000A30A20005
:100808000030A3000A168A11FC220A128A118312E8
:1008180003132108A901A9072008A801A8070A1697
:100828008A11C0250A128A11831203132608323E40
:1008380083160313B0008312031327080318013E1D
:10084800003E83160313B100C92C003083126B02DB
:10085800383003196A02031C322C332C762C0030F2
:100868006B024D3003196A0203183B2C3C2C762C82
:100878001530A6000030A7006A09AE006B09AF006A
:10088800AE0A0319AF0A2E084D3EA0002F08031820
:10089800013E003EA1000A30A2000030A3000A1663
:1008A8008A11FC220A128A11831203132108A90152
:1008B800A9072008A801A8070A168A11C0250A1244
:1008C8008A118312031326083C3E83160313B000D3
:1008D8008312031327080318013E003E83160313EF
:1008E800B100C92C003083126B022B3003196A0245
:1008F800031C7F2C802CC92C00306B023830031964
:100908006A020318882C892CC92C0D30A6000030E7
:10091800A7006A09AE006B09AF00AE0A0319AF0A57
:100928002E08383EA0002F080318013E003EA10003
:100938000A30A2000030A3000A168A11FC220A120B
:100948008A11831203132108A901A9072008A80105
:10095800A8070A168A11C0250A128A1183120313DE
:100968002608463E83160313B00083120313270894
:100978000318013E003E83160313B100C92CC92C8D
:10098800C92CC92CC92CC92CC92C08004930840091
:10099800903083120313C5000408C6001030C70046
:1009A8004508840083170008C800C50A4608840063
:1009B800831348088000C60AC70BD42C1B2E0130AD
:1009C8000A168A11CD210A128A112B3083120313B9
:1009D800C5004508B40083160313310883120313B6
:1009E800B601B60783160313300883120313B50143
:1009F800B50783160313370883120313B801B80722
:100A080083160313360883120313B701B707493057
:100A18000A128A15E0250A128A1100300A128A156C
:100A2800B3200A128A11493083120313A700003039
:100A3800A8000A168A1154230A128A1140300A1291
:100A48008A15B3200A128A11831603133F08803AC5
:100A5800FF0080307F02031D332D01303E02031C4E
:100A6800362D372D4A2D831603133E08FF3EDC3EF4
:100A780084008313000883120313A7008030A800A2
:100A88000A168A1154230A128A115D2D831603133C
:100A98003E08053EDC3E84008313000883120313DE
:100AA800A7008030A8000A168A1154230A128A1156
:100AB8005D2D44300A128A15B3200A128A11831652
:100AC80003133E08D63E84008313000883120313E1
:100AD800A7008030A8000A168A1154230A128A1126
:100AE8004D300A128A15B3200A128A110630831271
:100AF8000313A0000030A100831603133E08013E33
:100B080083120313A200831603133F080318013E40
:100B1800003E83120313A3000A168A11BE260A1286
:100B28008A11831203132008DC3E84008313000813
:100B3800A7008030A8000A168A1154230A128A11C5
:100B4800282E01300A168A11CD210A128A11003086
:100B58000A128A15B3200A128A111B308312031352
:100B6800A7008030A8000A168A1154230A128A1195
:100B780040300A128A15B3200A128A118230831271
:100B88000313A7008030A8000A168A1154230A12FA
:100B98008A1144300A128A15B3200A128A11763053
:100BA80083120313A7008030A8000A168A11542361
:100BB8000A128A114D300A128A15B3200A128A11B4
:100BC800863083120313A7008030A8000A168A1102
:100BD80054230A128A11282E01300A168A11CD21AF
:100BE8000A128A1100300A128A15B3200A128A11D1
:100BF8000B3083120313A7008030A8000A168A114D
:100C080054230A128A1144300A128A15B3200A1290
:100C18008A11383083120313A7008030A8000A16FF
:100C28008A1154230A128A11282E282E282E831658
:100C380003135008003A0319E32C013A0319A52DB0
:100C4800033A0319F02D282E080083160313B80160
:100C5800B901831203135E08D701D7075D08D601CF
:100C6800D6070A168A1180230A128A11332F0030F8
:100C78000A128A15E0260A128A1183160313C60877
:100C8800031D472E482E4D2E4F08031D4C2E512E66
:100C98004D2ECC010314CC0D682F48088312031382
:100CA800DF00E0015F08E5006008E6006608E00094
:100CB8006508DF005F08E000DF015F08E500600805
:100CC800E60083160313490883120313DF00E001CB
:100CD8005F08E5070318E60A6008E6076508831653
:100CE8000313B8070318B90A831203136608831697
:100CF8000313B90783120313650883160313B40794
:100D08000318B50A83120313660883160313B5077D
:100D18000A128A11CA240A128A118316031339087F
:100D280083120313A701A707831603133808831236
:100D38000313A601A6070A168A1139240A128A1172
:100D4800831203132609DF002709E000DF0A0319CD
:100D5800E00A5C08A701A7075B08A601A6070A1610
:100D68008A1139240A128A11831203135F0826078D
:100D7800B60060080318600A2707B7000A168A1128
:100D880028230A128A11831203133608E20037084F
:100D9800E3003808E4006208A0006308A1006408C2
:100DA800A2000030A300C830A4004230A5000A16F3
:100DB8008A1192270A128A110318E32EE42E332F80
:100DC800831203135E08B701B7075D08B601B607BB
:100DD8000A168A1128230A128A1183120313360865
:100DE800C9003708CA003808CB006208B900630890
:100DF800BA006408BB000030B600C830B700423003
:100E0800B8000A128A152A240A128A1183120313B7
:100E18003608C6003708C7003808C8000A128A15FD
:100E2800F2240A128A11831203134608A8004708FD
:100E3800A9004808AA000A128A15D8220A128A119B
:100E4800831203132908D701D7072808D601D60724
:100E58000A168A1180230A128A11332F332F831618
:100E68000313390883120313A701A7078316031373
:100E7800380883120313A601A6070A168A11392413
:100E88000A128A11831203132608DF002708E000DC
:100E98005C08A701A7075B08A601A6070A168A111E
:100EA80039240A128A11831203136008803AE10078
:100EB8002708803A6102031D632F26085F02031C7E
:100EC800662F672F3B2E682F003083120313D6003E
:100ED8000030D7000A168A1180230A128A110800E6
:100EE800831203132308031D7A2F822F220821045B
:100EF8002004031D802F812F982F822F0030A000FF
:100F08000030A1000030A200F02FF02F982F013000
:100F1800A5002508A30701300310A20CA10CA00C02
:100F2800FF3E031D902F982FFE302205031D9D2F95
:100F38009E2F8B2FB62FB62F0130A5002508A307AB
:100F48000130A007003003180130A1070030031852
:100F58000130A20701300310A20CA10CA00CFF3E27
:100F6800031DAF2FFF302205031DBB2FBC2FA02F61
:100F7800C92FC92F0130A30201300310A00DA10D04
:100F8800A20DFF3E031DC12FC92FA11FCC2FCD2FAE
:100F9800BE2F2318D02FD12FD72FFF30A0057F3099
:100FA800A105FF30A2050310A30C2308A500A60184
:100FB800A70110300310A50DA60DA70DFF3E031DB8
:100FC800DE2F2508A0042608A1042708A204240867
:100FD800031DEF2FF02FA217080053344A3465344D
:100FE8006E345C344134923496347E348A349A3484
:040FF8008E343C34C3
:10100000FF1B0A2883137F1883170008840A03191B
:10101000FF0A080008308A000408840A82070034A6
:10102000013400340A34003464340034E8340334C6
:1010300010342734203443346834613472346734D4
:1010400069346E34673420344D346F34643465341D
:10105000203400345A34653472346F3420345334BD
:101060007434653470345F344D346F3474346F3499
:1010700072340034493452343A342534643463349D
:101080006D34203444343A3425346434003420340C
:101090002034453458344934543420342034003416
:1010A0002034433468346134723467346534203416
:1010B00000345334633461346E345F343334363443
:1010C00030340034433461346C34693462345F3416
:1010D00049345234003446346C3477345F345734F6
:1010E00061346C346C340034443472346934763492
:1010F00065345F3432346D340034443472346934CE
:10110000763465345F344C34003443344F344E34D9
:101110004634493452344D34003444347234323419
:1011200000343C343C343C3400343E343E343E34B1
:101130000034443472344C340034433468346734FB
:101140000034433461346C340034533463346E34CB
:0A115000003446346C347734003468
:1011660083120313A300A31723080A168A11CD219D
:101176000A128A15080083120313B001B101B401E3
:10118600B501B201B301B601B7013708803AFF00D5
:1011960080307F02031DD12808303602031CD42874
:1011A600D528D7280D290D290A168A11F7210A12E2
:1011B6008A15831203132908B501B5072808B40157
:1011C600B40703303502E930031934020318EC285A
:1011D600ED28F9283408B0070318B10A3508B10715
:1011E6000130B2070318B30A0030B3070130B6075F
:1011F6000318B70A0030B7073708803AFF00803077
:101206007F02031D082908303602031C0B290C290E
:10121600D7280D29831203133308A701A70732081D
:10122600A601A6073108A901A9073008A801A80741
:101236000A168A11C0250A128A1583120313270873
:10124600EB01EB072608EA01EA070A128A11A72230
:101256000A128A150800831203132308803AFF0036
:1012660080307F02031D392901302202031C3C29EC
:101276003D295C2989300A168A113D220A128A15EF
:1012860000300A168A113D220A128A1532300A16D1
:101296008A113D220A128A1500300A168A113D2249
:1012A6000A128A1501300A168A113D220A128A1577
:1012B600A12983120313A31F612962298129893079
:1012C6000A168A113D220A128A1500300A168A1158
:1012D6003D220A128A1532300A168A113D220A1256
:1012E6008A15FF300A168A113D220A128A15FF3026
:1012F6000A168A113D220A128A15A12989300A1670
:101306008A113D220A128A1500300A168A113D22D8
:101316000A128A1500300A168A113D220A128A1507
:1013260000300A168A113D220A128A1500300A1662
:101336008A113D220A128A15A129A12908008312C1
:1013460003130619A729A829BC290130F20072083F
:1013560083160313CE070A304E02031CB329B429A1
:10136600C029711EB729B829C029F1157112C029E3
:10137600C02983160313CE0171168312031386192F
:10138600C529C629DA290130F2007208831603132B
:10139600CA070A304A02031CD129D229DE29F01DC8
:1013A600D529D629DE297015F011DE29DE29831606
:1013B6000313CA01F01583120313061AE329E4295D
:1013C600F8290130F200720883160313CB070A309E
:1013D6004B02031CEF29F029FC29F01EF329F429FE
:1013E600FC297016F012FC29FC2983160313CB0185
:1013F600F01683120313861A012A022A162A0130CE
:10140600F200720883160313CD070A304D02031C3F
:101416000D2A0E2A1A2A711D112A122A1A2AF114C5
:1014260071111A2A1A2A83160313CD017115831214
:101436000313061B1F2A202A342A0130F2007208E1
:1014460083160313C7070A304702031C2B2A2C2ACC
:10145600392AF01C2F2A302A392A7014F010392A1A
:10146600392A83160313C701F014392A0800831694
:101476000313B601B70183120313E001E1015A0811
:10148600A301A3075908A201A2070A128A152E2151
:101496000A128A15972A01300A128A15E0260A12BC
:1014A6008A1583160313C608031D5A2A5B2A602A67
:1014B6004F08031D5F2A642A602ACC010314CC0D51
:1014C600CC2A440883120313DD00DE015D08E00028
:1014D6005E08E1006108DE006008DD005D08DE00F0
:1014E600DD015D08E0005E08E10083160313450890
:1014F60083120313DD00DE015D08E0070318E10A2D
:101506005E08E107600883160313B6070318B70AD7
:1015160083120313610883160313B7070A128A118D
:10152600CA240A128A15972A8316031337088312C8
:101536000313A701A70783160313360883120313A1
:10154600A601A6070A168A1139240A128A158312D9
:1015560003132608DD002708DE005A08A701A7079F
:101566005908A601A6070A168A1139240A128A15ED
:10157600831203135E08803ADF002708803A5F0271
:10158600031DC72A26085D02031CCA2ACB2A4E2A37
:10159600CC2A003083120313A2000030A3000A12E3
:1015A6008A152E210A128A150800831203132808A9
:1015B600AC002908AD002A08AE0003102D0D2E0D33
:1015C600AF002F08B500B508031DEA2AEB2AF52A55
:1015D6000030AB000030AA000030A9000030A8009F
:1015E6007D2B7D2B2808AC002908AD002A08AE000B
:1015F60017300310AE0CAD0CAC0CFF3E031DFC2ADD
:101606002C08AF002F08B000A917FF30A805FF303F
:10161600A9050030AA052808B1002908B2002A0841
:10162600B300B4018E30B502B51F1A2B1B2B402B0D
:101636003508803A8F3E0318212B222B2D2B0030A4
:10164600AB000030AA000030A9000030A8007D2BB6
:101656007D2B2D2B01300310B40CB30CB20CB10C46
:10166600FF3E031D2E2B0130AC002C08B507031DD1
:101676003D2B3E2B2D2B642B642B18303502031C7F
:10168600452B462B5D2B0030AB000030AA00003006
:10169600A9000030A8007D2B7D2B5D2B0130AC000E
:1016A6000310B10DB20DB30DB40DAC0B532B0130BD
:1016B600B5025D2BB508031D612B622B512B642BE4
:1016C600642B3008031D682B742BB109B209B309CA
:1016D600B409B10A0319B20A0319B30A0319B40A01
:1016E600742B3408AB003308AA003208A90031086D
:1016F600A8007D2B08000B1D812B822BD12B0B11F3
:1017060064308100013083160313B2070318B30A4D
:101716000030B3077017FA30F2000030F3003308D8
:10172600F501F5073208F401F4070A168A11A9240F
:101736000A128A1573087204031DA22BA32BA52B6C
:10174600F017A52BF430F2000130F30083160313D3
:101756003308F501F5073208F401F4070A168A1171
:10176600A9240A128A1573087204031DBB2BBC2B0D
:10177600C22B71148312031301308606C22BFD0897
:10178600031DC62BC72BD12B0A168A1109240A1250
:101796008A15F8007808FD00D12BD12B831203138C
:1017A6008C1ED62BD72BF92B1A08F8006C08A03EF6
:1017B60084007808831380006C08013E0F39F80016
:1017C600780883160313D3005308831203136D0698
:1017D6000319EE2BEF2BF92B831603135308F8008E
:1017E600780883120313EC00F92BF92B0C1EFC2B43
:1017F600FD2B1E2C831603130C1E022C032C1E2CF1
:10180600831203136F08A03E840083170008990013
:101816000130F8007808EF070F30F8007808EF0578
:101826006F086E06031D182C192C1E2C8316031325
:101836000C121E2C1E2C7C088312FF007B088A00CB
:101846007A088400790E8300FE0E7E0E090083124C
:1018560003133908BC003A08BD003B08BE0003105C
:101866003D0D3E0DBF003F08C400C408031D3C2CBF
:101876003D2C452C0030B6000030B7000030B800D3
:10188600F12CF12C3608BC003708BD003808BE0024
:1018960003103D0D3E0DBF003F08C500C508031DE2
:1018A600552C562C5E2C0030B6000030B7000030A8
:1018B600B800F12CF12C0030C1000030C20000301D
:1018C600C30089304507BC003C08C4023908BC0087
:1018D6003A08BD003B08BE0010300310BE0CBD0C1C
:1018E600BC0CFF3E031D702C3C08BF003F08C50022
:1018F6003608BC003708BD003808BE00103003109B
:10190600BE0CBD0CBC0CFF3E031D822C3C08BF0068
:101916003F08C5068030BC003C08C505BA17FF3035
:10192600B905FF30BA050030BB05B717FF30B6055D
:10193600FF30B7050030B8051830BC003C08C000C1
:10194600A42C01300310C10DC20DC30DFF3E031DB3
:10195600A52C38083B02031DB62C37083A02031D96
:10196600B62C36083902031CB92CBA2CC62C3608FC
:10197600B9023708031C370FBA023808031C380AA5
:10198600BB024114C62C01300310B90DBA0DBB0DB4
:10199600FF3E031DC72C0130C002031DD32CD42CDF
:1019A600A42CD52C4108A0004208A1004308A2009F
:1019B6004408BC003C08A3004508BD003D08A4003F
:1019C6000A128A1174270A128A1583120313200831
:1019D600B6002108B7002208B800F12C08008312CF
:1019E60003134608CC004708CD004808CE00031074
:1019F6004D0D4E0DCF004F08D000D008031D042D0D
:101A0600052D0D2D0030C6000030C7000030C8007F
:101A1600DF2DDF2D4908CC004A08CD004B08CE004B
:101A260003104D0D4E0DCF004F08D500D508031DF0
:101A36001D2D1E2D262D0030C6000030C70000309B
:101A4600C800DF2DDF2D55087B3ECC004C08D007A3
:101A56004608CC004708CD004808CE0010300310D9
:101A6600CE0CCD0CCC0CFF3E031D322D4C08CF0006
:101A76004F08D5004908CC004A08CD004B08CE00D7
:101A860010300310CE0CCD0CCC0CFF3E031D442DA4
:101A96004C08CF004F08D5068030CC004C08D50541
:101AA600C717CA17FF30C905FF30CA050030CB0576
:101AB6000030D1000030D2000030D3000730CC0017
:101AC6004C08D400662D461C692D6A2D7B2D4908CD
:101AD600D1074A08031103184A0A0319732DD207BE
:101AE6004B08031103184B0A03197A2DD3077B2DD4
:101AF60001300310C80CC70CC60CFF3E031D7C2D1D
:101B060001300310C90DCA0DCB0DFF3E031D842DF8
:101B16000130D402031D902D912D662D922D093092
:101B2600CC004C08D400972D461C9A2D9B2DAC2D2D
:101B36004908D1074A08031103184A0A0319A42DB4
:101B4600D2074B08031103184B0A0319AB2DD30711
:101B5600AC2D01300310C80CC70CC60CFF3E031D8C
:101B6600AD2D01300310D30CD20CD10CFF3E031D5A
:101B7600B52D0130D402031DC12DC22D972DC32DC5
:101B86005108A0005208A1005308A2005008CC003A
:101B96004C08A3005508CD004D08A4000A128A116E
:101BA60074270A128A15831203132008C600210817
:101BB600C7002208C800DF2D080083120313C300E4
:101BC6003530B9003908BC00C62E4408253A031939
:101BD600ED2DEE2DFA2D4408B9004308840039088E
:101BE600831380000130B9003908C307C62EBD0132
:101BF600012EDA2E162E162EC62E162E0130B407FC
:101C0600FF30340784000A128A150A200A128A1540
:101C1600C400003A0319DA2E643A0319162E0D3A57
:101C26000319162EC62E3C08840083130008BF0035
:101C3600840A0008C0000230B9003908BC07C01F7A
:101C4600252E262E302E0330B9003908BD04BF09D3
:101C5600C009BF0A0319C00A302EC4010314C40DFB
:101C66004408053A031D382E392E3B2E632E632E6B
:101C76004408B9003907013E84000A128A150A2071
:101C86000A128A15BA000A128A150A200A128A1539
:101C9600BB003B084002031D522E3A083F020318C0
:101CA600552E562E582E632E632E0130B900390854
:101CB600C4074408053A031D612E622E3B2E632E8F
:101CC6003D0803390319682E692E752E2D30B9008B
:101CD600430884003908831380000130B9003908AD
:101CE600C307752E4408B9003908BE00BA2E0A305B
:101CF600AE000030AF003E08B9003907013E84004F
:101D06000A128A150A200A128A15A6000A128A15CC
:101D16000A200A128A15A7004008A901A9073F0848
:101D2600A801A8070A168A11C0250A128A15831265
:101D360003132708B101B1072608B001B0070A1638
:101D46008A11ED240A128A15831203132E08303ED7
:101D5600BA003A08C4004408B900430884003908A8
:101D6600831380000130B9003908C307BA2EFF304B
:101D7600B9003908BE073E08FF3A031DC32EC42E1C
:101D86007A2EC62EC62E0130B407FF3034078400E3
:101D96000A128A150A200A128A15B9003908C400DF
:101DA600C408031DD72ED82EE82DDA2EDA2E4308C6
:101DB600840083138001DF2E080083120313A4001E
:101DC6008E300A168A113D220A128A1507300A1623
:101DD6008A113D220A128A15213083120313A300A9
:101DE6007630A200A20BF52EA30BF52E64000A1680
:101DF6008A115E220A128A1583120313A200220890
:101E060083160313C6008E300A168A113D220A1263
:101E16008A150D300A168A113D220A128A152130BA
:101E260083120313A3007630A200A20B182FA30B74
:101E3600182F64000A168A115E220A128A15831266
:101E46000313A200220883160313CF008312031381
:101E5600A408031D2F2F302F602F8E300A168A11EB
:101E66003D220A128A1513300A168A113D220A12D9
:101E76008A15213083120313A3007630A200A20B29
:101E8600422FA30B422F64000A168A115E220A1201
:101E96008A1583120313A200220883160313C800AF
:101EA6000A168A115E220A128A1583120313A200E9
:101EB600220883160313C900FF2F83122408013A50
:101EC600031D662F672F972F8E300A168A113D2223
:101ED6000A128A1514300A168A113D220A128A1528
:101EE600213083120313A3007630A200A20B792FB0
:101EF600A30B792F64000A168A115E220A128A152C
:101F060083120313A200220883160313C4000A16C1
:101F16008A115E220A128A1583120313A20022086E
:101F260083160313C500FF2F83122408023A031DEC
:101F36009D2F9E2FFF2F8E300A168A113D220A12E0
:101F46008A1513300A168A113D220A128A15213083
:101F560083120313A3007630A200A20BB02FA30BAB
:101F6600B02F64000A168A115E220A128A1583129D
:101F76000313A200220883160313C8000A168A1147
:101F86005E220A128A1583120313A2002208831600
:101F96000313C9008E300A168A113D220A128A15C9
:101FA60014300A168A113D220A128A15213083122C
:101FB6000313A3007630A200A20BDF2FA30BDF2FA3
:101FC60064000A168A115E220A128A158312031306
:101FD600A200220883160313C4000A168A115E2281
:101FE6000A128A1583120313A2002208831603130A
:0A1FF600C500FF2FFF2FFF2F08008A
:1023160064008001840A04060319003404068C292B
:1023260083120313A20009118910091422088800D8
:10233600091509110730A1007D30A000A00BA129C5
:10234600A10BA12908007E088A007F0882000A16D0
:102356008A11A6210A168A118000840A04087D06BD
:1023660003190034FF0A0319FE0AAA29831203136C
:10237600A200A1018C1122089300C1298C1DC42939
:10238600C529C129C6291308A0002008A1008C115F
:10239600CC29080083120313A20009118910091021
:1023A60022088800091509110D30A100FB30A00094
:1023B600A00BDB29A10BDB29E029080083120313FC
:1023C60085013F30831603138500A1308312031362
:1023D6009F000230831603139F00533083120313AA
:1023E600A000A00BF429080000300A168A116E24FA
:1023F6000A168A1183120313AA00AB012A08AC003D
:102406002B08AD002D08A901A9072C08A801A807CB
:102416000C2A080083120313981C122A132A182A5E
:10242600181218160310232A232A6C086D06031D9A
:102436001D2A1E2A202A0310232A0314232A232AAC
:10244600080080300A168A113D220A168A11843045
:102456000A168A113D220A168A1196300A168A1120
:102466003D220A168A1100300A168A113D220A16E2
:102476008A11080083120313A100422A422A6E0819
:10248600013E0F396F060319492A4A2A422A8B133D
:102496002108A0006E08A03E840020088317800053
:1024A6006E08013E0F39A0002008EE0083160313C4
:1024B6000C168B170800602A602A0A168A110D224C
:1024C6000A168A11031C682A692A602A8B1383124A
:1024D60003136D08A03E840083130008A0002008A3
:1024E600A1000130A0002008ED070F30A000200851
:1024F600ED058B1721087F2A08008316031387171B
:10250600BF3083120313A000200883160313870528
:102516001815143099001813831203131813831611
:10252600031318128312031398171816831603132E
:102536000C128C169816003083120313EF00EE006F
:10254600ED00A0002008EC000800831203139E0192
:102556001F15AD2A1F19B02AB12AAD2A00000000A6
:102566000000831203131E08A200A3012208A40080
:102576002308A50001300310A40DA50DFF3E031D81
:10258600BE2A831603131E08831203132508A1010E
:10259600A1072408A001A007D02A0800023083164C
:1025A60003139F0083120313880189018316031303
:1025B6008801890101300A168A11CD210A168A116D
:1025C60038300A168A11CD210A168A110C300A16DD
:1025D6008A11CD210A168A1106300A168A11CD21D2
:1025E6000A168A1102300A168A11CD210A168A1194
:1025F600080083120313A401A501012B201C042B40
:10260600052B0B2B2208A4070318A50A2308A507E8
:1026160001300310A20DA30DFF3E031D0C2B01304C
:102626000310A10CA00CFF3E031D132B2108200450
:10263600031D1E2B1F2B012B202B2508A101A107F3
:102646002408A001A007272B080083120313BB014F
:10265600B71F2E2B2F2B382BB609B709B60A03192D
:10266600B70ABB010314BB0D382B3608A000370888
:10267600A100A2018E30B9003908A3003B08BA00B8
:102686003A08A4000A128A1174270A168A118312BC
:1026960003132008B6002108B7002208B800532B00
:1026A60008006E2B831203132808FF0027088400F6
:1026B6000A128A1500200A168A110A168A1193210F
:1026C6000A168A11013083120313A7070318A80AF2
:1026D6000030A8076E2B831203132808FF00270873
:1026E60084000A128A1500200A168A110038031D72
:1026F6007D2B7E2B552B7F2B080083120313560848
:10270600D8005808D9005708D8005808DA00893088
:102716000A168A113D220A168A11831203135A08D1
:102726000A168A113D220A168A11831203135908C2
:102736000A168A113D220A168A1180300A168A1153
:102746003D220A168A1100300A168A113D220A16FF
:102756008A110800F001F101FD01EA01EB01EC012B
:10276600ED01EE01EF018313A0308400D6300A1686
:102776008A118B210A168A11831790308400B03093
:102786000A168A118B210A168A118313E330FD007B
:102796000730FE00F130FF00D63084000A168A1199
:1027A600AA210A168A1183010A128A111528FD0127
:1027B600FC30831603138600903083120313A300A4
:1027C600230883160313870540309400A130831233
:1027D6000313940004308316031381000A168A112A
:1027E60080220A168A110A168A11E1210A168A110E
:1027F6000A168A11D1220A168A110A168A11242269
:102806000A168A118B160B178B1708000A128A15DF
:10281600A2210A168A11F11D112C122C162CF11167
:102826000130382C382C701D192C1A2C1E2C7011C6
:102836000230382C382C701E212C222C262C70129B
:102846000330382C382CF11C292C2A2C2E2CF11074
:102856000430382C382C701C312C322C362C70104D
:102866000530382C382C0030382C08000030831204
:102876000313A71B0130A800A901A809A909A80AE2
:102886000319A90A2708803AFF0080307F02031D3A
:102896004E2C013026020030031801308312031338
:1028A6002807A00029080318290AA1002708A30160
:1028B600A3072608A201A2070A168A11FC220A16F5
:1028C6008A11831203132108A701A7072008A6016E
:1028D600A6076D2C080083120313A7008A2C9F11EC
:1028E6001F129F129B2C9F151F129F129B2C9F112C
:1028F6001F169F129B2C9F151F169F129B2C9F1114
:102906001F129F169B2C0030A82CA82C9B2C270846
:10291600003A0319722C013A0319762C033A03196B
:102926007A2C013A03197E2C073A0319822C862C3D
:102936005330A600A60B9D2C0A168A11A8220A1649
:102946008A11831203132008A82C08007308720446
:102956000319AE2CAF2CE52CF7010314F70DBF2C91
:1029660001300310F20DF30DFF3E031DB42C0130B0
:10297600F6007608F707BF2CF31FC22CC32CB32C26
:10298600C52CC52C73087502031DCB2C7208740266
:10299600031CCE2CCF2CD62C7208F4027308031C11
:1029A600F503F502D62C01300310F30CF20CFF3EB2
:1029B600031DD72C0130F702031DE22CE32CC52C96
:1029C600E52CE52C7508F301F3077408F201F2070C
:1029D600EC2C0800831203132F082E040319F42C81
:1029E600F52C2B2DB3010314B30D052D0130031067
:1029F600AE0DAF0DFF3E031DFA2C0130B2003208BA
:102A0600B307052DAF1F082D092DF92C0B2D0B2D06
:102A16002F083102031D112D2E083002031C142D20
:102A2600152D1C2D2E08B0022F08031CB103B10270
:102A36001C2D01300310AF0CAE0CFF3E031D1D2DE7
:102A46000130B302031D282D292D0B2D2B2D2B2DE7
:102A56003108AF01AF073008AE01AE07322D0800CE
:102A6600023083120313D900590883160313D000CA
:102A760080300A168A113D220A168A11422DF01F4D
:102A8600452D462D652DF0130A128A11CA240A1601
:102A96008A11652D652DFD01422DFD01422DFD0199
:102AA600422DFD01422D84300A168A113D220A1656
:102AB6008A11FD0183160313D001782D782DFD01AF
:102AC600422D422D7D08013A03194E2D033A031972
:102AD600502D013A0319522D073A0319542D013A84
:102AE6000319562D622D422D422D08008312031321
:102AF600A000AB2DBD2DBD2DFF3083160313BE07E1
:102B06000318BF0AFF30BF07BF1F8A2D8B2DBD2DAF
:102B16000530BE000030BF00BD2DBD2D013083162F
:102B26000313BE070318BF0A0030BF0706303E0670
:102B36003F04031D9F2DA02DBD2DBE01BF01BD2D40
:102B4600BD2D831603133E08BF2DBF2DBD2DBD2DF4
:102B560083122008013A0319BD2D033A0319BD2D2E
:102B6600013A03197F2D073A0319912D013A0319EA
:102B7600A42DBD2DFF30BF2D080083120313AB011A
:102B8600AC01270826040319C92DCA2D082EAD014C
:102B96000314AD0DDA2D01300310A60DA70DFF3E6F
:102BA600031DCF2D0130AA002A08AD07DA2DA71F75
:102BB600DD2DDE2DCE2DE02DE02D01300310AB0DE9
:102BC600AC0DFF3E031DE12D27082902031DED2D47
:102BD60026082802031CF02DF12DF92D2608A8023F
:102BE6002708031CA903A9022B14F92D0130031091
:102BF600A70CA60CFF3E031DFA2D0130AD02031DE6
:102C0600052E062EE02D082E082E2C08A701A70754
:102C16002B08A601A6070F2E08008312031307141C
:102C26008714A508031D182E192E202E0B300A1600
:102C36008A11B9210A168A11272E09300A168A1115
:102C4600B9210A168A11272E83120313071087103B
:102C5600A801A901442E07150000831203130711CA
:102C66006230A7006530A600A60B372EA70B372EBD
:102C76003C2E013083120313A8070318A90A00305B
:102C8600A90724082902031D4A2E23082802031C2B
:102C96004D2E4E2E2E2E0714871400300A168A113A
:102CA600B9210A168A118312031307108710071514
:102CB6000000831203130711080083160313D001C3
:102CC6000314D00D083083120313A3000030A400B0
:102CD600A5010A168A1110260A168A11722EF01FED
:102CE600752E762EAA2EF0130A128A11CA240A16F7
:102CF6008A11AA2EAA2EFD01722EFD01722E013016
:102D060083120313A3000030A400A5010314A50D2C
:102D16000A168A1110260A168A11FD01722E013032
:102D260083120313A3000030A400A5010A168A111A
:102D360010260A168A11FD01722E83160313C2018C
:102D4600C301FD01D001BD2EBD2E722E722E7D084F
:102D5600013A03197E2E033A0319802E013A03190C
:102D6600822E073A0319922E013A0319A02E722ECB
:102D7600722E722E080083120313A601A31FC42EFF
:102D8600C52ECE2EA209A309A20A0319A30AA601DB
:102D96000314A60DCE2EA11FD12ED22ED82EA009F9
:102DA600A109A00A0319A10AD82E21082004031993
:102DB600DD2EDE2E142FA5010314A50DEE2E0130F7
:102DC6000310A00DA10DFF3E031DE32E0130A4004C
:102DD6002408A507EE2EA11FF12EF22EE22EF42EC8
:102DE600F42E21082302031DFA2E20082202031CBA
:102DF600FD2EFE2E052F2008A2022108031CA30388
:102E0600A302052F01300310A10CA00CFF3E031DE9
:102E1600062F0130A502031D112F122FF42E142F99
:102E2600142F2608031D182F1E2FA209A309A20A74
:102E36000319A30A1E2F2308A101A1072208A00136
:102E4600A007252F080083120313DB01DC01DD0137
:102E5600DE01DF01E0016008803AFF0080307F027A
:102E6600031D372FC8305F02031C3A2F3B2F3D2F1F
:102E7600882F882F0A128A15BE200A168A118312F5
:102E860003136B085C02031D4A2F6A085B020318D2
:102E96004D2F4E2F5B2F6B08DC01DC076A08DB0128
:102EA600DB076008DE01DE075F08DD01DD075B2F5B
:102EB6000230A3000030A400A5010314A50D0A16D4
:102EC6008A1110260A168A11F01F6A2F6B2F722F8D
:102ED600F0130A128A11CA240A168A11722F0230B6
:102EE60083120313DF070318E00A0030E0076008C7
:102EF600803AFF0080307F02031D832FC8305F02B7
:102F0600031C862F872F3D2F882F831203135E08FD
:102F1600DA01DA075D08D901D907912F0800831273
:102F26000313A21F972F982FBE2F0030A600003044
:102F3600A7008030A8002009A9002109AA002209BB
:102F4600AB00A90A0319AA0A0319AB0A2908A6079E
:102F56002A0803182A0FB02FB12FA7072B0803182A
:102F66002B0FB62FB72FA8072608A0002708A10009
:102F76002808A200BE2FA51FC12FC22FE82F0030A0
:102F8600A6000030A7008030A8002309A900240964
:102F9600AA002509AB00A90A0319AA0A0319AB0A54
:102FA6002908A6072A0803182A0FDA2FDB2FA707F6
:102FB6002B0803182B0FE02FE12FA8072608A300E4
:102FC6002708A4002808A500E82F8030A206803034
:102FD600A50625082202031DF62F24082102031D3B
:102FE600F62F230820020318F92FFA2FFC2F0310BF
:0A2FF600FF2F0314FF2FFF2F080028
:02400E0032FF7F
:00000001FF
