:060000000A128A11122809
:10000800FE00030EF9000408FA000A08FB00831238
:1000180003137F08FC000A128A152C290A168A1174
:100028000F2BFF3083120313E3006308E800E60197
:10003800E7010A168A113D230A128A110A168A1143
:1000480008220A128A112828F01F2B282C283E285B
:10005800F01302300A128A1558230A128A110A1656
:100068008A11EA260A128A110A128A150B260A121E
:100078008A113E287D08031D4228292A7D080A1670
:100088008A11CF240A128A1183120313E30063082A
:10009800E800FD01292A292A0A168A11B1250A121F
:1000A8008A113F2A8D300A168A11E2220A128A1111
:1000B80000300A168A11E2220A128A113F2A3830C1
:1000C80083120313D900FF30DA003830DB00FF3029
:1000D800DC000A128A157B220A128A113F2ABA30DA
:1000E80083120313D900FF30DA009030DB000130AF
:1000F800DC000A128A15D3210A128A111A308312D7
:100108000313E5005E30E4008630E300E30B8A2841
:10011800E40B8A28E50B8A286400B03083120313A5
:10012800D900FF30DA009030DB000130DC000A1221
:100138008A15D3210A128A111A3083120313E50093
:100148005E30E4008630E300E30BA828E40BA8281F
:10015800E50BA8286400A63083120313D900FF30EA
:10016800DA009030DB000130DC000A128A15D32156
:100178000A128A111A3083120313E5005E30E40074
:100188008630E300E30BC628E40BC628E50BC62837
:1001980064009C3083120313D900FF30DA009030DA
:1001A800DB000130DC000A128A15D3210A128A11F9
:1001B8003F2A0A168A1194210A128A11172A002A3C
:1001C8000A168A11EA260A128A11C8308312031302
:1001D800D9000030DA006A08DC01DC076908DB01B5
:1001E800DB070A128A1556240A128A11172A83165F
:1001F8000313D1010314D10D172AD1010314D10D12
:10020800172AD101383083120313A200FF30A3004C
:10021800FF30A4007F30A5000A168A11D1230A12E4
:100228008A111A3083120313E5005E30E400863029
:10023800E300E30B1D29E40B1D29E50B1D296400D0
:10024800383083120313D900FF30DA003830DB006E
:10025800FF30DC000A128A157B220A128A115030FC
:1002680083120313D9000030DA009030DB0001302C
:10027800DC000A128A15D3210A128A112C30831243
:100288000313D9000130DA00C830DB000030DC008D
:100298000A128A157B220A128A110A168A11EA267C
:1002A8000A128A11C83083120313D9000030DA0009
:1002B8006908F63EDB006A080318013EFF3EDC00D1
:1002C8000A128A1556240A128A11172A50308312E4
:1002D8000313D9000030DA009030DB000130DC0075
:1002E8000A128A15D3210A128A110A168A11EA26D5
:1002F8000A128A11C83083120313D9000030DA00B9
:100308006908F63EDB006A080318013EFF3EDC0080
:100318000A128A1556240A128A11172A1A308312C9
:100328000313E5005E30E4008630E300E30B9A290E
:10033800E40B9A29E50B9A296400193083120313F8
:10034800A3000030A400A5010A168A110F260A127C
:100358008A110A168A11EA260A128A11C8308312EB
:100368000313D9000030DA006A08DC01DC076908E9
:10037800DB01DB070A128A116D240A128A1119306F
:1003880083120313A3000030A400A5010314A50DD4
:100398000A168A110F260A128A110A168A11EA26E3
:1003A8000A128A11C83083120313D9000030DA0008
:1003B8006A08DC01DC076908DB01DB070A128A1519
:1003C80056240A128A11172A0A168A11EA260A12CC
:1003D8008A11C83083120313D9000030DA006A0882
:1003E800DC01DC076908DB01DB070A128A155624E1
:1003F8000A128A11172A172A831603135108003A7A
:100408000319E428013A0319FB28033A03190129BF
:10041800013A03190529093A03196A29013A031906
:100428009229E829172A831603135108013A031D54
:100438001E2A1F2A002AD1013F2A0A168A111625C8
:100448000A128A113F2A3F2A3F2A83120313680897
:10045800003A03195028013A03195628033A031998
:100468006328013A03197328073A0319DD28013A6A
:100478000319212A3F2AFF3083120313E30063087C
:10048800E800282828280A128A1112280030831226
:1004980003136A02D53003196902031C542A552A2A
:1004A800982A00306A02EA300319690203185D2AA3
:1004B8005E2A982A1530A6000030A7006909AE0008
:1004C8006A09AF00AE0A0319AF0A2E08EA3EA00077
:1004D8002F080318013E003EA1000530A20000309D
:1004E800A3000A168A115E220A128A1183120313C4
:1004F8002108A901A9072008A801A8070A168A1136
:1005080061250A128A118312031326080F3E8316E7
:100518000313B8008312031327080318013E003E93
:1005280083160313B9006C2C003083126A02AA30B8
:1005380003196902031CA12AA22AE52A00306A02CB
:10054800D530031969020318AA2AAB2AE52A2B30E9
:10055800A6000030A7006909AE006A09AF00AE0A1C
:100568000319AF0A2E08D53EA0002F080318013E34
:10057800003EA1000A30A2000030A3000A168A112A
:100588005E220A128A11831203132108A901A907FE
:100598002008A801A8070A168A1161250A128A11DB
:1005A800831203132608143E83160313B80083121C
:1005B800031327080318013E003E83160313B900EE
:1005C8006C2C003083126A02803003196902031C04
:1005D800EE2AEF2A322B00306A02AA300319690288
:1005E8000318F72AF82A322B2A30A6000030A70071
:1005F8006909AE006A09AF00AE0A0319AF0A2E08EE
:10060800AA3EA0002F080318013E003EA1000A30B0
:10061800A2000030A3000A168A115E220A128A116B
:10062800831203132108A901A9072008A801A80714
:100638000A168A1161250A128A11831203132608E1
:100648001E3E83160313B8008312031327080318EA
:10065800013E003E83160313B9006C2C0030831250
:100668006A026B3003196902031C3B2B3C2B7F2B5E
:1006780000306A028030031969020318442B452BA5
:100688007F2B1530A6000030A7006909AE006A0963
:10069800AF00AE0A0319AF0A2E08803EA0002F084B
:1006A8000318013E003EA1000A30A2000030A3005A
:1006B8000A168A115E220A128A118312031321086C
:1006C800A901A9072008A801A8070A168A11612507
:1006D8000A128A11831203132608283E831603136D
:1006E800B8008312031327080318013E003E83163F
:1006F8000313B9006C2C003083126A024D300319C1
:100708006902031C882B892BCC2B00306A026B30C2
:10071800031969020318912B922BCC2B1E30A600CB
:100728000030A7006909AE006A09AF00AE0A0319D4
:10073800AF0A2E086B3EA0002F080318013E003EAA
:10074800A1000A30A2000030A3000A168A115E2216
:100758000A128A11831203132108A901A907200884
:10076800A801A8070A168A1161250A128A1183129C
:1007780003132608323E83160313B80083120313AB
:1007880027080318013E003E83160313B9006C2C9A
:10079800003083126A02383003196902031CD52B12
:1007A800D62B192C00306A024D3003196902031840
:1007B800DE2BDF2B192C1530A6000030A7006909A5
:1007C800AE006A09AF00AE0A0319AF0A2E084D3E03
:1007D800A0002F080318013E003EA1000A30A20025
:1007E8000030A3000A168A115E220A128A118312A7
:1007F80003132108A901A9072008A801A8070A16B8
:100808008A1161250A128A118312031326083C3EB5
:1008180083160313B8008312031327080318013E35
:10082800003E83160313B9006C2C003083126A0251
:100838002B3003196902031C222C232C6C2C00304A
:100848006A0238300319690203182B2C2C2C6C2CE3
:100858000D30A6000030A7006909AE006A09AF0094
:10086800AE0A0319AF0A2E08383EA0002F08031855
:10087800013E003EA1000A30A2000030A3000A1683
:100888008A115E220A128A11831203132108A90110
:10089800A9072008A801A8070A168A1161250A12C3
:1008A8008A11831203132608463E83160313B800E1
:1008B8008312031327080318013E003E831603130F
:1008C800B9006C2C6C2C6C2C6C2C6C2C6C2C6C2C3F
:1008D800080083160313BE01BF01831203135A08CD
:1008E800A301A3075908A201A207FF30A4007F3083
:1008F800A5000A168A11D1230A128A118316031336
:10090800D101862C0A168A11EA260A128A11831244
:1009180003136A085C02031D932C69085B02031821
:10092800962C972CB92C5B080F3EDD005C08031849
:10093800013E003EDE005E086A02031DA52C5D082C
:1009480069020318A82CA92CB92C5A08A301A307DB
:100958005908A201A207A430A4000630A5000A166F
:100968008A11D1230A128A110A2D831203135C08F3
:100978006A02031DC12C5B0869020318C42CC52C2C
:10098800D52C5A08A301A3075908A201A2075C3075
:10099800A400F930A5000A168A11D1230A128A1177
:1009A8000A2D831203135B080F3EDD005C08031851
:1009B800013E003EDE005E086A02031DE52C5D086C
:1009C8006902031CE82CE92CF72C8D300A168A11D1
:1009D800E2220A128A1100300A168A11E2220A1249
:1009E8008A11A42D0A2D831203135A08A301A30701
:1009F8005908A201A207FF30A4007F30A5000A16FB
:100A08008A11D1230A128A110A2D0A2D02300A12DC
:100A18008A1558230A128A11831203136B08031DBF
:100A2800162D1C2D83160313D1010314D10DA42DEB
:100A380083126F08031D212D282D0230DD005D086B
:100A480083160313D100A42D83126C08031D2D2DCA
:100A5800342D0330DD005D0883160313D100A42D67
:100A680083126D08DD00DE015D08E0005E08E1002C
:100A78006108DE006008DD005D08DE00DD015D085C
:100A8800E0005E08E1006E08DD00DE015D08E007B9
:100A98000318E10A5E08E107600883160313C0071C
:100AA8000318C10A83120313610883160313C107CD
:100AB80083120313600883160313BC070318BD0AC7
:100AC80083120313610883160313BD074C088312AE
:100AD8000313DD00DE015D08E0005E08E100610847
:100AE800DE006008DD005D08DE00DD015D08E00075
:100AF8005E08E100831603134D0883120313DD001B
:100B0800DE015D08E0070318E10A5E08E1076008F6
:100B180083160313BE070318BF0A83120313610861
:100B280083160313BF073F08B701B7073E08B6018E
:100B3800B6070A128A150B260A128A11862C862CE9
:100B4800831203135A08A301A3075908A201A20795
:100B58000C30A400FE30A5000A168A11D1230A120F
:100B68008A111B2E01300A128A1558230A128A117B
:100B7800831203136B08031DC22DC82D831603139C
:100B8800D1010314D10D4E2E83126F08031DCD2DF4
:100B9800D42D0230DD005D0883160313D1004E2EDC
:100BA80083126C08031DD92DE02D0330DD005D088C
:100BB80083160313D1004E2E831603134C08831299
:100BC8000313DD00DE015D08E0005E08E100610856
:100BD800DE006008DD005D08DE00DD015D08E00084
:100BE8005E08E100831603134D0883120313DD002A
:100BF800DE015D08E0070318E10A5E08E107600806
:100C080083160313BE070318BF0A83120313610870
:100C180083160313BF073F08B701B7073E08B6019D
:100C2800B6070A128A150B260A128A111B2E83167A
:100C380003133F0883120313A701A707831603139F
:100C48003E0883120313A601A6070A168A119C23DD
:100C58000A128A11831203132608DD002708DE0012
:100C6800A630A600FF30A7000A168A119C230A1294
:100C78008A11831203135E08803ADF002708803A3E
:100C88005F02031D492E26085D02031C4C2E4D2EC3
:100C9800B62D4E2E003083120313A2000030A3009D
:100CA800FF30A4007F30A5000A168A11D1230A124A
:100CB8008A1183160313510883120313DD00DE0122
:100CC8005D0883160313B600831203135E088316A8
:100CD8000313B7000A128A150B260A128A11080094
:100CE80083120313C3003530B9003908BC005A2FEA
:100CF8004408253A0319812E822E8E2E4408B90005
:100D0800430884003908831380000130B90039088A
:100D1800C3075A2FBD01952E6E2FAA2EAA2E5A2F21
:100D2800AA2E0130B407FF30340784000A128A154E
:100D38000A200A128A11C400003A03196E2F643A75
:100D48000319AA2E0D3A0319AA2E5A2F3C0884001B
:100D580083130008BF00840A0008C0000230B900ED
:100D68003908BC07C01FB92EBA2EC42E0330B900EB
:100D78003908BD04BF09C009BF0A0319C00AC42E37
:100D8800C4010314C40D4408053A031DCC2ECD2E0E
:100D9800CF2EF72EF72E4408B9003907013E8400FC
:100DA8000A128A150A200A128A11BA000A128A152A
:100DB8000A200A128A11BB003B084002031DE62ED6
:100DC8003A083F020318E92EEA2EEC2EF72EF72EEA
:100DD8000130B9003908C4074408053A031DF52E47
:100DE800F62ECF2EF72E3D0803390319FC2EFD2EC3
:100DF800092F2D30B9004308840039088313800077
:100E08000130B9003908C307092F4408B900390867
:100E1800BE004E2F0A30AE000030AF003E08B900C9
:100E28003907013E84000A128A150A200A128A111B
:100E3800A6000A128A150A200A128A11A700400879
:100E4800A901A9073F08A801A8070A168A11612560
:100E58000A128A11831203132708B101B107260861
:100E6800B001B0070A168A1189240A128A1183125E
:100E780003132E08303EBA003A08C4004408B900EB
:100E8800430884003908831380000130B900390809
:100E9800C3074E2FFF30B9003908BE073E08FF3A96
:100EA800031D572F582F0E2F5A2F5A2F0130B407D2
:100EB800FF30340784000A128A150A200A128A11A0
:100EC800B9003908C400C408031D6B2F6C2F7C2E91
:100ED8006E2F6E2F4308840083138001732F080040
:100EE80083120313A401A5018E300A168A11E22287
:100EF8000A128A1119300A168A11E2220A128A1174
:100F0800213083120313A3007630A200A20B8A2F8C
:100F1800A30B8A2F64000A168A118A220A128A11E0
:100F280083120313A2002208ED000A168A118A22EE
:100F38000A128A1183120313A2002208EE008E30CF
:100F48000A168A11E2220A128A1115300A168A1123
:100F5800E2220A128A11213083120313A300763089
:100F6800A200A20BB52FA30BB52F64000A168A1195
:100F78008A220A128A1183120313A200A3012208EB
:100F880083160313B2008312031323088316031373
:100F9800B300831203136D08A200A3012208A40062
:100FA8002308A5002508A3002408A2002208A300FE
:100FB800A2012208A4002308A5006E08A200A3012C
:100FC8002208A4070318A50A2308A50725088316DD
:100FD8000313B101B1078312031324088316031303
:100FE800B001B007080064008001840A04060319F0
:060FF80000340406F82F8E
:10100000FF1B0A2883137F1883170008840A03191B
:10101000FF0A080008308A000408840A82070034A6
:10102000013400340A34003464340034E8340334C6
:1010300010342734203443346834613472346734D4
:1010400069346E34673420344D346F34643465341D
:10105000203400345A34653472346F3420345334BD
:101060007434653470345F344D346F3474346F3499
:1010700072340034493452343A342534643463349D
:101080006D34203444343A3425346434003420340C
:101090002034453458344934543420342034003416
:1010A0002034433468346134723467346534203416
:1010B00000345334633461346E345F343334363443
:1010C00030340034433461346C34693462345F3416
:1010D00049345234003446346C3477345F345734F6
:1010E00061346C346C340034443472346934763492
:1010F00065345F3432346D340034443472346934CE
:10110000763465345F344C34003443344F344E34D9
:101110004634493452344D340034253464346D340B
:101120005634003444347234323400343C343C3469
:101130003C3400343E343E343E3400344434723463
:101140004C340034433468346734003443346134FD
:101150006C340034533463346E34003446346C34AD
:10116000773400344634433400344E34433400344E
:1011700052344334003454344334003457346134EB
:02118000003439
:1011880083120313A601A31FCA28CB28D428A209B7
:10119800A309A20A0319A30AA6010314A60DD428B9
:1011A800A11FD728D828DE28A009A109A00A031959
:1011B800A10ADE28210820040319E328E4281A29B3
:1011C800A5010314A50DF42801300310A00DA10DED
:1011D800FF3E031DE9280130A4002408A507F428D0
:1011E800A11FF728F828E828FA28FA282108230256
:1011F800031D002920082202031C032904290B29A6
:101208002008A2022108031CA303A3020B29013012
:101218000310A10CA00CFF3E031D0C290130A502F0
:10122800031D17291829FA281A291A292608031D1F
:101238001E292429A209A309A20A0319A30A2429F9
:101248002308A101A1072208A001A0072B29080053
:101258000B1D2F2930297F290B11643081000130A3
:1012680083160313BA070318BB0A0030BB077017AD
:10127800FA30F2000030F3003B08F501F5073A08B0
:10128800F401F4070A168A1145240A128A1573080C
:101298007204031D502951295329F0175329F4309A
:1012A800F2000130F300831603133B08F501F5073C
:1012B8003A08F401F4070A168A1145240A128A1515
:1012C80073087204031D69296A297029711483122D
:1012D8000313013086067029FD08031D742975293A
:1012E8007F290A168A116C230A128A15F8007808D1
:1012F800FD007F297F29831203138C1E84298529E9
:10130800A1291A08F800831603135708A03E840081
:101318007808831380005708013E0F39F8007808D1
:10132800D9005908580603199A299B29A12959084F
:10133800F8007808D700A129A12983120C1EA52935
:10134800A629C729831603130C1EAB29AC29C72964
:101358005D08A03E840083170008831203139900D8
:101368000130F800780883160313DD070F30F80002
:101378007808DD055D085C06031DC329C429C72953
:101388000C12C729C7297C088312FF007B088A0032
:101398007A088400790E8300FE0E7E0E09008316FB
:1013A8000313BE01BF0183120313E001E1015A08D0
:1013B800A301A3075908A201A2070A168A117626D3
:1013C8000A128A153A2A01300A128A1558230A1273
:1013D8008A1583120313EB08031DF329F429F9294D
:1013E8006F08031DF829FF29F92983160313D10172
:1013F8000314D10D6F2A831603134C0883120313A9
:10140800DD00DE015D08E0005E08E1006108DE0045
:101418006008DD005D08DE00DD015D08E0005E08B3
:10142800E100831603134D0883120313DD00DE0168
:101438005D08E0070318E10A5E08E1076008831603
:101448000313BE070318BF0A831203136108831628
:101458000313BF073F08B701B7073E08B601B60731
:101468000A128A150B260A128A153A2A83160313BA
:101478003F0883120313A701A707831603133E0827
:1014880083120313A601A6070A168A119C230A12BF
:101498008A15831203132608DD002708DE005A0880
:1014A800A701A7075908A601A6070A168A119C23AF
:1014B8000A128A15831203135E08803ADF00270890
:1014C800803A5F02031D6A2A26085D02031C6D2A02
:1014D8006E2AE7296F2A003083120313A200003016
:1014E800A3000A168A1176260A128A15080083169E
:1014F8000313C001C101831203135C08A301A307EE
:101508005B08A201A207FF30A4007F30A5000A16DD
:101518008A11D1230A128A15FD2A00300A128A1567
:1015280058230A128A15831203136B08031D9D2A78
:10153800A32A83160313D1010314D10D322B83126E
:101548006F08031DA82AAF2A0230DD005D08831644
:101558000313D100322B83126C08031DB42ABB2A53
:101568000330DD005D0883160313D100322B83128C
:101578006D08DD00DE015D08E0005E08E10061083D
:10158800DE006008DD005D08DE00DD015D08E000CA
:101598005E08E1006E08DD00DE015D08E007031863
:1015A800E10A5E08E107600883160313C007031801
:1015B800C10A83120313610883160313C107831238
:1015C8000313600883160313BC070318BD0A8312AC
:1015D8000313610883160313BD074108B701B70752
:1015E8004008B601B6070A128A150B260A128A1590
:1015F800FD2A83160313410883120313A701A707C3
:1016080083160313400883120313A601A6070A16BC
:101618008A119C230A128A15831203132608DD00F7
:101628002708DE005A08A701A7075908A601A60738
:101638000A168A119C230A128A15831203135E085C
:10164800803ADF002708803A5F02031D2D2B260809
:101658005D02031C302B312B912A322B8316031386
:10166800510883120313DD00DE015D08831603139E
:10167800B600831203135E0883160313B7000A1219
:101688008A150B260A128A15003083120313A2004A
:101698000030A300FF30A4007F30A5000A168A118D
:1016A800D1230A128A15080083120313A3008E306F
:1016B8000A168A11E2220A128A150A300A168A11B3
:1016C800E2220A128A150A168A118A220A128A1531
:1016D80083120313A2002208EC008E300A168A1126
:1016E800E2220A128A150B300A168A11E2220A121D
:1016F8008A150A168A118A220A128A158312031376
:10170800A2002208EC078E300A168A11E2220A1279
:101718008A1507300A168A11E2220A128A150A1651
:101728008A118A220A128A1583120313A200220838
:10173800EB008E300A168A11E2220A128A150D3041
:101748000A168A11E2220A128A150A168A118A22B0
:101758000A128A1583120313A2002208EF00A308B5
:10176800031DB72BB82BD92B8E300A168A11E2220B
:101778000A128A1513300A168A11E2220A128A15E9
:101788000A168A118A220A128A1583120313A200E2
:101798002208ED000A168A118A220A128A15831273
:1017A8000313A2002208EE00552C2308013A031D5A
:1017B800DE2BDF2B042C8E300A168A11E2220A1245
:1017C8008A1514300A168A11E2220A128A150A1694
:1017D8008A118A220A128A1583120313A200220888
:1017E80083160313CC000A168A118A220A128A1554
:1017F80083120313A200220883160313CD00552C6D
:1018080083122308023A031D0A2C0B2C552C8E3008
:101818000A168A11E2220A128A1513300A168A1148
:10182800E2220A128A150A168A118A220A128A15CF
:1018380083120313A2002208ED000A168A118A22D5
:101848000A128A1583120313A2002208EE008E30B2
:101858000A168A11E2220A128A1514300A168A1107
:10186800E2220A128A150A168A118A220A128A158F
:1018780083120313A200220883160313CC000A164E
:101888008A118A220A128A1583120313A2002208D7
:1018980083160313CD00552C552C552C552C552C3F
:1018A800552C080083160313C001C10183120313CA
:1018B8005A08A301A3075908A201A207FF30A400F0
:1018C8007F30A5000A168A11D1230A128A158316B9
:1018D8000313D10183120313DF01E001732C831278
:1018E80003135C08803AFF0080307F02031D7E2CC2
:1018F80065305B02031C812C822C8B2CFF308312F9
:101908000313DB070318DC0AFF30DC078B2C831278
:1019180003135C08803AFF0080307F02031D962C79
:1019280064305B020318992C9A2CA32C0130831283
:101938000313DB070318DC0A0030DC07A32C0A16A4
:101948008A11EA260A128A15831203136A085C02AE
:10195800031DB02C69085B020318B32CB42CD62CD9
:101968005B08193EDD005C080318013E003EDE00FE
:101978005E086A02031DC22C5D0869020318C52CA3
:10198800C62CD62C5A08A301A3075908A201A207FE
:10199800A430A4000630A5000A168A11D1230A1221
:1019A8008A15782D831203135C086A02031DDE2C46
:1019B8005B0869020318E12CE22C042D5B08E73E62
:1019C800DD005C080318013EFF3EDE006A085E0287
:1019D800031DF02C69085D020318F32CF42C042D68
:1019E8005A08A301A3075908A201A2075C30A40062
:1019F800F930A5000A168A11D1230A128A15782D02
:101A0800831203135B08EC3EDD005C080318013EFB
:101A1800FF3EDE006A085E02031D142D69085D02A0
:101A2800031C172D182D352D0130DF070318E00A88
:101A38000030E0076008803AFF0080307F02031D15
:101A4800272D04305F02031C2A2D2B2D782D0B30F7
:101A580083120313DD005D0883160313D100E52DFF
:101A6800782D83125B08193EDD005C080318013EDF
:101A7800003EDE005E086A02031D442D5D0869020F
:101A8800031C472D482D652DFF30DF070318E00A9A
:101A9800FF30E0076008803AFF007F307F02031DB7
:101AA800572DFD305F0203185A2D5B2D782D0A3013
:101AB80083120313DD005D0883160313D100E52D9F
:101AC800782D83125A08A301A3075908A201A20777
:101AD800FF30A4007F30A5000A168A11D1230A120C
:101AE8008A15782D782D782D00300A128A155823FA
:101AF8000A128A15831203136B08031D842D8A2D7D
:101B080083160313D1010314D10DE52D83126F0839
:101B1800031D8F2D962D0230DD005D0883160313FB
:101B2800D100E52D83126C08031D9B2DA22D0330D7
:101B3800DD005D0883160313D100E52D83126D08BF
:101B4800DD00DE015D08E1005E08E2006208DE00FB
:101B58006108DD005D08DE00DD015D08E1005E086A
:101B6800E2006E08DD00DE015D08E1070318E20A05
:101B78005E08E207610883160313C0070318C10A49
:101B880083120313620883160313C1078312031316
:101B9800610883160313BC070318BD0A83120313D5
:101BA800620883160313BD074108B701B707400849
:101BB800B601B6070A128A150B260A128A15732C63
:101BC800732C003083120313A2000030A300FF30EF
:101BD800A4007F30A5000A168A11D1230A128A159B
:101BE80083160313510883120313DD00DE015D0819
:101BF80083160313B600831203135E0883160313B8
:101C0800B7000A128A150B260A128A1508004930ED
:101C18008400903083120313C5000408C6001030F6
:101C2800C7004508840083170008C800C50A46088D
:101C38008400831348088000C60AC70B152EF22FAC
:101C480001300A168A1122210A128A152B308312B2
:101C58000313C5004508B40083160313350883121F
:101C68000313B601B607831603133408831203134C
:101C7800B501B50783160313370883120313B80198
:101C8800B80783160313360883120313B701B7077F
:101C980049300A128A1174260A128A1500300A1667
:101CA8008A11D0200A128A15493083120313A7001B
:101CB8000030A8000A168A11B6220A128A15403086
:101CC8000A168A11D0200A128A15831603134708A8
:101CD800803AFF0080307F02031D742E01304602D7
:101CE800031C772E782E8B2E831603134608FF3E8F
:101CF800E43E84008313000883120313A700803096
:101D0800A8000A168A11B6220A128A159E2E831670
:101D180003134608053EE43E84008313000883123B
:101D28000313A7008030A8000A168A11B6220A12E7
:101D38008A159E2E44300A168A11D0200A128A1556
:101D4800831603134608DE3E8400831300088312BB
:101D58000313A7008030A8000A168A11B6220A12B7
:101D68008A154D300A168A11D0200A128A150630B3
:101D780083120313A0000030A10083160313460842
:101D8800013E83120313A2008316031347080318A6
:101D9800013E003E83120313A3000A128A15C420D1
:101DA8000A128A15831203132008E43E8400831361
:101DB8000008A7008030A8000A168A11B6220A1265
:101DC8008A15FF2F01300A168A1122210A128A1554
:101DD80000300A168A11D0200A128A151B30831285
:101DE8000313A7008030A8000A168A11B6220A1227
:101DF8008A1540300A168A11D0200A128A158730AF
:101E080083120313A7008030A8000A168A11B6228D
:101E18000A128A1544300A168A11D0200A128A1525
:101E2800763083120313A7008030A8000A168A119F
:101E3800B6220A128A154D300A168A11D0200A12C3
:101E48008A158B3083120313A7008030A8000A1666
:101E58008A11B6220A128A15FF2F01300A168A1132
:101E680022210A128A1500300A168A11D0200A1275
:101E78008A150B3083120313A7008030A8000A16B6
:101E88008A11B6220A128A1540300A168A11D02001
:101E98000A128A157E3083120313C5004508B40060
:101EA80083160313310883120313B601B60783168A
:101EB8000313300883120313B501B50749300A121A
:101EC8008A1174260A128A15493083120313A7004F
:101ED8000030A8000A168A11B6220A128A154D3057
:101EE8000A168A11D0200A128A15C32FA630831227
:101EF8000313A7008030A8000A168A11B6220A1216
:101F08008A15DE2FA93083120313A7008030A8009A
:101F18000A168A11B6220A128A15DE2FA3308312F6
:101F28000313A7008030A8000A168A11B6220A12E5
:101F38008A15DE2FAC3083120313A7008030A80067
:101F48000A168A11B6220A128A15DE2FAF308312BA
:101F58000313A7008030A8000A168A11B6220A12B5
:101F68008A15DE2FA33083120313A7008030A80040
:101F78000A168A11B6220A128A15DE2FDE2F831658
:101F880003133308003A0319CA2FDE2F3208003A28
:101F980003197A2F013A0319862F033A0319922F4E
:101FA800013A03199E2F073A0319AA2F013A031978
:101FB800B62FDE2F44300A168A11D0200A128A154D
:101FC800383083120313A7008030A8000A168A113C
:101FD800B6220A128A15FF2FFF2FFF2F831603132D
:101FE8005408003A0319242E013A0319E62E033A3D
:081FF8000319312FFF2F08002F
:1021A00083120313A300A31723080A168A112221FE
:1021B0000A168A11080053344A3465346E345C348C
:1021C000413497349B3483348F349F3493343C347C
:1021D00083120313A2000911891009142208880030
:1021E000091509110730A1007D30A000A00BF628C9
:1021F000A10BF62808007E088A007F0882000A16D4
:102200008A11FB200A168A118000840A04087D06C0
:1022100003190034FF0A0319FE0AFF28831203136F
:10222000A200A1018C112208930016298C1D1929E6
:102230001A2916291B291308A0002008A1008C11B7
:102240002129080083120313A20009118910091023
:1022500022088800091509110D30A100FB30A000EB
:10226000A00B3029A10B3029352908008312031354
:1022700085013F30831603138500A13083120313B9
:102280009F000230831603139F0053308312031301
:10229000A000A00B4929080000300A168A110A2460
:1022A0000A168A1183120313AA00AB012A08AC0094
:1022B0002B08AD002D08A901A9072C08A801A80723
:1022C0006129080083120313981C672968296D2966
:1022D0001812181603107A297A298316031357083F
:1022E0005806031D74297529772903107A290314C8
:1022F0007A297A29080080300A168A11E2220A1601
:102300008A1184300A168A11E2220A168A1196303E
:102310000A168A11E2220A168A1100300A168A1158
:10232000E2220A168A1108000A168A11B1250A1635
:102330008A110D3083120313DB00AF30DA00C13095
:10234000D900D90BA129DA0BA129DB0BA129640043
:10235000193083120313A3000030A400A5010A164C
:102360008A110F260A168A110800831203139E0190
:102370001F15BA291F19BD29BE29BA29000000005E
:102380000000831203131E08A200A3012208A40068
:102390002308A50001300310A40DA50DFF3E031D69
:1023A000CB29831603131E08831203132508A101EA
:1023B000A1072408A001A007DD2908008316031344
:1023C0008717BF3083120313A0002008831603135E
:1023D0008705181514309900181383120313181366
:1023E00083160313181283120313981718168316F3
:1023F00003130C128C1698160030DD00DC00D80098
:1024000083120313A000200883160313D7000800CB
:102410008C300A168A11E2220A168A1100300A1636
:102420008A11E2220A168A1102300A168A11E22261
:102430000A168A1148300A168A11E2220A168A11EF
:1024400010300A168A11E2220A168A1154300A162E
:102450008A11E2220A168A1110300A168A11E22223
:102460000A168A1108000230831603139F00831294
:102470000313880189018316031388018901013040
:102480000A168A1122210A168A1138300A168A1170
:1024900022210A168A110C300A168A1122210A16E4
:1024A0008A1106300A168A1122210A168A11023070
:1024B0000A168A1122210A168A11080083120313B0
:1024C000A401A501632A201C662A672A6D2A220816
:1024D000A4070318A50A2308A50701300310A20DBD
:1024E000A30DFF3E031D6E2A01300310A10CA00CAA
:1024F000FF3E031D752A21082004031D802A812A1E
:10250000632A822A2508A101A1072408A001A007A7
:10251000892A08008C2A8C2A0A168A1162210A1636
:102520008A11031C942A952A8C2A8B138316031371
:102530005808A03E84008313000883120313A000F0
:102540002008A1000130A000200883160313D8073B
:102550000F3083120313A000200883160313D8053D
:102560008B17831203132108B52A0800D02A83127F
:1025700003132808FF00270884000A128A15002088
:102580000A168A110A168A11E8200A168A110130E1
:1025900083120313A7070318A80A0030A807D02A3C
:1025A000831203132808FF00270884000A128A15E3
:1025B00000200A168A110038031DDF2AE02AB72AF4
:1025C000E12A080083120313A100E72AE72A8316F1
:1025D00003135C08013E0F395D060319F02AF12A46
:1025E000E72A8B13831203132108A0008316031319
:1025F0005C08A03E84008312031320088317800028
:10260000831603135C08013E0F3983120313A000E5
:10261000200883160313DC000C168B170800F0014A
:10262000F101FD01E901EA01EB01EC01ED01EE012F
:10263000EF018313A0308400DE300A128A11F727DD
:102640000A168A11831790308400B0300A128A115A
:10265000F7270A168A118313EB30FD001030FE00B5
:10266000DB30FF00DE3084000A168A11FF200A16D4
:102670008A1183010A128A111528FD01FC30831684
:1026800003138600903083120313A30023088316DC
:102690000313870540309400A13083120313940084
:1026A00004308316031381000A168A11DE210A16EC
:1026B0008A110A168A1136210A168A110A168A11F7
:1026C00033220A168A110A168A117B210A168A11E8
:1026D0008B160B178B1708000A168A1168270A1623
:1026E0008A11F11D742B752B792BF11101309B2B65
:1026F0009B2B701D7C2B7D2B812B701102309B2B13
:102700009B2B701E842B852B892B701203309B2BE7
:102710009B2BF11C8C2B8D2B912BF11004309B2BC0
:102720009B2B701C942B952B992B701005309B2B99
:102730009B2B00309B2B0800003083120313A71B38
:102740000130A800A901A809A909A80A0319A90A22
:102750002708803AFF0080307F02031DB12B013033
:102760002602003003180130831203132807A0004B
:1027700029080318290AA1002708A301A30726088E
:10278000A201A2070A168A115E220A168A11831272
:1027900003132108A701A7072008A601A607D02B2D
:1027A0000800831203132208A6002608A7002308A6
:1027B000A6002608A8002408A6002608A9002508C7
:1027C000A6002608AA0089300A168A11E2220A16F3
:1027D0008A118312031328080A168A11E2220A16A4
:1027E0008A118312031327080A168A11E2220A1695
:1027F0008A11831203132A080A168A11E2220A1682
:102800008A118312031329080A168A11E2220A1672
:102810008A11080083120313A700262C9F111F1290
:102820009F12372C9F151F129F12372C9F111F16B6
:102830009F12372C9F151F169F12372C9F111F12A6
:102840009F16372C0030442C442C372C2708003A94
:1028500003190E2C013A0319122C033A0319162CF2
:10286000013A03191A2C073A03191E2C222C533053
:10287000A600A60B392C0A168A11B5210A168A1150
:10288000831203132008442C0800730872040319F0
:102890004A2C4B2C812CF7010314F70D5B2C0130D3
:1028A0000310F20DF30DFF3E031D502C0130F60016
:1028B0007608F7075B2CF31F5E2C5F2C4F2C612CE6
:1028C000612C73087502031D672C72087402031CC7
:1028D0006A2C6B2C722C7208F4027308031CF5032B
:1028E000F502722C01300310F30CF20CFF3E031DB5
:1028F000732C0130F702031D7E2C7F2C612C812C60
:10290000812C7508F301F3077408F201F207882C93
:102910000800831203132F082E040319902C912C06
:10292000C72CB3010314B30DA12C01300310AE0D5D
:10293000AF0DFF3E031D962C0130B2003208B307E5
:10294000A12CAF1FA42CA52C952CA72CA72C2F08AD
:102950003102031DAD2C2E083002031CB02CB12C0B
:10296000B82C2E08B0022F08031CB103B102B82CFA
:1029700001300310AF0CAE0CFF3E031DB92C01302B
:10298000B302031DC42CC52CA72CC72CC72C31089F
:10299000AF01AF073008AE01AE07CE2C080083129E
:1029A0000313A000012D132D132DFF3083160313E5
:1029B000C6070318C70AFF30C707C71FE02CE12C62
:1029C000132D0530C6000030C700132D132D013024
:1029D00083160313C6070318C70A0030C70706305B
:1029E00046064704031DF52CF62C132DC601C7011E
:1029F000132D132D831603134608152D152D132D96
:102A0000132D83122008013A0319132D033A0319D9
:102A1000132D013A0319D52C073A0319E72C013A73
:102A20000319FA2C132DFF30152D080002308312E4
:102A30000313D900590883160313D40080300A16F3
:102A40008A11E2220A168A11252DF01F282D292D20
:102A50004D2DF0130A128A1174270A168A110A12D0
:102A60008A150B260A168A114D2D4D2DFD01252D97
:102A7000FD01252DFD01252DFD01252D84300A1692
:102A80008A11E2220A168A11FD0183160313D4016A
:102A9000602D602DFD01252D252D7D08013A03199E
:102AA000362D033A0319382D013A03193A2D073A06
:102AB00003193C2D013A03193E2D4A2D252D252DB4
:102AC000080083120313AB01AC0127082604031985
:102AD0006A2D6B2DA92DAD010314AD0D7B2D013099
:102AE0000310A60DA70DFF3E031D702D0130AA0097
:102AF0002A08AD077B2DA71F7E2D7F2D6F2D812DE1
:102B0000812D01300310AB0DAC0DFF3E031D822D56
:102B100027082902031D8E2D26082802031C912D4B
:102B2000922D9A2D2608A8022708031CA903A902A2
:102B30002B149A2D01300310A70CA60CFF3E031D89
:102B40009B2D0130AD02031DA62DA72D812DA92D92
:102B5000A92D2C08A701A7072B08A601A607B02DB1
:102B6000080083160313D4010314D40D0830831214
:102B70000313A3000030A400A5010A168A110F2632
:102B80000A168A11C32DF01FC62DC72DFB2DF01379
:102B90000A128A150B260A168A11FB2DFB2DFD0140
:102BA000C32DFD01C32D013083120313A300003098
:102BB000A400A5010314A50D0A168A110F260A16F2
:102BC0008A11FD01C32D013083120313A3000030CD
:102BD000A400A5010A168A110F260A168A11FD0102
:102BE000C32D83160313CA01CB01FD01D4010E2EA0
:102BF0000E2EC32DC32D7D08013A0319CF2D033AA4
:102C00000319D12D013A0319D32D073A0319E32DE6
:102C1000013A0319F12DC32DC32DC32D08008312D2
:102C2000031307148714A508031D172E182E1F2E33
:102C30000B300A168A110E210A168A11262E093027
:102C40000A168A110E210A168A11262E83120313E0
:102C500007108710A801A9015A2E0715000083123A
:102C6000031307112508031D362E3F2E013083164E
:102C70000313CA070318CB0A0030CB07472EFF30D7
:102C800083160313CA070318CB0AFF30CB07623041
:102C900083120313A7006530A600A60B4D2EA70BC9
:102CA0004D2E522E013083120313A8070318A90AD0
:102CB0000030A90724082902031D602E23082802DA
:102CC000031C632E642E2D2E0714871400300A1661
:102CD0008A110E210A168A11831203130710871016
:102CE0000715000083120313071108008312031352
:102CF0002308803AFF0080307F02031D812E0130BF
:102D00002202031C842E852EA42E89300A168A11D5
:102D1000E2220A168A1100300A168A11E2220A16E5
:102D20008A11C8300A168A11E2220A168A11003066
:102D30000A168A11E2220A168A1101300A168A112D
:102D4000E2220A168A11E92E83120313A31FA92E69
:102D5000AA2EC92E89300A168A11E2220A168A1171
:102D600000300A168A11E2220A168A11C8300A16A1
:102D70008A11E2220A168A11FF300A168A11E2220B
:102D80000A168A11FF300A168A11E2220A168A11DF
:102D9000E92E89300A168A11E2220A168A110030B9
:102DA0000A168A11E2220A168A1100300A168A11BE
:102DB000E2220A168A1100300A168A11E2220A1645
:102DC0008A1100300A168A11E2220A168A11E92EA7
:102DD000E92E080083120313B001B101B401B5015B
:102DE000B201B301B601B7013708803AFF00803065
:102DF0007F02031DFD2E08303602031C002F012F19
:102E0000032F392F392F0A168A114C210A168A11DD
:102E1000831203132908B501B5072808B401B407C4
:102E200003303502E930031934020318182F192F23
:102E3000252F3408B0070318B10A3508B10701304F
:102E4000B2070318B30A0030B3070130B6070318FE
:102E5000B70A0030B7073708803AFF0080307F029A
:102E6000031D342F08303602031C372F382F032F51
:102E7000392F831203133308A701A7073208A601CD
:102E8000A6073108A901A9073008A801A8070A1652
:102E90008A1161250A168A11831203132708EA0191
:102EA000EA072608E901E9070A128A114A220A16E6
:102EB0008A11831203136A0883160313B501B50739
:102EC00083120313690883160313B401B4070800BF
:102ED0008312031306196D2F6E2F822F0130F2001B
:102EE000720883160313D3070A305302031C792F89
:102EF0007A2F862F711E7D2F7E2F862FF11571124E
:102F0000862F862F83160313D301711683120313A2
:102F100086198B2F8C2FA02F0130F2007208831698
:102F20000313CF070A304F02031C972F982FA42FAB
:102F3000F01D9B2F9C2FA42F7015F011A42FA42FF0
:102F400083160313CF01F01583120313061AA92F5A
:102F5000AA2FBE2F0130F200720883160313D00788
:102F60000A305002031CB52FB62FC22FF01EB92F06
:102F7000BA2FC22F7016F012C22FC22F831603135E
:102F8000D001F01683120313861AC72FC82FDC2F27
:102F90000130F200720883160313D2070A3052027E
:102FA000031CD32FD42FE02F711DD72FD82FE02F44
:102FB000F1147111E02FE02F83160313D201711564
:102FC00083120313061BE52FE62FFA2F0130F200C0
:102FD000720883160313CE070A304E02031CF12F2A
:102FE000F22FFF2FF01CF52FF62FFF2F7014F0108B
:102FF000FF2FFF2F83160313CE01F014FF2F0800BD
:02400E0032FF7F
:00000001FF
