:100000000A128A1112283C34FE00030E83120313D5
:10001000CD000408CE000A08CF007F08D0000A12E5
:100020008A11002B0A128A15BE2E00308312031388
:100030005402D53003195302031C1F2820285B28C3
:1000400000305402EA3003195302031828282928E3
:100050005B281530F6000030F7005309A000540962
:10006000A100A00A0319A10A2008EA3EF000210815
:100070000318013E003EF1000530F2000030F300AD
:100080000A128A156A260A128A117108F901F907FB
:100090007008F801F8070A128A1124270A128A1137
:1000A00076080F3E83160313D20077080318013E2B
:1000B000003ED300FF29003083125402AA300319F6
:1000C0005302031C64286528A02800305402D53050
:1000D0000319530203186D286E28A0282B30F60050
:1000E0000030F7005309A0005409A100A00A031929
:1000F000A10A2008D53EF00021080318013E003E69
:10010000F1000A30F2000030F3000A128A156A2664
:100110000A128A117108F901F9077008F801F80745
:100120000A128A1124270A128A117608143E8316AD
:100130000313D20077080318013E003ED300FF29C5
:10014000003083125402803003195302031CA92883
:10015000AA28E52800305402AA30031953020318D4
:10016000B228B328E5282A30F6000030F7005309FA
:10017000A0005409A100A00A0319A10A2008AA3E60
:10018000F00021080318013E003EF1000A30F200A1
:100190000030F3000A128A156A260A128A117108C1
:1001A000F901F9077008F801F8070A128A112427E3
:1001B0000A128A1176081E3E83160313D2007708AE
:1001C0000318013E003ED300FF2900308312540281
:1001D0006B3003195302031CEE28EF282A29003044
:1001E00054028030031953020318F728F8282A29EB
:1001F0001530F6000030F7005309A0005409A100A3
:10020000A00A0319A10A2008803EF0002108031863
:10021000013E003EF1000A30F2000030F3000A1205
:100220008A156A260A128A117108F901F9077008FD
:10023000F801F8070A128A1124270A128A1176088F
:10024000283E83160313D20077080318013E003EB0
:10025000D300FF290030831254024D30031953029A
:10026000031C332934296F29003054026B300319E1
:10027000530203183C293D296F291E30F600003037
:10028000F7005309A0005409A100A00A0319A10A0C
:1002900020086B3EF00021080318013E003EF100EB
:1002A0000A30F2000030F3000A128A156A260A1298
:1002B0008A117108F901F9077008F801F8070A12A4
:1002C0008A1124270A128A117608323E83160313F4
:1002D000D20077080318013E003ED300FF2900300A
:1002E00083125402383003195302031C78297929E8
:1002F000B429003054024D300319530203188129E8
:100300008229B4291530F6000030F7005309A00007
:100310005409A100A00A0319A10A20084D3EF000CB
:1003200021080318013E003EF1000A30F2000030BF
:10033000F3000A128A156A260A128A117108F90155
:10034000F9077008F801F8070A128A1124270A121F
:100350008A1176083C3E83160313D20077080318EF
:10036000013E003ED300FF290030831254022B309F
:1003700003195302031CBD29BE29FF290030540272
:100380003830031953020318C629C729FF290D3035
:10039000F6000030F7005309A0005409A100A00A9C
:1003A0000319A10A2008383EF00021080318013E75
:1003B000003EF1000A30F2000030F3000A128A1504
:1003C0006A260A128A117108F901F9077008F80102
:1003D000F8070A128A1124270A128A117608463E63
:1003E00083160313D20077080318013E003ED300A2
:1003F000FF29FF29FF29FF29FF29FF29FF290800DD
:1004000083120313B5002730AB002B08AE00E62A99
:100410003608253A03190D2A0E2A1A2A3608AB0087
:10042000350884002B08831380000130AB002B08B3
:10043000B507E62AAF01212AFA2A362A362AE62A01
:10044000362A0130A607FF30260784000A128A11D7
:100450000A260A128A11B600003A0319FA2A643AE7
:100460000319362A0D3A0319362AE62A2E08840083
:1004700083130008B100840A0008B2000230AB0008
:100480002B08AE07B21F452A462A502A0330AB007C
:100490002B08AF04B109B209B10A0319B20A502AF4
:1004A000B6010314B60D3608053A031D582A592A19
:1004B0005B2A832A832A3608AB002B07013E84007F
:1004C0000A128A110A260A128A11AC000A128A112B
:1004D0000A260A128A11AD002D083202031D722A63
:1004E0002C0831020318752A762A782A832A832A4F
:1004F0000130AB002B08B6073608053A031D812AE8
:10050000822A5B2A832A2F0803390319882A892A19
:10051000952A2D30AB00350884002B08831380000A
:100520000130AB002B08B507952A3608AB002B0825
:10053000B000DA2A0A30A0000030A1003008AB0079
:100540002B07013E84000A128A110A260A128A1118
:10055000F6000A128A110A260A128A11F7003208D6
:10056000F901F9073108F801F8070A128A1124275E
:100570000A128A11770883120313A301A3077608CE
:10058000A201A2070A128A1573270A128A1183127E
:1005900003132008303EAC002C08B6003608AB0030
:1005A000350884002B08831380000130AB002B0832
:1005B000B507DA2AFF30AB002B08B0073008FF3A46
:1005C000031DE32AE42A9A2AE62AE62A0130A6072E
:1005D000FF30260784000A128A110A260A128A119D
:1005E000AB002B08B600B608031DF72AF82A082A24
:1005F000FA2AFA2A3508840083138001FF2A0800AA
:100600008C1E032B042B1E2B1A08CC006508B03E51
:1006100084004C08831380006508013E0F39CC002C
:100620004C08E700670866060319172B182B1E2BCA
:100630006708CC004C08E5001E2B1E2B0C1E212B3E
:10064000222B422B831603130C1E272B282B422B05
:10065000831203136C08C03E8400831300089900C2
:100660000130CC004C08EC070F30CC004C08EC05F6
:100670006C086B06031D3D2B3E2B422B8316031388
:100680000C12422B0B1D452B462BD92B0B11643022
:10069000831281000130D1070318D20A0030D2073B
:1006A000ED170A30A0000030A1005208A301A307F3
:1006B0005108A201A2070A128A1573270A128A1189
:1006C0008312031321082004031D672B682B6A2B58
:1006D0006D176A2B3230A0000030A1005208A30130
:1006E000A3075108A201A2070A128A1573270A124A
:1006F0008A118312031321082004031D802B812BF0
:10070000832B6E15832BFA30A0000030A100520815
:10071000A301A3075108A201A2070A128A15732791
:100720000A128A118312031321082004031D992B36
:100730009A2BAB2B0A128A11CF260A128A11831226
:10074000031368080A128A11E5230A128A11831218
:1007500003136E14AB2BF430A0000130A10052083B
:10076000A301A3075108A201A2070A128A15732741
:100770000A128A118312031321082004031DC12BBE
:10078000C22BC82BEE14D101D20101308606C82B32
:10079000E008031DCC2BCD2BD92B0A128A1541273B
:1007A0000A128A1183120313CC004C08E000D92BE3
:1007B000D92B83125008FF004F088A004E0884008E
:1007C0004D0E8300FE0E7E0E09003C308400A030EA
:1007D00083120313B7000408B8001030B9003708BB
:1007E000840083130008BA00B70A380884003A0866
:1007F0008000B80AB90BEF2B01300A128A15632565
:100800000A128A110B3083120313B7003708A600AF
:100810006308B800B9013808A7003908A8006408BF
:10082000BA00BB013A08A9003B08AA003C300A12F2
:100830008A1100220A128A1100300A128A152A250A
:100840000A128A113C30F7000030F8000A128A15AB
:1008500094260A128A1140300A128A152A250A1291
:100860008A11831203135808803AFF0080307F02F8
:10087000031D3C2C01305702031C3F2C402C512CF3
:10088000831203135708FF3EDB3E840083130008E6
:10089000F7008030F8000A128A1594260A128A118D
:1008A000622C831203135708043EDB3E840083133B
:1008B0000008F7008030F8000A128A1594260A1200
:1008C0008A11622C44300A128A152A250A128A11CA
:1008D000831203135708D63E840083130008F700E1
:1008E0008030F8000A128A1594260A128A114D30B7
:1008F0000A128A152A250A128A110530F0000030E2
:10090000F100831203135708013EF2005808031840
:10091000013E003EF3000A128A1169260A128A116A
:100920007008DB3E840083130008F7008030F80075
:100930000A128A1594260A128A1108000A128A15C8
:1009400041260A128A11A42CFF3083160313E800F3
:100950006808E900E42C01300A128A15B9270A1246
:100960008A1183120313E001212D02300A128A1525
:10097000B9270A128A1183120313E001212D0330D3
:100980000A128A15B9270A128A1183120313E00189
:10099000212D04300A128A15B9270A128A118312EE
:1009A0000313E001212D05300A128A15B9270A1216
:1009B0008A1183160313E8006808E9008312031301
:1009C000E001212D212D212D83126008013A031908
:1009D000AB2C033A0319B52C013A0319BF2C073A83
:1009E0000319C92C013A0319D32C212D212D0A12E8
:1009F0008A1172270A128A11342D83160313E30118
:100A00000314E30D64300A128A11BB250A128A11FD
:100A1000342D83120313071487140B300A128A151E
:100A2000D4250A128A1183120313071087100715A1
:100A30000000831203130711342D342D342D342D6F
:100A4000342D831603136908003A0319F72C013A71
:100A50000319FD2C033A0319092D013A0319342D0A
:100A6000073A0319342D342DFF3083160313E800A1
:100A70006808E900A42CA42C0A128A1112288312F7
:100A800003130619442D452D572D0130F000700831
:100A9000DF070A305F02031C4E2D4F2D592D6E1FAC
:100AA000522D532D592DEE166E13592D592DDF0150
:100AB0006E1786195C2D5D2D6F2D0130F0007008CA
:100AC000DC070A305C02031C662D672D712DED1DBD
:100AD0006A2D6B2D712D6D15ED11712D712DDC01B0
:100AE000ED15061A742D752D872D0130F000700854
:100AF000DD070A305D02031C7E2D7F2D892DED1E42
:100B0000822D832D892D6D16ED12892D892DDD0104
:100B1000ED16861A8C2D8D2D9F2D0130F00070085A
:100B2000DE070A305E02031C962D972DA12D6E1E46
:100B30009A2D9B2DA12DEE156E12A12DA12DDE015A
:100B40006E16061BA42DA52DB72D0130F0007008E0
:100B5000DB070A305B02031CAE2DAF2DBA2DED1C56
:100B6000B22DB32DBA2D6D14ED10BA2DBA2DDB01B7
:100B7000ED14BA2D080083160313E6008312031345
:100B80000714871483160313E308031DC82DC92D0A
:100B9000D02D0F300A128A15D4250A128A11D72DAA
:100BA0000D300A128A15D4250A128A11D72D831204
:100BB00003130710871083160313E701F82D831220
:100BC0000313071500008312031307114130831626
:100BD0000313E500EE30E400E40BEC2DE50BEC2D07
:100BE0006400013083160313E4006408E707F82D5E
:100BF000670866020318FD2DFE2DDF2DFF2D08006E
:100C0000FF1B0A2E83137F1883170008840A031919
:100C1000FF0A080006308A000408840A82070034AC
:100C2000013400340A34003464340034E8340334CA
:100C3000103427344134443443343A342534643452
:100C4000203444346934733474343A34253464348D
:100C500000345334633461346E345F3433343634A7
:100C600030340034433461346C34693462345F347A
:100C700049345234003446346C3477345F3457345A
:100C800061346C346C3400344434723469347634F6
:100C900065345F3432346D34003444347234693432
:100CA000763465345F344C34003444347234323436
:100CB0000034443472344C340034433461346C3482
:100CC0000034533463346E34003446346C34773437
:100CD0000034F601F31F6D2E6E2E772EF209F30904
:100CE000F20A0319F30AF6010314F60D772EF11F29
:100CF0007A2E7B2E812EF009F109F00A0319F10AF0
:100D0000812E710870040319862E872EBD2EF501E1
:100D10000314F50D972E01300310F00DF10DFF3E79
:100D2000031D8C2E0130F4007408F507972EF11F77
:100D30009A2E9B2E8B2E9D2E9D2E71087302031DC5
:100D4000A32E70087202031CA62EA72EAE2E7008CA
:100D5000F2027108031CF303F302AE2E01300310FC
:100D6000F10CF00CFF3E031DAF2E0130F502031D08
:100D7000BA2EBB2E9D2EBD2EBD2E7608031DC12E74
:100D8000C72EF209F309F20A0319F30AC72E7308F2
:100D9000F101F1077208F001F007CE2E080083126E
:100DA0000313A201A301A401A5012508803AFF00B5
:100DB00080307F02031DDE2E0A302402031CE12E48
:100DC000E22EE42E052F052F0A128A1577250A1226
:100DD0008A11780883120313A2070318A30A79085B
:100DE000A3070130A4070318A50A0030A5072508AA
:100DF000803AFF0080307F02031D002F0A3024025A
:100E0000031C032F042FE42E052F0A30F6000030B8
:100E1000F700831203132308F901F9072208F801E8
:100E2000F8070A128A1124270A128A1177088312F6
:100E30000313D401D4077608D301D3070A128A1109
:100E400015200A128A110800FB01FC0177087604BC
:100E500003192B2F2C2F6A2FFD010314FD0D3C2F9E
:100E600001300310F60DF70DFF3E031D312F013049
:100E7000FA007A08FD073C2FF71F3F2F402F302F35
:100E8000422F422F01300310FB0DFC0DFF3E031DCE
:100E9000432F77087902031D4F2F76087802031C31
:100EA000522F532F5B2F7608F8027708031CF903A3
:100EB000F9027B145B2F01300310F70CF60CFF3E98
:100EC000031D5C2F0130FD02031D672F682F422F89
:100ED0006A2F6A2F7C08F701F7077B08F601F607EF
:100EE000712F080083160313E30108300A128A11D8
:100EF000BB250A128A11A92FA92FE001A92FE00111
:100F0000A92F83160313E3010314E30D01300A1222
:100F10008A11BB250A128A1183120313E001A92F3B
:100F200083160313E30101300A128A11BB250A124A
:100F30008A1183120313E001A92F83160313D4012E
:100F4000D50183120313E001BE2FBE2FA92FA92FB5
:100F5000A92F831203136008013A03197D2F033A66
:100F600003197F2F013A0319812F073A0319902F94
:100F7000013A03199D2FA92FA92FA92F0800F700C7
:100F8000E32F831203139F111F129F12F42F83125A
:100F900003139F151F129F12F42F831203139F1127
:100FA0001F169F12F42F831203139F151F169F12F3
:100FB000F42F831203139F111F129F16F42F00307A
:100FC000FF2FFF2FF42F7708003A0319C12F013AA2
:100FD0000319C72F033A0319CD2F013A0319D32F51
:100FE000073A0319D92FDF2F5330F600F60BF62FEF
:100FF0000A128A15F2250A128A117008FF2F0800BA
:101A440064008001840A0406031900340406232D6B
:101A5400F300F31773080A128A1563250A128A150C
:101A6400080023341A3435343E342C344E34523482
:101A740046344A345634F200831203130911891090
:101A8400091472088800091509110730F1007D3026
:101A9400F000F00B4B2DF10B4B2D08007E088A0053
:101AA4007F0882000A128A1550250A128A158000BE
:101AB400840A04087D0603190034FF0A0319FE0A88
:101AC400542DF200831203130911891009107208AE
:101AD4008800091509110D30F100FB30F000F00BFE
:101AE400712DF10B712D762D080000300A128A1128
:101AF400BF270A128A15FA00FB017A08FC007B084A
:101B0400FD007D08F901F9077C08F801F8078A2D22
:101B140008008312031385013F30831603138500E5
:101B2400A130831203139F000230831603139F0016
:101B34005330E000E00B9C2D080080300A128A1517
:101B440013270A128A1584300A128A1513270A12D7
:101B54008A158E300A128A1513270A128A15133031
:101B64000A128A1513270A128A150800831603130A
:101B7400E200831203130911891009108316031359
:101B84006208831203138800091509110D308316A6
:101B94000313E100FB30E000E00BCE2DE10BCE2D72
:101BA400D32D080083160313E200E101831203130B
:101BB4008C11831603136208831203139300E22D1E
:101BC4008C1DE52DE62DE22DE72D13088316031356
:101BD400E0006008E100831203138C11F12D08006A
:101BE400831203139E011F15F72D1F19FA2DFB2DC8
:101BF400F72D000000000000831203131E08F200FA
:101C0400F3017208F4007308F50001300310F40DB9
:101C1400F50DFF3E031D082E831603131E087508D9
:101C2400F101F1077408F001F007182E080083167B
:101C340003138717BF30E0006008870518151430B8
:101C4400990018138312031318138316031318121D
:101C54008312031398171816831603130C128C1689
:101C64009816003083120313EC00EB00E600831691
:101C74000313E000600883120313E50008000A124E
:101C84008A158B250A128A150A128A15E8260A1261
:101C94008A150A128A1519260A128A150A128A1531
:101CA4009F250A128A15FC30831603138600903090
:101CB400E3006308870540309400A13083120313C6
:101CC400940004308316031381008B168B170800CD
:101CD400F401F5016D2E701C702E712E772E720892
:101CE400F4070318F50A7308F50701300310F20D21
:101CF400F30DFF3E031D782E01300310F10CF00CA0
:101D0400FF3E031D7F2E71087004031D8A2E8B2E47
:101D14006D2E8C2E7508F101F1077408F001F0079F
:101D2400932E0800AC2E780883120313FF00770863
:101D340084000A128A1100260A128A150A128A15C8
:101D44003D250A128A150130F7070318F80A0030F6
:101D5400F807AC2E780883120313FF007708840079
:101D64000A128A1100260A128A150038031DBB2E96
:101D7400BC2E952EBD2E0800ED01EE0183135130CB
:101D840084006D300A128A1522250A128A15A030A1
:101D94008400D6300A128A1522250A128A15E030E8
:101DA400FD000D30FE003330FF00D63084000A12EF
:101DB4008A1554250A128A150A128A1103200A1256
:101DC4008A15EF0083010A128A119E2C02308316B1
:101DD40003139F00831203138801890183160313DD
:101DE4008801890101300A128A15B8250A128A1558
:101DF40038300A128A15B8250A128A150C300A12CC
:101E04008A15B8250A128A1506300A128A15B825C9
:101E14000A128A1502300A128A15B8250A128A157E
:101E2400080083160313E100182F182F83126B0880
:101E3400013E0F396C060319202F212F182F8B1305
:101E4400831603136108E000831203136B08C03E7A
:101E54008400831603136008831380008312031322
:101E64006B08013E0F3983160313E00060088312E8
:101E74000313EB00831603130C168B1708000A12C6
:101E84008A113F250A128A1583120313EE1E4B2F63
:101E94004C2F502FEE120130722F722F6D1D532FC5
:101EA400542F582F6D110230722F722F6D1E5B2F1D
:101EB4005C2F602F6D120330722F722FEE1D632F73
:101EC400642F682FEE110430722F722F6D1C6B2F4C
:101ED4006C2F702F6D100530722F722F0030722FFF
:101EE4000800831203132108200403197A2F7B2F7F
:101EF400B12FA5010314A50D8B2F01300310A00DE4
:101F0400A10DFF3E031D802F0130A4002408A50766
:101F14008B2FA11F8E2F8F2F7F2F912F912F210871
:101F24002302031D972F20082202031C9A2F9B2FA4
:101F3400A22F2008A2022108031CA303A302A22F9C
:101F440001300310A10CA00CFF3E031DA32F013090
:101F5400A502031DAE2FAF2F912FB12FB12F230850
:101F6400A101A1072208A001A007B82F0800831629
:101F74000313E000EA2FFD2FFD2FFF30831203131C
:101F8400D7070318D80AFF30D807D81FCA2FCB2F7A
:101F9400FD2F0430D7000030D800FD2FFD2F013075
:101FA4008312D7070318D80A0030D807053057061C
:101FB4005804031DDE2FDF2FFD2FD701D801FD2F7D
:101FC400FD2F83125708FF2FFF2FFD2FFD2FFD2F0D
:101FD400831603136008013A0319FD2F033A03190A
:101FE400FD2F013A0319BF2F073A0319D12F013AE4
:0C1FF4000319E32FFD2FFF30FF2F080022
:02400E0032FF7F
:00000001FF
