:060000000A128A11122809
:10000800FE00030E83120313E4000408E5000A0847
:10001800E6007F08E7000A128A11142D0A128A15D1
:100028005F2E0A128A1511260A128A1180300A12C6
:100038008A15FF260A128A11033083160313EB0070
:100048008A30EA005630E900E90B2828EA0B28280C
:10005800EB0B28282F2884300A128A15FF260A124B
:100068008A11033083160313EB008A30EA005630F6
:10007800E900E90B3D28EA0B3D28EB0B3D28442815
:100088008C300A128A15FF260A128A110330831649
:100098000313EB008A30EA005630E900E90B5228D6
:1000A800EA0B5228EB0B5228592800300A128A15FD
:1000B800FF260A128A11033083160313EB008A30D5
:1000C800EA005630E900E90B6728EA0B6728EB0BD2
:1000D80067286E2804300A128A15FF260A128A1128
:1000E800033083160313EB008A30EA005630E90028
:1000F800E90B7C28EA0B7C28EB0B7C2883283E3014
:100108000A128A15FF260A128A110330831603136E
:10011800EB008A30EA005630E900E90B9128EA0B37
:100128009128EB0B912898280C300A128A15FF2683
:100138000A128A11033083160313EB008A30EA008F
:100148005630E900E90BA628EA0BA628EB0BA628EF
:10015800AD2842300A128A15FF260A128A11033086
:1001680083160313EB008A30EA005630E900E90BE6
:10017800BB28EA0BBB28EB0BBB28C2280C300A12A1
:100188008A15FF260A128A11033083160313EB001F
:100198008A30EA005630E900E90BD028EA0BD0286B
:1001A800EB0BD028D72845300A128A15FF260A12E9
:1001B8008A11033083160313EB008A30EA005630A5
:1001C800E900E90BE528EA0BE528EB0BE528EC2824
:1001D8000C300A128A15FF260A128A110330831678
:1001E8000313EB008A30EA005630E900E90BFA28DD
:1001F800EA0BFA28EB0BFA2801294A300A128A1569
:10020800FF260A128A11033083160313EB008A3083
:10021800EA005630E900E90B0F29EA0B0F29EB0B2E
:100228000F29162924300A128A15FF260A128A1164
:10023800033083160313EB008A30EA005630E900D6
:10024800E90B2429EA0B2429EB0B24292B298D30CF
:100258000A128A15FF260A128A110330831603131D
:10026800EB008A30EA005630E900E90B3929EA0B3D
:100278003929EB0B3929402900300A128A15FF2643
:100288000A128A11FE3083160313EB00A830EA0025
:100298006130E900E90B4E29EA0B4E29EB0B4E2998
:1002A800552983120313E81E5A295B299A2AE81252
:1002B8000230860680300A128A15FF260A128A1131
:1002C800033083160313EB008A30EA005630E90046
:1002D800E90B6C29EA0B6C29EB0B6C297329843028
:1002E8000A128A15FF260A128A110330831603138D
:1002F800EB008A30EA005630E900E90B8129EA0B65
:100308008129EB0B812988298C300A128A15FF264E
:100318000A128A11033083160313EB008A30EA00AD
:100328005630E900E90B9629EA0B9629EB0B96293A
:100338009D2900300A128A15FF260A128A110330F5
:1003480083160313EB008A30EA005630E900E90B04
:10035800AB29EA0BAB29EB0BAB29B22904300A1203
:100368008A15FF260A128A11033083160313EB003D
:100378008A30EA005630E900E90BC029EA0BC029A7
:10038800EB0BC029C7293E300A128A15FF260A122C
:100398008A11033083160313EB008A30EA005630C3
:1003A800E900E90BD529EA0BD529EB0BD529DC297E
:1003B8000C300A128A15FF260A128A110330831696
:1003C8000313EB008A30EA005630E900E90BEA290A
:1003D800EA0BEA29EB0BEA29F12942300A128A15BD
:1003E800FF260A128A11033083160313EB008A30A2
:1003F800EA005630E900E90BFF29EA0BFF29EB0B6D
:10040800FF29062A0C300A128A15FF260A128A11B9
:10041800033083160313EB008A30EA005630E900F4
:10042800E90B142AEA0B142AEB0B142A1B2A453071
:100438000A128A15FF260A128A110330831603133B
:10044800EB008A30EA005630E900E90B292AEA0B6A
:10045800292AEB0B292A302A0C300A128A15FF2682
:100468000A128A11033083160313EB008A30EA005C
:100478005630E900E90B3E2AEA0B3E2AEB0B3E2AEE
:10048800452A4A300A128A15FF260A128A110330B1
:1004980083160313EB008A30EA005630E900E90BB3
:1004A800532AEA0B532AEB0B532A5A2A24300A12EE
:1004B8008A15FF260A128A11033083160313EB00EC
:1004C8008A30EA005630E900E90B682AEA0B682A04
:1004D800EB0B682A6F2A8D300A128A15FF260A123A
:1004E8008A11033083160313EB008A30EA00563072
:1004F800E900E90B7D2AEA0B7D2AEB0B7D2A842A89
:1005080000300A128A15FF260A128A110330831650
:100518000313EB008A30EA005630E900E90B922A0F
:10052800EA0B922AEB0B922A992A9A2A831203132E
:10053800E81F9F2AA02AA12AE813E91CA42AA52AB1
:10054800A62AE910E91DA92AAA2A5529E911013084
:1005580083160313E9006908E0065529552955292A
:100568000A128A1112285130840090308312031322
:10057800CD000408CE001030CF004D08840083174A
:100588000008D000CD0A4E0884008313500880006C
:10059800CE0ACF0BC12A00304C02FB3003194B02A4
:1005A800031CD72AD82ADD2A1430E1000030E200E3
:1005B800EF2C00304C02FA3003194B020318E52ADD
:1005C800E62A092B00304C02BE3003194B02031CEB
:1005D800EE2AEF2A092B6430F8000030F9004C08A5
:1005E800FB01FB074B08FA01FA070A128A156E2766
:1005F8000A128A117808143E83120313E10079085D
:100608000318013E003EE200EF2C00304C02BE30E1
:1006180003194B020318112B122B352B00304C02F7
:10062800603003194B02031C1A2B1B2B352B64302B
:10063800F8000030F9004C08FB01FB074B08FA01F1
:10064800FA070A128A156E270A128A1178081E3EBE
:1006580083120313E10079080318013E003EE2000B
:10066800EF2C00304C02BE3003194B0203183D2B0F
:100678003E2B612B00304C02603003194B02031CE7
:10068800462B472B612B6430F8000030F9004C08EA
:10069800FB01FB074B08FA01FA070A128A156E27B5
:1006A8000A128A117808283E83120313E100790898
:1006B8000318013E003EE200EF2C00304C0273307C
:1006C80003194B020318692B6A2B8D2B00304C023F
:1006D800603003194B02031C722B732B8D2B643073
:1006E800F8000030F9004C08FB01FB074B08FA0141
:1006F800FA070A128A156E270A128A117808323EFA
:1007080083120313E10079080318013E003EE2005A
:10071800EF2C00304C02603003194B020318952B64
:10072800962BB92B00304C02523003194B02031C94
:100738009E2B9F2BB92B6430F8000030F9004C0831
:10074800FB01FB074B08FA01FA070A128A156E2704
:100758000A128A1178083C3E83120313E1007908D3
:100768000318013E003EE200EF2C00304C025230EC
:1007780003194B020318C12BC22BE52B00304C0286
:10078800463003194B02031CCA2BCB2BE52B6430D4
:10079800F8000030F9004C08FB01FB074B08FA0190
:1007A800FA070A128A156E270A128A117808463E35
:1007B80083120313E10079080318013E003EE200AA
:1007C800EF2C00304C02463003194B020318ED2B76
:1007D800EE2B112C00304C02403003194B02031C45
:1007E800F62BF72B112C6430F8000030F9004C0878
:1007F800FB01FB074B08FA01FA070A128A156E2754
:100808000A128A117808503E83120313E10079080E
:100818000318013E003EE200EF2C00304C0240304D
:1008280003194B020318192C1A2C3D2C00304C02CA
:10083800383003194B02031C222C232C3D2C643026
:10084800F8000030F9004C08FB01FB074B08FA01DF
:10085800FA070A128A156E270A128A1178085A3E70
:1008680083120313E10079080318013E003EE200F9
:10087800EF2C00304C02383003194B020318452C7A
:10088800462C692C00304C022D3003194B02031CF6
:100898004E2C4F2C692C6430F8000030F9004C08BD
:1008A800FB01FB074B08FA01FA070A128A156E27A3
:1008B8000A128A117808643E83120313E10079084A
:1008C8000318013E003EE200EF2C00304C022D30B0
:1008D80003194B020318712C722C952C00304C0212
:1008E800283003194B02031C7A2C7B2C952C64307E
:1008F800F8000030F9004C08FB01FB074B08FA012F
:10090800FA070A128A156E270A128A1178086E3EAB
:1009180083120313E10079080318013E003EE20048
:10092800EF2C00304C02283003194B0203189D2C81
:100938009E2CC12C00304C02213003194B02031CA1
:10094800A62CA72CC12C6430F8000030F9004C0804
:10095800FB01FB074B08FA01FA070A128A156E27F2
:100968000A128A117808783E83120313E100790885
:100978000318013E003EE200EF2C00304C0221300B
:1009880003194B020318C92CCA2CEF2C6430F80049
:100998000030F9004C08FB01FB074B08FA01FA0785
:1009A8000A128A156E270A128A117808823E831263
:1009B8000313E10079080318013E003EE200EF2C22
:1009C800EF2CEF2CEF2CEF2CEF2CEF2CEF2CEF2C47
:1009D800EF2CEF2CEF2C01300A128A15E9250A12A8
:1009E8008A110B3083120313CD004D08A000620852
:1009F800A201A2076108A101A10751300A128A11B8
:100A080080260A128A1140300A128A15CD250A1248
:100A18008A1151300A128A1529260A128A110800E9
:100A28008C1E172D182D3A2D1A08E3006C08A03ECD
:100A380084006308831380006C08013E0F39E300CB
:100A4800630883160313E5006508831203136D0614
:100A580003192F2D302D3A2D8316031365088312A1
:100A68000313E3006308EC003A2D3A2D0C1E3D2DCC
:100A78003E2D5E2D831603130C1E432D442D5E2D33
:100A8800831203136F08B03E840083130008990093
:100A98000130E3006308EF070F30E3006308EF0558
:100AA8006F086E06031D592D5A2D5E2D83160313EC
:100AB8000C125E2D0B1D612D622D742E0B116430EE
:100AC800831281000130EA070318EB0A0030EB07B4
:100AD800E8140A30F8000030F9006B08FB01FB0746
:100AE8006A08FA01FA070A128A156E270A128A1189
:100AF80079087804031D812D822D862D8312031316
:100B08006814862D3230F8000030F9008312031380
:100B18006B08FB01FB076A08FA01FA070A128A1533
:100B28006E270A128A1179087804031D9C2D9D2DC1
:100B3800A12D831203136816A12DFA30F800003096
:100B4800F900831203136B08FB01FB076A08FA011B
:100B5800FA070A128A156E270A128A117908780488
:100B6800031DB72DB82DCE2D0A128A117E270A1221
:100B78008A11831203133008CC01CC072F08CB014C
:100B8800CB070A128A11B7220A128A118312031399
:100B98006815CE2DF430F8000130F90083120313E4
:100BA8006B08FB01FB076A08FA01FA070A128A15A3
:100BB8006E270A128A1179087804031DE42DE52DA1
:100BC800ED2D83120313E815EA01EB0101308606C7
:100BD800ED2D831203130619F22DF32D092E013082
:100BE800E300630883160313E1070A306102031C5C
:100BF800FE2DFF2D0F2E83120313681F042E052EC2
:100C08000F2EE81668130F2E0F2E83160313E1011B
:100C180083120313681783128619132E142E2A2E93
:100C28000130E300630883160313E2070A30620207
:100C3800031C1F2E202E302E83120313691C252E11
:100C4800262E302EE8176910302E302E8316031307
:100C5800E2018312031369148312061A342E352E07
:100C68004B2E0130E300630883160313E3070A30B1
:100C78006302031C402E412E512E83120313691D5B
:100C8800462E472E512EE9146911512E512E8316E6
:100C98000313E3018312031369158312861A552E71
:100CA800562E6C2E0130E300630883160313E40705
:100CB8000A306402031C612E622E742E8312031301
:100CC800691E672E682E742EE9156912742E742E0B
:100CD80083160313E401831203136916742E742E0A
:100CE80083126708FF0066088A0065088400640E9E
:100CF8008300FE0E7E0E090083120313AD0021301F
:100D0800A3002308A600642F2E08253A03198D2E68
:100D18008E2E9A2E2E08A3002D08840023088313F4
:100D280080000130A3002308AD07642FA701A12E7E
:100D3800782FB62EB62E642FB62E0130A007FF30BE
:100D4800200784000A128A1500200A128A11AE00B0
:100D5800003A0319782F643A0319B62E0D3A03198D
:100D6800B62E642F2608840083130008A900840A7D
:100D78000008AA000230A3002308A607AA1FC52E50
:100D8800C62ED02E0330A3002308A704A909AA0958
:100D9800A90A0319AA0AD02EAE010314AE0D2E0813
:100DA800053A031DD82ED92EDB2E032F032F2E082C
:100DB800A3002307013E84000A128A1500200A12A4
:100DC8008A11A4000A128A1500200A128A11A500A5
:100DD80025082A02031DF22E240829020318F52EDD
:100DE800F62EF82E032F032F0130A3002308AE0799
:100DF8002E08053A031D012F022FDB2E032F27088B
:100E080003390319082F092F152F2D30A3002D089A
:100E180084002308831380000130A3002308AD0752
:100E2800152F2E08A3002308A800582F0A30F80011
:100E38000030F9002808A3002307013E84000A12A5
:100E48008A1500200A128A11F0000A128A15002059
:100E58000A128A11F1002A08F301F3072908F2019E
:100E6800F2070A128A15B2270A128A117108FB01C1
:100E7800FB077008FA01FA070A128A156E270A1288
:100E88008A117808303E83120313A4002408AE00A8
:100E98002E08A3002D088400230883138000013046
:100EA800A3002308AD07582FFF30A3002308A80785
:100EB8002808FF3A031D612F622F1A2F642F642F11
:100EC8000130A007FF30200784000A128A1500208D
:100ED8000A128A11A3002308AE00AE08031D752F5D
:100EE800762F882E782F782F2D0884008313800181
:100EF8007D2F080083120313C501C6013530840015
:100F0800C030B1000408B2001030B30031088400CA
:100F180083130008B400B10A320884003408800042
:100F2800B20AB30B8A2FC901CA014A08803AFF00E6
:100F380080307F02031DA22F0A304902031CA52F0F
:100F4800A62FA82FCC2FCC2F00300A128A152D27B8
:100F58000A128A1183120313B100B2013108C507BE
:100F68000318C60A3208C6070130C9070318CA0A97
:100F78000030CA074A08803AFF0080307F02031D0C
:100F8800C72F0A304902031CCA2FCB2FA82FCC2FFA
:100F98000A30F0000030F100831203134608F30111
:100FA800F3074508F201F2070A128A15B2270A1256
:100FB8008A11710883120313C801C8077008C70192
:100FC800C7071A30B1003108A0004808A201A207DB
:100FD8004708A101A10735300A128A1180260A1292
:100FE8008A11831203134808B001B0074708AF01FC
:100FF800AF07FE2F08003C3408308A000408840A32
:1010080082070034013400340A3400346434003474
:10101800E834033410342734443469347334743472
:1010280061346E34633465343A342034253464349E
:1010380063346D34003441346434633420345634BA
:1010480061346C34753465343A342034253464346E
:02105800003462
:101B8A0064008001840A0406031900340406C62D81
:101B9A00F300F31773080A128A15E9250A128A153F
:101BAA000800F2008312031309118910091472083C
:101BBA008800091509110730F1007D30F000F00B9B
:101BCA00E42DF10BE42D0800F2008312031309112E
:101BDA008910091072088800091509110D30F100E1
:101BEA00FB30F000F00BF72DF10BF72DFC2D080060
:101BFA008312031385013F30831603138500A13036
:101C0A00831203139F000230831603139F0053307D
:101C1A00E600E60B0E2E08000A128A15FD250A12A6
:101C2A008A150A128A15D4260A128A150A128A15E0
:101C3A00AC260A128A15FC30831603138600043078
:101C4A0081008B168B170800F400392E7408840063
:101C5A00831300080A128A15D6250A128A1501303A
:101C6A00F3007308F407392E74088400831380087C
:101C7A00031D402E412E2B2E422E080083160313DD
:101C8A00E80083120313091189100910831603133C
:101C9A006808831203138800091509110D30831689
:101CAA000313E700FB30E600E60B592EE70B592E2B
:101CBA005E2E0800E801E901EA01EB01EC01ED0101
:101CCA00EE01EF018313A0308400E6300A128A1570
:101CDA00C5250A128A15831790308400A0300A128B
:101CEA008A15C5250A128A15831603130A128A1140
:101CFA00FF270A128A15EC0083010A128A11152895
:101D0A00831203139E011F158A2E1F198D2E8E2EE4
:101D1A008A2E000000000000831203131E08F2003E
:101D2A00F3017208F4007308F50001300310F40D92
:101D3A00F50DFF3E031D9B2E831603131E0875081F
:101D4A00F101F1077408F001F007AB2E08008316C1
:101D5A0003138717BF30E600660887051815143085
:101D6A0099001813831203131813831603131812F6
:101D7A008312031398171816831603130C128C1662
:101D8A009816003083120313EF00EE00ED0083165D
:101D9A000313E600660883120313EC0008000230FE
:101DAA00831603139F008312031388018901831684
:101DBA0003138801890101300A128A1543260A127F
:101DCA008A1538300A128A1543260A128A150C30E7
:101DDA000A128A1543260A128A1506300A128A1529
:101DEA0043260A128A1502300A128A1543260A1253
:101DFA008A15080083160313E700042F042F8312A1
:101E0A006E08013E0F396F0603190C2F0D2F042F90
:101E1A008B13831603136708E600831203136E08F5
:101E2A00B03E84008316031366088313800083126E
:101E3A0003136E08013E0F3983160313E600660882
:101E4A0083120313EE00831603130C168B17080074
:101E5A00F700512F831203139F111F129F12622F33
:101E6A00831203139F151F129F12622F83120313EB
:101E7A009F111F169F12622F831203139F151F169D
:101E8A009F12622F831203139F111F129F16622F34
:101E9A0000306D2F6D2F622F7708003A03192F2F0C
:101EAA00013A0319352F033A03193B2F013A031953
:101EBA00412F073A0319472F4D2F5330F600F60BDF
:101ECA00642F0A128A1585260A128A1570086D2F40
:101EDA000800790878040319732F742FAA2FFD01BB
:101EEA000314FD0D842F01300310F80DF90DFF3E88
:101EFA00031D792F0130FC007C08FD07842FF91F90
:101F0A00872F882F782F8A2F8A2F79087B02031D23
:101F1A00902F78087A02031C932F942F9B2F78080E
:101F2A00FA027908031CFB03FB029B2F0130031002
:101F3A00F90CF80CFF3E031D9C2F0130FD02031D16
:101F4A00A72FA82F8A2FAA2FAA2F7B08F901F907F2
:101F5A007A08F801F807B12F0800F501F6017108AF
:101F6A0070040319B92FBA2FF82FF7010314F70DCC
:101F7A00CA2F01300310F00DF10DFF3E031DBF2FD4
:101F8A000130F4007408F707CA2FF11FCD2FCE2FA6
:101F9A00BE2FD02FD02F01300310F50DF60DFF3EC6
:101FAA00031DD12F71087302031DDD2F7008720201
:101FBA00031CE02FE12FE92F7008F2027108031CBD
:101FCA00F303F3027514E92F01300310F10CF00C3E
:101FDA00FF3E031DEA2F0130F702031DF52FF62FEE
:101FEA00D02FF82FF82F7608F101F1077508F001C4
:061FFA00F007FF2F0800B4
:02400E0032FF7F
:00000001FF
