:060000000A128A11122809
:10000800FE00030E83120313CD000408CE000A0875
:10001800CF007F08D0000A128A11D02E0A128A1542
:10002800702C0A128A154E230A128A111B28FF30D7
:1000380083160313D5005508D8005B2801300A122F
:100048008A155A250A128A1183120313DE01CD2B51
:1000580002300A128A155A250A128A1183120313CA
:10006800DE01CD2B03300A128A155A250A128A118D
:1000780083120313DE01CD2B04300A128A155A2588
:100088000A128A1183120313DE01CD2B05300A12DE
:100098008A155A250A128A1183160313D5005508A2
:1000A800D80083120313DE01CD2BCD2BCD2B831269
:1000B8005E08013A03192228033A03192C28013A49
:1000C80003193628073A03194028013A03194A2820
:1000D800CD2BCD2B83120313071487140B300A1270
:1000E8008A1530230A128A11831203130710871006
:1000F80007150000831203130711E02BD030831675
:100108000313D2000730D3000A128A155C260A129C
:100118008A11E02B831203130230860680300A12FC
:100128008A1542240A128A11033083160313D70052
:100138008A30D6005630D500D50BA028D60BA0287B
:10014800D70BA028A72884300A128A1542240A123D
:100158008A11033083160313D7008A30D60056302D
:10016800D500D50BB528D60BB528D70BB528BC2894
:1001780089300A128A1542240A128A11033083161A
:100188000313D7008A30D6005630D500D50BCA28BD
:10019800D60BCA28D70BCA28D12801300A128A15CB
:1001A80042240A128A11033083160313D7008A30B7
:1001B800D6005630D500D50BDF28D60BDF28D70B55
:1001C800DF28E6282C300A128A1542240A128A11DE
:1001D800033083160313D7008A30D6005630D50073
:1001E800D50BF428D60BF428D70BF428FB2880303D
:1001F8000A128A1542240A128A110330831603133D
:10020800D7008A30D6005630D500D50B0929D60B31
:100218000929D70B0929102900300A128A15422406
:100228000A128A11033083160313D7008A30D600C6
:100238005630D500D50B1E29D60B1E29D70B1E29E3
:1002480025299C300A128A1542240A128A11033081
:1002580083160313D7008A30D6005630D500D50B45
:100268003329D60B3329D70B33293A2901300A12FF
:100278008A1542240A128A11033083160313D70001
:100288008A30D6005630D500D50B4829D60B4829D8
:10029800D70B48294F2990300A128A1542240A128E
:1002A8008A11033083160313D7008A30D6005630DC
:1002B800D500D50B5D29D60B5D29D70B5D2964299F
:1002C80089300A128A1542240A128A1103308316C9
:1002D8000313D7008A30D6005630D500D50B7229C3
:1002E800D60B7229D70B7229792900300A128A1580
:1002F80042240A128A11033083160313D7008A3066
:10030800D6005630D500D50B8729D60B8729D70BB1
:1003180087298E2900300A128A1542240A128A1166
:10032800033083160313D7008A30D6005630D50021
:10033800D50B9C29D60B9C29D70B9C29A3290030C7
:100348000A128A1542240A128A11033083160313EB
:10035800D7008A30D6005630D500D50BB129D60B38
:10036800B129D70BB129B82900300A128A154224BD
:100378000A128A11033083160313D7008A30D60075
:100388005630D500D50BC629D60BC629D70BC6299A
:10039800CD29E02B80300A128A1542240A128A11CC
:1003A800033083160313D7008A30D6005630D500A1
:1003B800D50BDC29D60BDC29D70BDC29E3298430C3
:1003C8000A128A1542240A128A110330831603136B
:1003D800D7008A30D6005630D500D50BF129D60B78
:1003E800F129D70BF129F829033083160313D70015
:1003F8008A30D6005630D500D50B002AD60B002AF5
:10040800D70B002A072A033083160313D7008A3034
:10041800D6005630D500D50B0F2AD60B0F2AD70B8E
:100428000F2A162A89300A128A1542240A128A11BA
:10043800033083160313D7008A30D6005630D50010
:10044800D50B242AD60B242AD70B242A2B2A013091
:100458000A128A1542240A128A11033083160313DA
:10046800D7008A30D6005630D500D50B392AD60B9E
:10047800392AD70B392A402A2C300A128A154224E5
:100488000A128A11033083160313D7008A30D60064
:100498005630D500D50B4E2AD60B4E2AD70B4E2AEE
:1004A800552A80300A128A1542240A128A1103300A
:1004B80083160313D7008A30D6005630D500D50BE3
:1004C800632AD60B632AD70B632A6A2A00300A12DA
:1004D8008A1542240A128A11033083160313D7009F
:1004E8008A30D6005630D500D50B782AD60B782A14
:1004F800D70B782A7F2A9C300A128A1542240A12BE
:100508008A11033083160313D7008A30D600563079
:10051800D500D50B8D2AD60B8D2AD70B8D2A942A78
:1005280001300A128A1542240A128A1103308316EE
:100538000313D7008A30D6005630D500D50BA22A2F
:10054800D60BA22AD70BA22AA92A90300A128A15FA
:1005580042240A128A11033083160313D7008A3003
:10056800D6005630D500D50BB72AD60BB72AD70BED
:10057800B72ABE2A89300A128A1542240A128A1119
:10058800033083160313D7008A30D6005630D500BF
:10059800D50BCC2AD60BCC2AD70BCC2AD32A0030A1
:1005A8000A128A1542240A128A1103308316031389
:1005B800D7008A30D6005630D500D50BE12AD60BA5
:1005C800E12AD70BE12AE82A00300A128A154224C8
:1005D8000A128A11033083160313D7008A30D60013
:1005E8005630D500D50BF62AD60BF62AD70BF62AA5
:1005F800FD2A00300A128A1542240A128A11033091
:1006080083160313D7008A30D6005630D500D50B91
:100618000B2BD60B0B2BD70B0B2B122B00300A12E4
:100628008A1542240A128A11033083160313D7004D
:100638008A30D6005630D500D50B202BD60B202B70
:10064800D70B202B272B033083160313D7008A30B0
:10065800D6005630D500D50B2F2BD60B2F2BD70B0A
:100668002F2B362BE02B80300A128A1542240A12CF
:100678008A11033083160313D7008A30D600563008
:10068800D500D50B452BD60B452BD70B452B4C2B23
:1006980084300A128A1542240A128A1103308316FA
:1006A8000313D7008A30D6005630D500D50B5A2B05
:1006B800D60B5A2BD70B5A2B612B89300A128A1565
:1006C80042240A128A11033083160313D7008A3092
:1006D800D6005630D500D50B6F2BD60B6F2BD70B0A
:1006E8006F2B762B00300A128A1542240A128A11BF
:1006F800033083160313D7008A30D6005630D5004E
:10070800D50B842BD60B842BD70B842B8B2B263025
:100718000A128A1542240A128A1103308316031317
:10072800D7008A30D6005630D500D50B992BD60B7A
:10073800992BD70B992BA02B00300A128A1542242B
:100748000A128A11033083160313D7008A30D600A1
:100758005630D500D50BAE2BD60BAE2BD70BAE2B08
:10076800B52B00300A128A1542240A128A11033066
:1007780083160313D7008A30D6005630D500D50B20
:10078800C32BD60BC32BD70BC32BCA2BE02BE02BC9
:10079800E02B831603135808003A03196E28013A10
:1007A80003198228033A03198E28013A0319CE291E
:1007B800073A0319372BE02BFF3083160313D500B4
:1007C8005508D8001B281B280A128A111228003045
:1007D800831203135402D53003195302031CF52B5B
:1007E800F62B312C00305402EA3003195302031857
:1007F800FE2BFF2B312C1530F6000030F700530983
:10080800A0005409A100A00A0319A10A2008EA3E81
:10081800F00021080318013E003EF1000530F20007
:100828000030F3000A128A15C3230A128A117108CC
:10083800F901F9077008F801F8070A128A11B227B6
:100848000A128A1176080F3E83120313D50077081F
:100858000318013E003ED600CF2D00305402AA30C6
:1008680003195302031C392C3A2C752C00305402FE
:10087800D530031953020318422C432C752C2B3006
:10088800F6000030F7005309A0005409A100A00A9F
:100898000319A10A2008D53EF00021080318013EDB
:1008A800003EF1000A30F2000030F3000A128A1507
:1008B800C3230A128A117108F901F9077008F801AF
:1008C800F8070A128A11B2270A128A117608143E0A
:1008D80083120313D50077080318013E003ED600A3
:1008E800CF2D00305402803003195302031C7D2C95
:1008F8007E2CB92C00305402AA3003195302031875
:10090800862C872CB92C2A30F6000030F7005309C2
:10091800A0005409A100A00A0319A10A2008AA3EB0
:10092800F00021080318013E003EF1000A30F200F1
:100938000030F3000A128A15C3230A128A117108BB
:10094800F901F9077008F801F8070A128A11B227A5
:100958000A128A1176081E3E83120313D5007708FF
:100968000318013E003ED600CF2D003054026B30F4
:1009780003195302031CC12CC22CFD2C0030540255
:100988008030031953020318CA2CCB2CFD2C1530C8
:10099800F6000030F7005309A0005409A100A00A8E
:1009A8000319A10A2008803EF00021080318013E1F
:1009B800003EF1000A30F2000030F3000A128A15F6
:1009C800C3230A128A117108F901F9077008F8019E
:1009D800F8070A128A11B2270A128A117608283EE5
:1009E80083120313D50077080318013E003ED60092
:1009F800CF2D003054024D3003195302031C052D2E
:100A0800062D412D003054026B3003195302031890
:100A18000E2D0F2D412D1E30F6000030F700530922
:100A2800A0005409A100A00A0319A10A20086B3EDE
:100A3800F00021080318013E003EF1000A30F200E0
:100A48000030F3000A128A15C3230A128A117108AA
:100A5800F901F9077008F801F8070A128A11B22794
:100A68000A128A117608323E83120313D5007708DA
:100A78000318013E003ED600CF2D00305402383016
:100A880003195302031C492D4A2D852D00305402A9
:100A98004D30031953020318522D532D852D15304F
:100AA800F6000030F7005309A0005409A100A00A7D
:100AB8000319A10A20084D3EF00021080318013E41
:100AC800003EF1000A30F2000030F3000A128A15E5
:100AD800C3230A128A117108F901F9077008F8018D
:100AE800F8070A128A11B2270A128A1176083C3EC0
:100AF80083120313D50077080318013E003ED60081
:100B0800CF2D003054022B3003195302031C8D2DB6
:100B18008E2DCF2D0030540238300319530203189C
:100B2800962D972DCF2D0D30F6000030F700530984
:100B3800A0005409A100A00A0319A10A2008383E00
:100B4800F00021080318013E003EF1000A30F200CF
:100B58000030F3000A128A15C3230A128A11710899
:100B6800F901F9077008F801F8070A128A11B22783
:100B78000A128A117608463E83120313D5007708B5
:100B88000318013E003ED600CF2DCF2DCF2DCF2DFF
:100B9800CF2DCF2DCF2D080083120313B50027309A
:100BA800AB002B08AE00B62E3608253A0319DD2D0A
:100BB800DE2DEA2D3608AB00350884002B08831398
:100BC80080000130AB002B08B507B62EAF01F12D20
:100BD800CA2E062E062EB62E062E0130A607FF3088
:100BE800260784000A128A150A200A128A11B600FA
:100BF800003A0319CA2E643A0319062E0D3A03194E
:100C0800062EB62E2E08840083130008B100840A2D
:100C18000008B2000230AB002B08AE07B21F152E39
:100C2800162E202E0330AB002B08AF04B109B209F1
:100C3800B10A0319B20A202EB6010314B60D3608FC
:100C4800053A031D282E292E2B2E532E532E3608F7
:100C5800AB002B07013E84000A128A150A200A12EB
:100C68008A11AC000A128A150A200A128A11AD00EC
:100C78002D083202031D422E2C0831020318452E7E
:100C8800462E482E532E532E0130AB002B08B607A4
:100C98003608053A031D512E522E2B2E532E2F089F
:100CA80003390319582E592E652E2D30AB003508FF
:100CB80084002B08831380000130AB002B08B50794
:100CC800652E3608AB002B08B000AA2E0A30A0000B
:100CD8000030A1003008AB002B07013E84000A1247
:100CE8008A150A200A128A11F6000A128A150A20A1
:100CF8000A128A11F7003208F901F9073108F801D8
:100D0800F8070A128A11B2270A128A117708831281
:100D18000313A301A3077608A201A2070A128A15E2
:100D280014250A128A11831203132008303EAC00DE
:100D38002C08B6003608AB00350884002B0883134E
:100D480080000130AB002B08B507AA2EFF30AB009E
:100D58002B08B0073008FF3A031DB32EB42E6A2EB5
:100D6800B62EB62E0130A607FF30260784000A12D9
:100D78008A150A200A128A11AB002B08B600B60899
:100D8800031DC72EC82ED82DCA2ECA2E350884009A
:100D980083138001CF2E08008C1ED32ED42EEE2E66
:100DA8001A08CC006208B03E84004C088313800007
:100DB8006208013E0F39CC004C08E4006408630661
:100DC8000319E72EE82EEE2E6408CC004C08E2004A
:100DD800EE2EEE2E0C1EF12EF22E122F831603137A
:100DE8000C1EF72EF82E122F831203136608C03E2E
:100DF80084008313000899000130CC004C08E607F2
:100E08000F30CC004C08E60566086506031D0D2F5B
:100E18000E2F122F831603130C12122F0B1D152FD2
:100E2800162FA62F0B116430831281000130D107D1
:100E38000318D20A0030D207E7170A30A0000030A2
:100E4800A1005208A301A3075108A201A2070A1290
:100E58008A1514250A128A11831203132108200403
:100E6800031D372F382F3A2F67173A2F3230A0003B
:100E78000030A1005208A301A3075108A201A2074C
:100E88000A128A1514250A128A11831203132108DB
:100E98002004031D502F512F532F6815532FFA305C
:100EA800A0000030A1005208A301A3075108A20125
:100EB800A2070A128A1514250A128A11831203132B
:100EC80021082004031D692F6A2F782F0A128A151A
:100ED800A1250A128A110A128A1547270A128A11AD
:100EE800831203136814782FF430A0000130A10096
:100EF8005208A301A3075108A201A2070A128A15E2
:100F080014250A128A118312031321082004031DD1
:100F18008E2F8F2F952FE814D101D201013086062C
:100F2800952FDE08031D992F9A2FA62F0A128A15CE
:100F3800A1240A128A1183120313CC004C08DE0084
:100F4800A62FA62F83125008FF004F088A004E08CC
:100F580084004D0E8300FE0E7E0E0900FB01FC018D
:100F6800770876040319B92FBA2FF82FFD01031457
:100F7800FD0DCA2F01300310F60DF70DFF3E031DBE
:100F8800BF2F0130FA007A08FD07CA2FF71FCD2FAF
:100F9800CE2FBE2FD02FD02F01300310FB0DFC0D0C
:100FA800FF3E031DD12F77087902031DDD2F760838
:100FB8007802031CE02FE12FE92F7608F802770862
:100FC800031CF903F9027B14E92F01300310F70C15
:100FD800F60CFF3E031DEA2F0130FD02031DF52F1D
:100FE800F62FD02FF82FF82F7C08F701F7077B088A
:100FF800F601F607FF2F0800FF1B0A2883137F1846
:1010080083170008840A0319FF0A080008308A00B9
:101018000408840A82070034013400340A34003496
:1010280064340034E834033410342734413444340D
:1010380043343A34253464342034443469347334C2
:1010480074343A342534643400345434683469349C
:101058006E346734313400345434683469346E344F
:101068006734323400345434683469346E34673445
:10107800333400345434683469346E346734343467
:1010880000345434683469346E3467343534003489
:1010980054346834313400345434683432340034CD
:1010A80054346834333400345434683434340034B9
:0810B80054346834353400346F
:10152C001A34213428342F3436343D344134453484
:10153C0049344D343C3464008001840A0406031998
:10154C0000340406A22AF300F31773080A128A1552
:10155C00D8220A128A150800F2008312031309110B
:10156C008910091472088800091509110730F10057
:10157C007D30F000F00BC02AF10BC02A08007E0869
:10158C008A007F0882000A128A15C5220A128A155F
:10159C008000840A04087D0603190034FF0A03192D
:1015AC00FE0AC92AF20083120313091189100910CB
:1015BC0072088800091509110D30F100FB30F0009C
:1015CC00F00BE62AF10BE62AEB2A080000300A128F
:1015DC008A15D3240A128A15FA00FB017A08FC003A
:1015EC007B08FD007D08F901F9077C08F801F80774
:1015FC00FF2A08008312031385013F30831603135F
:10160C008500A130831203139F000230831603134D
:10161C009F005330D000D00B112B080083160313FE
:10162C00D2008312031309118910091083160313B6
:10163C005208831203138800091509110D30831603
:10164C000313D100FB30D000D00B2A2BD10B2A2B4B
:10165C002F2B080083160313D200D101831203131E
:10166C008C118316031352088312031393003E2B21
:10167C008C1D412B422B3E2B432B1308831603133B
:10168C00D0005008D100831203138C114D2B08008D
:10169C000A128A1500230A128A150A128A151724AF
:1016AC000A128A150A128A159B230A128A15FC3013
:1016BC008316031386009030D300530887054030FF
:1016CC009400A13083120313940007108710043088
:1016DC008316031381008B168B17080083120313D8
:1016EC009E011F15792B1F197C2B7D2B792B00004C
:1016FC0000000000831203131E08F200F3017208AD
:10170C00F4007308F50001300310F40DF50DFF3EE5
:10171C00031D8A2B831603131E087508F101F107AC
:10172C007408F001F0079A2B08008316031387172F
:10173C00BF30D000500887051815143099001813C5
:10174C008312031318138316031318128312031333
:10175C0098171816831603130C128C169816003053
:10176C0083120313E600E500E30083160313D00095
:10177C00500883120313E2000800F401F501C62B94
:10178C00701CC92BCA2BD02B7208F4070318F50A4E
:10179C007308F50701300310F20DF30DFF3E031D26
:1017AC00D12B01300310F10CF00CFF3E031DD82B94
:1017BC0071087004031DE32BE42BC62BE52B750875
:1017CC00F101F1077408F001F007EC2B0800052C6F
:1017DC00780883120313FF00770884000A128A1515
:1017EC0000200A128A150A128A15B2220A128A15C8
:1017FC000130F7070318F80A0030F807052C7808B1
:10180C0083120313FF00770884000A128A15002044
:10181C000A128A150038031D142C152CEE2B162CCD
:10182C0008000230831603139F00831203138801F0
:10183C008901831603138801890101300A128A1564
:10184C0014230A128A1538300A128A1514230A1224
:10185C008A150C300A128A1514230A128A150630BE
:10186C000A128A1514230A128A1502300A128A15D2
:10187C0014230A128A15080083160313D100472C6F
:10188C00472C83126508013E0F39660603194F2C4D
:10189C00502C472C8B13831603135108D000831242
:1018AC0003136508C03E840083160313500883138A
:1018BC008000831203136508013E0F39831603134E
:1018CC00D000500883120313E500831603130C1683
:1018DC008B170800E701E80183135130840067304F
:1018EC000A128A15A1220A128A15A0308400D0305F
:1018FC000A128A15A1220A128A15DE30FD000A305E
:10190C00FE009630FF00D93084000A128A15C922D5
:10191C000A128A156F30FD000A30FE009B30FF0062
:10192C00693084000A128A15C9220A128A158301A9
:10193C000A128A1115280A128A15CB260A128A1540
:10194C0083120313E81EAB2CAC2CB02CE812013024
:10195C00D22CD22C671DB32CB42CB82C67110230AE
:10196C00D22CD22C671EBB2CBC2CC02C6712033083
:10197C00D22CD22CE81DC32CC42CC82CE81104305A
:10198C00D22CD22C671CCB2CCC2CD02C6710053035
:10199C00D22CD22C0030D22C0800F700F72C83125A
:1019AC0003139F111F129F12082D831203139F15EF
:1019BC001F129F12082D831203139F111F169F12C3
:1019CC00082D831203139F151F169F12082D8312C7
:1019DC0003139F111F129F16082D0030132D132D6A
:1019EC00082D7708003A0319D52C013A0319DB2C82
:1019FC00033A0319E12C013A0319E72C073A0319AE
:101A0C00ED2CF32C5330F600F60B0A2D0A128A1526
:101A1C0074230A128A157008132D080083120313FD
:101A2C002108200403191B2D1C2D522DA501031474
:101A3C00A50D2C2D01300310A00DA10DFF3E031D93
:101A4C00212D0130A4002408A5072C2DA11F2F2D1A
:101A5C00302D202D322D322D21082302031D382D3F
:101A6C0020082202031C3B2D3C2D432D2008A202F2
:101A7C002108031CA303A302432D01300310A10C66
:101A8C00A00CFF3E031D442D0130A502031D4F2D5C
:101A9C00502D322D522D522D2308A101A1072208C1
:101AAC00A001A007592D080083160313D0008B2D1D
:101ABC009E2D9E2DFF3083120313D7070318D80ACF
:101ACC00FF30D807D81F6B2D6C2D9E2D0430D700FE
:101ADC000030D8009E2D9E2D01308312D70703189D
:101AEC00D80A0030D807053057065804031D7F2D3F
:101AFC00802D9E2DD701D8019E2D9E2D8312570827
:101B0C00A02DA02D9E2D9E2D9E2D831603135008C7
:101B1C00013A03199E2D033A03199E2D013A03191C
:101B2C00602D073A0319722D013A0319842D9E2D4D
:101B3C00FF30A02D080083120313A201A301A401FE
:101B4C00A5012508803AFF0080307F02031DB02DCF
:101B5C000A302402031CB32DB42DB62DD72DD72D4E
:101B6C000A128A15EC220A128A15780883120313BA
:101B7C00A2070318A30A7908A3070130A4070318C6
:101B8C00A50A0030A5072508803AFF0080307F02A7
:101B9C00031DD22D0A302402031CD52DD62DB62DB3
:101BAC00D72D0A30F6000030F700831203132308F8
:101BBC00F901F9072208F801F8070A128A11B2276D
:101BCC000A128A15770883120313D401D4077608F6
:101BDC00D301D3070A128A11EB230A128A150800C3
:101BEC00F601F31FFA2DFB2D042EF209F309F20A6C
:101BFC000319F30AF6010314F60D042EF11F072E38
:101C0C00082E0E2EF009F109F00A0319F10A0E2E16
:101C1C00710870040319132E142E4A2EF5010314A7
:101C2C00F50D242E01300310F00DF10DFF3E031DB8
:101C3C00192E0130F4007408F507242EF11F272EFD
:101C4C00282E182E2A2E2A2E71087302031D302ED0
:101C5C0070087202031C332E342E3B2E7008F202D5
:101C6C007108031CF303F3023B2E01300310F10C3B
:101C7C00F00CFF3E031D3C2E0130F502031D472ED8
:101C8C00482E2A2E4A2E4A2E7608031D4E2E542EEE
:101C9C00F209F309F20A0319F30A542E7308F1013D
:101CAC00F1077208F001F0075B2E0800831603138E
:101CBC005208D400540883120313E1008316031353
:101CCC005308D400540883120313E00080300A1226
:101CDC008A1542240A128A1584300A128A15422463
:101CEC000A128A1589300A128A1542240A128A1598
:101CFC0001300A128A1542240A128A152C300A1253
:101D0C008A1542240A128A1580300A128A15422436
:101D1C000A128A1500300A128A1542240A128A15F0
:101D2C009C300A128A1542240A128A158312031354
:101D3C0060080A128A1542240A128A1583120313A8
:101D4C0061080A128A1542240A128A1589300A126D
:101D5C008A1542240A128A1500300A128A15422466
:101D6C000A128A1500300A128A1542240A128A15A0
:101D7C0000300A128A1542240A128A1500300A12FF
:101D8C008A1542240A128A150800831203130619B5
:101D9C00D02ED12EE32E0130F0007008DD070A3072
:101DAC005D02031CDA2EDB2EE52E681FDE2EDF2EE5
:101DBC00E52EE8166813E52EE52EDD016817861969
:101DCC00E82EE92EFB2E0130F0007008DA070A30FD
:101DDC005A02031CF22EF32EFD2EE71DF62EF72EC3
:101DEC00FD2E6715E711FD2EFD2EDA01E715061AFB
:101DFC00002F012F132F0130F0007008DB070A3081
:101E0C005B02031C0A2F0B2F152FE71E0E2F0F2F13
:101E1C00152F6716E712152F152FDB01E716861AFB
:101E2C00182F192F2B2F0130F0007008DC070A3007
:101E3C005C02031C222F232F2D2F681E262F272FE9
:101E4C002D2FE81568122D2F2D2FDC016816061B7F
:101E5C00302F312F432F0130F0007008D9070A3092
:101E6C005902031C3A2F3B2F462FE71C3E2F3F2FC6
:101E7C00462F6714E710462F462FD901E714462F3B
:101E8C0008003C308400A03083120313B700040810
:101E9C00B8001030B9003708840083130008BA006A
:101EAC00B70A380884003A088000B80AB90B512FD9
:101EBC0001300A128A15D8220A128A150B308312A5
:101ECC000313B7003708A6006008B800B90138083A
:101EDC00A7003908A8006108BA00BB013A08A9009C
:101EEC003B08AA003C300A128A11D0250A128A1526
:101EFC0000300A128A15A9220A128A153C30F70002
:101F0C000030F8000A128A15ED230A128A154030A7
:101F1C000A128A15A9220A128A1583120313580869
:101F2C00803AFF0080307F02031D9E2F0130570244
:101F3C00031CA12FA22FB32F831203135708FF3EAC
:101F4C00693E840083130008F7008030F8000A1201
:101F5C008A15ED230A128A15C42F8312031357080E
:101F6C00043E693E840083130008F7008030F800BB
:101F7C000A128A15ED230A128A15C42F44300A124C
:101F8C008A15A9220A128A15831203135708D93EFF
:101F9C00840083130008F7008030F8000A128A15B9
:101FAC00ED230A128A154D300A128A15A9220A123B
:101FBC008A150530F0000030F10083120313570826
:101FCC00013EF20058080318013E003EF3000A12CD
:101FDC008A15F6250A128A157008693E8400831347
:101FEC000008F7008030F8000A128A15ED230A1257
:041FFC008A1508003A
:02400E0032FF7F
:00000001FF
