:060000000A128A11122809
:10000800FE00030E83120313C6000408C7000A0883
:10001800C8007F08C9000A128A11372B0A128A15EC
:10002800F72E0030831203134D02FB3003194C02E4
:10003800031C1F28202825281430CE000030CF00AC
:10004800382A00304D02FA3003194C0203182D28C3
:100058002E28512800304D02BE3003194C02031CD3
:100068003628372851286430F8000030F9004D0848
:10007800FB01FB074C08FA01FA070A128A11B82596
:100088000A128A117808143E83120313CE007908E5
:100098000318013E003ECF00382A00304D02BE3022
:1000A80003194C02031859285A287D2800304D029C
:1000B800603003194C02031C622863287D286430D1
:1000C800F8000030F9004D08FB01FB074C08FA0165
:1000D800FA070A128A11B8250A128A1178081E3EF0
:1000E80083120313CE0079080318013E003ECF00A7
:1000F800382A00304D02BE3003194C0203188528F7
:100108008628A92800304D02603003194C02031CD0
:100118008E288F28A9286430F8000030F9004D088F
:10012800FB01FB074C08FA01FA070A128A11B825E5
:100138000A128A117808283E83120313CE00790820
:100148000318013E003ECF00382A00304D027330BC
:1001580003194C020318B128B228D52800304D02E3
:10016800603003194C02031CBA28BB28D528643018
:10017800F8000030F9004D08FB01FB074C08FA01B4
:10018800FA070A128A11B8250A128A117808323E2B
:1001980083120313CE0079080318013E003ECF00F6
:1001A800382A00304D02603003194C020318DD284C
:1001B800DE28012900304D02523003194C02031C7D
:1001C800E628E72801296430F8000030F9004D08D6
:1001D800FB01FB074C08FA01FA070A128A11B82535
:1001E8000A128A1178083C3E83120313CE0079085C
:1001F8000318013E003ECF00382A00304D0252302D
:1002080003194C02031809290A292D2900304D0227
:10021800463003194C02031C122913292D29643076
:10022800F8000030F9004D08FB01FB074C08FA0103
:10023800FA070A128A11B8250A128A117808463E66
:1002480083120313CE0079080318013E003ECF0045
:10025800382A00304D02463003194C02031835295C
:100268003629592900304D02403003194C02031C2D
:100278003E293F2959296430F8000030F9004D081B
:10028800FB01FB074C08FA01FA070A128A11B82584
:100298000A128A117808503E83120313CE00790897
:1002A8000318013E003ECF00382A00304D0240308E
:1002B80003194C02031861296229852900304D026F
:1002C800383003194C02031C6A296B2985296430CC
:1002D800F8000030F9004D08FB01FB074C08FA0153
:1002E800FA070A128A11B8250A128A1178085A3EA2
:1002F80083120313CE0079080318013E003ECF0095
:10030800382A00304D02383003194C0203188D2961
:100318008E29B12900304D022D3003194C02031CDF
:1003280096299729B1296430F8000030F9004D0862
:10033800FB01FB074C08FA01FA070A128A11B825D3
:100348000A128A117808643E83120313CE007908D2
:100358000318013E003ECF00382A00304D022D30F0
:1003680003194C020318B929BA29DD2900304D02B6
:10037800283003194C02031CC229C329DD29643023
:10038800F8000030F9004D08FB01FB074C08FA01A2
:10039800FA070A128A11B8250A128A1178086E3EDD
:1003A80083120313CE0079080318013E003ECF00E4
:1003B800382A00304D02283003194C020318E52969
:1003C800E629092A00304D02213003194C02031C8A
:1003D800EE29EF29092A6430F8000030F9004D08A9
:1003E800FB01FB074C08FA01FA070A128A11B82523
:1003F8000A128A117808783E83120313CE0079080E
:100408000318013E003ECF00382A00304D0221304B
:1004180003194C020318112A122A382A6430F800EA
:100428000030F9004D08FB01FB074C08FA01FA07F8
:100438000A128A11B8250A128A117808823E831294
:100448000313CE0079080318013E003ECF00382A76
:10045800382A382A382A382A382A382A382A382A84
:10046800382A382A382A382A080083120313AF009A
:100478002130A5002508A8001D2B3008253A0319AE
:10048800462A472A532A3008A5002F088400250841
:10049800831380000130A5002508AF071D2BA90193
:1004A8005A2A312B6F2A6F2A1D2B6F2A0130A00779
:1004B800FF30200784000A128A110A260A128A11BC
:1004C800B000003A0319312B643A03196F2A0D3A28
:1004D80003196F2A1D2B2808840083130008AB001A
:1004E800840A0008AC000230A5002508A807AC1F44
:1004F8007E2A7F2A892A0330A5002508A904AB098A
:10050800AC09AB0A0319AC0A892AB0010314B00D6F
:100518003008053A031D912A922A942ABC2ABC2A3B
:100528003008A5002507013E84000A128A110A2610
:100538000A128A11A6000A128A110A260A128A11B8
:10054800A70027082C02031DAB2A26082B02031834
:10055800AE2AAF2AB12ABC2ABC2A0130A500250838
:10056800B0073008053A031DBA2ABB2A942ABC2AC8
:10057800290803390319C12AC22ACE2A2D30A50019
:100588002F0884002508831380000130A500250862
:10059800AF07CE2A3008A5002508AA00112B0A307B
:1005A800F8000030F9002A08A5002507013E84005C
:1005B8000A128A110A260A128A11F0000A128A11EE
:1005C8000A260A128A11F1002C08F301F3072B08F6
:1005D800F201F2070A128A1172270A128A117108A7
:1005E800FB01FB077008FA01FA070A128A11B825FD
:1005F8000A128A117808303E83120313A6002608CF
:10060800B0003008A5002F08840025088313800057
:100618000130A5002508AF07112BFF30A5002508DC
:10062800AA072A08FF3A031D1A2B1B2BD32A1D2BB6
:100638001D2B0130A007FF30200784000A128A1101
:100648000A260A128A11A5002508B000B008031D61
:100658002E2B2F2B412A312B312B2F08840083136B
:100668008001362B08008C1E3A2B3B2B552B1A0881
:10067800C5005908B03E8400450883138000590816
:10068800013E0F39C5004508DB005B085A0603190F
:100698004E2B4F2B552B5B08C5004508D900552B11
:1006A800552B0C1E582B592B792B831603130C1E14
:1006B8005E2B5F2B792B831203135D08C03E8400E9
:1006C8008313000899000130C5004508DD070F3085
:1006D800C5004508DD055D085C06031D742B752BF8
:1006E800792B831603130C12792B0B1D7C2B7D2B76
:1006F800132C0B116430831281000130CA070318D0
:10070800CB0A0030CB07DE170A30F8000030F900BA
:100718004B08FB01FB074A08FA01FA070A128A117B
:10072800B8250A128A1179087804031D9C2B9D2B81
:10073800A12B831203135E17A12B3230F80000306F
:10074800F900831203134B08FB01FB074A08FA015F
:10075800FA070A128A11B8250A128A117908780448
:10076800031DB72BB82BBC2B831203135F15BC2BAF
:10077800FA30F8000030F900831203134B08FB012C
:10078800FB074A08FA01FA070A128A11B8250A1261
:100798008A1179087804031DD22BD32BE12B0A1276
:1007A8008A111D270A128A110A128A111F240A1295
:1007B8008A11831203135F14E12BF430F80001301F
:1007C800F900831203134B08FB01FB074A08FA01DF
:1007D800FA070A128A11B8250A128A1179087804C8
:1007E800031DF72BF82B002C83120313DF14CA0107
:1007F800CB0101308606002C83120313D708031D92
:10080800062C072C132C0A128A11C0270A128A11E7
:1008180083120313C5004508D700132C132C831229
:100828004908FF0048088A0047088400460E8300EC
:10083800FE0E7E0E090035308400A03083120313AB
:10084800B1000408B2001030B300310884008313EB
:100858000008B400B10A3208840034088000B20AE3
:10086800B30B292C01300A128A1587260A128A111D
:100878000B3083120313B1003108A0004D08A20108
:10088800A2074C08A101A1074F08A401A4074E081C
:10089800A301A30735300A128A1139220A128A11D4
:1008A80000300A128A1558260A128A113530F700C4
:1008B8000030F8000A128A156A270A128A11403095
:1008C8000A128A1558260A128A118312031351082C
:1008D800803AFF0080307F02031D742C01305002E3
:1008E800031C772C782C892C831203135008FF3EA5
:1008F800653E840083130008F7008030F8000A1270
:100908008A156A270A128A119A2C8312031350082F
:10091800043E653E840083130008F7008030F80029
:100928000A128A156A270A128A119A2C44300A1266
:100938008A1558260A128A11831203135008603E3A
:10094800840083130008F7008030F8000A128A1523
:100958006A270A128A114D300A128A1558260A1275
:100968008A110530F0000030F1008312031350089B
:10097800013EF20051080318013E003EF3000A123E
:100988008A1152250A128A117008653E8400831361
:100998000008F7008030F8000A128A156A270A1240
:1009A8008A110800831203130619DB2CDC2CEE2CA9
:1009B8000130F0007008D6070A305602031CE52CF7
:1009C800E62CF02C5F1FE92CEA2CF02CDF165F13C5
:1009D800F02CF02CD6015F178619F32CF42C062D79
:1009E8000130F0007008D3070A305302031CFD2CB5
:1009F800FE2C082DDE1D012D022D082D5E15DE11A1
:100A0800082D082DD301DE15061A0B2D0C2D1E2DD1
:100A18000130F0007008D4070A305402031C152D69
:100A2800162D202DDE1E192D1A2D202D5E16DE12F4
:100A3800202D202DD401DE16861A232D242D362DA7
:100A48000130F0007008D5070A305502031C2D2D1F
:100A58002E2D382D5F1E312D322D382DDF155F12CA
:100A6800382D382DD5015F16061B3B2D3C2D4E2DFC
:100A78000130F0007008D2070A305202031C452DDD
:100A8800462D512DDE1C492D4A2D512D5E14DE10A8
:100A9800512D512DD201DE14512D0800F601F31FFE
:100AA800562D572D602DF209F309F20A0319F30A9E
:100AB800F6010314F60D602DF11F632D642D6A2DC8
:100AC800F009F109F00A0319F10A6A2D7108700496
:100AD80003196F2D702DA62DF5010314F50D802D2A
:100AE80001300310F00DF10DFF3E031D752D01308F
:100AF800F4007408F507802DF11F832D842D742DC3
:100B0800862D862D71087302031D8C2D70087202C4
:100B1800031C8F2D902D972D7008F2027108031C6D
:100B2800F303F302972D01300310F10CF00CFF3E94
:100B3800031D982D0130F502031DA32DA42D862D2C
:100B4800A62DA62D7608031DAA2DB02DF209F309AE
:100B5800F20A0319F30AB02D7308F101F1077208BC
:100B6800F001F007B72D0800790878040319BD2DA6
:100B7800BE2DF42DFD010314FD0DCE2D0130031003
:100B8800F80DF90DFF3E031DC32D0130FC007C0854
:100B9800FD07CE2DF91FD12DD22DC22DD42DD42D48
:100BA80079087B02031DDA2D78087A02031CDD2DF3
:100BB800DE2DE52D7808FA027908031CFB03FB02F9
:100BC800E52D01300310F90CF80CFF3E031DE62D4E
:100BD8000130FD02031DF12DF22DD42DF42DF42D3D
:100BE8007B08F901F9077A08F801F807FB2D0800D6
:100C0000FF1B0A2E83137F1883170008840A031919
:100C1000FF0A080006308A000408840A82070034AC
:100C2000013400340A34003464340034E8340334CA
:100C3000103427344134443443343A342534643452
:100C4000203444346934733474343A34253464348D
:100C500000345434683469346E34673431340034C9
:100C60005434683469346E34673432340034543464
:100C7000683469346E34673433340034543468343F
:100C800069346E346734343400345434683469342D
:100C90006E346734353400345434683431340034BD
:100CA00054346834323400345434683433340034C7
:100CB00054346834343400345434683435340034B3
:100CC00083160313D000AC2EBF2EBF2EFF3083122D
:100CD0000313D0070318D10AFF30D107D11F712E9B
:100CE000722EBF2E0430D0000030D100BF2EBF2E98
:100CF00001308312D0070318D10A0030D107053024
:100D000050065104031D852E862EBF2ED001D10121
:100D1000BF2EBF2E922EBF2EBF2EBF2EBF2EBF2E98
:100D2000BF2EBF2E83125108003A0319982EBF2EF2
:100D30005008003A0319BF2E013A0319BF2E033A97
:100D40000319BF2E013A0319BF2E073A0319BF2E0C
:100D5000BF2EBF2EBF2EBF2E831603135008013A9D
:100D60000319BF2E033A0319BF2E013A0319662E49
:100D7000073A0319782E013A0319922EBF2E080064
:100D80000A128A15C3260A128A11052F052F01306F
:100D90000A128A1160260A128A1183120313023082
:100DA0008606D701052F02300A128A1160260A1220
:100DB0008A118312031302308606D701052F0330F0
:100DC0000A128A1160260A128A1183120313023052
:100DD0008606D701052F04300A128A1160260A12EE
:100DE0008A118312031302308606D701052F0530BE
:100DF0000A128A1160260A128A1183120313023022
:100E00008606D701052F052F052F831203135708D8
:100E1000013A0319C72E033A0319D32E013A0319D5
:100E2000DF2E073A0319EB2E013A0319F72E052F8F
:100E3000052F052F0A128A11122883120313A0010D
:100E4000A101A201A3012308803AFF0080307F02A4
:100E5000031D2C2F0A302202031C2F2F302F322F7C
:100E6000532F532F0A128A159B260A128A117808CB
:100E700083120313A0070318A10A7908A107013000
:100E8000A2070318A30A0030A3072308803AFF0033
:100E900080307F02031D4E2F0A302202031C512F87
:100EA000522F322F532F0A30F0000030F1008312FE
:100EB00003132108F301F3072008F201F2070A12D5
:100EC0008A1172270A128A11710883120313CD0145
:100ED000CD077008CC01CC070A128A1115200A121E
:100EE0008A110800F501F601710870040319792FC1
:100EF0007A2FB82FF7010314F70D8A2F0130031052
:100F0000F00DF10DFF3E031D7F2F0130F40074083A
:100F1000F7078A2FF11F8D2F8E2F7E2F902F902F66
:100F200001300310F50DF60DFF3E031D912F7108E2
:100F30007302031D9D2F70087202031CA02FA12FA6
:100F4000A92F7008F2027108031CF303F302751451
:100F5000A92F01300310F10CF00CFF3E031DAA2F46
:100F60000130F702031DB52FB62F902FB82FB82FE1
:100F70007608F101F1077508F001F007BF2F0800AE
:100F80000A128A11D6240A128A1183120313DF1E51
:100F9000CA2FCB2FCF2FDF120130F12FF12F5E1D83
:100FA000D22FD32FD72F5E110230F12FF12F5E1EDB
:100FB000DA2FDB2FDF2F5E120330F12FF12FDF1D31
:100FC000E22FE32FE72FDF110430F12FF12F5E1C0A
:100FD000EA2FEB2FEF2F5E100530F12FF12F0030AD
:100FE000F12F08001A34213428342F3436343D349C
:0A0FF0004134453449344D343C349B
:101CA00064008001840A0406031900340406512EDE
:101CB000F300F31773080A128A1587260A128A1589
:101CC0000800F20083120313091189100914720825
:101CD0008800091509110730F1007D30F000F00B84
:101CE0006F2EF10B6F2E08007E088A007F0882009D
:101CF0000A128A1574260A128A158000840A0408BA
:101D00007D0603190034FF0A0319FE0A782EF2003B
:101D1000831203130911891009107208880009152C
:101D200009110D30F100FB30F000F00B952EF10B96
:101D3000952E9A2E080000300A128A15BF270A1223
:101D40008A15FA00FB017A08FC007B08FD007D087B
:101D5000F901F9077C08F801F807AE2E0800831294
:101D6000031385013F30831603138500A1308312CE
:101D700003139F000230831603139F005330D000DB
:101D8000D00BC02E08000A128A15AF260A128A1537
:101D90000A128A1594270A128A150A128A154227EE
:101DA0000A128A15FC308316031386000430810062
:101DB0008B168B17080083160313D20083120313AC
:101DC0000911891009108316031352088312031393
:101DD0008800091509110D3083160313D100FB305B
:101DE000D000D00BF12ED10BF12EF62E0800DE0123
:101DF000DF0183134A3084005E300A128A155026B0
:101E00000A128A15A0308400D0300A128A15502692
:101E10000A128A156B30FD000730FE00F230FF0019
:101E2000603084000A128A1578260A128A15830106
:101E30000A128A11C02E831203139E011F15202F30
:101E40001F19232F242F202F0000000000008312D1
:101E500003131E08F200F3017208F4007308F50082
:101E600001300310F40DF50DFF3E031D312F8316D5
:101E700003131E087508F101F1077408F001F0075B
:101E8000412F0800831603138717BF30D000500876
:101E900087051815143099001813831203131813AB
:101EA0008316031318128312031398171816831638
:101EB00003130C128C169816003083120313DD00E6
:101EC000DC00DA0083160313D000500883120313DA
:101ED000D9000800822F780883120313FF007708C7
:101EE00084000A128A1100260A128A150A128A151B
:101EF00061260A128A150130F7070318F80A003024
:101F0000F807822F780883120313FF0077088400F4
:101F10000A128A1100260A128A150038031D912F11
:101F2000922F6B2F932F08000230831603139F000C
:101F30008312031388018901831603138801890121
:101F400001300A128A15DB260A128A1538300A1265
:101F50008A15DB260A128A150C300A128A15DB262E
:101F60000A128A1506300A128A15DB260A128A1509
:101F700002300A128A15DB260A128A150800F700B9
:101F8000E32F831203139F111F129F12F42F83124A
:101F900003139F151F129F12F42F831203139F1117
:101FA0001F169F12F42F831203139F151F169F12E3
:101FB000F42F831203139F111F129F16F42F00306A
:101FC000FF2FFF2FF42F7708003A0319C12F013A92
:101FD0000319C72F033A0319CD2F013A0319D32F41
:101FE000073A0319D92FDF2F5330F600F60BF62FDF
:101FF0000A128A151B270A128A157008FF2F08007B
:02400E0032FF7F
:00000001FF
