:060000000A128A11122809
:10000800FE00030E83120313D5000408D6000A0865
:10001800D7007F08D8000A128A11752B0A128A1194
:100028001F2F42308400A03083120313BE0004083F
:10003800BF001030C0003E08840083130008C100D0
:10004800BE0A3F08840041088000BF0AC00B1F2871
:1000580000303D02FB3003193C02031C34283528CC
:100068003A281430D2000030D3004C2A00303D0228
:10007800FA3003193C020318422843286628003046
:100088003D02BE3003193C02031C4B284C2866284D
:100098006430F8000030F9003D08FB01FB073C081C
:1000A800FA01FA070A128A1193250A128A117808A6
:1000B800143E83120313D20079080318013E003E50
:1000C800D3004C2A00303D02BE3003193C0203180D
:1000D8006E286F28922800303D02603003193C02D8
:1000E800031C7728782892286430F8000030F9003B
:1000F8003D08FB01FB073C08FA01FA070A128A11BE
:1001080093250A128A1178081E3E83120313D2001F
:1001180079080318013E003ED3004C2A00303D0206
:10012800BE3003193C0203189A289B28BE280030C9
:100138003D02603003193C02031CA328A428BE28F2
:100148006430F8000030F9003D08FB01FB073C086B
:10015800FA01FA070A128A1193250A128A117808F5
:10016800283E83120313D20079080318013E003E8B
:10017800D3004C2A00303D02733003193C020318A7
:10018800C628C728EA2800303D02603003193C021F
:10019800031CCF28D028EA286430F8000030F90082
:1001A8003D08FB01FB073C08FA01FA070A128A110D
:1001B80093250A128A117808323E83120313D2005B
:1001C80079080318013E003ED3004C2A00303D0256
:1001D800603003193C020318F228F328162900306E
:1001E8003D02523003193C02031CFB28FC28162947
:1001F8006430F8000030F9003D08FB01FB073C08BB
:10020800FA01FA070A128A1193250A128A11780844
:100218003C3E83120313D20079080318013E003EC6
:10022800D3004C2A00303D02523003193C02031817
:100238001E291F29422900303D02463003193C027D
:10024800031C2729282942296430F8000030F900C6
:100258003D08FB01FB073C08FA01FA070A128A115C
:1002680093250A128A117808463E83120313D20096
:1002780079080318013E003ED3004C2A00303D02A5
:10028800463003193C0203184A294B296E290030CD
:100298003D02403003193C02031C532954296E299E
:1002A8006430F8000030F9003D08FB01FB073C080A
:1002B800FA01FA070A128A1193250A128A11780894
:1002C800503E83120313D20079080318013E003E02
:1002D800D3004C2A00303D02403003193C02031879
:1002E800762977299A2900303D02383003193C02D3
:1002F800031C7F2980299A296430F8000030F9000E
:100308003D08FB01FB073C08FA01FA070A128A11AB
:1003180093250A128A1178085A3E83120313D200D1
:1003280079080318013E003ED3004C2A00303D02F4
:10033800383003193C020318A229A329C629003022
:100348003D022D3003193C02031CAB29AC29C629F8
:100358006430F8000030F9003D08FB01FB073C0859
:10036800FA01FA070A128A1193250A128A117808E3
:10037800643E83120313D20079080318013E003E3D
:10038800D3004C2A00303D022D3003193C020318DB
:10039800CE29CF29F22900303D02283003193C022A
:1003A800031CD729D829F2296430F8000030F90055
:1003B8003D08FB01FB073C08FA01FA070A128A11FB
:1003C80093250A128A1178086E3E83120313D2000D
:1003D80079080318013E003ED3004C2A00303D0244
:1003E800283003193C020318FA29FB291E2A003079
:1003F8003D02213003193C02031C032A042A1E2A49
:100408006430F8000030F9003D08FB01FB073C08A8
:10041800FA01FA070A128A1193250A128A11780832
:10042800783E83120313D20079080318013E003E78
:10043800D3004C2A00303D02213003193C02031836
:10044800262A272A4C2A6430F8000030F9003D0893
:10045800FB01FB073C08FA01FA070A128A119325E7
:100468000A128A117808823E83120313D20079088F
:100478000318013E003ED3004C2A4C2A4C2A4C2A31
:100488004C2A4C2A4C2A4C2A4C2A4C2A4C2A4C2AB4
:1004980001300A128A11B2270A128A110B3083120C
:1004A8000313BE003E08A0003D08A201A2073C08B5
:1004B800A101A1075308A401A4075208A301A30797
:1004C80042300A128A1177220A128A1100300A125F
:1004D8008A11D9270A128A1142300A128A1158271A
:1004E8000A128A11080083120313AF002130A500F5
:1004F8002508A8005B2B3008253A0319842A852A89
:10050800912A3008A5002F0884002508831380004D
:100518000130A5002508AF075B2BA901982A6F2B8E
:10052800AD2AAD2A5B2BAD2A0130A007FF3020078A
:1005380084000A128A1100270A128A11B000003AB0
:1005480003196F2B643A0319AD2A0D3A0319AD2A22
:100558005B2B2808840083130008AB00840A00087A
:10056800AC000230A5002508A807AC1FBC2ABD2A8C
:10057800C72A0330A5002508A904AB09AC09AB0AB2
:100588000319AC0AC72AB0010314B00D3008053AA4
:10059800031DCF2AD02AD22AFA2AFA2A3008A5001F
:1005A8002507013E84000A128A1100270A128A11BF
:1005B800A6000A128A1100270A128A11A700270822
:1005C8002C02031DE92A26082B020318EC2AED2A1F
:1005D800EF2AFA2AFA2A0130A5002508B0073008C0
:1005E800053A031DF82AF92AD22AFA2A29080339D2
:1005F8000319FF2A002B0C2B2D30A5002F0884008F
:100608002508831380000130A5002508AF070C2BAF
:100618003008A5002508AA004F2B0A30F800003042
:10062800F9002A08A5002507013E84000A128A114C
:1006380000270A128A11F0000A128A1100270A12EA
:100648008A11F1002C08F301F3072B08F201F207D5
:100658000A128A1145250A128A117108FB01FB0743
:100668007008FA01FA070A128A1193250A128A11E8
:100678007808303E83120313A6002608B00030081D
:10068800A5002F0884002508831380000130A500E9
:100698002508AF074F2BFF30A5002508AA072A0811
:1006A800FF3A031D582B592B112B5B2B5B2B013069
:1006B800A007FF30200784000A128A1100270A12B7
:1006C8008A11A5002508B000B008031D6C2B6D2BFE
:1006D8007F2A6F2B6F2B2F08840083138001742BC4
:1006E80008008C1E782B792B932B1A08D4006408E9
:1006F800B03E84005408831380006408013E0F391B
:10070800D4005408E6006608650603198C2B8D2B67
:10071800932B6608D4005408E400932B932B0C1EEB
:10072800962B972BB72B831603130C1E9C2B9D2BF4
:10073800B72B831203136808C03E84008313000894
:1007480099000130D4005408E8070F30D400540849
:10075800E80568086706031DB22BB32BB72B831671
:1007680003130C12B72B0B1DBA2BBB2B512C0B11DF
:100778006430831281000130DB070318DC0A003083
:10078800DC07D9170A30F8000030F9005C08FB01D3
:10079800FB075B08FA01FA070A128A1193250A1265
:1007A8008A1179087804031DDA2BDB2BDF2B8312DF
:1007B80003135917DF2B3230F8000030F900831289
:1007C80003135C08FB01FB075B08FA01FA070A122E
:1007D8008A1193250A128A1179087804031DF52BCA
:1007E800F62BFA2B831203135A15FA2BFA30F8005A
:1007F8000030F900831203135C08FB01FB075B0858
:10080800FA01FA070A128A1193250A128A1179083D
:100818007804031D102C112C272C0A128A11D924B4
:100828000A128A11831203132108BD01BD0720088B
:10083800BC01BC070A128A1115200A128A118312F8
:1008480003135A14272CF430F8000130F9008312EE
:1008580003135C08FB01FB075B08FA01FA070A129D
:100868008A1193250A128A1179087804031D3D2CF0
:100878003E2C462C83120313DA14DB01DC01013011
:100888008606462C0A128A114F260A128A118312EA
:100898000313D4005408E200512C83125808FF00B7
:1008A80057088A0056088400550E8300FE0E7E0EF7
:1008B8000900831203130619622C632C752C01306E
:1008C800F0007008E1070A306102031C6C2C6D2CE3
:1008D800772C5A1F702C712C772CDA165A13772C18
:1008E800772CE1015A1786197A2C7B2C8D2C013034
:1008F800F0007008DE070A305E02031C842C852C89
:100908008F2CD91D882C892C8F2C5915D9118F2CF7
:100918008F2CDE01D915061A922C932CA52C0130A8
:10092800F0007008DF070A305F02031C9C2C9D2C26
:10093800A72CD91EA02CA12CA72C5916D912A72C4C
:10094800A72CDF01D916861AAA2CAB2CBD2C013096
:10095800F0007008E0070A306002031CB42CB52CC4
:10096800BF2C5A1EB82CB92CBF2CDA155A12BF2C22
:10097800BF2CE0015A16061BC22CC32CD52C013003
:10098800F0007008DD070A305D02031CCC2CCD2C6A
:10099800D82CD91CD02CD12CD82C5914D910D82CFF
:1009A800D82CDD01D914D82C080083120313B80100
:1009B800B90126308400D030A2000408A30010300A
:1009C800A4002208840083130008A500A20A2308B3
:1009D800840025088000A30AA40BE52CBA01BB01FA
:1009E8003B08803AFF0080307F02031DFD2C0A304F
:1009F8003A02031C002D012D032D242D242D0A124B
:100A08008A119E270A128A11780883120313B807DD
:100A18000318B90A7908B9070130BA070318BB0ADD
:100A28000030BB073B08803AFF0080307F02031D7F
:100A38001F2D0A303A02031C222D232D032D242DAD
:100A48000A30F0000030F100831203133908F30173
:100A5800F3073808F201F2070A128A1145250A122B
:100A68008A11710883120313B701B7077008B6011A
:100A7800B6073708A101A1073608A001A007442D31
:100A88000800F501F6017108700403194C2D4D2D6D
:100A98008B2DF7010314F70D5D2D01300310F00DB8
:100AA800F10DFF3E031D522D0130F4007408F707C5
:100AB8005D2DF11F602D612D512D632D632D0130AA
:100AC8000310F50DF60DFF3E031D642D710873022A
:100AD800031D702D70087202031C732D742D7C2D5C
:100AE8007008F2027108031CF303F30275147C2DDD
:100AF80001300310F10CF00CFF3E031D7D2D013079
:100B0800F702031D882D892D632D8B2D8B2D7608DB
:100B1800F101F1077508F001F007922D0800790836
:100B280078040319982D992DCF2DFD010314FD0D7F
:100B3800A92D01300310F80DF90DFF3E031D9E2D60
:100B48000130FC007C08FD07A92DF91FAC2DAD2D47
:100B58009D2DAF2DAF2D79087B02031DB52D78088B
:100B68007A02031CB82DB92DC02D7808FA0279082D
:100B7800031CFB03FB02C02D01300310F90CF80C19
:100B8800FF3E031DC12D0130FD02031DCC2DCD2DCF
:100B9800AF2DCF2DCF2D7B08F901F9077A08F80181
:100BA800F807D62D0800F700FB2D831203139F11B9
:100BB8001F129F120C2E831203139F151F129F12D0
:100BC8000C2E831203139F111F169F120C2E8312D3
:100BD80003139F151F169F120C2E831203139F11C8
:100BE8001F129F160C2E0030172E172E0C2E77086A
:100BF800003A0319D92D013A0319DF2D033A0319D5
:100C0800E52D013A0319EB2D073A0319F12DF72DBC
:100C18005330F600F60B0E2E0A128A11D4260A1249
:100C28008A117008172E08000A128A1172270A12F0
:100C38008A11372E372E8312031302308606E201FB
:100C4800372E02308606E201372E02308606E20190
:100C5800372E02308606E201372E02308606E20180
:100C6800372E372E372E831203136208013A0319E1
:100C78001F2E033A0319252E013A0319292E073A84
:100C880003192D2E013A0319312E372E372E372E00
:100C98000A128A1112280A128A115D240A128A116C
:100CA80083120313DA1E592E5A2E5E2EDA120130E1
:100CB800802E802E591D612E622E662E591102300B
:100CC800802E802E591E692E6A2E6E2E59120330E0
:100CD800802E802EDA1D712E722E762EDA110430B7
:100CE800802E802E591C792E7A2E7E2E5910053092
:100CF800802E802E0030802E0800023083160313C9
:100D08009F00831203138801890183160313880146
:100D1800890101300A128A113C270A128A113830D7
:100D28000A128A113C270A128A110C300A128A11F7
:100D38003C270A128A1106300A128A113C270A1225
:100D48008A1102300A128A113C270A128A110800F5
:100D5800831603138717BF30E0006008870518154E
:100D680014309900181383120313181383160313EE
:100D780018128312031398171816831603130C12EC
:100D88008C169816003083120313E800E700E5007C
:100D980083160313E000600883120313E4000800BD
:100DA800831203139E011F15D92E1F19DC2EDD2E69
:100DB800D92E000000000000831203131E08F20061
:100DC800F3017208F4007308F50001300310F40D04
:100DD800F50DFF3E031DEA2E831603131E08750842
:0E0DE800F101F1077408F001F007FA2E08007F
:100E000007308A000408840A820700340134003461
:100E10000A34003464340034E834033410342734A2
:100E20004134443443343A34253464342034443433
:100E30006934733474343A34253464340034D90159
:100E4000DA0183135B30840069300A128A11E227C9
:100E50000A128A11A0308400E0300A128A11E227B7
:100E60000A128A110A128A11EA270A128A11E90063
:100E700083010A128A11182E83160313E2008312CB
:100E800003130911891009108316031362088312D2
:100E900003138800091509110D3083160313E100AF
:100EA000FB30E000E00B522FE10B522F572F0800D0
:100EB000F400682F74088400831300080A128A1152
:100EC000C6270A128A110130F3007308F407682F4D
:100ED0007408840083138008031D6F2F702F5A2F0E
:100EE000712F08000A128A118A270A128A110A121F
:100EF0008A1181260A128A110A128A11AC260A1254
:100F00008A11FC30831603138600043081008B168F
:100F10008B1708008312031385013F3083160313D8
:100F20008500A130831203139F0002308316031340
:100F30009F005330E000E00B9B2F080000300A12A6
:100F40008A11D7250A128A11FA00FB017A08FC00DF
:100F50007B08FD007D08F901F9077C08F801F80716
:100F6000B12F0800F2008312031309118910091030
:100F700072088800091509110D30F100FB30F000EE
:100F8000F00BC02FF10BC02FC52F0800F200831209
:100F90000313091189100914720888000915091131
:100FA0000730F1007D30F000F00BD42FF10BD42F7F
:100FB0000800F300F31773080A128A11B2270A1205
:100FC0008A11080064008001840A040603190034B1
:060FD0000406E32F3C348F
:02400E0032FF7F
:00000001FF
