:060000000A128A11122809
:10000800FE00030E83120313E6000408E7000A0843
:10001800E8007F08E9000A128A15E52E0A168A11F7
:100028005F2E831203136D08AF01AF076C08AE0192
:10003800AE070A128A1560200A128A118312031366
:100048002E08F8002F08F9003008FA000030FB00ED
:100058002030FC004030FD000A128A1536210A12B1
:100068008A11031C38283928DF28831203136D08E6
:10007800AF01AF076C08AE01AE070A128A156020FF
:100088000A128A11831203132E08F8002F08F900A8
:100098003008FA000030FB003030FC004030FD0032
:1000A8000A128A1536210A128A1103185C285D285B
:1000B800DF28831203136D08AF01AF076C08AE0188
:1000C800AE070A128A1560200A128A1183120313D6
:1000D8002E08F8002F08F9003008FA000A168A11CD
:1000E800EE240A128A11780883120313B5007908DE
:1000F800B6007A08B7000030B2003030B3004030A4
:10010800B4000A128A118E260A128A118312031366
:100118003208C2003308C3003408C4000030BF00EE
:10012800A030C0004030C1000A128A15F7240A1214
:100138008A11831203133F08D2004008D3004108F4
:10014800D4000030CF00A030D0004030D1000A12D7
:100158008A152F240A128A11831203134F08B50037
:100168005008B6005108B7000030B2007030B30034
:100178004130B4000A128A118E260A128A1183129B
:1001880003133208A0003308A1003408A2000A12A1
:100198008A1521220A128A11831203132108831651
:1001A8000313C301C3078312031320088316031321
:1001B800C201C2071D2D0030831203136D020230E5
:1001C80003196C02031CE928EA288E296D08AF017F
:1001D800AF076C08AE01AE070A128A1560200A1232
:1001E8008A11831203132E08F8002F08F90030082B
:1001F800FA000030FB002030FC004030FD000A12FD
:100208008A1536210A128A1103180B290C298E29FE
:10021800831203136D08AF01AF076C08AE01AE0778
:100228000A128A1560200A128A11831203132E08F3
:10023800F8002F08F9003008FA000A168A11EE248F
:100248000A128A11780883120313B5007908B600D8
:100258007A08B7000030B2002030B3004030B40054
:100268000A128A118E260A128A118312031332087F
:10027800C2003308C3003408C4000030BF00203077
:10028800C0004130C1000A128A15F7240A128A11E7
:10029800831203133F08D2004008D3004108D4005A
:1002A8000030CF002030D0004130D1000A128A152A
:1002B8002F240A128A11831203134F08B50050081D
:1002C800B6005108B7000030B200A030B30041308A
:1002D800B4000A128A118E260A128A118312031395
:1002E8003208A0003308A1003408A2000A128A15B7
:1002F80021220A128A118312031321088316031379
:10030800C301C30783120313200883160313C20112
:10031800C2071D2D831203136D08AF01AF076C08C8
:10032800AE01AE070A128A1560200A128A118312DA
:1003380003132E08F8002F08F9003008FA000030DF
:10034800FB00C030FC003F30FD000A128A15362140
:100358000A128A11031CB129B229EF29003083122D
:1003680003136D02023003196C020318BC29BD295E
:10037800EF290A30F6000030F7006C09DF006D093C
:10038800E000DF0A0319E00A5F08023EF000600897
:100398000318013E003EF1000A30F2000030F3007D
:1003A8000A168A110B260A128A117108F901F9072F
:1003B8007008F801F8070A168A11B2270A128A117A
:1003C80076081E3E83160313C20077080318013E01
:1003D800003EC3001D2D831203136D08AF01AF0744
:1003E8006C08AE01AE070A128A1560200A128A113B
:1003F800831203132E08F8002F08F9003008FA00BA
:100408000030FB00A030FC003F30FD000A128A15C6
:1004180036210A128A11031C122A132AB92A8312B6
:1004280003136D08AF01AF076C08AE01AE070A12DF
:100438008A1560200A128A11831203132E08F80005
:100448002F08F9003008FA000030FB00C030FC002B
:100458003F30FD000A128A1536210A128A11031844
:10046800362A372AB92A831203136D08AF01AF075A
:100478006C08AE01AE070A128A1560200A128A11AA
:10048800831203132E08F8002F08F9003008FA0029
:100498000A168A11EE240A128A11780883120313A5
:1004A800B5007908B6007A08B7000030B200C0304D
:1004B800B3003F30B4000A128A118E260A128A113C
:1004C800831203133208C2003308C3003408C4007F
:1004D8000030BF002030C0004130C1000A128A1528
:1004E800F7240A128A11831203133F08D200400826
:1004F800D3004108D4000030CF002030D000413074
:10050800D1000A128A152F240A128A1183120313A2
:100518004F08B5005008B6005108B7000030B200C7
:100528002030B3004230B4000A128A118E260A1213
:100538008A11831203133208A0003308A10034087B
:10054800A2000A128A1521220A128A1183120313A1
:10055800210883160313C301C3078312031320085A
:1005680083160313C201C2071D2D831203136D08DE
:10057800AF01AF076C08AE01AE070A128A156020FA
:100588000A128A11831203132E08F8002F08F900A3
:100598003008FA006630FB006630FC003F30FD0092
:1005A8000A128A1536210A128A11031CDC2ADD2A4E
:1005B800832B831203136D08AF01AF076C08AE01DC
:1005C800AE070A128A1560200A128A1183120313D1
:1005D8002E08F8002F08F9003008FA000030FB0058
:1005E800A030FC003F30FD000A128A1536210A129D
:1005F8008A110318002B012B832B831203136D0818
:10060800AF01AF076C08AE01AE070A128A15602069
:100618000A128A11831203132E08F8002F08F90012
:100628003008FA000A168A11EE240A128A1178088C
:1006380083120313B5007908B6007A08B7000030B2
:10064800B200A030B3003F30B4000A128A118E26DF
:100658000A128A11831203133208C2003308C30036
:100668003408C4000030BF002030C0004130C10051
:100678000A128A15F7240A128A11831203133F08F3
:10068800D2004008D3004108D4000030CF00203009
:10069800D0004130D1000A128A152F240A128A117B
:1006A800831203134F08B5005008B6005108B7006D
:1006B8000030B2004830B3004230B4000A128A1148
:1006C8008E260A128A11831203133208A0003308F7
:1006D800A1003408A2000A128A1521220A128A11DE
:1006E80083120313210883160313C301C30783125C
:1006F8000313200883160313C201C2071D2D83129A
:1007080003136D08AF01AF076C08AE01AE070A12FC
:100718008A1560200A128A11831203132E08F80022
:100728002F08F9003008FA006630FB002630FC007C
:100738003F30FD000A128A1536210A128A11031C5D
:10074800A62BA72B4D2C831203136D08AF01AF07FF
:100758006C08AE01AE070A128A1560200A128A11C7
:10076800831203132E08F8002F08F9003008FA0046
:100778006630FB006630FC003F30FD000A128A1527
:1007880036210A128A110318CA2BCB2B4D2C83123F
:1007980003136D08AF01AF076C08AE01AE070A126C
:1007A8008A1560200A128A11831203132E08F80092
:1007B8002F08F9003008FA000A168A11EE240A12E6
:1007C8008A11780883120313B5007908B6007A08ED
:1007D800B7006630B2006630B3003F30B4000A128A
:1007E8008A118E260A128A11831203133208C20054
:1007F8003308C3003408C4000030BF002030C000F4
:100808004130C1000A128A15F7240A128A1183128C
:1008180003133F08D2004008D3004108D400003039
:10082800CF002030D0004130D1000A128A152F2481
:100838000A128A11831203134F08B5005008B60034
:100848005108B7000030B2007030B3004230B40035
:100858000A128A118E260A128A1183120313320889
:10086800A0003308A1003408A2000A128A15212228
:100878000A128A1183120313210883160313C30172
:10088800C30783120313200883160313C201C20788
:100898001D2D831203136D08AF01AF076C08AE015D
:1008A800AE070A128A1560200A128A1183120313EE
:1008B8002E08F8002F08F9003008FA000030FB0075
:1008C8000030FC003F30FD000A128A1536210A125A
:1008D8008A11031C702C712C1D2D831203136D08B3
:1008E800AF01AF076C08AE01AE070A128A15602087
:1008F8000A128A11831203132E08F8002F08F90030
:100908003008FA006630FB002630FC003F30FD005E
:100918000A128A1536210A128A110318942C952C6A
:100928001D2D831203136D08AF01AF076C08AE01CC
:10093800AE070A128A1560200A128A11831203135D
:100948002E08F8002F08F9003008FA000A168A1154
:10095800EE240A128A11780883120313B500790865
:10096800B6007A08B7006630B2002630B3003F30D0
:10097800B4000A128A118E260A128A1183120313EE
:100988003208C2003308C3003408C4000030BF0076
:100998002030C0004130C1000A128A15F7240A121B
:1009A8008A11831203133F08D2004008D30041087C
:1009B800D4000030CF002030D0004130D1000A12DE
:1009C8008A152F240A128A11831203134F08B500BF
:1009D8005008B6005108B7000030B2008C30B300A0
:1009E8004230B4000A128A118E260A128A11831222
:1009F80003133208A0003308A1003408A2000A1229
:100A08008A1521220A128A118312031321088316D8
:100A18000313C301C30783120313200883160313A8
:100A2800C201C2071D2D1D2D1D2D1D2D1D2D1D2D76
:100A38001D2D08000A168A1196250A128A11242DDE
:100A4800FF3083160313DF005F08E200782D0130C2
:100A58000A168A112B270A128A11831203130230ED
:100A6800860683160313CB01702E02300A168A11EC
:100A78002B270A128A118312031302308606831663
:100A88000313CB01702E03300A168A112B270A1282
:100A98008A11831203130230860683160313CB01CF
:100AA800702E04300A168A112B270A128A11831213
:100AB80003130230860683160313CB01702E05300C
:100AC8000A168A112B270A128A1183160313DF00CC
:100AD8005F08E200831203130230860683160313AD
:100AE800CB01702E702E702E4B08013A03192B2D56
:100AF800033A0319392D013A0319472D073A031907
:100B0800552D013A0319632D702E702E831203138D
:100B1800071487140B300A168A1178250A128A11CD
:100B2800831203130710871007150000831203139D
:100B38000711832E831203130714871409300A162A
:100B48008A1178250A128A11831203130710871055
:100B580007150000831203130711832E8312031352
:100B6800071487140F300A168A1178250A128A1179
:100B7800831203130710871007150000831203134D
:100B88000711832E83120313071487140D300A16D6
:100B98008A1178250A128A11831203130710871005
:100BA80007150000831203130711832E80300A16DD
:100BB8008A1189260A128A11033083160313E10069
:100BC8008A30E0005630DF00DF0BE82DE00BE82D1F
:100BD800E10BE82DEF2D84300A168A1189260A12B6
:100BE8008A11033083160313E1008A30E00056307F
:100BF800DF00DF0BFD2DE00BFD2DE10BFD2D042E9D
:100C080089300A168A1189260A128A110330831636
:100C18000313E1008A30E0005630DF00DF0B122EAC
:100C2800E00B122EE10B122E192E00300A168A1133
:100C380089260A128A11033083160313E1008A30C9
:100C4800E0005630DF00DF0B272EE00B272EE10BEC
:100C5800272E2E2E00300A168A1189260A128A118A
:100C6800033083160313E1008A30E0005630DF00BA
:100C7800DF0B3C2EE00B3C2EE10B3C2E432EFF30CD
:100C88000A168A1189260A128A1103308316031359
:100C9800E1008A30E0005630DF00DF0B512EE00B18
:100CA800512EE10B512E582EFF300A168A11892633
:100CB8000A128A11033083160313E1008A30E00018
:100CC8005630DF00DF0B662EE00B662EE10B662E3A
:100CD8006D2E832E832E832E831603136208003A0B
:100CE80003198A2D013A03199E2D033A0319B22DCF
:100CF800013A0319C62D073A0319DA2D832EFF305E
:100D080083160313DF005F08E200242D242D0A1246
:100D18008A111228831203133208B8003308B90065
:100D28003408BA000310390D3A0DBB003B08BE0069
:100D38003508B8003608B9003708BA000310390D6D
:100D48003A0DBB003B08BD003E08031DAC2EBD2E6E
:100D58003D083E020318B12EB22EC52E3E03FF3ABF
:100D68003D07B80019303802031CBB2EBC2EC52E17
:100D7800BD2E3508B2003608B3003708B400D32FAB
:100D8800D32F3D08031DC92ED92E3E083D02031856
:100D9800CE2ECF2EDA2E3D03FF3A3E07B80019308B
:100DA8003802031CD82ED92EDA2ED32F0630B800DD
:100DB8003808BC00B41FE12EE22EE32EBC17B71F83
:100DC800E62EE72EE82E3C17B317FF30B205FF30AA
:100DD800B3050030B405B617FF30B505FF30B605CA
:100DE8000030B7053D083E020318FB2EFC2E2D2FC0
:100DF800FD2E01300310B50DB60DB70DFF3E031DD6
:100E0800FE2E0130BD023D083E0603190C2F0D2FA2
:100E1800252F0130BC023C080739031D142F152F5C
:100E2800FD2E252F252F252F01300310B40CB30CD0
:100E3800B20CFF3E031D192F0130B8003808BE0759
:100E4800252F3E083D06031D2A2F2B2F182F642F10
:100E5800642F3E083D020318322F332F642F342F9E
:100E680001300310B20DB30DB40DFF3E031D352F35
:100E78000130BE023D083E060319432F442F5C2F64
:100E88000130BC023C080739031D4B2F4C2F342F6F
:100E98005C2F5C2F5C2F01300310B70CB60CB50C1F
:100EA800FF3E031D502F0130B8003808BD075C2FE6
:100EB8003E083D06031D612F622F4F2F642F642FBC
:100EC800BC1F672F682F792FFF30B206FF30B3069B
:100ED800FF30B4060130B207003003180130B30701
:100EE800003003180130B407792F3C1F7C2F7D2F69
:100EF8008E2FFF30B506FF30B606FF30B70601303B
:100F0800B507003003180130B60700300318013068
:100F1800B7078E2FBC013208B50733080311031831
:100F2800330A0319982FB607340803110318340A33
:100F380003199F2FB707B71FA22FA32FB72FFF3073
:100F4800B506FF30B606FF30B7060130B5070030EA
:100F580003180130B607003003180130B707BC0189
:100F68000314BC0DB72F3508F0003608F100370818
:100F7800F2003E08B8003808F3003C08B900390808
:100F8800F4000A128A15A6210A128A11700883121F
:100F98000313B2007108B3007208B400D32F08001D
:100FA8000230831603139F008312031388018901FB
:100FB800831603138801890101300A168A115C25FA
:100FC8000A128A1138300A168A115C250A128A1107
:100FD8000C300A168A115C250A128A1106300A1684
:100FE8008A115C250A128A1102300A168A115C25B8
:060FF8000A128A11080034
:10100000FF1B0A2883137F1883170008840A03191B
:10101000FF0A080008308A000408840A82070034A6
:10102000013400340A34003464340034E8340334C6
:10103000103427344134443443343A34253464344E
:10104000203444346934733474343A342534643489
:1010500000345434683469346E34673431340034C5
:101060005434683469346E34673432340034543460
:10107000683469346E34673433340034543468343B
:1010800069346E3467343434003454346834693429
:101090006E346734353400345434683431340034B9
:1010A00054346834323400345434683433340034C3
:1010B00054346834343400345434683435340034AF
:1010C000831203132E08F0002F08F100F2018E3076
:1010D000B1003108F300F4010A128A15A6210A12A0
:1010E0008A15700883120313AE007108AF007208EE
:1010F000B0007A28080083120313E101E201E30142
:10110000E4016408803AFF0080307F02031D8A28D2
:101110000A306302031C8D288E289028B128B1283C
:101120000A168A1134250A128A15780883120313C5
:10113000E1070318E20A7908E2070130E307031820
:10114000E40A0030E4076408803AFF0080307F0240
:10115000031DAC280A306302031CAF28B028902876
:10116000B1280A30F6000030F7008312031362083A
:10117000F901F9076108F801F8070A168A11B22780
:101180000A128A15770883120313ED01ED0776081A
:10119000EC01EC070A128A1115200A128A150800C0
:1011A000F601F31FD428D528DE28F209F309F20A44
:1011B0000319F30AF6010314F60DDE28F11FE128E6
:1011C000E228E828F009F109F00A0319F10AE828F1
:1011D000710870040319ED28EE282429F501031481
:1011E000F50DFE2801300310F00DF10DFF3E031D3B
:1011F000F3280130F4007408F507FE28F11F0129D7
:101200000229F2280429042971087302031D0A29FE
:1012100070087202031C0D290E2915297008F202AC
:101220007108031CF303F302152901300310F10CBC
:10123000F00CFF3E031D16290130F502031D212984
:1012400022290429242924297608031D28292E2946
:10125000F209F309F20A0319F30A2E297308F101BE
:10126000F1077208F001F00735290800FA1F392943
:101270003A296229003083120313A0000030A10034
:101280008030A2007809A3007909A4007A09A5009A
:10129000A30A0319A40A0319A50A2308A00724080E
:1012A0000318240F54295529A10725080318250FD1
:1012B0005A295B29A2072008F8002108F900220812
:1012C000FA006229FD1F652966298E2900308312E4
:1012D0000313A0000030A1008030A2007B09A3000E
:1012E0007C09A4007D09A500A30A0319A40A031917
:1012F000A50A2308A00724080318240F80298129A0
:10130000A10725080318250F86298729A207200889
:10131000FB002108FC002208FD008E298030FA061F
:101320008030FD067D087A02031D9C297C08790225
:10133000031D9C297B08780203189F29A029A22954
:101340000310A5290314A529A52908007308031D66
:10135000AA29B229720871047004031DB029B129A9
:10136000C829B2290030F0000030F1000030F2004E
:10137000202A202AC8290130F5007508F30701301A
:101380000310F20CF10CF00CFF3E031DC029C8291C
:10139000FE307205031DCD29CE29BB29E629E62999
:1013A0000130F5007508F3070130F007003003182D
:1013B0000130F107003003180130F207013003104B
:1013C000F20CF10CF00CFF3E031DDF29FF3072051B
:1013D000031DEB29EC29D029F929F9290130F30261
:1013E00001300310F00DF10DF20DFF3E031DF12948
:1013F000F929F11FFC29FD29EE297318002A012A79
:10140000072AFF30F0057F30F105FF30F2050310A9
:10141000F30C7308F500F601F70110300310F50D19
:10142000F60DF70DFF3E031D0E2A7508F004760831
:10143000F1047708F2047408031D1F2A202AF2170A
:101440000800831203132008A4002108A500220825
:10145000A6000310250D260DA7002708AD00AD0836
:10146000031D332A342A3E2A0030A3000030A20094
:101470000030A1000030A000C62AC62A2008A4001F
:101480002108A5002208A60017300310A60CA50C01
:10149000A40CFF3E031D452A2408A7002708A80026
:1014A000A117FF30A005FF30A1050030A2052008DC
:1014B000A9002108AA002208AB00AC018E30AD02C1
:1014C000AD1F632A642A892A2D08803A8F3E0318AB
:1014D0006A2A6B2A762A0030A3000030A20000306E
:1014E000A1000030A000C62AC62A762A01300310C7
:1014F000AC0CAB0CAA0CA90CFF3E031D772A0130E3
:10150000A4002408AD07031D862A872A762AAD2A5F
:10151000AD2A18302D02031C8E2A8F2AA62A0030ED
:10152000A3000030A2000030A1000030A000C62AB5
:10153000C62AA62A0130A4000310A90DAA0DAB0DDE
:10154000AC0DA40B9C2A0130AD02A62AAD08031DE8
:10155000AA2AAB2A9A2AAD2AAD2A2808031DB12A45
:10156000BD2AA909AA09AB09AC09A90A0319AA0A43
:101570000319AB0A0319AC0ABD2A2C08A3002B08D7
:10158000A2002A08A1002908A000C62A0800831288
:1015900003130619CC2ACD2AE32A0130F000700883
:1015A00083160313CA070A304A02031CD82AD92A11
:1015B000E92A831203136B1FDE2ADF2AE92AEB16BE
:1015C0006B13E92AE92A83160313CA018312031352
:1015D0006B1783128619ED2AEE2A042B0130F000D6
:1015E000700883160313C7070A304702031CF92A41
:1015F000FA2A0A2B83120313EA1DFF2A002B0A2B57
:101600006A15EA110A2B0A2B83160313C7018312EA
:101610000313EA158312061A0E2B0F2B252B01300C
:10162000F000700883160313C8070A304802031C31
:101630001A2B1B2B2B2B83120313EA1E202B212B7F
:101640002B2B6A16EA122B2B2B2B83160313C801A4
:1016500083120313EA168312861A2F2B302B462B84
:101660000130F000700883160313C9070A304902DD
:10167000031C3B2B3C2B4C2B831203136B1E412B67
:10168000422B4C2BEB156B124C2B4C2B831603135C
:10169000C901831203136B168312061B502B512BA7
:1016A000672B0130F000700883160313C6070A3059
:1016B0004602031C5C2B5D2B6E2B83120313EA1C6A
:1016C000622B632B6E2B6A14EA106E2B6E2B831623
:1016D0000313C60183120313EA146E2B08003B3078
:1016E0008400903083120313B7000408B800103050
:1016F000B9003708840083170008BA00B70A380811
:10170000840083133A088000B80AB90B792B0130A2
:101710000A168A1120250A128A150B308312031328
:10172000B7003708A6006D08A801A8076C08A70134
:10173000A70783160313430883120313AA01AA07FA
:1017400083160313420883120313A901A9073B3030
:101750000A128A15E5250A128A1500300A168A111E
:10176000DA240A128A153B30F7000030F8000A1616
:101770008A1135260A128A1540300A168A11DA248F
:101780000A128A15831603134508803AFF00803039
:101790007F02031DCD2B01304402031CD02BD12B23
:1017A000E22B831603134408FF3ED53E84008313C7
:1017B0000008F7008030F8000A168A1135260A1250
:1017C0008A15F32B831603134408043ED53E840088
:1017D00083130008F7008030F8000A168A113526B6
:1017E0000A128A15F32B44300A168A11DA240A12D7
:1017F0008A15831603134408D03E8400831300081F
:10180000F7008030F8000A168A1135260A128A1568
:101810004D300A168A11DA240A128A150530F000B2
:101820000030F100831603134408013EF20045081E
:101830000318013E003EF3000A128A15D0200A1256
:101840008A157008D53E840083130008F7008030A5
:10185000F8000A168A1135260A128A150800831222
:1018600003135208D5005308D6005408D7000310BC
:10187000560D570DD8005808DD00DD08031D412C1A
:10188000422C4A2C0030CF000030D0000030D10074
:10189000F62CF62C4F08D5005008D6005108D7007A
:1018A0000310560D570DD8005808DE00DE08031D42
:1018B0005A2C5B2C632C0030CF000030D00000305D
:1018C000D100F62CF62C0030DA000030DB000030BE
:1018D000DC0089305E07D5005508DD025208D500CE
:1018E0005308D6005408D70010300310D70CD60C7C
:1018F000D50CFF3E031D752C5508D8005808DE0096
:101900004F08D5005008D6005108D70010300310FA
:10191000D70CD60CD50CFF3E031D872C5508D800DC
:101920005808DE068030D5005508DE05D317FF3095
:10193000D205FF30D3050030D405D017FF30CF05D6
:10194000FF30D0050030D1051830D5005508D9003A
:10195000A92C01300310DA0DDB0DDC0DFF3E031D59
:10196000AA2C51085402031DBB2C50085302031D1E
:10197000BB2C4F085202031CBE2CBF2CCB2C4F0893
:10198000D2025008031C500FD3025108031C510A05
:10199000D4025A14CB2C01300310D20DD30DD40D28
:1019A000FF3E031DCC2C0130D902031DD82CD92CAD
:1019B000A92CDA2C5A08F0005B08F1005C08F20050
:1019C0005D08D5005508F3005E08D6005608F400FF
:1019D0000A128A15A6210A128A15700883120313A7
:1019E000CF007108D0007208D100F62C08008312D5
:1019F00003133F08C5004008C6004108C700031094
:101A0000460D470DC8004808C900C908031D092D27
:101A10000A2D122D0030BF000030C0000030C10080
:101A2000E42DE42D4208C5004308C6004408C70061
:101A30000310460D470DC8004808CE00CE08031D10
:101A4000222D232D2B2D0030BF000030C000003090
:101A5000C100E42DE42D4E087B3EC5004508C907B2
:101A60003F08C5004008C6004108C70010300310F9
:101A7000C70CC60CC50CFF3E031D372D4508C8001A
:101A80004808CE004208C5004308C6004408C70005
:101A900010300310C70CC60CC50CFF3E031D492DAA
:101AA0004508C8004808CE068030C5004508CE0568
:101AB000C017C317FF30C205FF30C3050030C4058F
:101AC0000030CA000030CB000030CC000730C50029
:101AD0004508CD006B2D3F1C6E2D6F2D802D4208CB
:101AE000CA07430803110318430A0319782DCB07CB
:101AF000440803110318440A03197F2DCC07802DD5
:101B000001300310C10CC00CBF0CFF3E031D812D22
:101B100001300310C20DC30DC40DFF3E031D892DFE
:101B20000130CD02031D952D962D6B2D972D09307B
:101B3000C5004508CD009C2D3F1C9F2DA02DB12D2B
:101B40004208CA07430803110318430A0319A92DC1
:101B5000CB07440803110318440A0319B02DCC071E
:101B6000B12D01300310C10CC00CBF0CFF3E031D92
:101B7000B22D01300310CC0CCB0CCA0CFF3E031D60
:101B8000BA2D0130CD02031DC62DC72D9C2DC82DA9
:101B90004A08F0004B08F1004C08F2004908C50063
:101BA0004508F3004E08C6004608F4000A128A15DC
:101BB000A6210A128A15700883120313BF00710848
:101BC000C0007208C100E42D080083120313B500A1
:101BD0002730AB002B08AE00CB2E3608253A031970
:101BE000F22DF32DFF2D3608AB00350884002B08AD
:101BF000831380000130AB002B08B507CB2EAF015B
:101C0000062EDF2E1B2E1B2ECB2E1B2E0130A607E1
:101C1000FF30260784000A128A150A200A128A1544
:101C2000B600003A0319DF2E643A03191B2E0D3A51
:101C300003191B2ECB2E2E08840083130008B1003D
:101C4000840A0008B2000230AB002B08AE07B21FB6
:101C50002A2E2B2E352E0330AB002B08AF04B109F2
:101C6000B209B10A0319B20A352EB6010314B60D32
:101C70003608053A031D3D2E3E2E402E682E682E56
:101C80003608AB002B07013E84000A128A150A2091
:101C90000A128A15AC000A128A150A200A128A153D
:101CA000AD002D083202031D572E2C0831020318F7
:101CB0005A2E5B2E5D2E682E682E0130AB002B084D
:101CC000B6073608053A031D662E672E402E682E8D
:101CD0002F08033903196D2E6E2E7A2E2D30AB008E
:101CE000350884002B08831380000130AB002B08DB
:101CF000B5077A2E3608AB002B08B000BF2E0A308D
:101D0000A0000030A1003008AB002B07013E84008A
:101D10000A128A150A200A128A15F6000A128A1572
:101D20000A200A128A15F7003208F901F90731086A
:101D3000F801F8070A168A11B2270A128A157708DD
:101D400083120313A301A3077608A201A2070A16B0
:101D50008A116C270A128A15831203132008303E59
:101D6000AC002C08B6003608AB00350884002B0800
:101D7000831380000130AB002B08B507BF2EFF3066
:101D8000AB002B08B0073008FF3A031DC82EC92E40
:101D90007F2ECB2ECB2E0130A607FF3026078400E6
:101DA0000A128A150A200A128A15AB002B08B600FF
:101DB000B608031DDC2EDD2EED2DDF2EDF2E3508BF
:101DC000840083138001E42E08008C1EE82EE92E87
:101DD000072F1A08E5006E08A03E840065088313EB
:101DE00080006E08013E0F39E50065088316031375
:101DF000CE004E084D060319FE2EFF2E072F4E086B
:101E000083120313E5006508EE00072F072F8312E6
:101E10000C1E0B2F0C2F342F831603130C1E112FA7
:101E2000122F342F4F08B03E840083130008831212
:101E3000031399000130E500650883160313CF07EB
:101E40000F3083120313E500650883160313CF05D3
:101E50004F08831203136F06031D2F2F302F342FCB
:101E6000831603130C12342F0B1D372F382FF42F2A
:101E70000B11643083128100013083160313C007F5
:101E80000318C10A0030C10783120313EA170A308E
:101E9000A0000030A100831603134108831203132E
:101EA000A301A30783160313400883120313A2019F
:101EB000A2070A168A116C270A128A1583120313C5
:101EC00021082004031D652F662F682F6A17682FCD
:101ED0003230A0000030A1008316031341088312A2
:101EE0000313A301A30783160313400883120313EC
:101EF000A201A2070A168A116C270A128A158312F8
:101F0000031321082004031D862F872F892F6B15AB
:101F1000892FFA30A0000030A10083160313410876
:101F200083120313A301A30783160313400883122C
:101F30000313A201A2070A168A116C270A128A1536
:101F40008312031321082004031DA72FA82FB62FE7
:101F50000A128A157B200A128A150A128A156F2323
:101F60000A128A15831203136B14B62FF430A000E3
:101F70000130A10083160313410883120313A30148
:101F8000A30783160313400883120313A201A207B9
:101F90000A168A116C270A128A1583120313210864
:101FA0002004031DD42FD52FDF2FEB14831603132A
:101FB000C001C1018312031301308606DF2F83168F
:101FC0000313CB08031DE52FE62FF42F0A168A1101
:101FD000B8260A128A1583120313E50065088316D2
:101FE0000313CB00F42FF42F83126908FF00680855
:101FF0008A0067088400660E8300FE0E7E0E0900CC
:1029A40064008001840A0406031900340406D32C4D
:1029B400F300F31773080A168A1120250A168A11E0
:1029C40008001A34213428342F3436343D34413449
:1029D400453449344D343C347A0879047804031975
:1029E400F42CF52CF82C8030FA06F82CF92C08007D
:1029F400F200831203130911891009147208880064
:102A0400091509110730F1007D30F000F00B082D95
:102A1400F10B082D08007E088A007F0882000A1640
:102A24008A110D250A168A118000840A04087D067D
:102A340003190034FF0A0319FE0A112DF200831250
:102A44000313091189100910720888000915091166
:102A54000D30F100FB30F000F00B2E2DF10B2E2D7C
:102A6400332D080000300A168A11EA260A168A1144
:102A7400FA00FB017A08FC007B08FD007D08F901DF
:102A8400F9077C08F801F807472D0800831203139F
:102A940085013F30831603138500A130831203138D
:102AA4009F000230831603139F005330DB00DB0BBF
:102AB400592D080083160313DD0083120313091133
:102AC40089100910831603135D0883120313880009
:102AD400091509110D3083160313DC00FB30DB00EC
:102AE400DB0B722DDC0B722D772D0800831603137C
:102AF400DD00DC01831203138C11831603135D08BC
:102B0400831203139300862D8C1D892D8A2D862D07
:102B14008B2D130883160313DB005B08DC00831280
:102B240003138C11952D08000A168A1148250A16DC
:102B34008A110A128A11D4270A168A110A168A11CE
:102B4400E3250A168A11FC3083160313860090309D
:102B5400DE005E08870540309400A1308312031321
:102B640094000710871004308316031381008B161A
:102B74008B170800831203139E011F15C12D1F1903
:102B8400C42DC52DC12D00000000000083120313C5
:102B94001E08F200F3017208F4007308F500013016
:102BA4000310F40DF50DFF3E031DD22D8316031300
:102BB4001E087508F101F1077408F001F007E22D11
:102BC4000800831603138717BF30DB005B088705F3
:102BD400181514309900181383120313181383164D
:102BE400031318128312031398171816831603136A
:102BF4000C128C1698160030CF0083120313EF00CA
:102C040083160313CD00DB005B0883120313EE006D
:102C14000800F401F5010E2E701C112E122E182E30
:102C24007208F4070318F50A7308F5070130031056
:102C3400F20DF30DFF3E031D192E01300310F10CAC
:102C4400F00CFF3E031D202E71087004031D2B2E73
:102C54002C2E0E2E2D2E7508F101F1077408F001AB
:102C6400F007342E08004D2E780883120313FF005A
:102C7400770884000A128A1500200A168A110A1697
:102C84008A11FA240A168A110130F7070318F80A80
:102C94000030F8074D2E780883120313FF007708DD
:102CA40084000A128A1500200A168A110038031DAE
:102CB4005C2E5D2E362E5E2E0800EA01EB01EC013F
:102CC400ED01EE01EF018313A0308400D0300A1629
:102CD4008A11D2240A168A11831790308400A030F6
:102CE4000A168A11D2240A168A118313DB30FD00D6
:102CF4001430FE00E330FF00D03084000A168A113D
:102D040011250A168A1183010A128A111E2D8316AF
:102D14000313DC008E2E8E2E831203136F08013EE4
:102D24000F39831603134F060319992E9A2E8E2EEC
:102D34008B135C08DB00831203136F08B03E84001E
:102D4400831603135B0883138000831203136F0835
:102D5400013E0F3983160313DB005B088312031350
:102D6400EF00831603130C168B1708000A128A153A
:102D7400C7220A168A1183120313EB1EC22EC32E16
:102D8400C72EEB120130E92EE92E6A1DCA2ECB2E76
:102D9400CF2E6A110230E92EE92E6A1ED22ED32ECE
:102DA400D72E6A120330E92EE92EEB1DDA2EDB2E24
:102DB400DF2EEB110430E92EE92E6A1CE22EE32EFD
:102DC400E72E6A100530E92EE92E0030E92E0800BE
:102DD400F7000E2F831203139F111F129F121F2F30
:102DE400831203139F151F129F121F2F83120313A5
:102DF4009F111F169F121F2F831203139F151F1657
:102E04009F121F2F831203139F111F129F161F2F30
:102E140000302A2F2A2F1F2F7708003A0319EC2E8F
:102E2400013A0319F22E033A0319F82E013A031951
:102E3400FE2E073A0319042F0A2F5330F600F60B1F
:102E4400212F0A168A11BC250A168A1170082A2F06
:102E5400080083160313DB00582F692F692FFF30F6
:102E6400C4070318C50AFF30C507C51F3A2F3B2FF7
:102E7400692F0430C4000030C500692F692F013068
:102E8400C4070318C50A0030C507053044064504C5
:102E9400031D4D2F4E2F692FC401C501692F692FC2
:102EA40044086B2F6B2F692F692F692F5B08013A38
:102EB4000319692F033A0319692F013A0319312FB2
:102EC400073A0319412F013A0319522F692FFF3092
:102ED4006B2F080083120313210820040319732F96
:102EE400742FAA2FA5010314A50D842F01300310FC
:102EF400A00DA10DFF3E031D792F0130A40024086D
:102F0400A507842FA11F872F882F782F8A2F8A2F18
:102F140021082302031D902F20082202031C932F53
:102F2400942F9B2F2008A2022108031CA303A302B1
:102F34009B2F01300310A10CA00CFF3E031D9C2FFE
:102F44000130A502031DA72FA82F8A2FAA2FAA2F6D
:102F54002308A101A1072208A001A007B12F08009E
:102F6400FB01FC01770876040319B92FBA2FF82F57
:102F7400FD010314FD0DCA2F01300310F60DF70DEA
:102F8400FF3E031DBF2F0130FA007A08FD07CA2F48
:102F9400F71FCD2FCE2FBE2FD02FD02F01300310EF
:102FA400FB0DFC0DFF3E031DD12F77087902031D95
:102FB400DD2F76087802031CE02FE12FE92F760835
:102FC400F8027708031CF903F9027B14E92F013096
:102FD4000310F70CF60CFF3E031DEA2F0130FD022F
:102FE400031DF52FF62FD02FF82FF82F7C08F701AB
:0C2FF400F7077B08F601F607FF2F080026
:02400E0032FF7F
:00000001FF
