:060000000A128A11122809
:10000800FE00030EF9000408FA000A08FB00831238
:1000180003137F08FC000A128A11B62D0A128A15EA
:10002800342B0030831203136B02D53003196A0294
:10003800031C1F282028632800306B02EA300319AC
:100048006A0203182828292863281530A6000030DA
:10005800A7006A09AE006B09AF00AE0A0319AF0A20
:100068002E08EA3EA0002F080318013E003EA1001A
:100078000530A2000030A3000A128A157E220A1257
:100088008A11831203132108A901A9072008A801CE
:10009800A8070A128A15E5240A128A118312031383
:1000A80026080F3E83160313C6008312031327087E
:1000B8000318013E003E83160313C700372A003099
:1000C80083126B02AA3003196A02031C6C286D287C
:1000D800B02800306B02D53003196A02031875285E
:1000E8007628B0282B30A6000030A7006A09AE0099
:1000F8006B09AF00AE0A0319AF0A2E08D53EA0005F
:100108002F080318013E003EA1000A30A20000306B
:10011800A3000A128A157E220A128A118312031377
:100128002108A901A9072008A801A8070A128A1509
:10013800E5240A128A11831203132608143E831633
:100148000313C6008312031327080318013E003E59
:1001580083160313C700372A003083126B028030DE
:1001680003196A02031CB928BA28FD2800306B025B
:10017800AA3003196A020318C228C328FD282A30A6
:10018800A6000030A7006A09AE006B09AF00AE0AEE
:100198000319AF0A2E08AA3EA0002F080318013E33
:1001A800003EA1000A30A2000030A3000A128A15FE
:1001B8007E220A128A11831203132108A901A907B2
:1001C8002008A801A8070A128A15E5240A128A112C
:1001D8008312031326081E3E83160313C6008312D8
:1001E800031327080318013E003E83160313C700B4
:1001F800372A003083126B026B3003196A02031C22
:10020800062907294A2900306B02803003196A023F
:1002180003180F2910294A291530A6000030A70015
:100228006A09AE006B09AF00AE0A0319AF0A2E08BF
:10023800803EA0002F080318013E003EA1000A30AE
:10024800A2000030A3000A128A157E220A128A111F
:10025800831203132108A901A9072008A801A807E8
:100268000A128A15E5240A128A1183120313260832
:10027800283E83160313C6008312031327080318A6
:10028800013E003E83160313C700372A003083124D
:100298006B024D3003196A02031C5329542997290C
:1002A80000306B026B3003196A0203185C295D2960
:1002B80097291E30A6000030A7006A09AE006B0916
:1002C800AF00AE0A0319AF0A2E086B3EA0002F0834
:1002D8000318013E003EA1000A30A2000030A3002E
:1002E8000A128A157E220A128A1183120313210820
:1002F800A901A9072008A801A8070A128A15E52458
:100308000A128A11831203132608323E8316031336
:10031800C6008312031327080318013E003E831604
:100328000313C700372A003083126B0238300319D1
:100338006A02031CA029A129E42900306B024D3070
:1003480003196A020318A929AA29E4291530A60065
:100358000030A7006A09AE006B09AF00AE0A0319A6
:10036800AF0A2E084D3EA0002F080318013E003E9C
:10037800A1000A30A2000030A3000A128A157E22CA
:100388000A128A11831203132108A901A907200858
:10039800A801A8070A128A15E5240A128A118312ED
:1003A800031326083C3E83160313C6008312031367
:1003B80027080318013E003E83160313C700372A97
:1003C800003083126B022B3003196A02031CED29DB
:1003D800EE29372A00306B02383003196A020318F5
:1003E800F629F729372A0D30A6000030A7006A0938
:1003F800AE006B09AF00AE0A0319AF0A2E08383EEB
:10040800A0002F080318013E003EA1000A30A200F8
:100418000030A3000A128A157E220A128A1183125A
:1004280003132108A901A9072008A801A8070A128F
:100438008A15E5240A128A11831203132608463EF8
:1004480083160313C6008312031327080318013EFB
:10045800003E83160313C700372A372A372A372A5C
:10046800372A372A372A08004A3084009030831206
:100478000313C5000408C6001030C70045088400EF
:1004880083170008C800C50A460884008313480873
:100498008000C60AC70B422AA32B01300A128A150C
:1004A8004F210A128A111B3083120313C500450815
:1004B800B4006B08B601B6076A08B501B50783161C
:1004C8000313410883120313B801B80783160313F3
:1004D800400883120313B701B7074A300A128A117A
:1004E800B6240A128A1100300A128A15FD200A124F
:1004F8008A114A3083120313A7000030A8000A1299
:100508008A15AA220A128A1140300A128A15FD2079
:100518000A128A11831603134908803AFF008030B3
:100528007F02031D992A01304802031C9C2A9D2A38
:10053800B02A831603134808FF3EE53E8400831360
:10054800000883120313A7008030A8000A128A1536
:10055800AA220A128A11C32A831603134808053EE1
:10056800E53E84008313000883120313A70080303C
:10057800A8000A128A15AA220A128A11C32A44302C
:100588000A128A15FD200A128A11831603134808D5
:10059800DF3E84008313000883120313A700803012
:1005A800A8000A128A15AA220A128A114D300A12C4
:1005B8008A15FD200A128A11063083120313A0003F
:1005C8000030A100831603134808013E8312031369
:1005D800A2008316031349080318013E003E831244
:1005E8000313A3000A128A1192260A128A1183128F
:1005F80003132008E53E840083130008A700803019
:10060800A8000A128A15AA220A128A11B02B0130F0
:100618000A128A154F210A128A111B3083120313FA
:10062800C5004508B4008316031359088312031341
:10063800C600C7014608B5004708B600831603136D
:100648005A0883120313C800C9014808B7004908AB
:10065800B8004A300A128A11B6240A128A110030E8
:100668000A128A15FD200A128A114A3083120313CE
:10067800A7000030A8000A128A15AA220A128A11B5
:1006880040300A128A15FD200A128A11743083122A
:100698000313A7008030A8000A128A15AA220A129A
:1006A8008A1144300A128A15FD200A128A1168300C
:1006B80083120313A7008030A8000A128A15AA2201
:1006C8000A128A114D300A128A15FD200A128A115F
:1006D800783083120313A7008030A8000A128A1505
:1006E800AA220A128A11B02B01300A128A154F2148
:1006F8000A128A1100300A128A15FD200A128A117C
:100708000B3083120313A7008030A8000A128A1541
:10071800AA220A128A1144300A128A15FD200A12E6
:100728008A112A3083120313A7008030A8000A1206
:100738008A15AA220A128A11B02BB02BB02B831665
:1007480003135708003A0319512A013A03190B2BCE
:10075800033A0319782BB02B0800FF3083120313D8
:10076800E2006208E700E501E6010A128A1505239E
:100778000A128A11BF2B711CC22BC32B002C7110BB
:100788000A128A1585250A128A110A128A11382234
:100798000A128A11002C002C01300A128A159E2494
:1007A8000A128A11FD01952C02300A128A159E241C
:1007B8000A128A11FD01952C03300A128A159E240B
:1007C8000A128A11FD01952C04300A128A159E24FA
:1007D8000A128A11FD01952C05300A128A159E24E9
:1007E8000A128A1183120313E2006208E700FD016E
:1007F800952CFD01952C952C7D08013A0319D02BD9
:10080800033A0319D82B013A0319E02B073A0319C5
:10081800E82B013A0319F02BFD2B952C0A128A11AB
:100828009F270A128A11AB2C0A128A15DA250A1296
:100838008A11831203135B08E601E6075A08E501EB
:10084800E5076509E2006609E300E20A0319E30A1D
:100858006208903EA30063080318013E013EA4000D
:10086800A5010A128A1535250A128A11AB2C033004
:1008780083120313E4008A30E3005630E200E20BEF
:10088800432CE30B432CE40B432C4A2CC830831233
:100898000313A2000030A3000A128A15DC260A12EC
:1008A8008A11AB2C033083120313E4008A30E3006F
:1008B8005630E200E20B5E2CE30B5E2CE40B5E2C60
:1008C800652CE83083120313A2000330A3000A1238
:1008D8008A15DC260A128A11A63083120313A20095
:1008E800FF30A3000A128A1554260A128A11E8302A
:1008F80083120313A2000330A3000A128A15DC2610
:100908000A128A11AB2C0A128A15D6220A128A11E7
:10091800AB2C0A128A1558240A128A11AB2CAB2C5C
:10092800AB2C831203136708003A0319122C013AFF
:100938000319182C033A03193B2C013A0319562CB6
:10094800073A0319872C013A03198D2CAB2CFF3079
:1009580083120313E2006208E700BF2BBF2B0A12C1
:100968008A11122883120313C3003530B9003908DD
:10097800BC009C2D4408253A0319C32CC42CD02C48
:100988004408B90043088400390883138000013003
:10099800B9003908C3079C2DBD01D72CB02DEC2C0C
:1009A800EC2C9C2DEC2C0130B407FF30340784006C
:1009B8000A128A110A270A128A11C400003A031976
:1009C800B02D643A0319EC2C0D3A0319EC2C9C2D2C
:1009D8003C08840083130008BF00840A0008C00094
:1009E8000230B9003908BC07C01FFB2CFC2C062DAF
:1009F8000330B9003908BD04BF09C009BF0A03198B
:100A0800C00A062DC4010314C40D4408053A031D89
:100A18000E2D0F2D112D392D392D4408B900390708
:100A2800013E84000A128A110A270A128A11BA00A2
:100A38000A128A110A270A128A11BB003B084002CF
:100A4800031D282D3A083F0203182B2D2C2D2E2D7F
:100A5800392D392D0130B9003908C4074408053A41
:100A6800031D372D382D112D392D3D080339031954
:100A78003E2D3F2D4B2D2D30B900430884003908F9
:100A8800831380000130B9003908C3074B2D44088F
:100A9800B9003908BE00902D0A30AE000030AF0012
:100AA8003E08B9003907013E84000A128A110A2754
:100AB8000A128A11A6000A128A110A270A128A1132
:100AC800A7004008A901A9073F08A801A8070A121A
:100AD8008A15E5240A128A11831203132708B10123
:100AE800B1072608B001B0070A128A1512240A12A3
:100AF8008A11831203132E08303EBA003A08C40044
:100B08004408B90043088400390883138000013081
:100B1800B9003908C307902DFF30B9003908BE075E
:100B28003E08FF3A031D992D9A2D502D9C2D9C2D82
:100B38000130B407FF30340784000A128A110A27EB
:100B48000A128A11B9003908C400C408031DAD2D62
:100B5800AE2DBE2CB02DB02D430884008313800128
:100B6800B52D08000B1DB92DBA2D392E0B11643087
:100B780081000130E8070318E90A0030E907F01797
:100B88000A30F2000030F3006908F501F50768083B
:100B9800F401F4070A128A15CE230A128A1173087F
:100BA8007204031DD82DD92DDB2D7017DB2D3230A3
:100BB800F2000030F300831203136908F501F5070A
:100BC8006808F401F4070A128A15CE230A128A115A
:100BD80073087204031DF12DF22DF42D7115F42DF7
:100BE800FA30F2000030F300831203136908F501AC
:100BF800F5076808F401F4070A128A15CE230A12C9
:100C08008A1173087204031D0A2E0B2E0D2E7114FF
:100C18000D2EF430F2000130F3008312031369083B
:100C2800F501F5076808F401F4070A128A15CE23BE
:100C38000A128A1173087204031D232E242E2A2EE9
:100C4800F11483120313013086062A2EFD08031DB2
:100C58002E2E2F2E392E0A128A1563230A128A1174
:100C6800F8007808FD00392E392E831203138C1EE4
:100C78003E2E3F2E612E1A08F8006C08A03E840014
:100C88007808831380006C08013E0F39F800780853
:100C980083160313DB005B08831203136D06031925
:100CA800562E572E612E831603135B08F80078081A
:100CB80083120313EC00612E612E0C1E642E652E28
:100CC800862E831603130C1E6A2E6B2E862E831215
:100CD80003136F08B03E84008313000899000130A5
:100CE800F8007808EF070F30F8007808EF056F086C
:100CF8006E06031D802E812E862E831603130C127A
:100D0800862E862E7C088312FF007B088A007A08CC
:100D18008400790E8300FE0E7E0E090083120313F1
:100D2800A601A31F982E992EA22EA209A309A20AF2
:100D38000319A30AA6010314A60DA22EA11FA52E0E
:100D4800A62EAC2EA009A109A00A0319A10AAC2E4F
:100D5800210820040319B12EB22EE82EA501031490
:100D6800A50DC22E01300310A00DA10DFF3E031DDD
:100D7800B72E0130A4002408A507C22EA11FC52E36
:100D8800C62EB62EC82EC82E21082302031DCE2E2D
:100D980020082202031CD12ED22ED92E2008A2020E
:100DA8002108031CA303A302D92E01300310A10CB0
:100DB800A00CFF3E031DDA2E0130A502031DE52E0F
:100DC800E62EC82EE82EE82E2608031DEC2EF22E5D
:100DD800A209A309A20A0319A30AF22E2308A10152
:0C0DE800A1072208A001A007F92E0800B6
:100E0000FF1B0A2F83137F1883170008840A031916
:100E1000FF0A080007308A000408840A82070034A9
:100E2000013400340A34003464340034E8340334C8
:100E300010342734203443346834613472346734D6
:100E400069346E34673420344D346F34643465341F
:100E5000203400344134443443343A342534643447
:100E6000203444346934733474343A34253464346B
:100E70000034203420344534583449345434203438
:100E8000203400342034433468346134723467349D
:100E90006534203400345334633461346E345F3449
:100EA0003334363430340034433461346C34693490
:100EB00062345F3449345234003446346C3477340D
:100EC0005F34573461346C346C34003444347234DD
:100ED0006934763465345F3432346D3400344434EC
:100EE00072346934763465345F344C3400344334BE
:100EF0004F344E344634493452344D340034443443
:100F00007234323400343C343C343C3400343E34AB
:100F10003E343E340034443472344C340034433470
:100F2000683467340034433461346C3400345334EF
:100F300063346E34003446346C34773400348316B2
:100F40000313D7010314D70D083083120313A30032
:100F50000030A400A5010A128A1535250A128A114B
:100F6000B12F711CB42FB52FE92F71100A128A11FD
:100F700038220A128A11E92FE92FFD01B12FFD0154
:100F8000B12F013083120313A3000030A400A50188
:100F90000314A50D0A128A1535250A128A11FD01BE
:100FA000B12F013083120313A3000030A400A50168
:100FB0000A128A1535250A128A11FD01B12F8316EE
:100FC0000313CE01CF01FD01D701FC2FFC2FB12F60
:100FD000B12F7D08013A0319BD2F033A0319BF2F22
:100FE000013A0319C12F073A0319D12F013A031906
:0A0FF000DF2FB12FB12FB12F080041
:1011EA0064008001840A0406031900340406F62800
:1011FA0083120313A300A31723080A128A154F2187
:10120A000A128A15080045343C34573460344E3487
:10121A0033348434883470347C348C3480343C34B1
:10122A0083120313A20009118910091422088800E5
:10123A00091509110730A1007D30A000A00B232950
:10124A00A10B232908007E088A007F0882000A125F
:10125A008A1528210A128A158000840A04087D0644
:10126A0003190034FF0A0319FE0A2C2983120313F7
:10127A00A200A1018C112208930043298C1D462942
:10128A004729432948291308A0002008A1008C11E6
:10129A004E29080083120313A200091189100910AC
:1012AA0022088800091509110D30A100FB30A000A1
:1012BA00A00B5D29A10B5D29622908008312031383
:1012CA0085013F30831603138500A130831203136F
:1012DA009F000230831603139F00533083120313B7
:1012EA00A000A00B7629080000300A128A15932361
:1012FA000A128A1583120313AA00AB012A08AC004A
:10130A002B08AD002D08A901A9072C08A801A807D8
:10131A008E29080083120313981C942995299A2967
:10132A00181218160310A529A5296C086D06031DA5
:10133A009F29A029A2290310A5290314A529A529B3
:10134A00080080300A128A15BF210A128A158430D1
:10135A000A128A15BF210A128A1596300A128A15AC
:10136A00BF210A128A1500300A128A15BF210A12F1
:10137A008A15080083120313A100C429C4296E0820
:10138A00013E0F396F060319CB29CC29C4298B13C7
:10139A002108A0006E08B03E840020088313800054
:1013AA006E08013E0F39A0002008EE0083160313D1
:1013BA000C168B170800E229E2290A128A158F21D6
:1013CA000A128A15031CEA29EB29E2298B138312D4
:1013DA0003136D08A03E840083130008A0002008B0
:1013EA00A1000130A0002008ED070F30A00020085E
:1013FA00ED058B172108012A0800831603138717A6
:10140A00BF3083120313A000200883160313870535
:10141A00181514309900181383120313181383161E
:10142A00031318128312031398171816831603133B
:10143A000C128C169816003083120313EF00EE007C
:10144A00ED00A0002008EC000800831203139E019F
:10145A001F152F2A1F19322A332A2F2A00000000AB
:10146A000000831203131E08A200A3012208A4008D
:10147A002308A50001300310A40DA50DFF3E031D8E
:10148A00402A831603131E08831203132508A10199
:10149A00A1072408A001A007522A080002308316D7
:1014AA0003139F0083120313880189018316031310
:1014BA008801890101300A128A154F210A128A15F8
:1014CA0038300A128A154F210A128A150C300A126C
:1014DA008A154F210A128A1506300A128A154F21D7
:1014EA000A128A1502300A128A154F210A128A151F
:1014FA00080083120313A401A501832A201C862A4B
:10150A00872A8D2A2208A4070318A50A2308A507F3
:10151A0001300310A20DA30DFF3E031D8E2A0130D8
:10152A000310A10CA00CFF3E031D952A21082004DC
:10153A00031DA02AA12A832AA22A2508A101A107FC
:10154A002408A001A007A92A0800C42A83120313A9
:10155A002808FF00270884000A128A1100270A12A5
:10156A008A150A128A1515210A128A150130831260
:10157A000313A7070318A80A0030A807C42A83126E
:10158A0003132808FF00270884000A128A1100277B
:10159A000A128A150038031DD32AD42AAB2AD52A5F
:1015AA0008008E300A128A15BF210A128A150730DE
:1015BA000A128A15BF210A128A15063083120313EA
:1015CA00A4001330A300B130A200A20BEA2AA30B95
:1015DA00EA2AA40BEA2AF12A0A128A15E0210A1237
:1015EA008A1583120313A200A30122088316031388
:1015FA00C00083120313230883160313C1000800D3
:10160A00FD01903083120313A300230883160313EA
:10161A00870540309400A1308312031394000430EC
:10162A008316031381000A128A1502220A128A15E6
:10163A000A128A1563210A128A150A128A15532276
:10164A000A128A150A128A15A6210A128A15FC306C
:10165A008316031386008B160B178B170800F001ED
:10166A00F101FD0183136830840070300A128A1573
:10167A00F5200A128A15A0308400DF300A128A1572
:10168A00F5200A128A15831790308400A0300A12B6
:10169A008A15F5200A128A158313EC30FD000930E9
:1016AA00FE000830FF00DF3084000A128A152C2160
:1016BA000A128A1583010A128A11B12B0A128A1593
:1016CA0068270A128A15F11E6B2B6C2B702BF112EC
:1016DA000130922B922B701D732B742B782B701167
:1016EA000230922B922B701E7B2B7C2B802B70123C
:1016FA000330922B922BF11D832B842B882BF11113
:10170A000430922B922B701C8B2B8C2B902B7010ED
:10171A000530922B922B0030922B08008312031370
:10172A00A700AF2B9F111F129F12C02B9F151F12CC
:10173A009F12C02B9F111F169F12C02B9F151F1699
:10174A009F12C02B9F111F129F16C02B0030CD2B4A
:10175A00CD2BC02B2708003A0319972B013A0319FE
:10176A009B2B033A03199F2B013A0319A32B073A20
:10177A000319A72BAB2B5330A600A60BC22B0A12B8
:10178A008A152A220A128A15831203132008CD2BDE
:10179A000800730872040319D32BD42B0A2CF701FF
:1017AA000314F70DE42B01300310F20DF30DFF3E85
:1017BA00031DD92B0130F6007608F707E42BF31F37
:1017CA00E72BE82BD82BEA2BEA2B73087502031DAB
:1017DA00F02B72087402031CF32BF42BFB2B7208F8
:1017EA00F4027308031CF503F502FB2B0130031006
:1017FA00F30CF20CFF3E031DFC2B0130F702031D14
:10180A00072C082CEA2B0A2C0A2C7508F301F3077B
:10181A007408F201F207112C0800831203132F082F
:10182A002E040319192C1A2C502CB3010314B30DCE
:10183A002A2C01300310AE0DAF0DFF3E031D1F2CE5
:10184A000130B2003208B3072A2CAF1F2D2C2E2CE0
:10185A001E2C302C302C2F083102031D362C2E085A
:10186A003002031C392C3A2C412C2E08B0022F08C6
:10187A00031CB103B102412C01300310AF0CAE0CB2
:10188A00FF3E031D422C0130B302031D4D2C4E2C8A
:10189A00302C502C502C3108AF01AF073008AE0164
:1018AA00AE07572C0800023083120313DA005A08D5
:1018BA0083160313D70080300A128A15BF210A1231
:1018CA008A15672C711C6A2C6B2C8A2C71100A12CF
:1018DA008A1138220A128A158A2C8A2CFD01672C51
:1018EA00FD01672CFD01672CFD01672C84300A126B
:1018FA008A15BF210A128A15FD0183160313D7011F
:10190A009D2C9D2CFD01672C672C7D08013A03193B
:10191A00732C033A0319752C013A0319772C073AE9
:10192A000319792C013A03197B2C872C672C672C15
:10193A00080083120313A000D02CE22CE22CFF3003
:10194A0083160313C8070318C90AFF30C907C91F3A
:10195A00AF2CB02CE22C0530C8000030C900E22CB4
:10196A00E22C013083160313C8070318C90A003092
:10197A00C907063048064904031DC42CC52CE22CAD
:10198A00C801C901E22CE22C831603134808E42C8F
:10199A00E42CE22CE22C83122008013A0319E22CEF
:1019AA00033A0319E22C013A0319A42C073A031942
:1019BA00B62C013A0319C92CE22CFF30E42C08009A
:1019CA0083120313AB01AC01270826040319EE2C7A
:1019DA00EF2C2D2DAD010314AD0DFF2C013003109A
:1019EA00A60DA70DFF3E031DF42C0130AA002A08FC
:1019FA00AD07FF2CA71F022D032DF32C052D052D56
:101A0A0001300310AB0DAC0DFF3E031D062D270858
:101A1A002902031D122D26082802031C152D162D36
:101A2A001E2D2608A8022708031CA903A9022B14A5
:101A3A001E2D01300310A70CA60CFF3E031D1F2DFF
:101A4A000130AD02031D2A2D2B2D052D2D2D2D2DF7
:101A5A002C08A701A7072B08A601A607342D080002
:101A6A008312031307148714A508031D3D2D3E2D69
:101A7A00452D0F300A128A153B210A128A154C2D60
:101A8A000D300A128A153B210A128A154C2D83122F
:101A9A00031307108710A801A901692D0715000073
:101AAA008312031307116230A7006530A600A60B44
:101ABA005C2DA70B5C2D612D013083120313A8073F
:101ACA000318A90A0030A90724082902031D6F2D4B
:101ADA0023082802031C722D732D532D0714871413
:101AEA0000300A128A153B210A128A15831203133F
:101AFA000710871007150000831203130711080047
:101B0A0083120313B001B101B201B3013308803A61
:101B1A00FF0080307F02031D942D0A303202031C1D
:101B2A00972D982D9A2DBB2DBB2D0A128A15792136
:101B3A000A128A15831203132808B0070318B10A78
:101B4A002908B1070130B2070318B30A0030B307F6
:101B5A003308803AFF0080307F02031DB62D0A3019
:101B6A003202031CB92DBA2D9A2DBB2D0A308312CD
:101B7A000313A6000030A7003108A901A9073008FD
:101B8A00A801A8070A128A15E5240A128A158312DF
:101B9A0003132708EB01EB072608EA01EA070A12F2
:101BAA008A1115200A128A15080083120313DC0110
:101BBA00DD01DE01DF01E001E1016108803AFF0099
:101BCA0081307F02031DEB2D90306002031CEE2D45
:101BDA00EF2DF12D4A2E4A2E0A128A1585250A1250
:101BEA008A15831203136B085D02031DFE2D6A0812
:101BFA005C020318012E022E0F2E6B08DD01DD0791
:101C0A006A08DC01DC076108DF01DF076008DE0122
:101C1A00DE070F2E0130A3000030A400A501031433
:101C2A00A50D0A128A1535250A128A15711C1E2E4F
:101C3A001F2E262E71100A128A1138220A128A15AC
:101C4A00262E831203135F0883160313CB01CB07D7
:101C5A00831203135E0883160313CA01CA070130ED
:101C6A0083120313E0070318E10A0030E107610851
:101C7A00803AFF0081307F02031D452E90306002BA
:101C8A00031C482E492EF12D4A2E831203135F0896
:101C9A00DB01DB075E08DA01DA07532E080083123C
:101CAA0003132208A400240883160313DE008312F8
:101CBA0003132308A400240883160313DD008312E8
:101CCA000313A31B692E6A2E892E89300A128A15DC
:101CDA00BF210A128A1500300A128A15BF210A1278
:101CEA008A1564300A128A15BF210A128A15003031
:101CFA000A128A15BF210A128A1501300A128A1598
:101D0A00BF210A128A15A72E89300A128A15BF2105
:101D1A000A128A1500300A128A15BF210A128A1578
:101D2A0064300A128A15BF210A128A15FF300A1274
:101D3A008A15BF210A128A15FF300A128A15BF2195
:101D4A000A128A159D300A128A15BF210A128A15AB
:101D5A00831603135D080A128A15BF210A128A150F
:101D6A00831603135E080A128A15BF210A128A15FE
:101D7A0089300A128A15BF210A128A1500300A12FE
:101D8A008A15BF210A128A1500300A128A15BF2144
:101D9A000A128A1500300A128A15BF210A128A15F8
:101DAA0000300A128A15BF210A128A150800831602
:101DBA000313C001C101831203132208A4002408DB
:101DCA0083160313DA00831203132308A4002408DA
:101DDA0083160313D90083120313A31BF52EF62EC1
:101DEA00152F89300A128A15BF210A128A15003066
:101DFA000A128A15BF210A128A15C8300A128A15D0
:101E0A00BF210A128A1580300A128A15BF210A12C6
:101E1A008A1500300A128A15BF210A128A15332F31
:101E2A0089300A128A15BF210A128A15FF300A124E
:101E3A008A15BF210A128A1538300A128A15BF215B
:101E4A000A128A1580300A128A15BF210A128A15C7
:101E5A0000300A128A15BF210A128A159C300A120A
:101E6A008A15BF210A128A158316031359080A1202
:101E7A008A15BF210A128A15831603135A080A12F1
:101E8A008A15BF210A128A1589300A128A15BF21BA
:101E9A000A128A1500300A128A15BF210A128A15F7
:101EAA0000300A128A15BF210A128A1500300A1256
:101EBA008A15BF210A128A1500300A128A15BF2113
:101ECA000A128A1508008312031306196D2F6E2F42
:101EDA00822F0130F200720883160313D6070A30E4
:101EEA005602031C792F7A2F862F711F7D2F7E2F82
:101EFA00862FF1167113862F862F83160313D601A8
:101F0A0071178312031386198B2F8C2FA02F013080
:101F1A00F200720883160313D3070A305302031C14
:101F2A00972F982FA42FF01D9B2F9C2FA42F70154D
:101F3A00F011A42FA42F83160313D301F0158312D3
:101F4A000313061AA92FAA2FBE2F0130F200720816
:101F5A0083160313D4070A305402031CB52FB62F75
:101F6A00C22FF01EB92FBA2FC22F7016F012C22F2D
:101F7A00C22F83160313D401F01683120313861A91
:101F8A00C72FC82FDC2F0130F20072088316031303
:101F9A00D5070A305502031CD32FD42FE02F711E08
:101FAA00D72FD82FE02FF1157112E02FE02F8316CB
:101FBA000313D501711683120313061BE52FE62FAF
:101FCA00FA2F0130F200720883160313D0070A3081
:101FDA005002031CF12FF22FFF2FF01CF52FF62FC2
:101FEA00FF2F7014F010FF2FFF2F83160313D00159
:061FFA00F014FF2F0800A7
:02400E0032FF7F
:00000001FF
