:060000000A128A11122809
:10000800FE00030EFA000408FB000A08FC00831235
:1000180003137F08FD000A128A11912D0A128A150E
:100028009A2B0030831203136B02D53003196A022E
:10003800031C1F282028632800306B02EA300319AC
:100048006A0203182828292863281530A6000030DA
:10005800A7006A09AE006B09AF00AE0A0319AF0A20
:100068002E08EA3EA0002F080318013E003EA1001A
:100078000530A2000030A3000A128A1514230A12C0
:100088008A11831203132108A901A9072008A801CE
:10009800A8070A128A1534250A128A118312031333
:1000A80026080F3E83160313C40083120313270880
:1000B8000318013E003E83160313C500372A00309B
:1000C80083126B02AA3003196A02031C6C286D287C
:1000D800B02800306B02D53003196A02031875285E
:1000E8007628B0282B30A6000030A7006A09AE0099
:1000F8006B09AF00AE0A0319AF0A2E08D53EA0005F
:100108002F080318013E003EA1000A30A20000306B
:10011800A3000A128A1514230A128A1183120313E0
:100128002108A901A9072008A801A8070A128A1509
:1001380034250A128A11831203132608143E8316E3
:100148000313C4008312031327080318013E003E5B
:1001580083160313C500372A003083126B028030E0
:1001680003196A02031CB928BA28FD2800306B025B
:10017800AA3003196A020318C228C328FD282A30A6
:10018800A6000030A7006A09AE006B09AF00AE0AEE
:100198000319AF0A2E08AA3EA0002F080318013E33
:1001A800003EA1000A30A2000030A3000A128A15FE
:1001B80014230A128A11831203132108A901A9071B
:1001C8002008A801A8070A128A1534250A128A11DC
:1001D8008312031326081E3E83160313C4008312DA
:1001E800031327080318013E003E83160313C500B6
:1001F800372A003083126B026B3003196A02031C22
:10020800062907294A2900306B02803003196A023F
:1002180003180F2910294A291530A6000030A70015
:100228006A09AE006B09AF00AE0A0319AF0A2E08BF
:10023800803EA0002F080318013E003EA1000A30AE
:10024800A2000030A3000A128A1514230A128A1188
:10025800831203132108A901A9072008A801A807E8
:100268000A128A1534250A128A11831203132608E2
:10027800283E83160313C4008312031327080318A8
:10028800013E003E83160313C500372A003083124F
:100298006B024D3003196A02031C5329542997290C
:1002A80000306B026B3003196A0203185C295D2960
:1002B80097291E30A6000030A7006A09AE006B0916
:1002C800AF00AE0A0319AF0A2E086B3EA0002F0834
:1002D8000318013E003EA1000A30A2000030A3002E
:1002E8000A128A1514230A128A1183120313210889
:1002F800A901A9072008A801A8070A128A15342508
:100308000A128A11831203132608323E8316031336
:10031800C4008312031327080318013E003E831606
:100328000313C500372A003083126B0238300319D3
:100338006A02031CA029A129E42900306B024D3070
:1003480003196A020318A929AA29E4291530A60065
:100358000030A7006A09AE006B09AF00AE0A0319A6
:10036800AF0A2E084D3EA0002F080318013E003E9C
:10037800A1000A30A2000030A3000A128A15142333
:100388000A128A11831203132108A901A907200858
:10039800A801A8070A128A1534250A128A1183129D
:1003A800031326083C3E83160313C4008312031369
:1003B80027080318013E003E83160313C500372A99
:1003C800003083126B022B3003196A02031CED29DB
:1003D800EE29372A00306B02383003196A020318F5
:1003E800F629F729372A0D30A6000030A7006A0938
:1003F800AE006B09AF00AE0A0319AF0A2E08383EEB
:10040800A0002F080318013E003EA1000A30A200F8
:100418000030A3000A128A1514230A128A118312C3
:1004280003132108A901A9072008A801A8070A128F
:100438008A1534250A128A11831203132608463EA8
:1004480083160313C4008312031327080318013EFD
:10045800003E83160313C500372A372A372A372A5E
:10046800372A372A372A08004A3084009030831206
:100478000313C5000408C6001030C70045088400EF
:1004880083170008C800C50A460884008313480873
:100498008000C60AC70B422A7A2B01300A128A1535
:1004A8005F220A128A110B3083120313C500450814
:1004B800B4006B08B601B6076A08B501B50783161C
:1004C80003136B0883120313B801B80783160313C9
:1004D8006A0883120313B701B7074A300A128A1150
:1004E80091240A128A1100300A128A15EE210A1282
:1004F8008A114A3083120313A7000030A8000A1299
:100508008A1540230A128A1140300A128A15EE21F0
:100518000A128A11831603134708803AFF008030B5
:100528007F02031D992A01304602031C9C2A9D2A3A
:10053800B02A831603134608FF3EE53E8400831362
:10054800000883120313A7008030A8000A128A1536
:1005580040230A128A11C32A831603134608043E4D
:10056800E53E84008313000883120313A70080303C
:10057800A8000A128A1540230A128A11C32A443095
:100588000A128A15EE210A128A11831603134608E5
:10059800E03E84008313000883120313A700803011
:1005A800A8000A128A1540230A128A114D300A122D
:1005B8008A15EE210A128A11053083120313A0004E
:1005C8000030A100831603134608013E831203136B
:1005D800A2008316031347080318013E003E831246
:1005E8000313A3000A128A158D260A128A11831290
:1005F80003132008E53E840083130008A700803019
:10060800A8000A128A1540230A128A11842B013085
:100618000A128A155F220A128A110B3083120313F9
:10062800C5004508B4008316031358088312031342
:10063800C600C7014608B5004708B600831603136D
:10064800590883120313C800C9014808B7004908AC
:10065800B8004A300A128A1191240A128A1100300D
:100668000A128A15EE210A128A114A3083120313DC
:10067800A7000030A8000A128A1540230A128A111E
:1006880040300A128A15EE210A128A11523083125A
:100698000313A7008030A8000A128A1540230A1203
:1006A8008A1144300A128A15EE210A128A1146303C
:1006B80083120313A7008030A8000A128A1540236A
:1006C8000A128A114D300A128A15EE210A128A116D
:1006D800563083120313A7008030A8000A128A1527
:1006E80040230A128A11842B842B842B831603132C
:1006F8005608003A0319512A013A03190B2B842B87
:1007080008000A128A15F8230A128A118B2BFF3067
:1007180083120313E2006208E700E501E60183168D
:100728000313D408031D992B9A2BE72BF01F9D2B3D
:100738009E2BE72BF0130A128A15DF210A128A1161
:100748000A128A15D4250A128A110A128A11382225
:100758000A128A11E72BE72B01300A128A15ED24B9
:100768000A128A1183120313EC01732C02300A1245
:100778008A15ED240A128A1183120313EC01732CD3
:1007880003300A128A15ED240A128A118312031300
:10079800EC01732C04300A128A15ED240A128A110E
:1007A80083120313EC01732C05300A128A15ED2409
:1007B8000A128A1183120313E2006208E700EC01AF
:1007C800732C732C732C831203136C08013A0319CE
:1007D800B02B033A0319BA2B013A0319C42B073A71
:1007E8000319CE2B013A0319D82B732C732C0A1238
:1007F8008A1529260A128A11862C0A128A15F526C4
:100808000A128A11831203135B08E601E6075A08E5
:10081800E501E5076509E2006609E300E20A031954
:10082800E30A6208903EA30063080318013E013EF4
:10083800A400A5010A128A1584250A128A11862C99
:10084800033083120313E4008A30E3005630E200D9
:10085800E20B2C2CE30B2C2CE40B2C2C332CC83067
:1008680083120313A2000030A3000A128A15782706
:100878000A128A11862C033083120313E4008A308B
:10088800E3005630E200E20B472CE30B472CE40B65
:10089800472C4E2CE83083120313A2000330A30028
:1008A8000A128A1578270A128A11A63083120313AE
:1008B800A200FF30A3000A128A11F9260A128A112F
:1008C800E83083120313A2000330A3000A128A152A
:1008D80078270A128A11862C862C862C862C83125D
:1008E80003136708003A0319FB2B013A0319012C7B
:1008F800033A0319242C013A03193F2C073A031928
:10090800862C862CFF3083120313E2006208E7006E
:100918008B2B8B2B0A128A11122883120313C30004
:100928003530B9003908BC00772D4408253A031939
:100938009E2C9F2CAB2C4408B9004308840039082E
:10094800831380000130B9003908C307772DBD0132
:10095800B22C8B2DC72CC72C772DC72C0130B40790
:10096800FF30340784000A128A118B270A128A1171
:10097800C400003A03198B2D643A0319C72C0D3AA9
:100988000319C72C772D3C08840083130008BF0087
:10099800840A0008C0000230B9003908BC07C01F2B
:1009A800D62CD72CE12C0330B9003908BD04BF0977
:1009B800C009BF0A0319C00AE12CC4010314C40DFD
:1009C8004408053A031DE92CEA2CEC2C142D142DAF
:1009D8004408B9003907013E84000A128A118B279E
:1009E8000A128A11BA000A128A118B270A128A116E
:1009F800BB003B084002031D032D3A083F020318C1
:100A0800062D072D092D142D142D0130B900390894
:100A1800C4074408053A031D122D132DEC2C142D80
:100A28003D0803390319192D1A2D262D2D30B9002B
:100A3800430884003908831380000130B90039085D
:100A4800C307262D4408B9003908BE006B2D0A30AB
:100A5800AE000030AF003E08B9003907013E8400FF
:100A68000A128A118B270A128A11A6000A128A1101
:100A78008B270A128A11A7004008A901A9073F0875
:100A8800A801A8070A128A1534250A128A118312A6
:100A980003132708B101B1072608B001B0070A12ED
:100AA8008A15A7240A128A11831203132E08303ECE
:100AB800BA003A08C4004408B90043088400390859
:100AC800831380000130B9003908C3076B2DFF304C
:100AD800B9003908BE073E08FF3A031D742D752D6D
:100AE8002B2D772D772D0130B407FF303407840084
:100AF8000A128A118B270A128A11B9003908C40010
:100B0800C408031D882D892D992C8B2D8B2D430806
:100B1800840083138001902D08000B1D942D952DC2
:100B28001A2E0B11643081000130E8070318E90A16
:100B38000030E9076F140A30F2000030F30069084A
:100B4800F501F5076808F401F4070A128A15632409
:100B58000A128A1173087204031DB32DB42DB62D21
:100B68007017B62D3230F2000030F30083120313F1
:100B78006908F501F5076808F401F4070A128A15EF
:100B880063240A128A1173087204031DCC2DCD2D1B
:100B9800CF2DF114CF2DFA30F2000030F30083127C
:100BA80003136908F501F5076808F401F4070A1248
:100BB8008A1563240A128A1173087204031DE52D2D
:100BC800E62DE82DF017E82DF430F2000130F3009F
:100BD800831203136908F501F5076808F401F4079F
:100BE8000A128A1563240A128A1173087204031DF3
:100BF800FE2DFF2D072E711483120313E801E9015E
:100C080001308606072E83120313EC08031D0D2EF0
:100C18000E2E1A2E0A128A15C8230A128A11F800F3
:100C2800780883120313EC001A2E1A2E8C1E1D2E20
:100C38001E2E2F2E7116023086061A08F800780824
:100C480083160313CF004F08F800F9017808EA006B
:100C58007908EB002F2E83120C1E332E342E552EBE
:100C6800831603130C1E392E3A2E552E83120313A6
:100C78006E08B03E84008313000899000130F80024
:100C88007808EE070F30F8007808EE056E086D0654
:100C9800031D4F2E502E552E831603130C12552E5E
:100CA800552E7D088312FF007C088A007B0884008B
:100CB8007A0E8300FE0E7E0E0900831203130619B6
:100CC800662E672E7B2E0130F200720883160313FE
:100CD800D5070A305502031C722E732E7F2E711F02
:100CE800762E772E7F2EF11671137F2E7F2E831688
:100CF8000313D5017117831203138619842E852EC9
:100D0800992E0130F200720883160313D1070A30B6
:100D18005102031C902E912E9D2EF01D942E952E7F
:100D28009D2E7015F0119D2E9D2E83160313D10153
:100D3800F01583120313061AA22EA32EB72E013024
:100D4800F200720883160313D2070A305202031CFA
:100D5800AE2EAF2EBB2EF01EB22EB32EBB2E7016AB
:100D6800F012BB2EBB2E83160313D201F01683128A
:100D78000313861AC02EC12ED52E0130F200720838
:100D880083160313D3070A305302031CCC2ECD2E2F
:100D9800D92EF11DD02ED12ED92E7115F111D92EA3
:100DA800D92E83160313D301F11583120313061BDF
:100DB800DE2EDF2EF32E0130F200720883160313A5
:100DC800CE070A304E02031CEA2EEB2EF82EF01C3A
:100DD800EE2EEF2EF82E7014F010F82EF82E831643
:100DE8000313CE01F014F82E08008312031322080F
:100DF800A400240883160313DF00831203132308B7
:100E0800A400240883160313DE0083120313A31B14
:100E18000E2F0F2F2E2F89300A128A159F220A12A1
:100E28008A1100300A128A159F220A128A11643028
:100E38000A128A159F220A128A1100300A128A158C
:100E48009F220A128A1101300A128A159F220A1259
:100E58008A114C2F89300A128A159F220A128A1188
:100E680000300A128A159F220A128A1164300A1267
:100E78008A159F220A128A11FF300A128A159F22A8
:100E88000A128A11FF300A128A159F220A128A1141
:100E98009D300A128A159F220A128A11831603139B
:100EA8005E080A128A159F220A128A1183160313F2
:100EB8005F080A128A159F220A128A1189300A12BB
:100EC8008A159F220A128A1100300A128A159F2257
:100ED8000A128A1100300A128A159F220A128A11F0
:100EE80000300A128A159F220A128A1100300A124B
:100EF8008A159F220A128A110800FF1B8B2F831361
:100F08007F1883170008840A0319FF0A08000730AE
:100F18008A000408840A82070034013400340A3441
:100F2800003464340034E834033410342734413452
:100F3800443443343A3425346434203444346934F2
:100F4800733474343A342534643400345334633499
:100F580061346E345F3433343634303400344334DF
:100F680061346C34693462345F3449345234003447
:100F780046346C3477345F34573461346C346C34B1
:100F88000034443472346934763465345F3432342E
:100F98006D340034443472346934763465345F34E3
:100FA8004C34003443344F344E344634493452348C
:100FB8004D34003444347234323400343C343C34DC
:100FC8003C3400343E343E343E34003444347234CD
:100FD8004C340034433461346C3400345334633457
:0C0FE8006E34003446346C34773400342E
:1013BE0013300A128A1513220A128A1508006400C5
:1013CE008001840A0406031900340406E7298312F7
:1013DE000313A300A31723080A128A155F220A1209
:1013EE008A15080080300A128A159F220A128A1561
:1013FE0084300A128A159F220A128A150800233495
:10140E001A3435343E342C345E3462344E345A340D
:10141E0066340B3400343C3483120313A2008E3036
:10142E000A128A159F220A128A15831203132208A2
:10143E000A128A159F220A128A15080083120313B4
:10144E00A200091189100914220888000915091132
:10145E000730A1007D30A000A00B332AA10B332A48
:10146E0008007E088A007F0882000A128A15382238
:10147E000A128A158000840A04087D0603190034B6
:10148E00FF0A0319FE0A3C2A83120313A200A101CC
:10149E008C1122089300532A8C1D562A572A532A40
:1014AE00582A1308A0002008A1008C115E2A0800FB
:1014BE0083120313A2000911891009102208880053
:1014CE00091509110D30A100FB30A000A00B6D2AEB
:1014DE00A10B6D2A722A08008312031385013F3077
:1014EE00831603138500A130831203139F0002306D
:1014FE00831603139F00533083120313A000A00B17
:10150E00862A080000300A128A1528240A128A1523
:10151E0083120313AA00AB012A08AC002B08AD00FE
:10152E002D08A901A9072C08A801A8079E2A0800C2
:10153E0083120313A100A42AA42A6D08013E0F39B9
:10154E006E060319AB2AAC2AA42A8B132108A0001D
:10155E006D08B03E84002008831380006D08013EA4
:10156E000F39A0002008ED00831603130C168B17FD
:10157E000800831203139E011F15C52A1F19C82ABE
:10158E00C92AC52A000000000000831203131E089A
:10159E00A200A3012208A4002308A5000130031015
:1015AE00A40DA50DFF3E031DD62A831603131E0898
:1015BE00831203132508A101A1072408A001A00787
:1015CE00E82A08000230831603139F0083120313C8
:1015DE0088018901831603138801890101300A12DB
:1015EE008A155F220A128A1538300A128A155F226E
:1015FE000A128A150C300A128A155F220A128A15EF
:10160E0006300A128A155F220A128A1502300A1251
:10161E008A155F220A128A15080083120313A40189
:10162E00A501192B201C1C2B1D2B232B2208A407D4
:10163E000318A50A2308A50701300310A20DA30D58
:10164E00FF3E031D242B01300310A10CA00CFF3E06
:10165E00031D2B2B21082004031D362B372B192B92
:10166E00382B2508A101A1072408A001A0073F2BB4
:10167E0008005A2B831203132808FF002708840042
:10168E000A128A1181270A128A150A128A15252230
:10169E000A128A15013083120313A7070318A80A2A
:1016AE000030A8075A2B831203132808FF002708BF
:1016BE0084000A128A1181270A128A150038031D26
:1016CE00692B6A2B412B6B2B08008316031387178C
:1016DE00BF3083120313A00020088316031387055F
:1016EE001815143099001813831203131813831648
:1016FE000313181283120313981718168316031365
:10170E000C128C169816003083120313EE00ED00A7
:10171E0083160313DB0083120313A0002008831625
:10172E000313DA000800F001F101EF01E801E9010D
:10173E00EA01EB01EC01ED01EE018313A030840010
:10174E00E0300A128A15E6210A128A1583179030A4
:10175E008400A0300A128A15E6210A128A15831314
:10176E00ED30FD000A30FE000630FF00E030840050
:10177E000A128A153C220A128A1583010A128A114C
:10178E00852B0A128A1161260A128A15F11ED02B98
:10179E00D12BD52BF1120130F72BF72B701DD82B37
:1017AE00D92BDD2B70110230F72BF72B701EE02B8F
:1017BE00E12BE52B70120330F72BF72B711DE82B65
:1017CE00E92BED2B71110430F72BF72B701CF02B3E
:1017DE00F12BF52B70100530F72BF72B0030F72B74
:1017EE0008008B130A128A1573220A128A150A121E
:1017FE008A15E9220A128A150A128A156C230A1210
:10180E008A150A128A15F9210A128A15FC308316D6
:10181E0003138600903083120313A300230883164C
:10182E000313870540309400A130831203139400F4
:10183E0004308316031381008B160B178B178B172F
:10184E00080083120313A700442C9F111F129F122E
:10185E00552C9F151F129F12552C9F111F169F124C
:10186E00552C9F151F169F12552C9F111F129F1638
:10187E00552C0030622C622C552C2708003A031987
:10188E002C2C013A0319302C033A0319342C013A4B
:10189E000319382C073A03193C2C402C5330A60060
:1018AE00A60B572C0A128A15C0220A128A15831209
:1018BE0003132008622C0800730872040319682CA5
:1018CE00692C9F2CF7010314F70D792C01300310AE
:1018DE00F20DF30DFF3E031D6E2C0130F60076085F
:1018EE00F707792CF31F7C2C7D2C6D2C7F2C7F2CF5
:1018FE0073087502031D852C72087402031C882C54
:10190E00892C902C7208F4027308031CF503F5025F
:10191E00902C01300310F30CF20CFF3E031D912CA2
:10192E000130F702031D9C2C9D2C7F2C9F2C9F2C8D
:10193E007508F301F3077408F201F207A62C0800EC
:10194E00831203132F082E040319AE2CAF2CE52C93
:10195E00B3010314B30DBF2C01300310AE0DAF0D48
:10196E00FF3E031DB42C0130B2003208B307BF2C6A
:10197E00AF1FC22CC32CB32CC52CC52C2F08310283
:10198E00031DCB2C2E083002031CCE2CCF2CD62CB4
:10199E002E08B0022F08031CB103B102D62C013061
:1019AE000310AF0CAE0CFF3E031DD72C0130B3025B
:1019BE00031DE22CE32CC52CE52CE52C3108AF01E0
:1019CE00AF073008AE01AE07EC2C080083120313EC
:1019DE00A0001F2D312D312DFF3083160313C607A6
:1019EE000318C70AFF30C707C71FFE2CFF2C312D67
:1019FE000430C6000030C700312D312D0130831662
:101A0E000313C6070318C70A0030C707053046067A
:101A1E004704031D132D142D312DC601C701312D81
:101A2E00312D831603134608332D332D312D312DD1
:101A3E0083122008013A0319312D033A0319312D6F
:101A4E00013A0319F32C073A0319052D013A03192C
:101A5E00182D312DFF30332D080083120313AB01E7
:101A6E00AC012708260403193D2D3E2D7C2DAD011A
:101A7E000314AD0D4E2D01300310A60DA70DFF3E24
:101A8E00031D432D0130AA002A08AD074E2DA71FB6
:101A9E00512D522D422D542D542D01300310AB0DCE
:101AAE00AC0DFF3E031D552D27082902031D612D88
:101ABE0026082802031C642D652D6D2D2608A8020C
:101ACE002708031CA903A9022B146D2D0130031046
:101ADE00A70CA60CFF3E031D6E2D0130AD02031D9B
:101AEE00792D7A2D542D7C2D7C2D2C08A701A7073E
:101AFE002B08A601A607832D0800831203130714D3
:101B0E008714A508031D8C2D8D2D942D0F300A12D0
:101B1E008A154B220A128A159B2D0D300A128A1530
:101B2E004B220A128A159B2D83120313071087105E
:101B3E00A801A901B82D0715000083120313071180
:101B4E006230A7006530A600A60BAB2DA70BAB2D00
:101B5E00B02D013083120313A8070318A90A003011
:101B6E00A90724082902031DBE2D23082802031CE1
:101B7E00C12DC22DA22D0714871400300A128A150A
:101B8E004B220A128A1583120313071087100715AA
:101B9E000000831203130711080083120313B00110
:101BAE00B101B201B3013308803AFF0080307F02E9
:101BBE00031DE32D0A303202031CE62DE72DE92D1D
:101BCE000A2E0A2E0A128A1589220A128A158312E1
:101BDE0003132808B0070318B10A2908B10701300A
:101BEE00B2070318B30A0030B3073308803AFF0078
:101BFE0080307F02031D052E0A303202031C082E90
:101C0E00092EE92D0A2E0A3083120313A600003086
:101C1E00A7003108A901A9073008A801A8070A12D0
:101C2E008A1534250A128A15831203132708EB012D
:101C3E00EB072608EA01EA070A128A1115200A1292
:101C4E008A15080083160313D6010314D60D083027
:101C5E0083120313A3000030A400A5010A128A15F3
:101C6E0084250A128A153B2EF01F3E2E3F2E772E0C
:101C7E00F0130A128A1138220A128A15772E772E3D
:101C8E00EC013B2EEC013B2E0130A3000030A400F2
:101C9E00A5010314A50D0A128A1584250A128A15A8
:101CAE0083120313EC013B2E0130A3000030A4007D
:101CBE00A5010A128A1584250A128A1583120313A6
:101CCE00EC013B2E83160313CC01CD0183120313BB
:101CDE00EC0183160313D6018C2E8C2E3B2E3B2E3D
:101CEE00831203136C08013A0319472E033A0319A2
:101CFE00492E013A03194B2E073A03195B2E013A6E
:101D0E000319692E3B2E3B2E3B2E08008312031324
:101D1E00A601A31F932E942E9D2EA209A309A20AFB
:101D2E000319A30AA6010314A60D9D2EA11FA02E12
:101D3E00A12EA72EA009A109A00A0319A10AA72E58
:101D4E00210820040319AC2EAD2EE32EA501031499
:101D5E00A50DBD2E01300310A00DA10DFF3E031DDC
:101D6E00B22E0130A4002408A507BD2EA11FC02E3F
:101D7E00C12EB12EC32EC32E21082302031DC92E40
:101D8E0020082202031CCC2ECD2ED42E2008A20217
:101D9E002108031CA303A302D42E01300310A10CAF
:101DAE00A00CFF3E031DD52E0130A502031DE02E13
:101DBE00E12EC32EE32EE32E2608031DE72EED2E75
:101DCE00A209A309A20A0319A30AED2E2308A10151
:101DDE00A1072208A001A007F42E08008312031306
:101DEE00DC01DD01DE01DF0183160313D4010314D0
:101DFE00D40D83120313E001E1016108803AFF0064
:101E0E0081307F02031D0D2F90306002031C102FB6
:101E1E00112F132F6B2F6B2F0A128A15D4250A122E
:101E2E008A15831203136B085D02031D202F6A08A7
:101E3E005C020318232F242F312F6B08DD01DD07E1
:101E4E006A08DC01DC076108DF01DF076008DE01DC
:101E5E00DE07312F0130A3000030A400A5010314CA
:101E6E00A50D0A128A1584250A128A15F01F402F15
:101E7E00412F482FF0130A128A1138220A128A159E
:101E8E00482F831203135F0883160313C901C90772
:101E9E00831203135E0883160313C801C8070130AB
:101EAE0083120313E0070318E10A0030E10761080B
:101EBE00803AFF0081307F02031D672F9030600251
:101ECE00031C6A2F6B2F132F83160313D401831257
:101EDE0003135F08DB01DB075E08DA01DA07772FF1
:101EEE000800831203132208A40024088316031388
:101EFE00D900831203132308A400240883160313A6
:101F0E00D80083120313A31B8D2F8E2FAD2F893074
:101F1E000A128A159F220A128A1500300A128A1591
:101F2E009F220A128A15C8300A128A159F220A1297
:101F3E008A1580300A128A159F220A128A150030DD
:101F4E000A128A159F220A128A15CB2F89300A127D
:101F5E008A159F220A128A15FF300A128A159F22AD
:101F6E000A128A1538300A128A159F220A128A1509
:101F7E0080300A128A159F220A128A1500300A1220
:101F8E008A159F220A128A159C300A128A159F22E0
:101F9E000A128A158316031358080A128A159F22ED
:101FAE000A128A158316031359080A128A159F22DC
:101FBE000A128A1589300A128A159F220A128A1568
:101FCE0000300A128A159F220A128A1500300A1250
:101FDE008A159F220A128A1500300A128A159F222C
:101FEE000A128A1500300A128A159F220A128A15C1
:021FFE000800D9
:02400E0032FF7F
:00000001FF
