:060000000A128A11122809
:10000800FE00030EF9000408FA000A08FB00831238
:1000180003137F08FC000A128A111A2F0A168A1184
:10002800EF2DFF3083120313E1006108E800E901B6
:10003800EA010A168A1122270A128A112328711C3A
:1000480026282728692871100A128A1542220A12BE
:100058008A110A128A1595220A128A110A128A111D
:10006800BE240A128A116928692801300A128A15E1
:100078005B210A128A11FD017A2A02300A128A15B6
:100088005B210A128A11FD017A2A03300A128A15A5
:100098005B210A128A11FD017A2A04300A128A1594
:1000A8005B210A128A11FD017A2A05300A128A1583
:1000B8005B210A128A1183120313E1006108E80028
:1000C800FD017A2AFD017A2A7A2A7D08013A031964
:1000D8003928033A03194128013A03194928073AEC
:1000E80003195128013A0319592866287A2A0A124D
:1000F8008A15EA220A128A11902A0A128A15B0234E
:100108000A128A11831203135908F33EE9005A08A8
:100118000318013EFF3EEA006909E1006A09E200AE
:10012800E10A0319E20A6108903EA3006208031875
:10013800013E013EA400A5010A128A15F2210A1205
:100148008A11902A033083120313E3008A30E200F5
:100158005630E100E10BAE28E20BAE28E30BAE28E7
:10016800B528D03083120313D9000730DA000A12F9
:100178008A15C7250A128A11902A0330831203139D
:10018800E3008A30E2005630E100E10BC928E20BB7
:10019800C928E30BC928D028E83083120313D900F3
:1001A8000330DA000A128A15C7250A128A11A63006
:1001B80083120313A200FF30A3000A128A15A72492
:1001C8000A128A11E83083120313D9000330DA00C7
:1001D8000A128A15C7250A128A11902AF3280A12C8
:1001E8008A15B0230A128A11831203135908F33EA1
:1001F800E9005A080318013EFF3EEA00EB01EC0152
:10020800E401E5016A08803AFF0080307F02031D9F
:100218000F29C9306902031C122913291E298312C8
:1002280003136908643EEB006A080318013E003EA8
:10023800EC001E29831203136A08803AFF008030FD
:100248007F02031D2929C830690203182C292D298A
:1002580038298312031369089C3EEB006A080318C7
:10026800013EFF3EEC003829831203136C08803AE4
:10027800FF0081307F02031D432990306B02031C6D
:10028800462947296529831203136C08803AFF0021
:1002980081307F02031D5229F4306B02031855295F
:1002A80056296529831203136B08703EEB006C080E
:1002B8000318013EFE3EEC000130E4000030E5008A
:1002C8006529831203136C08803AFF0080307F028F
:1002D800031D7029C8306B02031C732974299C29DB
:1002E800831203136C08803AFF0081307F02031DDC
:1002F8007F2990306B020318822983299C29831255
:1003080003136B09E1006C09E200E10A0319E20A30
:100318006108903EEB0062080318013E013EEC00C4
:10032800EB09EC09EB0A0319EC0AE401E5019C2945
:10033800831203136C08803AFF0080307F02031D8C
:10034800A729C8306B020318AA29AB29B62983123A
:100358000313EC1BB029B129B6290130E4000030A1
:10036800E500B62983120313EC1FBB29BC29D22947
:100378006C08803AFF007F307F02031DC5293830A2
:100388006B02031CC829C929D22983120313E4016B
:10039800E501D229D229D229D229D22983120313DD
:1003A8006909E1006A09E200E10A0319E20A610841
:1003B800903EA30062080318013E013EA400A50177
:1003C8000A128A15F2210A128A11033083120313C2
:1003D800E3008A30E2005630E100E10BF129E20B3C
:1003E800F129E30BF129F829831203136C08B701EB
:1003F800B7076B08B601B6070A168A119C260A12B7
:100408008A11831203133608BF003708C000380862
:10041800C1006630BC006630BD003F30BE000A1225
:100428008A1512270A128A11831203133C08A8009E
:100438003D08A9003E08AA000A128A156C260A126D
:100448008A11831203132908E701E7072808E60140
:10045800E6076708A301A3076608A201A2070A1214
:100468008A15A7240A128A11033083120313E300A2
:100478008A30E2005630E100E10B402AE20B402AC4
:10048800E30B402A472A831203136A08A401A4072E
:100498006908A301A307A5010A128A15F2210A1205
:1004A8008A11033083120313E3008A30E2005630C6
:1004B800E100E10B5D2AE20B5D2AE30B5D2A642A69
:1004C800C83083120313D9000030DA000A128A15E3
:1004D800C7250A128A11F328F328902A0A128A15C6
:1004E80015210A128A11902A902A902A831203133E
:1004F8006808003A03197B28013A03198128033A4E
:100508000319A628013A0319C128073A0319F32841
:10051800013A0319722A902AFF3083120313E1006B
:100528006108E800232823280A128A1112280030BB
:10053800831203136E02D53003196D02031CA52A1A
:10054800A62AE92A00306E02EA3003196D02031860
:10055800AE2AAF2AE92A1530A6000030A7006D0997
:10056800AE006E09AF00AE0A0319AF0A2E08EA3EC4
:10057800A0002F080318013E003EA1000530A2008C
:100588000030A3000A168A1144260A128A1183121F
:1005980003132108A901A9072008A801A8070A121E
:1005A8008A15A2210A128A118312031326080F3E04
:1005B80083160313B8008312031327080318013E98
:1005C800003E83160313B900BD2C003083126E025F
:1005D800AA3003196D02031CF22AF32A362B0030C5
:1005E8006E02D53003196D020318FB2AFC2A362B3C
:1005F8002B30A6000030A7006D09AE006E09AF00D1
:10060800AE0A0319AF0A2E08D53EA0002F0803181A
:10061800013E003EA1000A30A2000030A3000A16E5
:100628008A1144260A128A11831203132108A90188
:10063800A9072008A801A8070A128A15A2210A12E8
:100648008A11831203132608143E83160313B80075
:100658008312031327080318013E003E8316031371
:10066800B900BD2C003083126E02803003196D0270
:10067800031C3F2B402B832B00306E02AA3003193A
:100688006D020318482B492B832B2A30A600003013
:10069800A7006D09AE006E09AF00AE0A0319AF0AD4
:1006A8002E08AA3EA0002F080318013E003EA10014
:1006B8000A30A2000030A3000A168A1144260A1242
:1006C8008A11831203132108A901A9072008A80188
:1006D800A8070A128A15A2210A128A118312031383
:1006E80026081E3E83160313B80083120313270837
:1006F8000318013E003E83160313B900BD2C0030D9
:1007080083126E026B3003196D02031C8C2B8D2B28
:10071800D02B00306E02803003196D020318952B20
:10072800962BD02B1530A6000030A7006D09AE001F
:100738006E09AF00AE0A0319AF0A2E08803EA0006A
:100748002F080318013E003EA1000A30A200003025
:10075800A3000A168A1144260A128A118312031367
:100768002108A901A9072008A801A8070A128A15C3
:10077800A2210A128A11831203132608283E83161F
:100788000313B8008312031327080318013E003E21
:1007980083160313B900BD2C003083126E024D304E
:1007A80003196D02031CD92BDA2B1D2C00306E02A5
:1007B8006B3003196D020318E22BE32B1D2C1E303E
:1007C800A6000030A7006D09AE006E09AF00AE0AA2
:1007D8000319AF0A2E086B3EA0002F080318013E2C
:1007E800003EA1000A30A2000030A3000A168A11B8
:1007F80044260A128A11831203132108A901A907A2
:100808002008A801A8070A128A15A2210A128A112B
:10081800831203132608323E83160313B80083128B
:10082800031327080318013E003E83160313B9007B
:10083800BD2C003083126E02383003196D02031C80
:10084800262C272C6A2C00306E024D3003196D02BD
:1008580003182F2C302C6A2C1530A6000030A70066
:100868006D09AE006E09AF00AE0A0319AF0A2E0873
:100878004D3EA0002F080318013E003EA1000A309B
:10088800A2000030A3000A168A1144260A128A110F
:10089800831203132108A901A9072008A801A807A2
:1008A8000A128A15A2210A128A1183120313260832
:1008B8003C3E83160313B80083120313270803185A
:1008C800013E003E83160313B900BD2C003083128D
:1008D8006E022B3003196D02031C732C742CBD2C73
:1008E80000306E02383003196D0203187C2C7D2C01
:1008F800BD2C0D30A6000030A7006D09AE006E09B2
:10090800AF00AE0A0319AF0A2E08383EA0002F0820
:100918000318013E003EA1000A30A2000030A300E7
:100928000A168A1144260A128A118312031321080F
:10093800A901A9072008A801A8070A128A15A22157
:100948000A128A11831203132608463E83160313DC
:10095800B8008312031327080318013E003E8316CC
:100968000313B900BD2CBD2CBD2CBD2CBD2CBD2C3A
:10097800BD2C080049308400903083120313C50051
:100988000408C6001030C700450884008317000813
:10099800C800C50A46088400831348088000C60AB0
:1009A800C70BC82C0C2E01300A168A1147250A12CB
:1009B8008A112B3083120313C5004508B40083162F
:1009C8000313420883120313C600C7014608B50083
:1009D8004708B60083160313330883120313B801BC
:1009E800B80783160313320883120313B701B70736
:1009F80049300A128A111A260A128A1100300A1678
:100A08008A11F5240A128A11493083120313A700A8
:100A18000030A8000A168A11C8260A128A11403026
:100A28000A168A11F5240A128A11831603133B0841
:100A3800803AFF0080307F02031D242D01303A02E6
:100A4800031C272D282D3B2D831603133A08FF3E40
:100A5800DB3E84008313000883120313A700803051
:100A6800A8000A168A11C8260A128A114E2D831662
:100A780003133A08053EDB3E840083130008831203
:100A88000313A7008030A8000A168A11C8260A1284
:100A98008A114E2D44300A168A11F5240A128A1139
:100AA800831603133A08D53E840083130008831283
:100AB8000313A7008030A8000A168A11C8260A1254
:100AC8008A114D300A168A11F5240A128A11063045
:100AD80083120313A0000030A100831603133A0801
:100AE800013E83120313A200831603133B08031865
:100AF800013E003E83120313A3000A128A154823FD
:100B08000A128A11831203132008DB3E8400831320
:100B18000008A7008030A8000A168A11C8260A1201
:100B28008A11192E01300A168A1147250A128A11CC
:100B380000300A168A11F5240A128A111B30831212
:100B48000313A7008030A8000A168A11C8260A12C3
:100B58008A1140300A168A11F5240A128A11843043
:100B680083120313A7008030A8000A168A11C8262A
:100B78000A128A1144300A168A11F5240A128A11B7
:100B8800783083120313A7008030A8000A168A1150
:100B9800C8260A128A114D300A168A11F5240A123B
:100BA8008A11883083120313A7008030A8000A1620
:100BB8008A11C8260A128A11192E01300A168A11BA
:100BC80047250A128A1100300A168A11F5240A12DA
:100BD8008A110B3083120313A7008030A8000A166D
:100BE8008A11C8260A128A1144300A168A11F52475
:100BF8000A128A113A3083120313A7008030A80022
:100C08000A168A11C8260A128A11192E192E192EA7
:100C1800831603134A08003A0319D72C013A03191B
:100C2800962D033A0319E12D192E08008312031398
:100C3800C3003530B9003908BC00002F4408253AF4
:100C48000319272E282E342E4408B900430884009F
:100C58003908831380000130B9003908C307002F11
:100C6800BD013B2E142F502E502E002F502E013038
:100C7800B407FF30340784000A128A150A200A12C2
:100C88008A11C400003A0319142F643A0319502E2C
:100C98000D3A0319502E002F3C08840083130008D6
:100CA800BF00840A0008C0000230B9003908BC0738
:100CB800C01F5F2E602E6A2E0330B9003908BD04AC
:100CC800BF09C009BF0A0319C00A6A2EC401031468
:100CD800C40D4408053A031D722E732E752E9D2EE1
:100CE8009D2E4408B9003907013E84000A128A156E
:100CF8000A200A128A11BA000A128A150A200A1250
:100D08008A11BB003B084002031D8C2E3A083F02A3
:100D180003188F2E902E922E9D2E9D2E0130B900F5
:100D28003908C4074408053A031D9B2E9C2E752ECE
:100D38009D2E3D0803390319A22EA32EAF2E2D3068
:100D4800B900430884003908831380000130B900D2
:100D58003908C307AF2E4408B9003908BE00F42E7D
:100D68000A30AE000030AF003E08B9003907013E36
:100D780084000A128A150A200A128A11A6000A1289
:100D88008A150A200A128A11A7004008A901A90792
:100D98003F08A801A8070A128A15A2210A128A1177
:100DA800831203132708B101B1072608B001B00761
:100DB8000A128A15CF200A128A11831203132E08E9
:100DC800303EBA003A08C4004408B9004308840019
:100DD8003908831380000130B9003908C307F42E9D
:100DE800FF30B9003908BE073E08FF3A031DFD2E43
:100DF800FE2EB42E002F002F0130B407FF30340729
:100E080084000A128A150A200A128A11B9003908C0
:100E1800C400C408031D112F122F222E142F142FC3
:100E28004308840083138001192F08000B1D1D2F10
:100E38001E2F9F2F0B11643081000130831603137E
:100E4800B0070318B10A0030B107F0170A30F200F2
:100E58000030F3003108F501F5073008F401F40714
:100E68000A168A11BC270A128A1173087204031D14
:100E78003E2F3F2F412F7017412F3230F2000030A4
:100E8800F300831603133108F501F5073008F40160
:100E9800F4070A168A11BC270A128A117308720409
:100EA800031D572F582F5A2F71155A2FFA30F20059
:100EB8000030F300831603133108F501F5073008F5
:100EC800F401F4070A168A11BC270A128A1173085A
:100ED8007204031D702F712F732F7114732FF43048
:100EE800F2000130F300831603133108F501F5070A
:100EF8003008F401F4070A168A11BC270A128A116D
:100F080073087204031D892F8A2F902FF1148312FE
:100F1800031301308606902FFD08031D942F952F8B
:100F28009F2F0A168A1151270A128A11F800780889
:100F3800FD009F2F9F2F831203138C1EA42FA52F14
:100F4800C12F1A08F800831603134E08A03E840028
:100F58007808831380004E08013E0F39F80078089E
:100F6800D00050084F060319BA2FBB2FC12F5008C5
:100F7800F8007808CE00C12FC12F83120C1EC52F90
:100F8800C62FEB2F831603130C1ECB2FCC2FEB2F62
:100F98005408A03E840083170008831203139900A5
:100FA8000130F800780883160313D4070F30F800CF
:100FB8007808D4055408831203136F06031DE52F20
:100FC800E62FEB2F831603130C12EB2FEB2F7C0865
:100FD8008312FF007B088A007A088400790E830058
:100FE800FE0E7E0E090064008001840A04060319BF
:060FF80000340406F82F8E
:10100000FF1B0A2883137F1883170008840A03191B
:10101000FF0A080008308A000408840A82070034A6
:10102000013400340A34003464340034E8340334C6
:1010300010342734203443346834613472346734D4
:1010400069346E34673420344D346F34643465341D
:10105000203400345A34653472346F3420345334BD
:101060007434653470345F344D346F3474346F3499
:10107000723400344134443443343A3425346434D3
:10108000203444346934733474343A342534643449
:101090000034203420344534583449345434203416
:1010A000203400342034433468346134723467347B
:1010B0006534203400345334633461346E345F3427
:1010C0003334363430340034433461346C3469346E
:1010D00062345F3449345234003446346C347734EB
:1010E0005F34573461346C346C34003444347234BB
:1010F0006934763465345F3432346D3400344434CA
:1011000072346934763465345F344C34003443349B
:101110004F344E344634493452344D340034443420
:101120007234323400343C343C343C3400343E3489
:101130003E343E340034443472344C34003443344E
:10114000683467340034433461346C3400345334CD
:0E11500063346E34003446346C34773400342B
:10116C0080300A168A11A0250A128A1584300A16B4
:10117C008A11A0250A128A1596300A168A11A02502
:10118C000A128A1500300A168A11A0250A128A152D
:10119C000800831203132F082E040319D628D7280E
:1011AC000D29B3010314B30DE72801300310AE0D64
:1011BC00AF0DFF3E031DDC280130B2003208B3072F
:1011CC00E728AF1FEA28EB28DB28ED28ED282F08AD
:1011DC003102031DF3282E083002031CF628F728D1
:1011EC00FE282E08B0022F08031CB103B102FE2802
:1011FC0001300310AF0CAE0CFF3E031DFF28013075
:10120C00B302031D0A290B29ED280D290D293108DC
:10121C00AF01AF073008AE01AE0714290800023049
:10122C0083120313D900590883160313CA008030A4
:10123C000A168A11A0250A128A152429711C27293D
:10124C002829472971100A128A11BE240A128A15FC
:10125C0047294729FD012429FD012429FD012429C1
:10126C00FD01242984300A168A11A0250A128A1538
:10127C00FD0183160313CA015A295A29FD01242999
:10128C0024297D08013A03193029033A031932291C
:10129C00013A03193429073A03193629013A03197B
:1012AC003829442924292429080083120313A00077
:1012BC008D299F299F29FF3083160313BA07031822
:1012CC00BB0AFF30BB07BB1F6C296D299F2905305A
:1012DC00BA000030BB009F299F29013083160313ED
:1012EC00BA070318BB0A0030BB0706303A063B04AA
:1012FC00031D812982299F29BA01BB019F299F299E
:10130C00831603133A08A129A1299F299F29831227
:10131C002008013A03199F29033A03199F29013A1E
:10132C0003196129073A03197329013A031986290C
:10133C009F29FF30A129080083120313AB01AC01D4
:10134C00270826040319AB29AC29EA29AD0103149B
:10135C00AD0DBC2901300310A60DA70DFF3E031DDA
:10136C00B1290130AA002A08AD07BC29A71FBF2943
:10137C00C029B029C229C22901300310AB0DAC0D14
:10138C00FF3E031DC32927082902031DCF29260868
:10139C002802031CD229D329DB292608A8022708F6
:1013AC00031CA903A9022B14DB2901300310A70C81
:1013BC00A60CFF3E031DDC290130AD02031DE729FD
:1013CC00E829C229EA29EA292C08A701A7072B0832
:1013DC00A601A607F129080083120313071487142A
:1013EC00A508031DFA29FB29022A0F300A168A11B7
:1013FC0033250A128A15092A0D300A168A1133254B
:10140C000A128A15092A8312031307108710A801E0
:10141C00A901262A07150000831203130711623055
:10142C00A7006530A600A60B192AA70B192A1E2A9D
:10143C00013083120313A8070318A90A0030A90767
:10144C0024082902031D2C2A23082802031C2F2AF6
:10145C00302A102A0714871400300A168A113325F3
:10146C000A128A1583120313071087100715000040
:10147C0083120313071108008E300A168A11A02557
:10148C000A128A1507300A168A11A0250A128A1523
:10149C00213083120313A3007630A200A20B542A2E
:1014AC00A30B542A64000A168A1170260A128A1594
:1014BC0083120313A200220883160313C2008E307A
:1014CC000A168A11A0250A128A1513300A168A11D7
:1014DC00A0250A128A15213083120313A30076303B
:1014EC00A200A20B772AA30B772A64000A168A1192
:1014FC0070260A128A1583120313A200220883167F
:10150C000313C4000A168A1170260A128A15831254
:10151C000313A200220883160313C50008008312CC
:10152C000313B001B101B201B3013308803AFF00DB
:10153C0080307F02031DA42A0A303202031CA72A22
:10154C00A82AAA2ACB2ACB2A0A168A1171250A1292
:10155C008A15831203132808B0070318B10A290847
:10156C00B1070130B2070318B30A0030B3073308D0
:10157C00803AFF0080307F02031DC62A0A303202F7
:10158C00031CC92ACA2AAA2ACB2A0A30831203139B
:10159C00A6000030A7003108A901A9073008A8014E
:1015AC00A8070A128A15A2210A128A15831203139C
:1015BC002708EE01EE072608ED01ED070A128A1145
:1015CC009B220A128A15080083160313CA010314FE
:1015DC00CA0D083083120313A3000030A400A50128
:1015EC000A128A15F2210A128A15FC2A711CFF2A8A
:1015FC00002B342B71100A128A11BE240A128A1580
:10160C00342B342BFD01FC2AFD01FC2A0130831202
:10161C000313A3000030A400A5010314A50D0A12A6
:10162C008A15F2210A128A15FD01FC2A0130831257
:10163C000313A3000030A400A5010A128A15F2219D
:10164C000A128A15FD01FC2A83160313C001C1017D
:10165C00FD01CA01472B472BFC2AFC2A7D08013AC5
:10166C000319082B033A03190A2B013A03190C2B03
:10167C00073A03191C2B013A03192A2BFC2AFC2AC2
:10168C00FC2A080083120313A601A31F4E2B4F2B19
:10169C00582BA209A309A20A0319A30AA601031431
:1016AC00A60D582BA11F5B2B5C2B622BA009A1094B
:1016BC00A00A0319A10A622B210820040319672B25
:1016CC00682B9E2BA5010314A50D782B013003105C
:1016DC00A00DA10DFF3E031D6D2B0130A4002408AD
:1016EC00A507782BA11F7B2B7C2B6C2B7E2B7E2BA9
:1016FC0021082302031D842B20082202031C872BA4
:10170C00882B8F2B2008A2022108031CA303A30201
:10171C008F2B01300310A10CA00CFF3E031D902B4E
:10172C000130A502031D9B2B9C2B7E2B9E2B9E2BED
:10173C002608031DA22BA82BA209A309A20A031990
:10174C00A30AA82B2308A101A1072208A001A00726
:10175C00AF2B080083120313DB01DC01DD01DE017A
:10176C00DF01E0016008803AFF0081307F02031D39
:10177C00C12B90305F02031CC42BC52BC72B202C14
:10178C00202C0A128A1595220A128A158312031329
:10179C006E085C02031DD42B6D085B020318D72B5B
:1017AC00D82BE52B6E08DC01DC076D08DB01DB07B1
:1017BC006008DE01DE075F08DD01DD07E52B013087
:1017CC00A3000030A400A5010314A50D0A128A156C
:1017DC00F2210A128A15711CF42BF52BFC2B7110BB
:1017EC000A128A11BE240A128A15FC2B83120313C7
:1017FC005E0883160313BD01BD07831203135D0836
:10180C0083160313BC01BC07013083120313DF07DB
:10181C000318E00A0030E0076008803AFF008130CE
:10182C007F02031D1B2C90305F02031C1E2C1F2CEF
:10183C00C72B202C831203135E08DA01DA075D082C
:10184C00D901D907292C0800831203132308031D7F
:10185C00302C382C220821042004031D362C372C64
:10186C004E2C382C0030A0000030A1000030A2001B
:10187C00A62CA62C4E2C0130A5002508A307013060
:10188C000310A20CA10CA00CFF3E031D462C4E2CE9
:10189C00FE302205031D532C542C412C6C2C6C2C2B
:1018AC000130A5002508A3070130A007003003185C
:1018BC000130A107003003180130A20701300310DA
:1018CC00A20CA10CA00CFF3E031D652CFF302205C1
:1018DC00031D712C722C562C7F2C7F2C0130A302F3
:1018EC0001300310A00DA10DA20DFF3E031D772C9E
:1018FC007F2CA11F822C832C742C2318862C872CD4
:10190C008D2CFF30A0057F30A105FF30A205031000
:10191C00A30C2308A500A601A70110300310A50DE8
:10192C00A60DA70DFF3E031D942C2508A004260828
:10193C00A1042708A2042408031DA52CA62CA21779
:10194C000800831203132208A4002408831603132F
:10195C00D300831203132308A40024088316031353
:10196C00D20083120313A31BBC2CBD2CDC2C89309E
:10197C000A168A11A0250A128A1500300A168A1135
:10198C00A0250A128A1532300A168A11A0250A12CD
:10199C008A1500300A168A11A0250A128A15013000
:1019AC000A168A11A0250A128A15FA2C89300A16F1
:1019BC008A11A0250A128A1500300A168A11A02550
:1019CC000A128A1532300A168A11A0250A128A15B3
:1019DC00FF300A168A11A0250A128A15FF300A1642
:1019EC008A11A0250A128A159D300A168A11A02583
:1019FC000A128A158316031352080A168A11A02597
:101A0C000A128A158316031353080A168A11A02585
:101A1C000A128A1589300A168A11A0250A128A150B
:101A2C0000300A168A11A0250A128A1500300A16EF
:101A3C008A11A0250A128A1500300A168A11A025CF
:101A4C000A128A1500300A168A11A0250A128A1564
:101A5C000800831203130619342D352D492D01303E
:101A6C00F200720883160313C9070A304902031CDB
:101A7C00402D412D4D2D711F442D452D4D2DF11611
:101A8C0071134D2D4D2D83160313C901711783123C
:101A9C0003138619522D532D672D0130F200720855
:101AAC0083160313C6070A304602031C5E2D5F2DF6
:101ABC006B2DF01D622D632D6B2D7015F0116B2DA0
:101ACC006B2D83160313C601F01583120313061A2C
:101ADC00702D712D852D0130F200720883160313C1
:101AEC00C7070A304702031C7C2D7D2D892DF01E63
:101AFC00802D812D892D7016F012892D892D83163C
:101B0C000313C701F01683120313861A8E2D8F2D23
:101B1C00A32D0130F200720883160313C8070A3094
:101B2C004802031C9A2D9B2DA72D711E9E2D9F2DB7
:101B3C00A72DF1157112A72DA72D83160313C8011C
:101B4C00711683120313061BAC2DAD2DC12D013064
:101B5C00F200720883160313C3070A304302031CF6
:101B6C00B82DB92DC62DF01CBC2DBD2DC62D701455
:101B7C00F010C62DC62D83160313C301F014C62D09
:101B8C00080083160313B201B30183120313DA1B8B
:101B9C00D02DD12DF02D89300A168A11A0250A12CC
:101BAC008A1500300A168A11A0250A128A153230BD
:101BBC000A168A11A0250A128A1580300A168A1173
:101BCC00A0250A128A1500300A168A11A0250A12BD
:101BDC008A15342E89300A168A11A0250A128A1504
:101BEC00FF300A168A11A0250A128A1538300A16F7
:101BFC008A11A0250A128A1580300A168A11A0258E
:101C0C000A128A1500300A168A11A0250A128A15A2
:101C1C00342E342E0A128A1542220A128A15831681
:101C2C0003134208031D1B2E1D2E4D2E4D2E450851
:101C3C0083120313DB00DC015B0883160313B2076A
:101C4C000318B30A831203135C0883160313B30738
:101C5C000A128A11BE240A128A15342E8312031317
:101C6C005A08803ADB00831603133308803A831238
:101C7C0003135B02031D482E8316031332088312D1
:101C8C000313590203184B2E4C2E102E4D2E893057
:101C9C000A168A11A0250A128A1500300A168A1112
:101CAC00A0250A128A1500300A168A11A0250A12DC
:101CBC008A1500300A168A11A0250A128A150030DE
:101CCC000A168A11A0250A128A150800831203131A
:101CDC002808AC002908AD002A08AE0003102D0D11
:101CEC002E0DAF002F08B500B508031D7E2E7F2EDC
:101CFC00892E0030AB000030AA000030A900003063
:101D0C00A800112F112F2808AC002908AD002A08B3
:101D1C00AE0017300310AE0CAD0CAC0CFF3E031D27
:101D2C00902E2C08AF002F08B000A917FF30A80583
:101D3C00FF30A9050030AA052808B1002908B20017
:101D4C002A08B300B4018E30B502B51FAE2EAF2EEB
:101D5C00D42E3508803A8F3E0318B52EB62EC12EE0
:101D6C000030AB000030AA000030A9000030A80001
:101D7C00112F112FC12E01300310B40CB30CB20C67
:101D8C00B10CFF3E031DC22E0130AC002C08B50770
:101D9C00031DD12ED22EC12EF82EF82E183035025E
:101DAC00031CD92EDA2EF12E0030AB000030AA0025
:101DBC000030A9000030A800112F112FF12E013096
:101DCC00AC000310B10DB20DB30DB40DAC0BE72E7E
:101DDC000130B502F12EB508031DF52EF62EE52EB9
:101DEC00F82EF82E3008031DFC2E082FB109B2096D
:101DFC00B309B409B10A0319B20A0319B30A0319D6
:101E0C00B40A082F3408AB003308AA003208A90022
:101E1C003108A800112F0800831203133C08C200DC
:101E2C003D08C3003E08C4000310430D440DC5001B
:101E3C004508C600C608031D242F252F2D2F003062
:101E4C00BC000030BD000030BE00FF2FFF2F3F084C
:101E5C00C2004008C3004108C4000310430D440DE8
:101E6C00C5004508CB00CB08031D3D2F3E2F462F48
:101E7C000030BC000030BD000030BE00FF2FFF2F33
:101E8C004B087B3EC2004208C6073C08C2003D0816
:101E9C00C3003E08C40010300310C40CC30CC20CA9
:101EAC00FF3E031D522F4208C5004508CB003F08DA
:101EBC00C2004008C3004108C40010300310C40C19
:101ECC00C30CC20CFF3E031D642F4208C50045081D
:101EDC00CB068030C2004208CB05BD17C017FF30BF
:101EEC00BF05FF30C0050030C1050030C700003011
:101EFC00C8000030C9000730C2004208CA00862F53
:101F0C003C1C892F8A2F9B2F3F08C70740080311C1
:101F1C000318400A0319932FC8074108031103182B
:101F2C00410A03199A2FC9079B2F01300310BE0CCD
:101F3C00BD0CBC0CFF3E031D9C2F01300310BF0DCC
:101F4C00C00DC10DFF3E031DA42F0130CA02031D9D
:101F5C00B02FB12F862FB22F0930C2004208CA0011
:101F6C00B72F3C1CBA2FBB2FCC2F3F08C7074008FC
:101F7C0003110318400A0319C42FC80741080311A1
:101F8C000318410A0319CB2FC907CC2F01300310BA
:101F9C00BE0CBD0CBC0CFF3E031DCD2F013003103D
:101FAC00C90CC80CC70CFF3E031DD52F0130CA024B
:101FBC00031DE12FE22FB72FE32F4708A00048089D
:101FCC00A1004908A2004608C2004208A3004B0821
:101FDC00C3004308A4000A128A152A240A128A157F
:101FEC00831203132008BC002108BD002208BE0088
:041FFC00FF2F0800AB
:1029EA0083120313A300A31723080A168A11472583
:1029FA000A168A11080055344C34673470345E3430
:102A0A0043349434983480348C349C3490343C3439
:102A1A0083120313A20009118910091422088800DD
:102A2A00091509110730A1007D30A000A00B1B2D4C
:102A3A00A10B1B2D08007E088A007F0882000A1657
:102A4A008A1120250A168A118000840A04087D0644
:102A5A0003190034FF0A0319FE0A242D83120313F3
:102A6A00A200A1018C11220893003B2D8C1D3E2D42
:102A7A003F2D3B2D402D1308A0002008A1008C11EA
:102A8A00462D080083120313A200091189100910A8
:102A9A0022088800091509110D30A100FB30A00099
:102AAA00A00B552DA10B552D5A2D08008312031387
:102ABA0085013F30831603138500A1308312031367
:102ACA009F000230831603139F00533083120313AF
:102ADA00A000A00B6E2D080000300A168A1181276B
:102AEA000A168A1183120313AA00AB012A08AC0042
:102AFA002B08AD002D08A901A9072C08A801A807D1
:102B0A00862D080083120313981C8C2D8D2D922D6F
:102B1A001812181603109F2D9F2D831603134E08A3
:102B2A004F06031D992D9A2D9C2D03109F2D0314DA
:102B3A009F2D9F2D080083120313A100A52DA52DFB
:102B4A0083126F08013E0F398316031354060319C3
:102B5A00AF2DB02DA52D8B13831203132108A000CE
:102B6A006F08A03E84002008831780006F08013E8A
:102B7A000F39A0002008EF00831603130C168B17D9
:102B8A000800831203139E011F15CB2D1F19CE2D8A
:102B9A00CF2DCB2D000000000000831203131E0866
:102BAA00A200A3012208A4002308A50001300310F3
:102BBA00A40DA50DFF3E031DDC2D831603131E086D
:102BCA00831203132508A101A1072408A001A00765
:102BDA00EE2D0800F001F101FD01ED01EE01EF011A
:102BEA008313A0308400D5300A128A11F7270A16F7
:102BFA008A11831790308400B0300A128A11F7279D
:102C0A000A168A118313E230FD001530FE000030E7
:102C1A00FF00D53084000A168A1124250A168A1163
:102C2A0083010A128A1115280230831603139F00A2
:102C3A00831203138801890183160313880189010A
:102C4A0001300A168A1147250A168A1138300A16DF
:102C5A008A1147250A168A110C300A168A11472545
:102C6A000A168A1106300A168A1147250A168A1187
:102C7A0002300A168A1147250A168A110800831299
:102C8A000313A401A501492E201C4C2E4D2E532EB0
:102C9A002208A4070318A50A2308A5070130031070
:102CAA00A20DA30DFF3E031D542E01300310A10CEB
:102CBA00A00CFF3E031D5B2E21082004031D662E77
:102CCA00672E492E682E2508A101A1072408A00114
:102CDA00A0076F2E0800722E722E0A168A118725F7
:102CEA000A168A11031C7A2E7B2E722E8B138316D8
:102CFA0003134F08A03E84008313000883120313B2
:102D0A00A0002008A1000130A000200883160313A8
:102D1A00CF070F3083120313A00020088316031372
:102D2A00CF058B178312031321089B2E08008312E9
:102D3A000313BB01B71FA22EA32EAC2EB609B709E7
:102D4A00B60A0319B70ABB010314BB0DAC2E360829
:102D5A00A0003708A100A2018E30B9003908A300EB
:102D6A003B08BA003A08A4000A128A152A240A164D
:102D7A008A11831203132008B6002108B70022081B
:102D8A00B800C72E0800E22E831203132808FF009A
:102D9A00270884000A128A1500200A168A110A16C0
:102DAA008A110D250A168A11013083120313A70707
:102DBA000318A80A0030A807E22E83120313280872
:102DCA00FF00270884000A128A1500200A168A11B1
:102DDA000038031DF12EF22EC92EF32E0800831699
:102DEA0003138717BF3083120313A000200883162A
:102DFA000313870518151430990018138312031347
:102E0A00181383160313181283120313981718162C
:102E1A00831603130C128C1698160030D4008312F2
:102E2A000313EF0083160313CF0083120313A000CA
:102E3A00200883160313CE000800FD019030831288
:102E4A000313A30023088316031387054030940055
:102E5A00A1308312031394000430831603138100F4
:102E6A000A168A11F4260A168A110A168A115B258D
:102E7A000A168A110A168A1119260A168A110A12BC
:102E8A008A15B6200A168A11FC30831603138600A7
:102E9A008B160B178B1708000A128A152F250A168C
:102EAA008A11F11E592F5A2F5E2FF1120130802FED
:102EBA00802F701D612F622F662F70110230802FB4
:102ECA00802F701E692F6A2F6E2F70120330802F89
:102EDA00802FF11D712F722F762FF1110430802F60
:102EEA00802F701C792F7A2F7E2F70100530802F3B
:102EFA00802F0030802F080083120313A7009D2F14
:102F0A009F111F129F12AE2F9F151F129F12AE2FD5
:102F1A009F111F169F12AE2F9F151F169F12AE2FBD
:102F2A009F111F129F16AE2F0030BB2FBB2FAE2F43
:102F3A002708003A0319852F013A0319892F033A02
:102F4A0003198D2F013A0319912F073A0319952F67
:102F5A00992F5330A600A60BB02F0A168A11C62540
:102F6A000A168A11831203132008BB2F080073085C
:102F7A0072040319C12FC22FF82FF7010314F70D9A
:102F8A00D22F01300310F20DF30DFF3E031DC72FA0
:102F9A000130F6007608F707D22FF31FD52FD62F68
:102FAA00C62FD82FD82F73087502031DDE2F72087B
:102FBA007402031CE12FE22FE92F7208F40273084E
:102FCA00031CF503F502E92F01300310F30CF20C90
:102FDA00FF3E031DEA2F0130F702031DF52FF62FDE
:102FEA00D82FF82FF82F7508F301F3077408F201A8
:062FFA00F207FF2F0800A2
:02400E0032FF7F
:00000001FF
