:060000000A128A11122809
:10000800FE00030EF9000408FA000A08FB00831238
:1000180003137F08FC000A128A156E2D0A168A112E
:100028003C2C0030831603133702D53003193602EF
:10003800031C1F2820286D2800303702EA300319D6
:1000480036020318282829286D281530831203132F
:10005800A6000030A7008316031336098312031382
:10006800AE0083160313370983120313AF00AE0AD9
:100078000319AF0A2E08EA3EA0002F080318013E14
:10008800003EA1000530A2000030A3000A168A1124
:10009800B7240A128A11831203132108A901A90798
:1000A8002008A801A8070A168A1160270A128A11CF
:1000B8008312031326080F3E83160313B00083121E
:1000C800031327080318013E003E83160313B100EB
:1000D800772A00303702AA3003193602031C752824
:1000E8007628C32800303702D530031936020318A2
:1000F8007E287F28C3282B3083120313A6000030E4
:10010800A70083160313360983120313AE00831660
:100118000313370983120313AF00AE0A0319AF0A9A
:100128002E08D53EA0002F080318013E003EA1006E
:100138000A30A2000030A3000A168A11B7240A1256
:100148008A11831203132108A901A9072008A8010D
:10015800A8070A168A1160270A128A118312031344
:100168002608143E83160313B000831203132708CE
:100178000318013E003E83160313B100772A0030AE
:100188003702803003193602031CCB28CC281929E2
:1001980000303702AA30031936020318D428D528AC
:1001A80019292A3083120313A6000030A7008316EA
:1001B8000313360983120313AE008316031337099A
:1001C80083120313AF00AE0A0319AF0A2E08AA3E22
:1001D800A0002F080318013E003EA1000A30A2002B
:1001E8000030A3000A168A11B7240A128A11831252
:1001F80003132108A901A9072008A801A8070A16BE
:100208008A1160270A128A118312031326081E3ED8
:1002180083160313B0008312031327080318013E43
:10022800003E83160313B100772A003037026B3083
:1002380003193602031C212922296F2900303702AD
:1002480080300319360203182A292B296F29153003
:1002580083120313A6000030A70083160313360980
:1002680083120313AE008316031337098312031393
:10027800AF00AE0A0319AF0A2E08803EA0002F086F
:100288000318013E003EA1000A30A2000030A3007E
:100298000A168A11B7240A128A1183120313210835
:1002A800A901A9072008A801A8070A168A1160272A
:1002B8000A128A11831203132608283E8316031391
:1002C800B0008312031327080318013E003E83166B
:1002D8000313B100772A003037024D300319360274
:1002E800031C77297829C529003037026B30031998
:1002F8003602031880298129C5291E308312031369
:10030800A6000030A70083160313360983120313CF
:10031800AE0083160313370983120313AF00AE0A26
:100328000319AF0A2E086B3EA0002F080318013EE0
:10033800003EA1000A30A2000030A3000A168A116C
:10034800B7240A128A11831203132108A901A907E5
:100358002008A801A8070A168A1160270A128A111C
:10036800831203132608323E83160313B000831248
:10037800031327080318013E003E83160313B10038
:10038800772A00303702383003193602031CCD298A
:10039800CE291B2A003037024D30031936020318C4
:1003A800D629D7291B2A153083120313A60000303B
:1003B800A70083160313360983120313AE008316AE
:1003C8000313370983120313AF00AE0A0319AF0AE8
:1003D8002E084D3EA0002F080318013E003EA10044
:1003E8000A30A2000030A3000A168A11B7240A12A4
:1003F8008A11831203132108A901A9072008A8015B
:10040800A8070A168A1160270A128A118312031391
:1004180026083C3E83160313B000831203132708F3
:100428000318013E003E83160313B100772A0030FB
:1004380037022B3003193602031C232A242A772A71
:100448000030370238300319360203182C2A2D2AB7
:10045800772A0D3083120313A6000030A7008316F5
:100468000313360983120313AE00831603133709E7
:1004780083120313AF00AE0A0319AF0A2E08383EE1
:10048800A0002F080318013E003EA1000A30A20078
:100498000030A3000A168A11B7240A128A1183129F
:1004A80003132108A901A9072008A801A8070A160B
:1004B8008A1160270A128A11831203132608463EFE
:1004C80083160313B0008312031327080318013E91
:1004D800003E83160313B100772A772A772A772AF2
:1004E800772A772A772A0800FF3083120313E2005D
:1004F8006208EB00E901EA010A168A11C1250A120D
:100508008A11862AF01F892A8A2A9C2AF013023027
:100518000A128A1503270A128A110A128A158321D8
:100528000A128A110A128A11CA240A128A119C2AEA
:100538007D08031DA02AA92C7D080A128A1502200D
:100548000A128A1183120313E2006208EB00FD010C
:10055800A92CA92C0A128A1549200A128A11BF2C23
:100568000A128A15F9210A128A11831203135908EB
:10057800F33EE9005A080318013EFF3EEA00690904
:10058800E2006A09E300E20A0319E30A6208C83EC6
:10059800A30063080318013E003EA400A5010A1643
:1005A8008A11B0270A128A11BF2CA63083120313AE
:1005B800D900FF30DA000130DB000030DC000A121D
:1005C8008A1588230A128A11BF2C5A308312031302
:1005D800D9000030DA000130DB000030DC000A12FC
:1005E8008A1588230A128A11BF2C83160313B401B3
:1005F800B501992C0A128A15F9210A128A11831257
:1006080003135A08ED01ED075908EC01EC07EE0158
:10061800EF01E501E6016D08803AFF0080307F02B6
:10062800031D182BC9306C02031C1B2B1C2B272BFA
:10063800831203136C08643EEE006D080318013E34
:10064800003EEF00272B831203136D08803AFF004A
:1006580080307F02031D322BC8306C020318352B03
:10066800362B412B831203136C089C3EEE006D0859
:100678000318013EFF3EEF00412B831203136F085E
:10068800803AFF0081307F02031D4C2B90306E02B0
:10069800031C4F2B502B6E2B831203136F08803AC9
:1006A800FF0081307F02031D5B2BF4306E020318BC
:1006B8005E2B5F2B6E2B831203136E08703EEE00C9
:1006C8006F080318013EFE3EEF000130E5000030E0
:1006D800E6006E2B831203136F08803AFF00803008
:1006E8007F02031D792BC8306E02031C7C2B7D2BE7
:1006F800A52B831203136F08803AFF0081307F0215
:10070800031D882B90306E0203188B2B8C2BA52B86
:10071800831203136E09E2006F09E300E20A03196A
:10072800E30A6208903EEE0063080318013E013EAA
:10073800EF00EE09EF09EE0A0319EF0AE501E601F9
:10074800A52B831203136F08803AFF0080307F02C5
:10075800031DB02BC8306E020318B32BB42BBF2B6C
:1007680083120313EF1BB92BBA2BBF2B0130E50003
:100778000030E600BF2B83120313EF1FC42BC52BD9
:10078800D72B6F08803AFF007F307F02031DCE2BE6
:1007980038306E02031CD12BD22BD72B83120313B4
:1007A800E501E601D72B831203136F08803AFF0097
:1007B8007F307F02031DE22B38306E02031CE52BCD
:1007C800E62BBF2C831203136F08803AFF00813099
:1007D8007F02031DF12BF5306E02031CF42BF52B61
:1007E800F72BBF2CBF2C831203136C09E2006D0991
:1007F800E300E20A0319E30A6208903EA3006308D3
:100808000318013E013EA400A5010A168A11B0276B
:100818000A128A11033083120313E4008A30E300BA
:100828005630E200E20B162CE30B162CE40B162CC8
:100838001D2C831203136F08B701B7076E08B601A2
:10084800B6070A168A110F250A128A118312031392
:100858003608BF003708C0003808C1006630BC0041
:100868006630BD003F30BE000A128A1515260A12EE
:100878008A11831203133C08A8003D08A9003E080A
:10088800AA000A128A1522240A128A118312031353
:100898002908E801E8072808E701E7076808A3012D
:1008A800A3076708A201A2070A128A150F210A12D4
:1008B8008A11033083120313E4008A30E3005630B0
:1008C800E200E20B652CE30B652CE40B652C6C2C29
:1008D800831203136D08A401A4076C08A301A307DE
:1008E800A5010A168A11B0270A128A110330831249
:1008F8000313E4008A30E3005630E200E20B822C56
:10090800E30B822CE40B822C892CF4308312031322
:10091800D9000130DA00C830DB000030DC000A12F0
:100928008A15C8240A128A11992C831603134E08B3
:10093800031D9F2CFE2ABF2CBF2C0A168A111A27CA
:100948000A128A11BF2CBF2CBF2C831203136B0809
:10095800003A0319AE2A013A0319B42A033A0319D3
:10096800D92A013A0319E92A073A0319F92A013A57
:100978000319A12CBF2CFF3083120313E200620875
:10098800EB00862A862A0A128A1112284930840026
:10099800903083120313C5000408C6001030C70046
:1009A8004508840083170008C800C50A4608840063
:1009B800831348088000C60AC70BD42C1B2E0130AD
:1009C8000A168A11CA230A128A112B3083120313BA
:1009D800C5004508B40083160313310883120313B6
:1009E800B601B60783160313300883120313B50143
:1009F800B50783160313390883120313B801B80720
:100A080083160313380883120313B701B707493055
:100A18000A128A1129260A128A1100300A168A1126
:100A280078230A128A11493083120313A700003071
:100A3800A8000A168A113B250A128A1140300A16A4
:100A48008A1178230A128A11831603134108803AFF
:100A5800FF0080307F02031D332D01304002031C4C
:100A6800362D372D4A2D831603134008FF3EE13EED
:100A780084008313000883120313A7008030A800A2
:100A88000A168A113B250A128A115D2D8316031353
:100A98004008053EE13E84008313000883120313D7
:100AA800A7008030A8000A168A113B250A128A116D
:100AB8005D2D44300A168A1178230A128A1183168A
:100AC80003134008DB3E84008313000883120313DA
:100AD800A7008030A8000A168A113B250A128A113D
:100AE8004D300A168A1178230A128A1106308312A9
:100AF8000313A0000030A100831603134008013E31
:100B080083120313A2008316031341080318013E3E
:100B1800003E83120313A3000A128A15A7200A12A3
:100B28008A11831203132008E13E8400831300080E
:100B3800A7008030A8000A168A113B250A128A11DC
:100B4800282E01300A168A11CA230A128A11003087
:100B58000A168A1178230A128A111B30831203138A
:100B6800A7008030A8000A168A113B250A128A11AC
:100B780040300A168A1178230A128A1182308312A9
:100B88000313A7008030A8000A168A113B250A1211
:100B98008A1144300A168A1178230A128A1176308B
:100BA80083120313A7008030A8000A168A113B2578
:100BB8000A128A114D300A168A1178230A128A11EC
:100BC800863083120313A7008030A8000A168A1102
:100BD8003B250A128A11282E01300A168A11CA23C7
:100BE8000A128A1100300A168A1178230A128A1109
:100BF8000B3083120313A7008030A8000A168A114D
:100C08003B250A128A1144300A168A1178230A12DF
:100C18008A11383083120313A7008030A8000A16FF
:100C28008A113B250A128A11282E282E282E83166F
:100C380003135108003A0319E32C013A0319A52DAF
:100C4800033A0319F02D282E080083120313C3005A
:100C58003530B9003908BC000F2F4408253A03196C
:100C6800362E372E432E4408B9004308840039082D
:100C7800831380000130B9003908C3070F2FBD0165
:100C88004A2E232F5F2E5F2E0F2F5F2E0130B407C1
:100C9800FF30340784000A128A1133270A128A1196
:100CA800C400003A0319232F643A03195F2E0D3A42
:100CB80003195F2E0F2F3C08840083130008BF0020
:100CC800840A0008C0000230B9003908BC07C01FF8
:100CD8006E2E6F2E792E0330B9003908BD04BF0976
:100CE800C009BF0A0319C00A792EC4010314C40D30
:100CF8004408053A031D812E822E842EAC2EAC2E7C
:100D08004408B9003907013E84000A128A113327C2
:100D18000A128A11BA000A128A1133270A128A1192
:100D2800BB003B084002031D9B2E3A083F020318F4
:100D38009E2E9F2EA12EAC2EAC2E0130B900390864
:100D4800C4074408053A031DAA2EAB2E842EAC2EE8
:100D58003D0803390319B12EB22EBE2E2D30B9002D
:100D6800430884003908831380000130B90039082A
:100D7800C307BE2E4408B9003908BE00032F0A3045
:100D8800AE000030AF003E08B9003907013E8400CC
:100D98000A128A1133270A128A11A6000A128A1126
:100DA80033270A128A11A7004008A901A9073F089A
:100DB800A801A8070A168A1160270A128A11831245
:100DC80003132708B101B1072608B001B0070A16B6
:100DD8008A11D4260A128A11831203132E08303E70
:100DE800BA003A08C4004408B90043088400390826
:100DF800831380000130B9003908C307032FFF307F
:100E0800B9003908BE073E08FF3A031D0C2F0D2F05
:100E1800C32E0F2F0F2F0130B407FF303407840083
:100E28000A128A1133270A128A11B9003908C40034
:100E3800C408031D202F212F312E232F232F4308D1
:100E4800840083138001282F0800FF1B332F83138E
:100E58007F1883170008840A0319FF0A080007305F
:100E68008A000408840A82070034013400340A34F2
:100E7800003464340034E834033410342734203424
:100E88004334683461347234673469346E34673497
:100E980020344D346F3464346534203400345A348B
:100EA800653472346F342034533474346534703498
:100EB8005F344D346F3474346F34723400344934D1
:100EC80052343A342534643463346D342034443431
:100ED8003A342534643400342034203445345834CA
:100EE80049345434203420340034203443346834B2
:100EF80061347234673465342034003453346334D5
:100F080061346E345F34333436343034003443342F
:100F180061346C34693462345F3449345234003497
:100F280046346C3477345F34573461346C346C3401
:100F38000034443472346934763465345F3432347E
:100F48006D340034443472346934763465345F3433
:100F58004C34003443344F344E34463449345234DC
:100F68004D34003444347234323400343C343C342C
:100F78003C3400343E343E343E340034443472341D
:100F88004C340034433468346734003443346134B7
:100F98006C340034533463346E34003446346C3467
:100FA80077340034831603138717BF308312031373
:100FB800A00020088316031387051815143099001C
:100FC80018138312031318138316031318128312AA
:100FD800031398171816831603130C128C169816F9
:100FE8000030DA00D900D50083120313A0002008CE
:080FF80083160313D400080066
:1010040083120313A000342846284628FF30831691
:101014000313C0070318C10AFF30C107C11F1328F7
:10102400142846280530C0000030C1004628462850
:10103400013083160313C0070318C10A0030C10727
:10104400063040064104031D282829284628C001EB
:10105400C101462846288316031340084828482817
:101064004628462883122008013A03194628033AE1
:1010740003194628013A03190828073A03191A28BC
:10108400013A03192D284628FF3048280800831602
:101094000313D1010314D10D083083120313A300E9
:1010A4000030A400A5010A168A11B0270A128A1575
:1010B4005B28F01F5E285F289328F0130A128A1118
:1010C400CA240A128A1593289328FD015B28FD017E
:1010D4005B28013083120313A3000030A400A50190
:1010E4000314A50D0A168A11B0270A128A15FD01E8
:1010F4005B28013083120313A3000030A400A50170
:101104000A168A11B0270A128A15FD015B28831674
:101114000313C401C501FD01D101A628A6285B283B
:101124005B287D08013A03196728033A03196928E3
:10113400013A03196B28073A03197B28013A03196A
:1011440089285B285B285B28080083120313A60107
:10115400A31FAD28AE28B728A209A309A20A031920
:10116400A30AA6010314A60DB728A11FBA28BB28F9
:10117400C128A009A109A00A0319A10AC1282108AC
:1011840020040319C628C728FD28A5010314A50DAA
:10119400D72801300310A00DA10DFF3E031DCC285C
:1011A4000130A4002408A507D728A11FDA28DB28CA
:1011B400CB28DD28DD2821082302031DE32820088D
:1011C4002202031CE628E728EE282008A2022108B0
:1011D400031CA303A302EE2801300310A10CA00CEE
:1011E400FF3E031DEF280130A502031DFA28FB284A
:1011F400DD28FD28FD282608031D01290729A20949
:10120400A309A20A0319A30A07292308A101A10714
:101214002208A001A0070E29080083120313230843
:10122400803AFF0080307F02031D1A290130220218
:10123400031C1D291E293D2989300A168A11672598
:101244000A128A1500300A168A1167250A128A15AD
:1012540032300A168A1167250A128A1500300A16D6
:101264008A1167250A128A1501300A168A11672520
:101274000A128A15822983120313A31F42294329C0
:10128400622989300A168A1167250A128A150030E4
:101294000A168A1167250A128A1532300A168A112B
:1012A40067250A128A15FF300A168A1167250A1261
:1012B4008A15FF300A168A1167250A128A158229AF
:1012C40089300A168A1167250A128A1500300A160F
:1012D4008A1167250A128A1500300A168A116725B1
:1012E4000A128A1500300A168A1167250A128A150D
:1012F40000300A168A1167250A128A158229822962
:10130400080083120313B001B101B401B501B201A5
:10131400B301B601B7013708803AFF0080307F027D
:10132400031D962908303602031C99299A299C2901
:10133400D229D2290A168A11F4230A128A15831291
:1013440003132908B501B5072808B401B40703300D
:101354003502E930031934020318B129B229BE2930
:101364003408B0070318B10A3508B1070130B207D1
:101374000318B30A0030B3070130B6070318B70ADD
:101384000030B7073708803AFF0080307F02031D22
:10139400CD2908303602031CD029D1299C29D22911
:1013A400831203133308A701A7073208A601A6076F
:1013B4003108A901A9073008A801A8070A168A114B
:1013C40060270A128A15831203132708831603134E
:1013D400B701B70783120313260883160313B60154
:1013E400B6070A128A1115200A128A1508008312F8
:1013F4000313DB01DC01DD01DE01DF01E001600834
:10140400803AFF0080307F02031D0A2AC8305F0241
:10141400031C0D2A0E2A102A692A692A0A128A151F
:1014240083210A128A1583160313370883120313C0
:101434005C02031D232A8316031336088312031345
:101444005B020318262A272A3C2A8316031337082B
:1014540083120313DC01DC0783160313360883129B
:101464000313DB01DB076008DE01DE075F08DD0133
:10147400DD073C2A0230A3000030A400A5010314B8
:10148400A50D0A168A11B0270A128A15F01F4B2AD5
:101494004C2A532AF0130A128A11CA240A128A15F2
:1014A400532A023083120313DF070318E00A0030C3
:1014B400E0076008803AFF0080307F02031D642A41
:1014C400C8305F02031C672A682A102A692A83121B
:1014D40003135E08DA01DA075D08D901D907722A15
:1014E4000800831203132308031D792A812A220882
:1014F40021042004031D7F2A802A972A812A003090
:10150400A0000030A1000030A200EF2AEF2A972AA1
:101514000130A5002508A30701300310A20CA10C7B
:10152400A00CFF3E031D8F2A972AFE302205031DBF
:101534009C2A9D2A8A2AB52AB52A0130A5002508A5
:10154400A3070130A007003003180130A1070030C1
:1015540003180130A20701300310A20CA10CA00C47
:10156400FF3E031DAE2AFF302205031DBA2ABB2A03
:101574009F2AC82AC82A0130A30201300310A00DF3
:10158400A10DA20DFF3E031DC02AC82AA11FCB2A0C
:10159400CC2ABD2A2318CF2AD02AD62AFF30A00568
:1015A4007F30A105FF30A2050310A30C2308A5007A
:1015B400A601A70110300310A50DA60DA70DFF3E2F
:1015C400031DDD2A2508A0042608A1042708A20477
:1015D4002408031DEE2AEF2AA2170800831203131E
:1015E4000619F52AF62A0A2B0130F200720883162E
:1015F4000313D0070A305002031C012B022B0E2BBD
:10160400711E052B062B0E2BF11571120E2B0E2BB2
:1016140083160313D0017116831203138619132B37
:10162400142B282B0130F200720883160313CC0705
:101634000A304C02031C1F2B202B2C2BF01D232BB8
:10164400242B2C2B7015F0112C2B2C2B831603130D
:10165400CC01F01583120313061A312B322B462BBF
:101664000130F200720883160313CD070A304D02CD
:10167400031C3D2B3E2B4A2BF01E412B422B4A2BA5
:101684007016F0124A2B4A2B83160313CD01F01661
:1016940083120313861A4F2B502B642B0130F20054
:1016A400720883160313CF070A304F02031C5B2B07
:1016B4005C2B682B711D5F2B602B682BF11471114F
:1016C400682B682B83160313CF0171158312031340
:1016D400061B6D2B6E2B822B0130F20072088316D1
:1016E4000313C9070A304902031C792B7A2B872B71
:1016F400F01C7D2B7E2B872B7014F010872B872BEF
:1017040083160313C901F014872B080083160313EF
:10171400B801B90183120313E001E1015A08A301DE
:10172400A3075908A201A2070A128A150F210A1257
:101734008A15DF2B01300A128A1503270A128A152B
:10174400831603134808031DA82BAC2BCE010314E6
:10175400CE0D162C460883120313DD00DE015D084E
:10176400E0005E08E1006108DE006008DD005D085D
:10177400DE00DD015D08E0005E08E100831603136E
:10178400470883120313DD00DE015D08E007031838
:10179400E10A5E08E107600883160313B80703181B
:1017A400B90A83120313610883160313B9070A12D3
:1017B4008A11CA240A128A15DF2B831203135A08CA
:1017C400A701A7075908A601A6070A168A11202609
:1017D4000A128A15831203132608DD002708DE0087
:1017E40083160313390883120313A701A70783166B
:1017F4000313380883120313A601A6070A168A11D5
:1018040020260A128A15831203135E08803ADF0029
:101814002708803A5F02031D112C26085D02031875
:10182400142C152C9C2B162C003083120313A200AD
:101834000030A3000A128A150F210A128A15080023
:10184400831203132808AC002908AD002A08AE004F
:1018540003102D0D2E0DAF002F08B500B508031D84
:10186400342C352C3F2C0030AB000030AA00003063
:10187400A9000030A800C72CC72C2808AC002908F0
:10188400AD002A08AE0017300310AE0CAD0CAC0C42
:10189400FF3E031D462C2C08AF002F08B000A917EB
:1018A400FF30A805FF30A9050030AA052808B100BB
:1018B4002908B2002A08B300B4018E30B502B51F5E
:1018C400642C652C8A2C3508803A8F3E03186B2CC7
:1018D4006C2C772C0030AB000030AA000030A9003B
:1018E4000030A800C72CC72C772C01300310B40C8F
:1018F400B30CB20CB10CFF3E031D782C0130AC00CC
:101904002C08B507031D872C882C772CAE2CAE2C05
:1019140018303502031C8F2C902CA72C0030AB0000
:101924000030AA000030A9000030A800C72CC72C42
:10193400A72C0130AC000310B10DB20DB30DB40DE2
:10194400AC0B9D2C0130B502A72CB508031DAB2CA4
:10195400AC2C9B2CAE2CAE2C3008031DB22CBE2C10
:10196400B109B209B309B409B10A0319B20A0319D6
:10197400B30A0319B40ABE2C3408AB003308AA0016
:101984003208A9003108A800C72C080083160313E5
:10199400BA01BB01831203135C08A301A3075B080C
:1019A400A201A2070A168A1194250A128A152B2D60
:1019B40000300A128A1503270A128A1583160313A4
:1019C4004808031DE62CEA2CCE010314CE0D622D2B
:1019D4004A0883120313DD00DE015D08E0005E089F
:1019E400E1006108DE006008DD005D08DE00DD0165
:1019F4005D08E0005E08E100831603134B088312C0
:101A04000313DD00DE015D08E0070318E10A5E0848
:101A1400E107600883160313BA070318BB0A83128D
:101A24000313610883160313BB07831203136008AF
:101A340083160313B4070318B50A8312031361084A
:101A440083160313B5070A128A11CA240A128A15C7
:101A54002B2D831203135A08A701A7075908A601BF
:101A6400A6070A168A1120260A128A15831203135E
:101A74002608DD002708DE00831603133B088312C3
:101A84000313A701A707831603133A08831203134A
:101A9400A601A6070A168A1120260A128A1583129D
:101AA40003135E08803ADF002708803A5F02031DB3
:101AB4005D2D26085D020318602D612DDA2C622D40
:101AC400003083120313A2000030A3000A168A1107
:101AD40094250A128A1508000B1D712D722DC12D33
:101AE4000B1164308100013083160313B20703180D
:101AF400B30A0030B3077017FA30F2000030F30075
:101B04003308F501F5073208F401F4070A168A11BF
:101B140090260A128A1573087204031D922D932DC0
:101B2400952DF017952DF430F2000130F300831653
:101B340003133308F501F5073208F401F4070A1614
:101B44008A1190260A128A1573087204031DAB2D9C
:101B5400AC2DB22D71148312031301308606B22DFD
:101B6400FD08031DB62DB72DC12D0A168A11F025C7
:101B74000A128A15F8007808FD00C12DC12D8312C0
:101B840003138C1EC62DC72DE32D1A08F8008316E7
:101B940003135408A03E840078088313800054087B
:101BA400013E0F39F8007808D60056085506031987
:101BB400DC2DDD2DE32D5608F8007808D400E32D44
:101BC400E32D83120C1EE72DE82D092E8316031333
:101BD4000C1EED2DEE2D092E5A08A03E840083170D
:101BE40000088312031399000130F8007808831663
:101BF4000313DA070F30F8007808DA055A08590693
:101C0400031D052E062E092E0C12092E092E7C0802
:101C14008312FF007B088A007A088400790E83000F
:101C2400FE0E7E0E0900831203133C08C2003D0819
:101C3400C3003E08C4000310430D440DC50045080D
:101C4400C600C608031D272E282E302E0030BC00E7
:101C54000030BD000030BE00022F022F3F08C2003A
:101C64004008C3004108C4000310430D440DC500DF
:101C74004508CB00CB08031D402E412E492E0030D1
:101C8400BC000030BD000030BE00022F022F4B0804
:101C94007B3EC2004208C6073C08C2003D08C300A0
:101CA4003E08C40010300310C40CC30CC20CFF3E29
:101CB400031D552E4208C5004508CB003F08C2004D
:101CC4004008C3004108C40010300310C40CC30C06
:101CD400C20CFF3E031D672E4208C5004508CB0613
:101CE4008030C2004208CB05BD17C017FF30BF05C6
:101CF400FF30C0050030C1050030C7000030C80007
:101D04000030C9000730C2004208CA00892E3C1CBA
:101D14008C2E8D2E9E2E3F08C707400803110318F2
:101D2400400A0319962EC807410803110318410AF3
:101D340003199D2EC9079E2E01300310BE0CBD0C45
:101D4400BC0CFF3E031D9F2E01300310BF0DC00DC0
:101D5400C10DFF3E031DA72E0130CA02031DB32E81
:101D6400B42E892EB52E0930C2004208CA00BA2EFC
:101D74003C1CBD2EBE2ECF2E3F08C70740080311C2
:101D84000318400A0319C72EC80741080311031892
:101D9400410A0319CE2EC907CF2E01300310BE0C01
:101DA400BD0CBC0CFF3E031DD02E01300310C90C2A
:101DB400C80CC70CFF3E031DD82E0130CA02031DF8
:101DC400E42EE52EBA2EE62E4708A0004808A1000E
:101DD4004908A2004608C2004208A3004B08C300F9
:101DE4004308A4000A128A1573220A128A15831260
:101DF40003132008BC002108BD002208BE00022FE6
:101E0400080083120313A4008E300A168A11672572
:101E14000A128A1507300A168A1167250A128A15CA
:101E2400213083120313A3007630A200A20B182FD3
:101E3400A30B182F64000A168A11E3240A128A15C8
:101E440083120313A200220883160313C80083120B
:101E54000313A408031D2F2F302F602F8E300A1672
:101E64008A1167250A128A1513300A168A11672502
:101E74000A128A15213083120313A3007630A200BC
:101E8400A20B422FA30B422F64000A168A11E324EB
:101E94000A128A1583120313A2002208831603135D
:101EA400CA000A168A11E3240A128A15831203133C
:101EB400A200220883160313CB00FF2F83122408E9
:101EC400013A031D662F672F972F8E300A168A1149
:101ED40067250A128A1514300A168A1167250A1210
:101EE4008A15213083120313A3007630A200A20BBB
:101EF400792FA30B792F64000A168A11E3240A129E
:101F04008A1583120313A200220883160313C60042
:101F14000A168A11E3240A128A1583120313A200F3
:101F2400220883160313C700FF2F83122408023AE2
:101F3400031D9D2F9E2FFF2F8E300A168A116725B1
:101F44000A128A1513300A168A1167250A128A158D
:101F5400213083120313A3007630A200A20BB02F0A
:101F6400A30BB02F64000A168A11E3240A128A15FF
:101F740083120313A200220883160313CA000A164D
:101F84008A11E3240A128A1583120313A200220879
:101F940083160313CB008E300A168A1167250A12A2
:101FA4008A1514300A168A1167250A128A152130F7
:101FB40083120313A3007630A200A20BDF2FA30B1E
:101FC400DF2F64000A168A11E3240A128A15831289
:101FD4000313A200220883160313C6000A168A11EB
:101FE400E3240A128A1583120313A200220883161B
:0C1FF4000313C700FF2FFF2FFF2F080072
:1026E00064008001840A0406031900340406712B77
:1026F00083120313A300A31723080A168A11CA23FF
:102700000A168A11080053344A3465346E345C3436
:102710004134923496347E348A349A348E343C3444
:1027200083120313A20009118910091422088800DA
:10273000091509110730A1007D30A000A00B9E2BC8
:10274000A10B9E2B08007E088A007F0882000A16D3
:102750008A11A3230A168A118000840A04087D06C0
:1027600003190034FF0A0319FE0AA72B831203136F
:10277000A200A1018C1122089300BE2B8C1DC12B3D
:10278000C22BBE2BC32B1308A0002008A1008C1164
:10279000C92B080083120313A20009118910091024
:1027A00022088800091509110D30A100FB30A00096
:1027B000A00BD82BA10BD82BDD2B08008312031301
:1027C00085013F30831603138500A1308312031364
:1027D0009F000230831603139F00533083120313AC
:1027E000A000A00BF12B080000300A168A11552614
:1027F0000A168A1183120313AA00AB012A08AC003F
:102800002B08AD002D08A901A9072C08A801A807CD
:10281000092C080083120313981C0F2C102C152C64
:10282000181218160310222C222C83160313540896
:102830005506031D1C2C1D2C1F2C0310222C0314C9
:10284000222C222C080080300A168A1167250A16CD
:102850008A1184300A168A1167250A168A11963061
:102860000A168A1167250A168A1100300A168A117B
:1028700067250A168A110800F001F101FD01831392
:10288000A0308400DB300A168A1170230A168A11E0
:10289000831790308400B0300A168A1170230A160C
:1028A0008A118313E830FD001330FE008330FF00EF
:1028B000DB3084000A168A11A7230A168A118301C5
:1028C0000A128A11782A831203139E011F15682C9D
:1028D0001F196B2C6C2C682C000000000000831268
:1028E00003131E08A200A3012208A4002308A500C8
:1028F00001300310A40DA50DFF3E031D792C831696
:1029000003131E08831203132508A101A10724083D
:10291000A001A0078B2C08000230831603139F0030
:102920008312031388018901831603138801890127
:1029300001300A168A11CA230A168A1138300A167B
:102940008A11CA230A168A110C300A168A11CA2360
:102950000A168A1106300A168A11CA230A168A1123
:1029600002300A168A11CA230A168A110800831235
:102970000313A401A501BC2C201CBF2CC02CC62C09
:102980002208A4070318A50A2308A507013003108D
:10299000A20DA30DFF3E031DC72C01300310A10C97
:1029A000A00CFF3E031DCE2C21082004031DD92CB2
:1029B000DA2CBC2CDB2C2508A101A1072408A001DE
:1029C000A007E22C0800E52CE52C0A168A110A243F
:1029D0000A168A11031CED2CEE2CE52C8B138316A2
:1029E00003135508A03E84008313000883120313C9
:1029F000A0002008A1000130A000200883160313C6
:102A0000D5070F3083120313A00020088316031389
:102A1000D5058B178312031321080E2D080083128E
:102A20000313BB01B71F152D162D1F2DB609B709AE
:102A3000B60A0319B70ABB010314BB0D1F2D3608D4
:102A4000A0003708A100A2018E30B9003908A30008
:102A50003B08BA003A08A4000A128A1573220A1623
:102A60008A11831203132008B6002108B700220838
:102A7000B8003A2D0800552D831203132808FF00D3
:102A8000270884000A128A1129270A168A110A16B1
:102A90008A1190230A168A11013083120313A707A3
:102AA0000318A80A0030A807552D8312031328081D
:102AB000FF00270884000A128A1129270A168A11A2
:102AC0000038031D642D652D3C2D662D08008312F2
:102AD0000313A1006C2D6C2D831603135908013EBE
:102AE0000F395A060319752D762D6C2D8B13831211
:102AF00003132108A000831603135908A03E840085
:102B000083120313200883178000831603135908C8
:102B1000013E0F3983120313A0002008831603130C
:102B2000D9000C168B170800831203132208A40087
:102B30002408A5002308A4002408A60089300A164A
:102B40008A1167250A168A118312031326080A16AA
:102B50008A1167250A168A118312031325080A169B
:102B60008A1167250A168A1180300A168A1167258C
:102B70000A168A1100300A168A1167250A168A1168
:102B80000800FD01FC308316031386009030831289
:102B90000313A30023088316031387054030940012
:102BA000A1308312031394000430831603138100B1
:102BB0000A128A11D6270A168A110A168A11DE23EA
:102BC0000A168A110A168A118C240A168A110A1604
:102BD0008A1123240A168A118B160B178B170800EB
:102BE0000A128A15F0220A168A11F11DF82DF92D04
:102BF000FD2DF11101301F2E1F2E701D002E012EF4
:102C0000052E701102301F2E1F2E701E082E092E49
:102C10000D2E701203301F2E1F2EF11C102E112EA0
:102C2000152EF11004301F2E1F2E701C182E192E79
:102C30001D2E701005301F2E1F2E00301F2E080075
:102C4000003083120313A71B0130A800A901A809B3
:102C5000A909A80A0319A90A2708803AFF008030A9
:102C60007F02031D352E013026020030031801308B
:102C7000831203132807A00029080318290AA100BA
:102C80002708A301A3072608A201A2070A168A1192
:102C9000B7240A168A11831203132108A701A70774
:102CA0002008A601A607542E080083120313A700CC
:102CB000712E9F111F129F12822E9F151F129F129D
:102CC000822E9F111F169F12822E9F151F169F1274
:102CD000822E9F111F129F16822E00308F2E8F2E54
:102CE000822E2708003A0319592E013A03195D2E46
:102CF000033A0319612E013A0319652E073A0319A5
:102D0000692E6D2E5330A600A60B842E0A168A114A
:102D100063240A168A118312031320088F2E0800D9
:102D2000730872040319952E962ECC2EF701031406
:102D3000F70DA62E01300310F20DF30DFF3E031D1B
:102D40009B2E0130F6007608F707A62EF31FA92E5A
:102D5000AA2E9A2EAC2EAC2E73087502031DB22E2D
:102D600072087402031CB52EB62EBD2E7208F40232
:102D70007308031CF503F502BD2E01300310F30C9C
:102D8000F20CFF3E031DBE2E0130F702031DC92EBB
:102D9000CA2EAC2ECC2ECC2E7508F301F307740886
:102DA000F201F207D32E0800831203132F082E041A
:102DB0000319DB2EDC2E122FB3010314B30DEC2EFE
:102DC00001300310AE0DAF0DFF3E031DE12E0130AB
:102DD000B2003208B307EC2EAF1FEF2EF02EE02E1C
:102DE000F22EF22E2F083102031DF82E2E0830028B
:102DF000031CFB2EFC2E032F2E08B0022F08031CF1
:102E0000B103B102032F01300310AF0CAE0CFF3E33
:102E1000031D042F0130B302031D0F2F102FF22EBC
:102E2000122F122F3108AF01AF073008AE01AE07E5
:102E3000192F0800023083120313D9005908831692
:102E40000313D10080300A168A1167250A168A11E9
:102E5000292FF01F2C2F2D2F4C2FF0130A128A111F
:102E6000CA240A168A114C2F4C2FFD01292FFD016F
:102E7000292FFD01292FFD01292F84300A168A11DF
:102E800067250A168A11FD0183160313D1015F2FEE
:102E90005F2FFD01292F292F7D08013A0319352FB6
:102EA000033A0319372F013A0319392F073A031947
:102EB0003B2F013A03193D2F492F292F292F0800B5
:102EC00083120313AB01AC01270826040319692FF1
:102ED0006A2FA82FAD010314AD0D7A2F0130031016
:102EE000A60DA70DFF3E031D6F2F0130AA002A0873
:102EF000AD077A2FA71F7D2F7E2F6E2F802F802F5B
:102F000001300310AB0DAC0DFF3E031D812F2708D0
:102F10002902031D8D2F26082802031C902F912FB4
:102F2000992F2608A8022708031CA903A9022B141D
:102F3000992F01300310A70CA60CFF3E031D9A2FFA
:102F40000130AD02031DA52FA62F802FA82FA82F7B
:102F50002C08A701A7072B08A601A607AF2F08007A
:102F60008312031307148714A508031DB82FB92F64
:102F7000C02F0B300A168A11B6230A168A11C72FE2
:102F800009300A168A11B6230A168A11C72F83122E
:102F9000031307108710A801A901E42F07150000EB
:102FA0008312031307116230A7006530A600A60B39
:102FB000D72FA70BD72FDC2F013083120313A807BD
:102FC0000318A90A0030A90724082902031DEA2FC3
:102FD00023082802031CED2FEE2FCE2F0714871491
:102FE00000300A168A11B6230A168A1183120313B7
:102FF000071087100715000083120313071108003C
:02400E0032FF7F
:00000001FF
