:060000000A128A11122809
:10000800FE00030EF9000408FA000A08FB00831238
:1000180003137F08FC000A128A1516290A168A118A
:100028002C2A83160313BE01BF01831203135A0837
:10003800B001B0075908AF01AF07FF30B1007F30FA
:10004800B2000A168A11ED220A128A1183160313C6
:10005800D2012E280A168A1167260A128A118312DB
:1000680003136B085C02031D3B286A085B02031834
:100078003E283F2861285B080F3EDD005C08031816
:10008800013E003EDE005E086B02031D4D285D0840
:100098006A0203185028512861285A08B001B0078D
:1000A8005908AF01AF07A430B1000630B2000A16F4
:1000B8008A11ED220A128A11D728831203135C08C9
:1000C8006B02031D69285B086A0203186C286D28F7
:1000D8008F285B08F13EDD005C080318013EFF3EF7
:1000E800DE006B085E02031D7B286A085D020318A8
:1000F8007E287F288F285A08B001B0075908AF0119
:10010800AF075C30B100F930B2000A168A11ED224F
:100118000A128A11D728831203135B08CE3EDD002A
:100128005C080318013EFF3EDE006B085E02031DFB
:100138009F286A085D020318A228A328B6285B082E
:100148000F3EDD005C080318013E003EDE005E083D
:100158006B02031DB1285D086A02031CB428B52888
:10016800C428B6288D300A168A11FF210A128A116E
:1001780000300A168A11FF210A128A117529D72818
:10018800831203135A08B001B0075908AF01AF072B
:10019800FF30B1007F30B2000A168A11ED220A1230
:1001A8008A11D728D72802300A128A11C2260A12C1
:1001B8008A11831203136C08031DE328E9288316A8
:1001C8000313D2010314D20D752983126F08031D7E
:1001D800EE28F5280230DD005D0883160313D200EF
:1001E8007529831603134F08031DFB2804290330C0
:1001F80083120313DD005D0883160313D2007529EB
:10020800831203136D08DD00DE015D08E0005E085F
:10021800E1006108DE006008DD005D08DE00DD0148
:100228005D08E0005E08E1006E08DD00DE015D08A3
:10023800E0070318E10A5E08E10760088316031364
:10024800C0070318C10A8312031361088316031336
:10025800C10783120313600883160313BC0703182E
:10026800BD0A83120313610883160313BD074C08E4
:1002780083120313DD00DE015D08E0005E08E10083
:100288006108DE006008DD005D08DE00DD015D0854
:10029800E0005E08E100831603134D088312031380
:1002A800DD00DE015D08E0070318E10A5E08E107EA
:1002B800600883160313BE070318BF0A83120313CB
:1002C800610883160313BF073F08B701B7073E0845
:1002D800B601B6070A128A150B260A128A112E28A9
:1002E8002E28043083120313A6000030A7005A08F2
:1002F800A101A1075908A001A0070330A2000030FE
:10030800A3000A168A117B210A128A118312031389
:100318002108A901A9072008A801A8070A168A1117
:10032800F1250A128A11831203132708B001B007B6
:100338002608AF01AF077030B100FE30B2000A16D0
:100348008A11ED220A128A1183160313BE01BF0116
:10035800132A01300A128A11C2260A128A1183123C
:1003680003136C08031DB929BF2983160313D2018F
:100378000314D20D462A83126F08031DC429CB2902
:100388000230DD005D0883160313D200462A831667
:1003980003134F08031DD129DA29033083120313ED
:1003A800DD005D0883160313D200462A4C08831229
:1003B8000313DD00DE015D08E0005E08E10061086E
:1003C800DE006008DD005D08DE00DD015D08E0009C
:1003D8005E08E100831603134D0883120313DD0042
:1003E800DE015D08E0070318E10A5E08E10760081E
:1003F80083160313BE070318BF0A83120313610889
:1004080083160313BF073F08B701B7073E08B601B5
:10041800B6070A128A150B260A128A11132A83169E
:1004280003133F0883120313A701A70783160313B7
:100438003E0883120313A601A6070A168A11B822DA
:100448000A128A11831203132608DD002708DE002A
:10045800BA30A600FF30A7000A168A11B8220A127D
:100468008A11831203135E08803ADF002708803A56
:100478005F02031D412A26085D02031C442A452AFF
:10048800AD29462A003083120313AF000030B000B4
:10049800FF30B1007F30B2000A168A11ED220A122D
:1004A8008A1183160313520883120313DD00DE0139
:1004B8005D0883160313B600831203135E088316C0
:1004C8000313B7000A128A150B260A128A110800AC
:1004D800FF3083120313E4006408E900E701E80130
:1004E8000A168A1159220A128A110A168A11252116
:1004F8000A128A117F2AF01F822A832A952AF0136A
:1005080002300A128A11C2260A128A110A168A11A0
:1005180067260A128A110A128A150B260A128A11EC
:10052800952A7D08031D992A7E2C7D080A168A11B2
:10053800B0230A128A1183120313E4006408E90045
:10054800FD017E2C7E2C0A168A1111250A128A11A9
:10055800942C8D300A168A11FF210A128A11003054
:100568000A168A11FF210A128A11942C3830831234
:100578000313D900FF30DA003830DB00FF30DC002D
:100588000A128A1565220A128A11942CBA3083122B
:100598000313D900FF30DA009030DB000130DC00B3
:1005A8000A128A15BD210A128A111A3083120313FE
:1005B800E6005E30E5008630E400E40BE12AE50B56
:1005C800E12AE60BE12A6400B03083120313D90054
:1005D800FF30DA009030DB000130DC000A128A15A7
:1005E800BD210A128A111A3083120313E6005E3005
:1005F800E5008630E400E40BFF2AE50BFF2AE60B52
:10060800FF2A6400A63083120313D900FF30DA00F2
:100618009030DB000130DC000A128A15BD210A1275
:100628008A111A3083120313E6005E30E500863023
:10063800E400E40B1D2BE50B1D2BE60B1D2B6400C2
:100648009C3083120313D900FF30DA009030DB00AE
:100658000130DC000A128A15BD210A128A11942C75
:100668000A168A11B1200A128A116C2C552C0A1606
:100678008A1167260A128A11C83083120313D90017
:100688000030DA006B08DC01DC076A08DB01DB07F5
:100698000A128A1546240A128A116C2C831603132F
:1006A800D2010314D20D6C2CD2010314D20D6C2C80
:1006B800D201383083120313AF00FF30B000FF308F
:1006C800B1007F30B2000A168A11ED220A128A118F
:1006D8001A3083120313E6005E30E5008630E4002A
:1006E800E40B742BE50B742BE60B742B6400383089
:1006F80083120313D900FF30DA003830DB00FF30F3
:10070800DC000A128A1565220A128A11831603135D
:100718003E0983120313E400831603133F0983126F
:100728000313E500E40A0319E50A6408D90065081B
:10073800DA009030DB000130DC000A128A15BD2196
:100748000A128A112C3083120313D9000130DA00FF
:10075800C830DB000030DC000A128A1565220A1254
:100768008A110A168A1167260A128A11C83083125A
:100778000313D9000030DA006A08F63EDB006B0884
:100788000318013EFF3EDC000A128A1546240A12AD
:100798008A116C2C503083120313D9000030DA0010
:1007A8009030DB000130DC000A128A15BD210A12E4
:1007B8008A110A168A1167260A128A11C83083120A
:1007C8000313D9000030DA006A08F63EDB006B0834
:1007D8000318013EFF3EDC000A128A1546240A125D
:1007E8008A116C2C193083120313A3000030A40063
:1007F800A5010A168A1142240A128A110A168A11B8
:1008080067260A128A11C83083120313D9000030F0
:10081800DA006B08DC01DC076A08DB01DB070A1277
:100828008A1115200A128A11193083120313A300A2
:100838000030A400A5010314A50D0A168A1142244C
:100848000A128A110A168A1167260A128A11C830F2
:1008580083120313D9000030DA006B08DC01DC07CF
:100868006A08DB01DB070A128A1546240A128A1174
:100878006C2C0A168A1167260A128A11C83083124C
:100888000313D9000030DA006B08DC01DC076A08C2
:10089800DB01DB070A128A1546240A128A116C2C1E
:1008A8006C2C831603135208003A03193B2B013AA8
:1008B8000319522B033A0319582B013A03195C2BDD
:1008C800093A0319CE2B013A0319F62B3D2C6C2C4F
:1008D800831603135208013A031D732C742C552CEC
:1008E800D201942C0A168A11F7230A128A11942C21
:1008F800942C942C831203136908003A0319A72A2D
:10090800013A0319AD2A033A0319BA2A013A03191D
:10091800CA2A073A0319342B013A0319762C942C66
:10092800FF3083120313E4006408E9007F2A7F2A5A
:100938000A128A1112280030831203136B02D53071
:1009480003196A02031CA92CAA2CED2C00306B0297
:10095800EA3003196A020318B22CB32CED2C1530B7
:10096800A6000030A7006A09AE006B09AF00AE0A06
:100978000319AF0A2E08EA3EA0002F080318013E0B
:10098800003EA1000530A2000030A3000A168A111B
:100998007B210A128A11831203132108A901A907CE
:1009A8002008A801A8070A128A15C6200A128A1167
:1009B8008312031326080F3E83160313B80083120D
:1009C800031327080318013E003E83160313B900DA
:1009D800C12E003083126B02AA3003196A02031C6D
:1009E800F62CF72C3A2D00306B02D53003196A0229
:1009F8000318FF2C002D3A2D2B30A6000030A7003D
:100A08006A09AE006B09AF00AE0A0319AF0A2E08D7
:100A1800D53EA0002F080318013E003EA1000A3071
:100A2800A2000030A3000A168A117B210A128A113B
:100A3800831203132108A901A9072008A801A80700
:100A48000A128A15C6200A128A118312031326086D
:100A5800143E83160313B8008312031327080318E0
:100A6800013E003E83160313B900C12E00308312E5
:100A78006B02803003196A02031C432D442D872D15
:100A880000306B02AA3003196A0203184C2D4D2D51
:100A9800872D2A30A6000030A7006A09AE006B092E
:100AA800AF00AE0A0319AF0A2E08AA3EA0002F080D
:100AB8000318013E003EA1000A30A2000030A30046
:100AC8000A168A117B210A128A118312031321083C
:100AD800A901A9072008A801A8070A128A15C62093
:100AE8000A128A118312031326081E3E8316031363
:100AF800B8008312031327080318013E003E83162B
:100B08000313B900C12E003083126B026B30031936
:100B18006A02031C902D912DD42D00306B02803079
:100B280003196A020318992D9A2DD42D1530A600A1
:100B38000030A7006A09AE006B09AF00AE0A0319BE
:100B4800AF0A2E08803EA0002F080318013E003E81
:100B5800A1000A30A2000030A3000A168A117B21E6
:100B68000A128A11831203132108A901A907200870
:100B7800A801A8070A128A15C6200A128A11831228
:100B880003132608283E83160313B80083120313A1
:100B980027080318013E003E83160313B900C12E2F
:100BA800003083126B024D3003196A02031CDD2DDD
:100BB800DE2D212E00306B026B3003196A020318F8
:100BC800E62DE72D212E1E30A6000030A7006A0969
:100BD800AE006B09AF00AE0A0319AF0A2E086B3ED0
:100BE800A0002F080318013E003EA1000A30A20011
:100BF8000030A3000A168A117B210A128A11831277
:100C080003132108A901A9072008A801A8070A12A7
:100C18008A15C6200A128A11831203132608323E47
:100C280083160313B8008312031327080318013E21
:100C3800003E83160313B900C12E003083126B02E5
:100C4800383003196A02031C2A2E2B2E6E2E003010
:100C58006B024D3003196A020318332E342E6E2EA0
:100C68001530A6000030A7006A09AE006B09AF0076
:100C7800AE0A0319AF0A2E084D3EA0002F0803182C
:100C8800013E003EA1000A30A2000030A3000A166F
:100C98008A117B210A128A11831203132108A901E0
:100CA800A9072008A801A8070A128A15C6200A124F
:100CB8008A118312031326083C3E83160313B800D7
:100CC8008312031327080318013E003E83160313FB
:100CD800B900C12E003083126B022B3003196A024F
:100CE800031C772E782EC12E00306B023830031982
:100CF8006A020318802E812EC12E0D30A600003006
:100D0800A7006A09AE006B09AF00AE0A0319AF0A63
:100D18002E08383EA0002F080318013E003EA1000F
:100D28000A30A2000030A3000A168A117B210A1299
:100D38008A11831203132108A901A9072008A80111
:100D4800A8070A128A15C6200A128A1183120313E9
:100D58002608463E83160313B80083120313270898
:100D68000318013E003E83160313B900C12EC12E9D
:100D7800C12EC12EC12EC12EC12E0800831203130D
:100D8800A3008E300A168A11FF210A128A110A302E
:100D98000A168A11FF210A128A110A168A11A72136
:100DA8000A128A1183120313A2002208831603135E
:100DB800CF008E300A168A11FF210A128A110B30D1
:100DC8000A168A11FF210A128A110A168A11A72106
:100DD8000A128A1183120313A2002208831603132E
:100DE800CF078E300A168A11FF210A128A1107309E
:100DF8000A168A11FF210A128A110A168A11A721D6
:100E08000A128A1183120313A2002208EC008E3002
:100E18000A168A11FF210A128A110D300A168A1140
:100E2800FF210A128A110A168A11A7210A128A11A9
:100E380083120313A2002208EF00A308031D252F25
:100E4800262F472F8E300A168A11FF210A128A117F
:100E580013300A168A11FF210A128A110A168A11FA
:100E6800A7210A128A1183120313A2002208ED0097
:100E78000A168A11A7210A128A1183120313A200E3
:100E88002208EE00C32F2308013A031D4C2F4D2FD3
:100E9800722F8E300A168A11FF210A128A11143015
:100EA8000A168A11FF210A128A110A168A11A72125
:100EB8000A128A1183120313A2002208831603134D
:100EC800CC000A168A11A7210A128A118312031369
:100ED800A200220883160313CD00C32F8312230810
:100EE800023A031D782F792FC32F8E300A168A11E4
:100EF800FF210A128A1113300A168A11FF210A12D9
:100F08008A110A168A11A7210A128A118312031359
:100F1800A2002208ED000A168A11A7210A128A11D6
:100F280083120313A2002208EE008E300A168A11DB
:100F3800FF210A128A1114300A168A11FF210A1297
:100F48008A110A168A11A7210A128A118312031319
:100F5800A200220883160313CC000A168A11A721BF
:100F68000A128A1183120313A2002208831603139C
:100F7800CD00C32FC32FC32FC32FC32FC32F0800E8
:100F880083120313A700E02F9F111F129F12F12F46
:100F98009F151F129F12F12F9F111F169F12F12FDD
:100FA8009F151F169F12F12F9F111F129F16F12FC9
:100FB8000030FE2FFE2FF12F2708003A0319C82F03
:100FC800013A0319CC2F033A0319D02F013A031918
:100FD800D42F073A0319D82FDC2F5330A600A60BBD
:100FE800F32F0A168A11D2200A128A1183120313C8
:060FF8002008FE2F080096
:10100000FF1B0A2883137F1883170008840A03191B
:10101000FF0A080008308A000408840A82070034A6
:10102000013400340A34003464340034E8340334C6
:1010300010342734203443346834613472346734D4
:1010400069346E34673420344D346F34643465341D
:10105000203400345A34653472346F3420345334BD
:101060007434653470345F344D346F3474346F3499
:1010700072340034493452343A342534643463349D
:101080006D34203444343A3425346434003420340C
:101090002034453458344934543420342034003416
:1010A0002034433468346134723467346534203416
:1010B00000345334633461346E345F343334363443
:1010C00030340034433461346C34693462345F3416
:1010D00049345234003446346C3477345F345734F6
:1010E00061346C346C340034443472346934763492
:1010F00065345F3432346D340034443472346934CE
:10110000763465345F344C34003443344F344E34D9
:101110004634493452344D340034253464346D340B
:101120005634003444347234323400343C343C3469
:101130003C3400343E343E343E3400344434723463
:101140004C340034433468346734003443346134FD
:101150006C340034533463346E34003446346C34AD
:10116000773400344634433400344E34433400344E
:1011700052344334003454344334003457346134EB
:02118000003439
:10118C0083120313AB01AC01270826040319CF28E3
:10119C00D0280E29AD010314AD0DE0280130031049
:1011AC00A60DA70DFF3E031DD5280130AA002A0865
:1011BC00AD07E028A71FE328E428D428E628E62872
:1011CC0001300310AB0DAC0DFF3E031DE7282708C3
:1011DC002902031DF32826082802031CF628F728E9
:1011EC00FF282608A8022708031CA903A9022B1410
:1011FC00FF2801300310A70CA60CFF3E031D00298D
:10120C000130AD02031D0B290C29E6280E290E29ED
:10121C002C08A701A7072B08A601A607152908006B
:10122C000B1D19291A2969290B1164308100013011
:10123C0083160313BA070318BB0A0030BB077017D9
:10124C00FA30F2000030F3003B08F501F5073A08DC
:10125C00F401F4070A168A1126230A128A15730858
:10126C007204031D3A293B293D29F0173D29F4301E
:10127C00F2000130F300831603133B08F501F50768
:10128C003A08F401F4070A168A1126230A128A1561
:10129C0073087204031D532954295A29711483129B
:1012AC000313013086065A29FD08031D5E295F29A8
:1012BC0069290A168A1188220A128A15F8007808F8
:1012CC00FD0069296929831203138C1E6E296F296D
:1012DC008B291A08F800831603135808A03E8400C3
:1012EC007808831380005808013E0F39F8007808FD
:1012FC00DA005A0859060319842985298B295A08BA
:10130C00F8007808D8008B298B2983120C1E8F29A2
:10131C009029B129831603130C1E95299629B129FE
:10132C005E08A03E84008317000883120313990003
:10133C000130F800780883160313DE070F30F8002D
:10134C007808DE055E085D06031DAD29AE29B129BE
:10135C000C12B129B1297C088312FF007B088A008A
:10136C007A088400790E8300FE0E7E0E0900831627
:10137C000313BE01BF0183120313E001E1015A08FC
:10138C00A301A3075908A201A2070A168A117D25F9
:10139C000A128A15242A01300A128A11C2260A124C
:1013AC008A1583120313EC08031DDD29DE29E329BA
:1013BC006F08031DE229E929E32983160313D201DF
:1013CC000314D20D592A831603134C0883120313EA
:1013DC00DD00DE015D08E0005E08E1006108DE0072
:1013EC006008DD005D08DE00DD015D08E0005E08E0
:1013FC00E100831603134D0883120313DD00DE0195
:10140C005D08E0070318E10A5E08E107600883162F
:10141C000313BE070318BF0A831203136108831654
:10142C000313BF073F08B701B7073E08B601B6075D
:10143C000A128A150B260A128A15242A83160313FC
:10144C003F0883120313A701A707831603133E0853
:10145C0083120313A601A6070A168A11B8220A12D0
:10146C008A15831203132608DD002708DE005A08AC
:10147C00A701A7075908A601A6070A168A11B822C0
:10148C000A128A15831203135E08803ADF002708BC
:10149C00803A5F02031D542A26085D02031C572A5A
:1014AC00582AD129592A003083120313A200003084
:1014BC00A3000A168A117D250A128A1508008316C4
:1014CC000313C001C101831203135C08B001B00700
:1014DC005B08AF01AF07FF30B1007F30B2000A16D6
:1014EC008A11ED220A128A15EB2A00300A128A118F
:1014FC00C2260A128A15831203136C08031D872A4D
:10150C008D2A83160313D2010314D20D202B8312C0
:10151C006F08031D922A992A0230DD005D0883169C
:10152C000313D200202B831603134F08031D9F2A8D
:10153C00A82A033083120313DD005D0883160313FE
:10154C00D200202B831203136D08DD00DE015D0831
:10155C00E0005E08E1006108DE006008DD005D0867
:10156C00DE00DD015D08E0005E08E1006E08DD00D4
:10157C00DE015D08E0070318E10A5E08E107600878
:10158C0083160313C0070318C10A831203136108DF
:10159C0083160313C1078312031360088316031306
:1015AC00BC070318BD0A83120313610883160313C7
:1015BC00BD074108B701B7074008B601B6070A12C4
:1015CC008A150B260A128A15EB2A83160313410877
:1015DC0083120313A701A707831603134008831272
:1015EC000313A601A6070A168A11B8220A128A1535
:1015FC00831203132608DD002708DE005A08A70112
:10160C00A7075908A601A6070A168A11B8220A12BA
:10161C008A15831203135E08803ADF002708803A8C
:10162C005F02031D1B2B26085D02031C1E2B1F2BA8
:10163C007B2A202B83160313520883120313DD001D
:10164C00DE015D0883160313B600831203135E08D4
:10165C0083160313B7000A128A150B260A128A1571
:10166C00003083120313AF000030B000FF30B10024
:10167C007F30B2000A168A11ED220A128A15080070
:10168C0083120313C3003530B9003908BC002C2C6D
:10169C004408253A0319532B542B602B4408B900EA
:1016AC00430884003908831380000130B9003908DD
:1016BC00C3072C2CBD01672B402C7C2B7C2B2C2C9A
:1016CC007C2B0130B407FF30340784000A128A15D2
:1016DC000A200A128A15C400003A0319402C643AF5
:1016EC0003197C2B0D3A03197C2B2C2C3C08840001
:1016FC0083130008BF00840A0008C0000230B90040
:10170C003908BC07C01F8B2B8C2B962B0330B900D0
:10171C003908BD04BF09C009BF0A0319C00A962BBA
:10172C00C4010314C40D4408053A031D9E2B9F2BC2
:10173C00A12BC92BC92B4408B9003907013E8400E1
:10174C000A128A150A200A128A15BA000A128A1578
:10175C000A200A128A15BB003B084002031DB82B55
:10176C003A083F020318BB2BBC2BBE2BC92BC92B31
:10177C000130B9003908C4074408053A031DC72BCA
:10178C00C82BA12BC92B3D0803390319CE2BCF2B0A
:10179C00DB2B2D30B90043088400390883138000FB
:1017AC000130B9003908C307DB2B4408B9003908EC
:1017BC00BE00202C0A30AE000030AF003E08B9004D
:1017CC003907013E84000A128A150A200A128A156A
:1017DC00A6000A128A150A200A128A15A7004008C8
:1017EC00A901A9073F08A801A8070A128A15C62053
:1017FC000A128A15831203132708B101B1072608B0
:10180C00B001B0070A168A116A230A128A158312CC
:10181C0003132E08303EBA003A08C4004408B9003D
:10182C00430884003908831380000130B90039085B
:10183C00C307202CFF30B9003908BE073E08FF3A19
:10184C00031D292C2A2CE02B2C2C2C2C0130B4071A
:10185C00FF30340784000A128A150A200A128A15EE
:10186C00B9003908C400C408031D3D2C3E2C4E2B76
:10187C00402C402C4308840083138001452C080025
:10188C0083160313C001C101143083120313DD004E
:10189C005D08E3005A08B001B0075908AF01AF0763
:1018AC00FF30B1007F30B2000A168A11ED220A1205
:1018BC008A1583160313D201632C831203135C085D
:1018CC00803AFF0080307F02031D6E2C65305B0276
:1018DC00031C712C722C7B2CFF3083120313DB073F
:1018EC000318DC0AFF30DC077B2C831203135C0823
:1018FC00803AFF0080307F02031D862C64305B022F
:10190C000318892C8A2C932C013083120313DB07C8
:10191C000318DC0A0030DC07932C0A168A116726A0
:10192C000A128A15831203136B085C02031DA02C88
:10193C006A085B020318A32CA42CC52C63085B0754
:10194C00DD005C0803185C0ADE005E086B02031DF8
:10195C00B12C5D086A020318B42CB52CC52C5A089E
:10196C00B001B0075908AF01AF07A430B100063081
:10197C00B2000A168A11ED220A128A15742D8312EE
:10198C0003135C086B02031DCD2C5B086A02031861
:10199C00D02CD12CFB2C6308DD00DE01DD09DE0927
:1019AC00DD0A0319DE0A5B085D07DF005C0803181B
:1019BC005C0A5E07E0006B086002031DE72C6A08F6
:1019CC005F020318EA2CEB2CFB2C5A08B001B00771
:1019DC005908AF01AF075C30B100F930B2000A16FC
:1019EC008A11ED220A128A15742D831203136308CF
:1019FC00DD00DE01DD09DE09DD0A0319DE0A5B0804
:101A0C005D07DF005C0803185C0A5E07E0006B08EA
:101A1C006002031D132D6A085F020318162D172D83
:101A2C00292D63085B07DD005C0803185C0ADE00E7
:101A3C005E086B02031D242D5D086A02031C272D12
:101A4C00282D622D292D0A30A3000030A400A501F9
:101A5C000314A50D0A168A1142240A128A150A16B5
:101A6C008A1167260A128A150A3083120313A300FF
:101A7C000030A400A5010A168A1142240A128A1504
:101A8C000030831203136B02323003196A020318FD
:101A9C00502D512D582D0B30DD005D08831603138E
:101AAC00D200E52D0A308312DD005D088316031386
:101ABC00D200E52DE52D742D83125A08B001B00724
:101ACC005908AF01AF07FF30B1007F30B2000A16E2
:101ADC008A11ED220A128A15742D742D00300A1207
:101AEC008A11C2260A128A15831203136C08031D6D
:101AFC00802D862D83160313D2010314D20DE52DF0
:101B0C0083126F08031D8B2D922D0230DD005D08B2
:101B1C0083160313D200E52D831603134F08031D00
:101B2C00982DA12D033083120313DD005D0883165D
:101B3C000313D200E52D831203136D08DD00DE01C3
:101B4C005D08E1005E08E2006208DE006108DD006D
:101B5C005D08DE00DD015D08E1005E08E2006E0854
:101B6C00DD00DE015D08E1070318E20A5E08E2070A
:101B7C00610883160313C0070318C10A83120313E9
:101B8C00620883160313C1078312031361088316BB
:101B9C000313BC070318BD0A8312031362088316D0
:101BAC000313BD074108B701B7074008B601B607D4
:101BBC000A128A150B260A128A15632C632C003024
:101BCC0083120313AF000030B000FF30B1007F3040
:101BDC00B2000A168A11ED220A128A158316031313
:101BEC00520883120313DD00DE015D088316031314
:101BFC00B600831203135E0883160313B7000A1290
:101C0C008A150B260A128A15080049308400903078
:101C1C0083120313C5000408C6001030C700450822
:101C2C00840083170008C800C50A46088400831383
:101C3C0048088000C60AC70B152EF22F01300A1671
:101C4C008A113F200A128A152B3083120313C50008
:101C5C004508B40083160313350883120313B60129
:101C6C00B60783160313340883120313B501B507A3
:101C7C0083160313370883120313B801B8078316AE
:101C8C000313360883120313B701B70749300A123E
:101C9C008A1546230A128A1500300A168A15E82777
:101CAC000A128A15493083120313A7000030A800CA
:101CBC000A168A11D3210A128A1540300A168A157F
:101CCC00E8270A128A15831603134708803AFF0087
:101CDC0080307F02031D742E01304602031C772EC8
:101CEC00782E8B2E831603134608FF3EE53E8400A8
:101CFC008313000883120313A7008030A8000A1670
:101D0C008A11D3210A128A159E2E831603134608B4
:101D1C00053EE53E84008313000883120313A700DD
:101D2C008030A8000A168A11D3210A128A159E2E19
:101D3C0044300A168A15E8270A128A1583160313EB
:101D4C004608DF3E84008313000883120313A700A8
:101D5C008030A8000A168A11D3210A128A154D3038
:101D6C000A168A15E8270A128A15063083120313FD
:101D7C00A0000030A100831603134608013E831215
:101D8C000313A2008316031347080318013E003EF9
:101D9C0083120313A3000A168A11A9240A128A15A6
:101DAC00831203132008E53E840083130008A70068
:101DBC008030A8000A168A11D3210A128A15FF2F27
:101DCC0001300A168A113F200A128A1500300A16B1
:101DDC008A15E8270A128A151B3083120313A700F1
:101DEC008030A8000A168A11D3210A128A154030B5
:101DFC000A168A15E8270A128A15873083120313EC
:101E0C00A7008030A8000A168A11D3210A128A155D
:101E1C0044300A168A15E8270A128A15763083127E
:101E2C000313A7008030A8000A168A11D3210A12C6
:101E3C008A154D300A168A15E8270A128A158B3036
:101E4C0083120313A7008030A8000A168A11D3212D
:101E5C000A128A15FF2F01300A168A113F200A1226
:101E6C008A1500300A168A15E8270A128A150B30D3
:101E7C0083120313A7008030A8000A168A11D321FD
:101E8C000A128A1540300A168A15E8270A128A1592
:101E9C007E3083120313C5004508B4008316031368
:101EAC00310883120313B601B607831603133008E7
:101EBC0083120313B501B50749300A128A1546235C
:101ECC000A128A15493083120313A7000030A800A8
:101EDC000A168A11D3210A128A154D300A168A1550
:101EEC00E8270A128A15C32FA63083120313A70002
:101EFC008030A8000A168A11D3210A128A15DE2F07
:101F0C00A93083120313A7008030A8000A168A1187
:101F1C00D3210A128A15DE2FA33083120313A700D4
:101F2C008030A8000A168A11D3210A128A15DE2FD6
:101F3C00AC3083120313A7008030A8000A168A1154
:101F4C00D3210A128A15DE2FAF3083120313A70098
:101F5C008030A8000A168A11D3210A128A15DE2FA6
:101F6C00A33083120313A7008030A8000A168A112D
:101F7C00D3210A128A15DE2FDE2F831603133308A2
:101F8C00003A0319CA2FDE2F3208003A03197A2FB0
:101F9C00013A0319862F033A0319922F013A0319B8
:101FAC009E2F073A0319AA2F013A0319B62FDE2FD9
:101FBC0044300A168A15E8270A128A15383083121B
:101FCC000313A7008030A8000A168A11D3210A1225
:101FDC008A15FF2FFF2FFF2F831603135508003A86
:101FEC000319242E013A0319E62E033A0319312F53
:041FFC00FF2F0800AB
:10200A0083120313A20009118910091422088800F7
:10201A00091509110730A1007D30A000A00B132873
:10202A00A10B132808007E088A007F0882000A167E
:10203A008A1118200A168A118000840A04087D066B
:10204A0003190034FF0A0319FE0A1C28831203131A
:10205A00A200A1018C112208930033288C1D362876
:10206A003728332838281308A0002008A1008C112B
:10207A003E28080083120313A200091189100910CF
:10208A0022088800091509110D30A100FB30A000B3
:10209A00A00B4D28A10B4D285228080083120313C8
:1020AA0085013F30831603138500A1308312031381
:1020BA009F000230831603139F00533083120313C9
:1020CA00A000A00B6628080000300A128A11C42753
:1020DA000A168A1183120313AA00AB012A08AC005C
:1020EA002B08AD002D08A901A9072C08A801A807EB
:1020FA007E28080083120313981C842885288A28BE
:10210A0018121816031097289728831603135808CD
:10211A005906031D9128922894280310972803141E
:10212A0097289728080080300A168A11FF210A1674
:10213A008A1184300A168A11FF210A168A119630EA
:10214A000A168A11FF210A168A1100300A168A1104
:10215A00FF210A168A1108000A168A1111250A1681
:10216A008A110D3083120313DB00AF30DA00C1305D
:10217A00D900D90BBE28DA0BBE28DB0BBE286400B7
:10218A00193083120313A3000030A400A5010A1614
:10219A008A1142240A168A110800831203139E0127
:1021AA001F15D7281F19DA28DB28D72800000000B6
:1021BA000000831203131E08A200A3012208A40030
:1021CA002308A50001300310A40DA50DFF3E031D31
:1021DA00E828831603131E08831203132508A10196
:1021EA00A1072408A001A007FA28080083160313F0
:1021FA008717BF3083120313A00020088316031326
:10220A00870518151430990018138312031318132D
:10221A0083160313181283120313981718168316BA
:10222A0003130C128C1698160030DE00DD00D9005C
:10223A0083120313A000200883160313D800080092
:10224A008C300A168A11FF210A168A1100300A16E2
:10225A008A11FF210A168A1102300A168A11FF21F1
:10226A000A168A1148300A168A11FF210A168A119B
:10227A0010300A168A11FF210A168A1154300A16DA
:10228A008A11FF210A168A1110300A168A11FF21B3
:10229A000A168A1108000230831603139F0083125C
:1022AA000313880189018316031388018901013008
:1022BA000A168A113F200A168A1138300A168A111C
:1022CA003F200A168A110C300A168A113F200A1674
:1022DA008A1106300A168A113F200A168A1102301C
:1022EA000A168A113F200A168A110800831203135C
:1022FA00A401A5018029201C832984298A2922086E
:10230A00A4070318A50A2308A50701300310A20D84
:10231A00A30DFF3E031D8B2901300310A10CA00C55
:10232A00FF3E031D922921082004031D9D299E2991
:10233A0080299F292508A101A1072408A001A00737
:10234A00A6290800A929A9290A168A117F200A168E
:10235A008A11031CB129B229A9298B1383160313E5
:10236A005908A03E84008313000883120313A000B7
:10237A002008A1000130A000200883160313D90702
:10238A000F3083120313A000200883160313D90504
:10239A008B17831203132108D2290800ED2983120F
:1023AA0003132808FF00270884000A128A15002050
:1023BA000A168A110A168A1105200A168A1101308C
:1023CA0083120313A7070318A80A0030A807ED29E8
:1023DA00831203132808FF00270884000A128A15AB
:1023EA0000200A168A110038031DFC29FD29D42968
:1023FA00FE29080083120313A100042A042A831663
:10240A0003135D08013E0F395E0603190D2A0E2AD1
:10241A00042A8B13831203132108A00083160313C3
:10242A005D08A03E840083120313200883178000EE
:10243A00831603135D08013E0F3983120313A000AC
:10244A00200883160313DD000C168B170800F00111
:10245A00F101FD01EA01EB01EC01ED01EE01EF01F1
:10246A008313A0308400DF300A168A15E0270A1683
:10247A008A11831790308400B0300A168A15E02733
:10248A000A168A118313EC30FD001F30FE00F33068
:10249A00FF00DF3084000A168A111C200A168A11EE
:1024AA0083010A128A116C2AFD01FC308316031378
:1024BA008600903083120313A300230883160313A4
:1024CA00870540309400A13083120313940004302E
:1024DA008316031381000A168A11FB200A168A1131
:1024EA000A168A1153200A168A110A168A115021CD
:1024FA000A168A110A168A1198200A168A118B1648
:10250A000B178B1708000A168A1168270A168A11F0
:10251A00F11D902A912A952AF1110130B72AB72A7A
:10252A00701D982A992A9D2A70110230B72AB72A53
:10253A00701EA02AA12AA52A70120330B72AB72A28
:10254A00F11CA82AA92AAD2AF1100430B72AB72A01
:10255A00701CB02AB12AB52A70100530B72AB72ADA
:10256A000030B72A0800003083120313A71B01307A
:10257A00A800A901A809A909A80A0319A90A2708EC
:10258A00803AFF0080307F02031DCD2A01302602E7
:10259A00003003180130831203132807A00029080A
:1025AA000318290AA1002708A301A3072608A201E4
:1025BA00A2070A168A117B210A168A1183120313AB
:1025CA002108A701A7072008A601A607EC2A0800E8
:1025DA00831203132F08B3003308B4003008B30082
:1025EA003308B5003108B3003308B6003208B30027
:1025FA003308B70089300A168A11FF210A168A1190
:10260A008312031335080A168A11FF210A168A1142
:10261A008312031334080A168A11FF210A168A1133
:10262A008312031337080A168A11FF210A168A1120
:10263A008312031336080A168A11FF210A168A1111
:10264A0008007308720403192B2B2C2B622BF70139
:10265A000314F70D3C2B01300310F20DF30DFF3E6E
:10266A00031D312B0130F6007608F7073C2BF31FC8
:10267A003F2B402B302B422B422B73087502031D34
:10268A00482B72087402031C4B2B4C2B532B7208D9
:10269A00F4027308031CF503F502532B01300310EF
:1026AA00F30CF20CFF3E031D542B0130F702031DFD
:1026BA005F2B602B422B622B622B7508F301F30709
:1026CA007408F201F207692B0800831203132F081A
:1026DA002E040319712B722BA82BB3010314B30D0B
:1026EA00822B01300310AE0DAF0DFF3E031D772B79
:1026FA000130B2003208B307822BAF1F852B862B1D
:10270A00762B882B882B2F083102031D8E2B2E083F
:10271A003002031C912B922B992B2E08B0022F0802
:10272A00031CB103B102992B01300310AF0CAE0C9C
:10273A00FF3E031D9A2B0130B302031DA52BA62BC6
:10274A00882BA82BA82B3108AF01AF073008AE01A0
:10275A00AE07AF2B080083120313A000E22BF42B61
:10276A00F42BFF3083160313C6070318C70AFF307A
:10277A00C707C71FC12BC22BF42B0530C600003078
:10278A00C700F42BF42B013083160313C607031872
:10279A00C70A0030C707063046064704031DD62B72
:1027AA00D72BF42BC601C701F42BF42B8316031382
:1027BA004608F62BF62BF42BF42B83122008013A49
:1027CA000319F42B033A0319F42B013A0319B62B14
:1027DA00073A0319C82B013A0319DB2BF42BFF30F4
:1027EA00F62B0800023083120313D9005908831606
:1027FA000313D50080300A168A11FF210A168A119E
:10280A00062CF01F092C0A2C2E2CF0130A168A11FA
:10281A00E5260A168A110A128A150B260A168A1141
:10282A002E2C2E2CFD01062CFD01062CFD01062C5A
:10283A00FD01062C84300A168A11FF210A168A1114
:10284A00FD0183160313D501412C412CFD01062CF1
:10285A00062C7D08013A0319172C033A0319192C7F
:10286A00013A03191B2C073A03191D2C013A0319C3
:10287A001F2C2B2C062C062C08008312031307147A
:10288A008714A508031D4A2C4B2C522C0B300A1610
:10289A008A112B200A168A11592C09300A168A1114
:1028AA002B200A168A11592C83120313071087103A
:1028BA00A801A9018D2C0715000083120313071123
:1028CA002508031D692C722C013083160313CA07CD
:1028DA000318CB0A0030CB077A2CFF308316031378
:1028EA00CA070318CB0AFF30CB07623083120313DF
:1028FA00A7006530A600A60B802CA70B802C852C80
:10290A00013083120313A8070318A90A0030A90784
:10291A0024082902031D932C23082802031C962C41
:10292A00972C602C0714871400300A168A112B2062
:10293A000A168A118312031307108710071500005D
:10294A00831203130711080083120313A601A31F9E
:10295A00AF2CB02CB92CA209A309A20A0319A30A05
:10296A00A6010314A60DB92CA11FBC2CBD2CC32C87
:10297A00A009A109A00A0319A10AC32C210820044D
:10298A000319C82CC92CFF2CA5010314A50DD92C99
:10299A0001300310A00DA10DFF3E031DCE2C013006
:1029AA00A4002408A507D92CA11FDC2CDD2CCD2CD2
:1029BA00DF2CDF2C21082302031DE52C200822022C
:1029CA00031CE82CE92CF02C2008A2022108031C85
:1029DA00A303A302F02C01300310A10CA00CFF3EAC
:1029EA00031DF12C0130A502031DFC2CFD2CDF2C4C
:1029FA00FF2CFF2C2608031D032D092DA209A3096C
:102A0A00A20A0319A30A092D2308A101A107220872
:102A1A00A001A007102D080083160313D501031483
:102A2A00D50D083083120313A3000030A400A501BA
:102A3A000A168A1142240A168A11083083120313CD
:102A4A00A3000030A400A5010314A50D0A168A11DB
:102A5A0042240A168A11312DF01F342D352D692D85
:102A6A00F0130A128A150B260A168A11692D692D86
:102A7A00FD01312DFD01312D013083120313A30015
:102A8A000030A400A5010314A50D0A168A114224D8
:102A9A000A168A11FD01312D013083120313A30096
:102AAA000030A400A5010A168A1142240A168A11C6
:102ABA00FD01312D83160313CA01CB01FD01D50196
:102ACA007C2D7C2D312D312D7D08013A03193D2DA8
:102ADA00033A03193F2D013A0319412D073A031905
:102AEA00512D013A03195F2D312D312D312D080059
:102AFA00831203132308803AFF0080307F02031DEC
:102B0A00882D01302202031C8B2D8C2DAB2D893090
:102B1A000A168A11FF210A168A1100300A168A112A
:102B2A00FF210A168A11C8300A168A11FF210A16CD
:102B3A008A1100300A168A11FF210A168A110130F9
:102B4A000A168A11FF210A168A11F02D831203131D
:102B5A00A31FB02DB12DD02D89300A168A11FF215D
:102B6A000A168A1100300A168A11FF210A168A11DA
:102B7A00C8300A168A11FF210A168A11FF300A166E
:102B8A008A11FF210A168A11FF300A168A11FF21BB
:102B9A000A168A11F02D89300A168A11FF210A169F
:102BAA008A1100300A168A11FF210A168A1100308A
:102BBA000A168A11FF210A168A1100300A168A118A
:102BCA00FF210A168A1100300A168A11FF210A16F5
:102BDA008A11F02DF02D080083120313AC01A71FF0
:102BEA00F72DF82D012EA609A709A60A0319A70A87
:102BFA00AC010314AC0D012EA91F042E052E0F2EB5
:102C0A00A809A909A80A0319A90A0130AA002A08C9
:102C1A00AC060F2EAD01AE01270826040319162EA5
:102C2A00172E552EAB010314AB0D272E01300310BE
:102C3A00A60DA70DFF3E031D1C2E0130AA002A086F
:102C4A00AB07272EA71F2A2E2B2E1B2E2D2E2D2EFD
:102C5A0001300310AD0DAE0DFF3E031D2E2E2708C9
:102C6A002902031D3A2E26082802031C3D2E3E2E59
:102C7A00462E2608A8022708031CA903A9022D1418
:102C8A00462E01300310A70CA60CFF3E031D472E4B
:102C9A000130AB02031D522E532E2D2E552E552ECA
:102CAA002C08031D592E5F2EAD09AE09AD0A031972
:102CBA00AE0A5F2E2E08A701A7072D08A601A607B0
:102CCA00662E080083120313B001B101B401B501E5
:102CDA00B201B301B601B7013708803AFF0080306C
:102CEA007F02031D7A2E08303602031C7D2E7E2EAB
:102CFA00802EB62EB62E0A168A1169200A168A1155
:102D0A00831203132908B501B5072808B401B407CB
:102D1A0003303502E930031934020318952E962E32
:102D2A00A22E3408B0070318B10A3508B1070130DA
:102D3A00B2070318B30A0030B3070130B607031805
:102D4A00B70A0030B7073708803AFF0080307F02A1
:102D5A00031DB12E08303602031CB42EB52E802E68
:102D6A00B62E831203133308A701A7073208A60158
:102D7A00A6073108A901A9073008A801A8070A125D
:102D8A008A15C6200A168A11831203132708EB0133
:102D9A00EB072608EA01EA070A128A119F240A1693
:102DAA008A11831203136B0883160313B501B5073F
:102DBA00831203136A0883160313B401B4070800C5
:102DCA0083120313A401A5018E300A168A11FF216A
:102DDA000A168A1119300A168A11FF210A168A114F
:102DEA00213083120313A3007630A200A20BFB2E1C
:102DFA00A30BFB2E64000A168A11A7210A168A1150
:102E0A0083120313A2002208ED000A168A11A721D1
:102E1A000A168A1183120313A2002208EE008E30CA
:102E2A000A168A11FF210A168A1115300A168A1102
:102E3A00FF210A168A11213083120313A300763068
:102E4A00A200A20B262FA30B262F64000A168A11B2
:102E5A00A7210A168A1183120313A200A3012208CA
:102E6A0083160313B2008312031323088316031372
:102E7A00B300831203136D08A200A3012208A40061
:102E8A002308A5002508A3002408A2002208A300FD
:102E9A00A2012208A4002308A5006E08A200A3012B
:102EAA002208A4070318A50A2308A50725088316DC
:102EBA000313B101B1078312031324088316031302
:102ECA00B001B00708008312031306196D2F6E2F85
:102EDA00822F0130F200720883160313D4070A30D6
:102EEA005402031C792F7A2F862F711E7D2F7E2F75
:102EFA00862FF1157112862F862F83160313D4019C
:102F0A0071168312031386198B2F8C2FA02F013071
:102F1A00F200720883160313D0070A305002031C0A
:102F2A00972F982FA42FF01D9B2F9C2FA42F70153D
:102F3A00F011A42FA42F83160313D001F0158312C6
:102F4A000313061AA92FAA2FBE2F0130F200720806
:102F5A0083160313D1070A305102031CB52FB62F6B
:102F6A00C22FF01EB92FBA2FC22F7016F012C22F1D
:102F7A00C22F83160313D101F01683120313861A84
:102F8A00C72FC82FDC2F0130F200720883160313F3
:102F9A00D3070A305302031CD32FD42FE02F711DFD
:102FAA00D72FD82FE02FF1147111E02FE02F8316BD
:102FBA000313D301711583120313061BE52FE62FA2
:102FCA00FA2F0130F200720883160313CE070A3073
:102FDA004E02031CF12FF22FFF2FF01CF52FF62FB4
:102FEA00FF2F7014F010FF2FFF2F83160313CE014B
:062FFA00F014FF2F080097
:103FC00064008001840A0406031900340406E12F0A
:103FD00083120313A300A31723080A168A113F2094
:103FE0000A168A15080053344A3465346E345C343A
:103FF000413497349B3483348F349F3493343C342E
:02400E0032FF7F
:00000001FF
