:060000000A128A11122809
:10000800FE00030EF9000408FA000A08FB00831238
:1000180003137F08FC000A168A11E92A0A168A15B2
:10002800D22A83160313B001B10183120313DC0132
:10003800DD015808AA01AA075708A901A907FF3036
:10004800AB007F30AC000A168A158C240A128A117C
:1000580083160313C901D108031D33283428412806
:10006800193083120313A3000030A400A5010A1657
:100078008A15D7250A128A115028193083120313BA
:10008800A3000030A400A5010314A50D0A168A15C3
:10009800D7250A128A1150280A168A1145210A12F0
:1000A8008A11831603132F0883120313DF01DF0756
:1000B800831603132E0883120313DE01DE07642858
:1000C8000A168A1145210A128A11831603132F086A
:1000D800831203135F02031D7728831603132E0868
:1000E800831203135E0203187A287B28A5285E086A
:1000F8000F3ED9005F080318013E003EDA005A0897
:10010800831603132F02031D8F2883120313590824
:10011800831603132E02031892289328A528831206
:1001280003135808AA01AA075708A901A907A43068
:10013800AB000630AC000A168A158C240A128A1104
:100148002D29831203135F08831603132F02031D3F
:10015800B328831203135E08831603132E020318B1
:10016800B628B728E328831203135E08F13ED900A6
:100178005F080318013EFF3EDA00831603132F08B9
:10018800831203135A02031DCF28831603132E0864
:100198008312031359020318D228D328E3285808D6
:1001A800AA01AA075708A901A9075C30AB00F930D2
:1001B800AC000A168A158C240A128A112D2983127A
:1001C80003135E08CE3ED9005F080318013EFF3EC8
:1001D800DA00831603132F08831203135A02031D30
:1001E800FB28831603132E088312031359020318DE
:1001F800FE28FF28222A5E080F3ED9005F08031850
:10020800013E003EDA005A08831603132F02031D2D
:100218001329831203135908831603132E02031C90
:10022800162917291A29222A222A2D29831203136B
:100238005808AA01AA075708A901A907FF30AB0067
:100248007F30AC000A168A158C240A128A112D29CF
:100258002D2902300A168A11DE260A128A118316FF
:1002680003134208031D39294E2900308312031352
:10027800A9000030AA00FF30AB007F30AC000A169E
:100288008A158C240A128A1183160313C9010314D0
:10029800C90D222A4E08031D52296A2900308312EB
:1002A8000313A9000030AA00FF30AB007F30AC0078
:1002B8000A168A158C240A128A1102308312031333
:1002C800D900590883160313C900222A4408031DBC
:1002D8006E298629383083120313A900FF30AA003B
:1002E800FF30AB007F30AC000A168A158C240A1246
:1002F8008A11033083120313D90059088316031394
:10030800C900222A4D08FF3A03198B298C29A429F0
:10031800003083120313A9000030AA00FF30AB009D
:100328007F30AC000A168A158C240A128A11043010
:1003380083120313D900590883160313C900222A0C
:100348007D0883120313D900DA015908E0005A081E
:10035800E1006108DA006008D9005908DA00D9011B
:100368005908E0005A08E100831603134508831270
:100378000313D900DA015908E0070318E10A5A08FB
:10038800E107600883160313B2070318B30A831240
:100398000313610883160313B3078312031360085A
:1003A80083160313AC070318AD0A831203136108FD
:1003B80083160313AD07400883120313D900DA012B
:1003C8005908E0005A08E1006108DA006008D9001D
:1003D8005908DA00D9015908E0005A08E1008316E3
:1003E8000313410883120313D900DA015908E007FF
:1003F8000318E10A5A08E107600883160313B007D7
:100408000318B10A83120313610883160313B10793
:100418004B0883120313D900DA0159088316031312
:10042800A600831203135A0883160313A7000A129F
:100438008A157B250A128A116428642883160313F7
:10044800B001B1011B2B023083120313A00000304E
:10045800A1005808A301A3075708A201A2070A167A
:100468008A158A270A128A11831203132108AA01FE
:10047800AA072008A901A9077030AB00FE30AC001C
:100488000A168A158C240A128A11A63083120313BD
:10049800DC00FF30DD00342B83125808AA01AA07BC
:1004A8005708A901A9070C30AB00FE30AC000A16AA
:1004B8008A158C240A128A11473083120313DC0030
:1004C800FF30DD00342B83125808AA01AA07570809
:1004D800A901A9077030AB00FE30AC000A168A15D6
:1004E8008C240A128A11A63083120313DC00FF3011
:1004F800DD00342B83125808AA01AA075708A9015E
:10050800A9070C30AB00FE30AC000A168A158C2403
:100518000A128A11423083120313DC00FF30DD0017
:10052800342B83125808AA01AA075708A901A9075A
:100538003E30AB00FE30AC000A168A158C240A1235
:100548008A11423083120313DC00FF30DD00342BA4
:1005580083125808AA01AA075708A901A9070C304D
:10056800AB00FE30AC000A168A158C240A128A11D8
:10057800423083120313DC00FF30DD00342B83127A
:100588005808AA01AA075708A901A9070C30AB0007
:10059800FE30AC000A168A158C240A128A114230E1
:1005A80083120313DC00FF30DD00342B83160313A2
:1005B8005108013A031DE12AE22AFA2A8312031399
:1005C8005808AA01AA075708A901A9079030AB0043
:1005D8000130AC000A168A158C240A128A114B3095
:1005E80083120313DC000030DD00FA2A831603139C
:1005F800D108031D002B012B342B83120313580839
:10060800AA01AA075708A901A9077030AB00FE3054
:10061800AC000A168A158C240A128A11B530831286
:100628000313DC00FF30DD00342B342B342B83160E
:1006380003134B08033A0319272A043A0319502ACB
:100648000D3A0319672A013A03197E2A073A031952
:10065800952A033A0319AC2A1B3A0319C32ADA2A42
:1006680083160313D108031D3A2B3B2B4A2B193051
:1006780083120313A3000030A400A5010314A50DE1
:100688000A168A15D7250A128A113D2C19308312A9
:100698000313A3000030A400A5010A168A15D72564
:1006A8000A128A113D2C3D2C02300A168A11DE26C8
:1006B8000A128A11831603134208031D642B792B2F
:1006C800003083120313A9000030AA00FF30AB00EA
:1006D8007F30AC000A168A158C240A128A118316F8
:1006E8000313C9010314C90D722C4E08031D7D2B79
:1006F800952B003083120313A9000030AA00FF30A5
:10070800AB007F30AC000A168A158C240A128A11B5
:10071800023083120313D900590883160313C90042
:10072800722C4408031D992BB12B38308312031304
:10073800A900FF30AA00FF30AB007F30AC000A16DA
:100748008A158C240A128A11033083120313D900E4
:10075800590883160313C900722C4D08FF3A031970
:10076800B62BB72BCF2B003083120313A900003010
:10077800AA00FF30AB007F30AC000A168A158C2423
:100788000A128A11043083120313D90059088316F8
:100798000313C900722C400883120313D900DA012D
:1007A8005908E0005A08E1006108DA006008D90039
:1007B8005908DA00D9015908E0005A08E1008316FF
:1007C8000313410883120313D900DA015908E0071B
:1007D8000318E10A5A08E107600883160313B007F3
:1007E8000318B10A83120313610883160313B107B0
:1007F8007D0883120313D900DA015908E0005A086A
:10080800E1006108DA006008D9005908DA00D90166
:100818005908E0005A08E1008316031345088312BB
:100828000313D900DA015908E0070318E10A5A0846
:10083800E107600883160313B2070318B30A83128B
:100848000313610883160313B307831203136008A5
:1008580083160313AC070318AD0A83120313610848
:1008680083160313AD070A128A157B250A128A110B
:100878003D2C83160313310883120313A701A7071E
:1008880083160313300883120313A601A6070A165A
:100898008A1557240A128A11831203132608D900CD
:1008A8002708DA005D08A701A7075C08A601A607C4
:1008B8000A168A1557240A128A11831203135A0832
:1008C800803ADB002708803A5B02031D6D2C26085E
:1008D8005902031C702C712C582B722C831603138D
:1008E800490883120313D900DA0159088316031340
:1008F800A600831203135A0883160313A7000A12CB
:100908008A157B250A128A11080083160313B2017F
:10091800B301143083120313E4006408EA00610889
:10092800AA01AA076008A901A907FF30AB007F3018
:10093800AC000A168A158C240A128A11831603132E
:10094800C901A62C831203136208643EE4006308FD
:100958000318013E003EE5006508803A803C031D0F
:10096800B72C64086A02031CBA2CBB2CC82C8D3027
:100978000A168A15FB230A128A1100300A168A15EC
:10098800FB230A128A11C82C831203136308803AC6
:10099800FF0080307F02031DD32C65306202031CE8
:1009A800D62CD72CE02CFF3083120313E207031850
:1009B800E30AFF30E307E02C831203136308803A4D
:1009C800FF0080307F02031DEB2C643062020318A5
:1009D800EE2CEF2CF82C013083120313E2070318D6
:1009E800E30A0030E307F82C0A168A1145210A1297
:1009F8008A11831603132F08831203136302031D3E
:100A08000B2D831603132E08831203136202031897
:100A18000E2D0F2D582D6A086207E400630803188D
:100A2800630AE5006508831603132F02031D222DB0
:100A3800831203136408831603132E020318252D4B
:100A4800262D582D5108013A031D2B2D2C2D3E2DF6
:100A5800831203136108AA01AA076008A901A9075C
:100A68005C30AB00F930AC000A168A158C240A12E7
:100A78008A113E2D83160313D108031D442D452DDD
:100A8800772E831203136108AA01AA076008A90137
:100A9800A907A430AB000630AC000A168A158C24CE
:100AA8000A128A11772E772E83120313630883168E
:100AB80003132F02031D662D831203136208831686
:100AC80003132E020318692D6A2DC22D83120313F6
:100AD8006A08E400E501E409E509E40A0319E50AFE
:100AE80062086407E60063080318630A6507E700FD
:100AF800831603132F08831203136702031D8A2D1D
:100B0800831603132E0883120313660203188D2D10
:100B18008E2DC22D831603135108013A031D952DFE
:100B2800962DA82D831203136108AA01AA0760084D
:100B3800A901A907A430AB000630AC000A168A1533
:100B48008C240A128A11A82D83160313D108031DB9
:100B5800AE2DAF2D772E831203136108AA01AA07C1
:100B68006008A901A9075C30AB00F930AC000A168F
:100B78008A158C240A128A11772E772E8312031372
:100B88006A08E400E501E409E509E40A0319E50A4D
:100B980062086407E60063080318630A6507E7004C
:100BA800831603132F08831203136702031DE22D14
:100BB800831603132E088312031366020318E52D08
:100BC800E62DFE2D6A086207E40063080318630A2D
:100BD800E5006508831603132F02031DF92D831200
:100BE80003136408831603132E02031CFC2DFD2D2A
:100BF800642EFE2D83160313D108031D042E052E23
:100C0800252E0A3083120313A3000030A400A50187
:100C18000314A50D0A168A15D7250A128A110A1671
:100C28008A1145210A128A110A3083120313A3007C
:100C38000030A400A5010A168A15D7250A128A11C0
:100C4800452E0A3083120313A3000030A400A50127
:100C58000A168A15D7250A128A110A168A114521F9
:100C68000A128A110A3083120313A3000030A40069
:100C7800A5010314A50D0A168A15D7250A128A118B
:100C8800452E0030831603132F02323003192E022B
:100C980003184F2E502E592E0B3083120313E400E5
:100CA800640883160313C9009F2F0A3083120313A5
:100CB800E400640883160313C9009F2F9F2F772E23
:100CC800831203136108AA01AA076008A901A907EA
:100CD800FF30AB007F30AC000A168A158C240A124C
:100CE8008A11772E772E00300A168A11DE260A120C
:100CF8008A11831603134208031D832E982E003091
:100D080083120313A9000030AA00FF30AB007F3024
:100D1800AC000A168A158C240A128A11831603134A
:100D2800C9010314C90D9F2F4E08031D9C2EB42E14
:100D3800003083120313A9000030AA00FF30AB0073
:100D48007F30AC000A168A158C240A128A110230E8
:100D580083120313E400640883160313C9009F2F4A
:100D68004408031DB82ED02E383083120313A9006F
:100D7800FF30AA00FF30AB007F30AC000A168A159E
:100D88008C240A128A11033083120313E4006408C6
:100D980083160313C9009F2F4D08FF3A0319D52E58
:100DA800D62EEE2E003083120313A9000030AA00BD
:100DB800FF30AB007F30AC000A168A158C240A126B
:100DC8008A11043083120313E400640883160313A2
:100DD800C9009F2F7D0883120313E400E50164080E
:100DE800E8006508E9006908E5006808E4006408A7
:100DF800E500E4016408E8006508E90083160313C8
:100E0800450883120313E400E5016408E8070318A2
:100E1800E90A6508E907680883160313B207031887
:100E2800B30A83120313690883160313B3078312E3
:100E38000313680883160313AC070318AD0A83125B
:100E48000313690883160313AD073F08803AFF00B0
:100E580080307F02031D322F01303E02031C352FE4
:100E6800362F872F831603132C08FE3E8312031395
:100E7800E400831603132D080318013EF73E83127E
:100E88000313E5006508803AE600831603133F085C
:100E9800803A831203136602031D582F8316031327
:100EA8003E08831203136402031C5B2F5C2F872FF9
:100EB800503083120313D7000030D8009030D90087
:100EC8000130DA000A168A1145220A128A11903076
:100ED80083120313D7000130D800C830D90000307E
:100EE800DA000A168A11ED250A128A1183160313ED
:100EF800BE01BF01013083120313E40064088316A6
:100F08000313CB079F2F831603134B088312031376
:100F1800E400E501640883160313A6008312031393
:100F2800650883160313A7000A128A157B250A127F
:100F38008A11A62CA62C831603134B0883120313BD
:100F4800E400E501640883160313A6008312031363
:100F5800650883160313A7000A128A157B250A124F
:100F68008A11080083120313A000E82FFA2FFA2F22
:100F7800FF3083160313B8070318B90AFF30B907FF
:100F8800B91FC72FC82FFA2F0530B8000030B90095
:100F9800FA2FFA2F013083160313B8070318B90A7A
:100FA8000030B907063038063904031DDC2FDD2F61
:100FB800FA2FB801B901FA2FFA2F8316031338084C
:100FC800FC2FFC2FFA2FFA2F83122008013A03195D
:100FD800FA2F033A0319FA2F013A0319BC2F073ADB
:100FE8000319CE2F013A0319E12FFA2FFF30FC2FF6
:020FF8000800EF
:1010060074346B3486348F347D346234B834BC34F3
:10101600A434B034C034B4348C300A168A15FB2399
:101026000A128A1500300A168A15FB230A128A1537
:1010360002300A168A15FB230A128A1548300A1648
:101046008A15FB230A128A1510300A168A15FB2305
:101056000A128A1554300A168A15FB230A128A15B3
:1010660010300A168A15FB230A128A158C300A16C6
:101076008A15FB230A128A1501300A168A15FB23E4
:101086000A128A1502300A168A15FB230A128A15D5
:1010960054300A168A15FB230A128A1510300A16CE
:1010A6008A15FB230A128A1548300A168A15FB236D
:1010B6000A128A1510300A168A15FB230A128A1597
:1010C60008009128AF3083120313D7000030D800F0
:1010D6009030D9000130DA000A168A1145220A1228
:1010E6008A15D829AF3083120313D7000030D800F1
:1010F6009030D9000130DA000A168A1145220A1208
:101106008A15C83083120313D7000030D8000A129C
:101116008A1115200A128A15D829D829831603138D
:101126004B08073A03196528083A03197528D82980
:10113600D829BB290A168A1145210A128A15C830F0
:1011460083120313E0000030E100831603132F0817
:1011560083120313E301E307831603132E08831296
:101166000313E201E2070A128A1189240A128A1578
:10117600D829093083120313EB006B088316031377
:10118600C900D8298D300A168A15FB230A128A153A
:1011960000300A168A15FB230A128A1509308312B3
:1011A6000313EB006B0883160313C900D829093013
:1011B60083120313EB006B0883160313C900D829A7
:1011C600C901D829D829013083120313EB006B0813
:1011D60083160313CB075108013A031DF328F4289D
:1011E6000029C83083120313D7000030D8000A1232
:1011F6008A1115200A128A15002983160313D108AD
:10120600031D062907290D290A168A1120250A1207
:101216008A150D29831603134B08113A031D142949
:1012260015291C292D08BF01BF072C08BE01BE07C2
:101236001C290A168A1145210A128A15C8308312FA
:101246000313E0000030E100831603132E08F63E78
:1012560083120313E200831603132F080318013EBB
:10126600FF3E83120313E3000A128A1189240A122D
:101276008A15D829013083120313EB006B088316F5
:101286000313CB074B08133A031D4A294B295E2942
:10129600F43083120313D7000130D800C830D900C8
:1012A6000030DA000A168A11ED250A128A1583160D
:1012B6000313C901D8295108013A031D632964297A
:1012C6006A290A168A1120250A128A156A2983169E
:1012D6000313D108031D702971297C29C830831294
:1012E6000313D7000030D8000A128A1115200A12FB
:1012F6008A150A168A1145210A128A15C8308312E0
:101306000313E0000030E100831603132F08831255
:101316000313E301E307831603132E088312031353
:10132600E201E2070A128A1189240A128A15D829CB
:101336000A168A1145210A128A15C8308312031328
:10134600E0000030E100831603132F088312031315
:10135600E301E307831603132E0883120313E20146
:10136600E2070A128A1189240A128A15D829D8296D
:10137600831603134908003A03199D28013A0319F5
:10138600BC28033A0319C528013A0319DA28073A93
:101396000319E3280D3A0319D829033A0319E62855
:1013A600013A03193D299B29D829831603134908B5
:1013B600093A031DDF29E029BB29E1290800831228
:1013C6000313BD002F30B3003308B6007A2B400854
:1013D600253A0319EF29F029FC294008B3003D08F6
:1013E60084003308831380000130B3003308BD073F
:1013F6007A2BBE01BF01B8012E0884000A168A1195
:101406000A200A128A150A168A1568220A128A15ED
:10141600031C0E2A0F2A592A83120313BE01BF0189
:10142600142A831203133F08A101A1073E08A00155
:10143600A0070A30A2000030A3000A168A157723F7
:101446000A128A15831203132E0884000A168A11BB
:101456000A200A128A152007B3000030031801304B
:101466002107B4003308D03EBE0034080318013EFD
:10147600FF3EBF000130B3003308AE072E088400DC
:101486000A168A110A200A128A150A168A1568226D
:101496000A128A150318502A512A142A592A592A37
:1014A600592A902B702A702A7A2B702A01308312BF
:1014B6000313AE07FF302E0784000A168A110A208E
:1014C6000A128A15C000003A0319902B643A0319D0
:1014D600702A0D3A0319702A7A2B831203133608E1
:1014E600840083130008B900840A0008BA00023099
:1014F600B3003308B607BA1F812A822A8C2A033022
:10150600B3003308B804B909BA09B90A0319BA0A03
:101516008C2AC0010314C00D4008053A031D942A05
:10152600952A972ABF2ABF2A4008B3003307013EEF
:1015360084000A168A110A200A128A15B4000A16AD
:101546008A110A200A128A15B50035083A02031DC7
:10155600AE2A340839020318B12AB22AB42ABF2A9D
:10156600BF2A0130B3003308C0074008053A031DFF
:10157600BD2ABE2A972ABF2A3F083E040319C42A59
:10158600C52AD12A380803390319CA2ACB2AD12AEF
:10159600FF30BE070318BF0AFF30BF074008B3007D
:1015A600B401B31BB4033408803AB5003F08803A4F
:1015B6003502031DE02A3E0833020318E32AE42A13
:1015C600F22A831203134008B300B401B31BB40319
:1015D6003308BE023408031CBF03BF02F72A831276
:1015E6000313BE01BF01F72A3F083E040319FC2A74
:1015F600FD2A172BFE2A2030B3003D08840033084D
:10160600831380000130B3003308BD07FF30BE07E7
:101616000318BF0AFF30BF073F083E04031D142B03
:10162600152BFE2A172B172B3808033903191C2BE9
:101636001D2B292B2D30B3003D088400330883135E
:1016460080000130B3003308BD07292B4008B300E2
:101656003308B7006E2B0A30A8000030A9003708FF
:10166600B3003307013E84000A168A110A200A12C3
:101676008A15A0000A168A110A200A128A15A100E4
:101686003A08A301A3073908A201A2070A168A117C
:10169600F5200A128A15831203132108AB01AB0742
:1016A6002008AA01AA070A168A1544250A128A15CD
:1016B600831203132808303EB4003408C0004008E3
:1016C600B3003D0884003308831380000130B30063
:1016D6003308BD076E2BFF30B3003308B707370852
:1016E600FF3A031D772B782B2E2B7A2B7A2B013082
:1016F60083120313AE07FF302E0784000A168A11E1
:101706000A200A128A15B3003308C000C008031D58
:101716008D2B8E2BEA29902B902B831203133D08D9
:10172600840083138001972B0800712D542D0A160F
:101736008A1145210A128A15C83083120313E00064
:101746000030E100831603132F0883120313E3010D
:10175600E307831603132E0883120313E201E2073D
:101766000A128A1189240A128A15712D8316031307
:101776004B080A3A031DC02BC12B092C38308312A3
:101786000313A900FF30AA00FF30AB007F30AC0086
:101796000A168A158C240A128A1506308312031338
:1017A600ED001330EC00B130EB00EB0BD82BEC0B5B
:1017B600D82BED0BD82BDF2B013083120313EB0054
:1017C6006B0883160313CB07C9013008B53E831295
:1017D6000313EB008316031331080318013EFF3E83
:1017E60083120313EC00EB09EC09EB0A0319EC0A6C
:1017F6006B08D7006C08D8009030D9000130DA00A9
:101806000A168A1145220A128A15712D0930831289
:101816000313EB006B0883160313C900712D712D9A
:101826008D300A168A15FB230A128A1500300A160D
:101836008A15FB230A128A15B43083120313D700C4
:101846000030D8009030D9000130DA000A168A112B
:1018560045220A128A1583160313C901712D013018
:1018660083120313EB006B0883160313CB07C9011E
:101876001A3083120313ED005E30EC008630EB0065
:10188600EB0B432CEC0B432CED0B432C6400383054
:1018960083120313D700FF30D8003830D900FF3049
:1018A600DA000A168A11ED250A128A158316031321
:1018B60030080A3E83120313EB0083160313310824
:1018C6000318013E003E83120313EC00EB09EC09FA
:1018D600EB0A0319EC0A6B08D7006C08D8009030A5
:1018E600D9000130DA000A168A1145220A128A1531
:1018F600FA3083120313D7000030D800C830D9005D
:101906000030DA000A168A11ED250A128A150A161F
:101916008A1145210A128A15C83083120313E00082
:101926000030E100831603132E08F63E83120313DC
:10193600E200831603132F080318013EFF3E8312AD
:101946000313E3000A128A1189240A128A15712DDB
:101956008D300A168A15FB230A128A1501300A16DB
:101966008A15FB230A128A15013083120313EB0032
:101976006B0883160313CB07C7010314C70D093081
:1019860083120313EB006B0883160313C900712D32
:10199600093083120313EB006B0883160313C90087
:1019A600712D013083120313EB006B0883160313AA
:1019B600CB070A168A1120250A128A150A168A11D9
:1019C60045210A128A15C83083120313E00000303D
:1019D600E100831603132E08F63E83120313E2007A
:1019E600831603132F080318013EFF3E83120313C9
:1019F600E3000A128A1189240A128A15712D013010
:101A060083120313EB006B0883160313CB07C8304E
:101A160083120313D7000030D8000A128A1115204A
:101A26000A128A150A168A1145210A128A15C83021
:101A360083120313E0000030E100831603132F081E
:101A460083120313E301E307831603132E0883129D
:101A56000313E201E2070A128A1189240A128A157F
:101A6600712D0A168A1145210A128A15C830831269
:101A76000313E0000030E100831603132F088312DE
:101A86000313E301E307831603132E0883120313DC
:101A9600E201E2070A128A1189240A128A15712DB7
:101AA600712D831603134908003A03199A2B013A3C
:101AB6000319B92B033A0319132C013A0319322CD3
:101AC600073A0319AB2C0D3A0319CB2C033A031929
:101AD600D42C013A0319022D342D712D83160313CC
:101AE6004908093A031D782D792D542D7A2D0800C1
:101AF60045308400903083120313C1000408C200ED
:101B06001030C3004108840083170008C400C10ACE
:101B160042088400831344088000C20AC30B852D43
:101B2600EF2F01300A168A1528220A128A153B3031
:101B360083120313C1004108AE0083160313250860
:101B460083120313B001B00783160313240883120C
:101B56000313AF01AF07831603132708831203137A
:101B6600B201B20783160313260883120313B101C9
:101B7600B10745300A128A15E2210A128A15003089
:101B86000A168A15F6210A128A154530831203139E
:101B9600A7000030A8000A168A15CF230A128A1554
:101BA60040300A168A15F6210A128A15831603137F
:101BB6003908803AFF0080307F02031DE42D013092
:101BC6003802031CE72DE82DFB2D83160313380876
:101BD600FF3EE13E84008313000883120313A7002F
:101BE6008030A8000A168A15CF230A128A150E2EEF
:101BF600831603133808053EE13E8400831300086C
:101C060083120313A7008030A8000A168A15CF2373
:101C16000A128A150E2E44300A168A15F6210A1261
:101C26008A15831603133808DB3E840083130008E5
:101C360083120313A7008030A8000A168A15CF2343
:101C46000A128A154D300A168A15F6210A128A15C5
:101C5600063083120313A0000030A100831603137D
:101C66003808013E83120313A200831603133908B2
:101C76000318013E003E83120313A3000A168A15B9
:101C86003E260A128A15831203132008E13E8400B9
:101C960083130008A7008030A8000A168A15CF23F0
:101CA6000A128A15FF2F01300A168A1528220A12EF
:101CB6008A1500300A168A15F6210A128A152B3063
:101CC60083120313A7008030A8000A168A15CF23B3
:101CD6000A128A1540300A168A15F6210A128A1542
:101CE600A83083120313A7008030A8000A168A15AD
:101CF600CF230A128A1544300A168A15F6210A12CB
:101D06008A15973083120313A7008030A8000A169D
:101D16008A15CF230A128A154D300A168A15F6211E
:101D26000A128A15AC3083120313A7008030A8006C
:101D36000A168A15CF230A128A15FF2F01300A16B2
:101D46008A1528220A128A1500300A168A15F621E3
:101D56000A128A150B3083120313A7008030A800DD
:101D66000A168A15CF230A128A1540300A168A15D2
:101D7600F6210A128A159F3083120313C100410807
:101D8600AE0083160313210883120313B001B007B4
:101D960083160313200883120313AF01AF074530E0
:101DA6000A128A15E2210A128A1545308312031394
:101DB600A7000030A8000A168A15CF230A128A1532
:101DC6004D300A168A15F6210A128A15332FC730A6
:101DD60083120313A7008030A8000A168A15CF23A2
:101DE6000A128A154E2FCA3083120313A7008030B9
:101DF600A8000A168A15CF230A128A154E2FC43058
:101E060083120313A7008030A8000A168A15CF2371
:101E16000A128A154E2FCD3083120313A700803085
:101E2600A8000A168A15CF230A128A154E2FD0301B
:101E360083120313A7008030A8000A168A15CF2341
:101E46000A128A154E2FC43083120313A70080305E
:101E5600A8000A168A15CF230A128A154E2F4E2F6E
:101E6600831603132308003A03193A2F4E2F22082C
:101E7600003A0319EA2E013A0319F62E033A03191A
:101E8600022F013A03190E2F073A03191A2F013AA6
:101E96000319262F4E2F44300A168A15F6210A12E8
:101EA6008A15593083120313A7008030A8000A163A
:101EB6008A15CF230A128A15FF2F01300A168A15B2
:101EC60028220A128A151B3083120313C100410807
:101ED600AE00831603132F0883120313B001B00755
:101EE600831603132E0883120313AF01AF0783165D
:101EF60003134B0883120313C200C3014208B10047
:101F06004308B20045300A128A15E2210A128A15E0
:101F160000300A168A15F6210A128A1545308312F0
:101F26000313A7000030A8000A168A15CF230A1249
:101F36008A150A3083120313A0000030A10083160D
:101F460003132D0883120313A301A3078316031398
:101F56002C0883120313A201A2070A168A158A27E0
:101F66000A128A15831203132108D601D607200800
:101F7600D501D5074A30C1004108AE005608B00168
:101F8600B0075508AF01AF07831603133108831254
:101F96000313B201B2078316031330088312031327
:101FA600B101B10745300A128A15E2210A128A15D3
:101FB60040300A168A15F6210A128A154530831210
:101FC6000313A7000030A8000A168A15CF230A12A9
:101FD6008A15FF2FFF2FFF2F831603135008003A91
:101FE6000319942D013A0319562E033A0319A12E0B
:101FF600013A0319602FFF2F0800FF1B0A288313DD
:102006007F1883170008840A0319FF0A0800103096
:102016008A000408840A82070034013400340A3432
:10202600003464340034E834033410342734203464
:102036004334683461347234673469346E346734D7
:1020460020344D346F3464346534203400344934DC
:1020560052343A3425343334643463346D342034A2
:10206600433450343A3425343334643400345A34E7
:10207600653472346F3420345334743465347034B8
:102086005F344D346F3474346F34723400344934F1
:1020960052343A3425343334643463346D34203462
:1020A60044343A34253433346434003444343A34D2
:1020B60025343434643463346D3420344134543438
:1020C6003A342534333464340034203420344534EF
:1020D60058344934543420342034003420344334C2
:1020E60068346134723467346534203400345334D0
:1020F600633461346E345F34333436343034003410
:10210600433461346C34693462345F344934523454
:10211600003446346C3477345F34573461346C346D
:102126006C340034443472346934763465345F3444
:1021360032346D3400344434723469347634653460
:102146005F344C34003443344F344E3446344934CF
:1021560052344D340034253464346D344134003403
:1021660044347234323400343C343C343C3400342D
:102176003E343E343E340034443472344C340034FD
:102186004334683467340034433461346C34003487
:10219600533463346E34003446346C34773400344C
:1021A6004634433400344E344334003452344334DA
:1021B60000345434433400345734613400347E08D8
:1021C6008A007F0882000A168A11E2200A168A11FE
:1021D6008000840A04087D0603190034FF0A0319E7
:1021E600FE0AE62883120313A501A601210820048E
:1021F6000319FE28FF283D29A7010314A70D0F295F
:1022060001300310A00DA10DFF3E031D042901306E
:10221600A4002408A7070F29A11F1229132903299F
:102226001529152901300310A50DA60DFF3E031D26
:10223600162921082302031D222920082202031C35
:10224600252926292E292008A2022108031CA303DA
:10225600A30225142E2901300310A10CA00CFF3E69
:10226600031D2F290130A702031D3A293B291529F1
:102276003D293D292608A101A1072508A001A0079F
:102286004429080083120313AE01AF01B201B30162
:10229600B001B101B401B5013508803AFF008030C4
:1022A6007F02031D582908303402031C5B295C2970
:1022B6005E29942994290A168A1552220A168A1129
:1022C600831203132908B301B3072808B201B20722
:1022D60003303302E93003193202031873297429D3
:1022E60080293208AE070318AF0A3308AF0701305A
:1022F600B0070318B10A0030B1070130B40703185C
:10230600B50A0030B5073508803AFF0080307F02F5
:10231600031D8F2908303402031C922993295E2954
:102326009429831203133108A101A1073008A001E3
:10233600A0072F08A301A3072E08A201A2070A16C9
:102346008A11F5200A168A118312031321088316AF
:102356000313AF01AF078312031320088316031379
:10236600AE01AE072F08A501A5072E08A401A407F4
:10237600080083120313A401A5018E300A168A15DC
:10238600FB230A168A1119300A168A15FB230A1628
:102396008A11213083120313A3007630A200A20B08
:1023A600D229A30BD22964000A168A15A3230A167A
:1023B6008A1183120313A2002208FD000A168A1549
:1023C600A3230A168A1183120313A2002208831676
:1023D6000313C5008E300A168A15FB230A168A11C6
:1023E60015300A168A15FB230A168A112130831224
:1023F6000313A3007630A200A20BFF29A30BFF292B
:1024060064000A168A15A3230A168A118312031377
:10241600A200A301220883160313A200831203134A
:10242600230883160313A3007D0883120313A20057
:10243600A3012208A4002308A5002508A300240858
:10244600A2002208A300A2012208A4002308A500D6
:1024560083160313450883120313A200A30122085F
:10246600A4070318A50A2308A5072508831603133E
:10247600A101A10783120313240883160313A001E5
:10248600A007080083160313B001B10183120313DA
:10249600DE01DF015808A301A3075708A201A2071E
:1024A6000A168A1516270A168A11A82A01300A164C
:1024B6008A11DE260A168A1183160313C208031D23
:1024C600652A662A6B2A4E08031D6A2A6F2A6B2A1A
:1024D600C9010314C90DDD2A400883120313DB006A
:1024E600DC015B08DE005C08DF005F08DC005E08DC
:1024F600DB005B08DC00DB015B08DE005C08DF005C
:1025060083160313410883120313DB00DC015B0807
:10251600DE070318DF0A5C08DF075E08831603136D
:10252600B0070318B10A831203135F088316031357
:10253600B1073108A701A7073008A601A6070A12A6
:102546008A157B250A168A11A82A831603133108D1
:1025560083120313A701A7078316031330088312F8
:102566000313A601A6070A168A1557240A168A1106
:10257600831203132608DB002708DC005808A7018E
:10258600A7075708A601A6070A168A1557240A168A
:102596008A11831203135C08803ADD002708803A0B
:1025A6005D02031DD82A26085B02031CDB2ADC2AEF
:1025B600592ADD2A003083120313A2000030A3003B
:1025C6000A168A1516270A168A1108000B1DEC2A08
:1025D600ED2A402B0B116430810001308316031362
:1025E600AA070318AB0A0030AB077017FA30F200DF
:1025F6000030F3002B08F501F5072A08F401F4076B
:102606000A168A1500250A168A1173087204031D14
:102616000D2B0E2B102BF017102BF430F20001307F
:10262600F300831603132B08F501F5072A08F401B6
:10263600F4070A168A1500250A168A117308720409
:10264600031D262B272B2D2B711483120313013008
:1026560086062D2B83160313CF08031D332B342B2D
:10266600402B0A168A1193230A168A11F800780855
:1026760083160313CF00402B402B83128C1E442B52
:10268600452B612B1A08F800831603135408A03E45
:1026960084007808831780005408013E0F39F8003B
:1026A6007808D6005608550603195A2B5B2B612B62
:1026B6005608F8007808D400612B612B83120C1E93
:1026C600652B662B872B831603130C1E6B2B6C2B2B
:1026D600872B5A08B03E8400831700088312031321
:1026E60099000130F800780883160313DA070F30D3
:1026F600F8007808DA055A085906031D832B842B3F
:10270600872B0C12872B872B7C088312FF007B08F4
:102716008A007A088400790E8300FE0E7E0E090078
:10272600831203130619982B992BAD2B0130F20057
:10273600720883160313CC070A304C02031CA42B21
:10274600A52BB12B711EA82BA92BB12BF11571123C
:10275600B12BB12B83160313CC017116831203130D
:102766008619B62BB72BCB2B0130F20072088316D5
:102776000313C6070A304602031CC22BC32BCF2BFA
:10278600F01DC62BC72BCF2B7015F011CF2BCF2BDF
:1027960083160313C601F01583120313061AD42BEE
:1027A600D52BE92B0130F200720883160313C807F4
:1027B6000A304802031CE02BE12BED2BF01EE42B24
:1027C600E52BED2B7016F012ED2BED2B8316031374
:1027D600C801F01683120313861AF22BF32B072C6B
:1027E6000130F200720883160313CA070A304A0240
:1027F600031CFE2BFF2B0B2C711D022C032C0B2C08
:10280600F11471110B2C0B2C83160313CA017115CD
:1028160083120313061B102C112C252C0130F200F9
:10282600720883160313C3070A304302031C1C2CC9
:102836001D2C292CF01C202C212C292C7014F01076
:10284600292C292C83160313C301F014F11D2C2CFB
:102856002D2C312CF1110130532C532C701D342C9E
:10286600352C392C70110230532C532C701E3C2CF5
:102876003D2C412C70120330532C532CF11C442C4C
:10288600452C492CF1100430532C532C701C4C2C25
:102896004D2C512C70100530532C532C0030532CDA
:1028A6000800FF3083120313EE006E08831603132D
:1028B600E700D101CB01D0010A168A1528240A1691
:1028C6008A110A128A150F200A168A116A2CF01F1D
:1028D6006D2C6E2C912CF01302300A168A11DE260E
:1028E6000A168A110A168A1145210A168A118316B2
:1028F60003134B0883120313EE00EF016E088316D1
:102906000313A600831203136F0883160313A7008D
:102916000A128A157B250A168A11912C831603132F
:102926004F08031D972CFD2C4F080A128A11B62753
:102936000A168A1183120313EE006E088316031318
:10294600E700CF01FD2CFD2C0A168A15A6260A16CD
:102956008A11132D103083120313EE006E088316AE
:102966000313CB000A168A15B1220A168A110A1217
:102976008A1564200A168A11132D06308312031352
:10298600EE006E0883160313CB00132D0C30831252
:102996000313EE006E0883160313CB00132DC70135
:1029A6000A168A15B1220A168A11033083120313F6
:1029B600EE006E0883160313D0000A128A159823B8
:1029C6000A168A11831603134708031DEB2CF12CF4
:1029D6000A128A1564200A168A11F12C831603132B
:1029E600C901132D0A168A158A250A168A11132D6E
:1029F600132D132D831603136708003A0319A72C0A
:102A0600013A0319AD2C033A0319C02C013A0319F4
:102A1600C92C073A0319D22C013A0319F52C132DA8
:102A2600FF3083120313EE006E0883160313E700CC
:102A36006A2C6A2C0A128A111228D62DA03083120B
:102A46000313D7000030D8009030D9000130DA00E7
:102A56000A168A1145220A168A11013083120313B7
:102A6600E000600883160313CB07EC2D4630831273
:102A76000313D7000030D8009030D9000130DA00B7
:102A86000A168A1145220A168A11EC2DA0308312E5
:102A96000313D7000030D8009030D9000130DA0097
:102AA6000A168A1145220A168A1101308312031367
:102AB600E000600883160313CB07EC2D4630831223
:102AC6000313D7000030D8009030D9000130DA0067
:102AD6000A168A1145220A168A11EC2D50308312E5
:102AE6000313D7000030D8009030D9000130DA0047
:102AF6000A168A1145220A168A11EC2D8D300A16FD
:102B06008A15FB230A168A1101300A168A15FB2339
:102B16000A168A11093083120313E000600883162F
:102B26000313C900003083120313A9000030AA0062
:102B3600FF30AB007F30AC000A168A158C240A16CB
:102B46008A11EC2D831603135108013A031DAC2D8F
:102B5600AD2DBD2DB03083120313D700FF30D80042
:102B66009030D9000130DA000A168A1145220A1679
:102B76008A11BD2D83160313D108031DC32DC42D41
:102B8600EC2D503083120313D7000030D80090305C
:102B9600D9000130DA000A168A1145220A168A116E
:102BA600EC2DEC2DEC2D831603134B08083A031974
:102BB600212D043A0319392D033A0319492D1F3AD9
:102BC6000319612D013A0319712D043A0319812D58
:102BD600A52D080083160313B201B3018312031354
:102BE6005A08AA01AA075908A901A907FF30AB008C
:102BF6007F30AC000A168A158C240A168A11832E99
:102C060000300A168A11DE260A168A118316031365
:102C16004208031D0F2E132EC9010314C90DB82E29
:102C26004E08031D172E202E023083120313DB00DD
:102C36005B0883160313C900B82E4408031D242E0F
:102C46002D2E033083120313DB005B088316031358
:102C5600C900B82E4D08FF3A0319322E332E3C2EEA
:102C6600043083120313DB005B0883160313C900C9
:102C7600B82E7D0883120313DB00DC015B08DE003F
:102C86005C08DF005F08DC005E08DB005B08DC0038
:102C9600DB015B08DE005C08DF00831603134508D2
:102CA60083120313DB00DC015B08DE070318DF0A6F
:102CB6005C08DF075E0883160313B2070318B30A1E
:102CC600831203135F0883160313B30783120313D8
:102CD6005E0883160313AC070318AD0A83120313A9
:102CE6005F0883160313AD073308A701A707320849
:102CF600A601A6070A128A157B250A168A11832EB3
:102D060083160313330883120313A701A707831639
:102D16000313320883120313A601A6070A168A159F
:102D260057240A168A11831203132608DB00270884
:102D3600DC005808A701A7075708A601A6070A1628
:102D46008A1557240A168A11831203135C08803ADF
:102D5600DD002708803A5D02031DB32E26085B02BC
:102D6600031CB62EB72E032EB82E8316031349085E
:102D760083120313DB00DC015B0883160313A60032
:102D8600831203135C0883160313A7000A128A151D
:102D96007B250A168A11003083120313A90000301E
:102DA600AA00FF30AB007F30AC000A168A158C24CF
:102DB6000A168A11080083120313A3008E300A161E
:102DC6008A15FB230A168A110A300A168A15FB236E
:102DD6000A168A110A168A15A3230A168A1183125D
:102DE6000313A200220883160313C4008E300A16AA
:102DF6008A15FB230A168A110B300A168A15FB233D
:102E06000A168A110A168A15A3230A168A1183122C
:102E16000313A200220883160313C4078E300A1672
:102E26008A15FB230A168A1107300A168A15FB2310
:102E36000A168A110A168A15A3230A168A118312FC
:102E46000313A200220883160313C2008E300A164B
:102E56008A15FB230A168A110D300A168A15FB23DA
:102E66000A168A110A168A15A3230A168A118312CC
:102E76000313A200220883160313CE008E300A160F
:102E86008A15FB230A168A1111300A168A15FB23A6
:102E96000A168A110A168A15A3230A168A1183129C
:102EA6000313A200220883160313CD008312031313
:102EB600A308031D5F2F602F832F8E300A168A15F5
:102EC600FB230A168A1113300A168A15FB230A16E3
:102ED6008A110A168A15A3230A168A118312031366
:102EE600A2002208FD000A168A15A3230A168A11D3
:102EF60083120313A200220883160313C500FF2FB3
:102F060083122308013A031D892F8A2FAF2F8E3093
:102F16000A168A15FB230A168A1114300A168A1510
:102F2600FB230A168A110A168A15A3230A168A1182
:102F360083120313A200220883160313C0000A1685
:102F46008A15A3230A168A1183120313A2002208E4
:102F560083160313C100FF2F83122308023A031DB1
:102F6600B52FB62FFF2F8E300A168A15FB230A16A9
:102F76008A1113300A168A15FB230A168A110A16B5
:102F86008A15A3230A168A1183120313A2002208A4
:102F9600FD000A168A15A3230A168A118312031343
:102FA600A200220883160313C5008E300A168A155E
:102FB600FB230A168A1114300A168A15FB230A16F1
:102FC6008A110A168A15A3230A168A118312031375
:102FD600A200220883160313C0000A168A15A3232B
:102FE6000A168A1183120313A200220883160313FA
:0A2FF600C100FF2FFF2FFF2F08007E
:1033DC0064008001840A0406031900340406EF29F2
:1033EC0083120313A300A31723080A168A15282295
:1033FC000A168A15080083120313A20009118910FA
:10340C00091422088800091509110730A1007D3024
:10341C00A000A00B0F2AA10B0F2A08008312031384
:10342C00A200A1018C11220893001C2A8C1D1F2ABA
:10343C00202A1C2A212A1308A0002008A1008C1184
:10344C00272A080083120313A200091189100910FE
:10345C0022088800091509110D30A100FB30A000CD
:10346C00A00B362AA10B362A3B2A08008312031321
:10347C0085013F30831603138500A130831203139B
:10348C009F000230831603139F00533083120313E3
:10349C00A000A00B4F2A080000300A168A15C5247C
:1034AC000A168A1583120313AA00AB012A08AC0072
:1034BC002B08AD002D08A901A9072C08A801A80705
:1034CC00672A080083120313A100A0013A302102DD
:1034DC000318712A722A7C2A30302102031C772AA5
:1034EC00782A7C2AA0010314A00D7C2A200C7E2AA9
:1034FC00080083120313981C842A852A8A2A18121E
:10350C0018160310972A972A831603135408550686
:10351C00031D912A922A942A0310972A0314972A9E
:10352C00972A080080300A168A15FB230A168A157A
:10353C0084300A168A15FB230A168A1596300A1649
:10354C008A15FB230A168A1500300A168A15FB23E6
:10355C000A168A1508000A168A15A6260A168A154E
:10356C000D3083120313D900AF30D800C130D7000F
:10357C00D70BBE2AD80BBE2AD90BBE2A6400193031
:10358C0083120313A3000030A400A5010A168A15A8
:10359C00D7250A168A150800F001F101FD018313E5
:1035AC00A0308400DB300A168A15EE210A168A1523
:1035BC00831790308400C0300A168A15EE210A1643
:1035CC008A158313E730FD000830FE000330FF003E
:1035DC00DB3084000A168A11E6200A168A1583014C
:1035EC000A168A11542C831203139E011F15FE2AEE
:1035FC001F19012B022BFE2A000000000000831271
:10360C0003131E08A200A3012208A4002308A5008E
:10361C0001300310A40DA50DFF3E031D0F2B8316C7
:10362C0003131E08831203132508A101A107240804
:10363C00A001A007212B0800831603138717BF30A6
:10364C0083120313A0002008831603138705181593
:10365C0014309900181383120313181383160313D1
:10366C0018128312031398171816831603130C12CF
:10367C008C1698160030DA00D900D500831203138B
:10368C00A000200883160313D40008000230831610
:10369C0003139F00831203138801890183160313FC
:1036AC008801890101300A168A1528220A168A1502
:1036BC0038300A168A1528220A168A150C300A1672
:1036CC008A1528220A168A1506300A168A15282207
:1036DC000A168A1502300A168A1528220A168A1525
:1036EC00080083120313A401A5017C2B201C7F2B43
:1036FC00802B862B2208A4070318A50A2308A507EC
:10370C0001300310A20DA30DFF3E031D872B0130CA
:10371C000310A10CA00CFF3E031D8E2B21082004CE
:10372C00031D992B9A2B7C2B9B2B2508A101A10700
:10373C002408A001A007A22B0800A52BA52B0A1674
:10374C008A157F220A168A15031CAD2BAE2BA52BCE
:10375C008B13831603135508A03E840083170008AF
:10376C0083120313A0002008A1000130A000200840
:10377C0083160313D5070F3083120313A000200800
:10378C0083160313D5058B17831203132108CE2B35
:10379C000800E92B831203132808FF002708840074
:1037AC000A168A1100200A168A150A168A15012291
:1037BC000A168A15013083120313A7070318A80AE7
:1037CC000030A807E92B831203132808FF002708F1
:1037DC0084000A168A1100200A168A150038031D67
:1037EC00F82BF92BD02BFA2B080083120313A10012
:1037FC00002C002C831603135908013E0F395A066E
:10380C000319092C0A2C002C8B1383120313210887
:10381C00A000831603135908B03E840083120313CF
:10382C00200883178000831603135908013E0F39B3
:10383C0083120313A000200883160313D9000C165F
:10384C008B17080083160313CF01FC3086009030D1
:10385C0083120313A3002308831603138705403038
:10386C009400A130831203139400043083160313C5
:10387C0081000A168A1522230A168A150A168A1539
:10388C003C220A168A150A168A154C230A168A1522
:10389C000A168A1598220A168A158B160B178B177F
:1038AC000800003083120313A71B0130A800A901E4
:1038BC00A809A909A80A0319A90A2708803AFF0030
:1038CC0080307F02031D6C2C01302602003003185F
:1038DC000130831203132807A00029080318290AB2
:1038EC00A1002708A301A3072608A201A2070A1614
:1038FC008A1577230A168A15831203132108A70148
:10390C00A7072008A601A6078B2C08008312031317
:10391C002908AD002D08AE002A08AD002D08AF0017
:10392C002B08AD002D08B0002C08AD002D08B100FF
:10393C0089300A168A15FB230A168A15831203137B
:10394C002F080A168A15FB230A168A1583120313ED
:10395C002E080A168A15FB230A168A1583120313DE
:10396C0031080A168A15FB230A168A1583120313CB
:10397C0030080A168A15FB230A168A1508008312CA
:10398C000313A700E12C9F111F129F12F22C9F15FD
:10399C001F129F12F22C9F111F169F12F22C9F15B3
:1039AC001F169F12F22C9F111F129F16F22C003023
:1039BC00FF2CFF2CF22C2708003A0319C92C013AD2
:1039CC000319CD2C033A0319D12C013A0319D52C28
:1039DC00073A0319D92CDD2C5330A600A60BF42C76
:1039EC000A168A15F9220A168A158312031320085F
:1039FC00FF2C0800730872040319052D062D3C2DAD
:103A0C00F7010314F70D162D01300310F20DF30D11
:103A1C00FF3E031D0B2D0130F6007608F707162D1F
:103A2C00F31F192D1A2D0A2D1C2D1C2D7308750230
:103A3C00031D222D72087402031C252D262D2D2DFD
:103A4C007208F4027308031CF503F5022D2D0130E6
:103A5C000310F30CF20CFF3E031D2E2D0130F70268
:103A6C00031D392D3A2D1C2D3C2D3C2D7508F301D1
:103A7C00F3077408F201F207432D080083120313B5
:103A8C002908280403194B2D4C2D822DAD0103144C
:103A9C00AD0D5C2D01300310A80DA90DFF3E031DCB
:103AAC00512D0130AC002C08AD075C2DA91F5F2DEA
:103ABC00602D502D622D622D29082B02031D682DBF
:103ACC0028082A02031C6B2D6C2D732D2808AA02C2
:103ADC002908031CAB03AB02732D01300310A90C96
:103AEC00A80CFF3E031D742D0130AD02031D7F2D6C
:103AFC00802D622D822D822D2B08A901A9072A0861
:103B0C00A801A807892D0800023083120313D700DF
:103B1C00570883160313D00080300A168A15FB232E
:103B2C000A168A15992DF01F9C2D9D2DC12DF01371
:103B3C000A168A11BC210A168A150A128A157B25C7
:103B4C000A168A15C12DC12DCF01992DCF01992DA2
:103B5C00CF01992DCF01992D84300A168A15FB239C
:103B6C000A168A1583160313CF01D001D62DD62D34
:103B7C00CF01992D992D831603134F08013A031980
:103B8C00AA2D033A0319AC2D013A0319AE2D073AAD
:103B9C000319B02D013A0319B22DBE2D992D992D73
:103BAC0008008312031307148714A508031DDF2DC7
:103BBC00E02DE72D0B300A168A1514220A168A15E9
:103BCC00EE2D09300A168A1514220A168A15EE2DC6
:103BDC008312031307108710A801A901222E0715C1
:103BEC0000008312031307112508031DFE2D072E59
:103BFC00013083160313BC070318BD0A0030BD0740
:103C0C000F2EFF3083160313BC070318BD0AFF30B9
:103C1C00BD07623083120313A7006530A600A60B04
:103C2C00152EA70B152E1A2E013083120313A8077D
:103C3C000318A90A0030A90724082902031D282EFD
:103C4C0023082802031C2B2E2C2EF52D0714871469
:103C5C0000300A168A1514220A168A1583120313C9
:103C6C0007108710071500008312031307110800B3
:103C7C0083120313A601A31F442E452E4E2EA20918
:103C8C00A309A20A0319A30AA6010314A60D4E2E1A
:103C9C00A11F512E522E582EA009A109A00A0319BA
:103CAC00A10A582E2108200403195D2E5E2E942E95
:103CBC00A5010314A50D6E2E01300310A00DA10D4E
:103CCC00FF3E031D632E0130A4002408A5076E2EB1
:103CDC00A11F712E722E622E742E742E21082302B7
:103CEC00031D7A2E20082202031C7D2E7E2E852E8B
:103CFC002008A2022108031CA303A302852E013075
:103D0C000310A10CA00CFF3E031D862E0130A50252
:103D1C00031D912E922E742E942E942E2608031D84
:103D2C00982E9E2EA209A309A20A0319A30A9E2E5D
:103D3C002308A101A1072208A001A007A52E0800B5
:103D4C0083160313D0010314D00D08308312031310
:103D5C00A3000030A400A5010A168A15D7250A165F
:103D6C008A15083083120313A3000030A400A501A8
:103D7C000314A50D0A168A15D7250A168A15C62E00
:103D8C00F01FC92ECA2E002FF0130A128A157B259C
:103D9C000A168A15002F002FCF01C62ECF01C62E72
:103DAC00013083120313A3000030A400A5010314F7
:103DBC00A50D0A168A15D7250A168A15831603131C
:103DCC00CF01C62E013083120313A3000030A400D0
:103DDC00A5010A168A15D7250A168A158316031308
:103DEC00CF01C62EBC01BD01CF01D001152F152F5F
:103DFC00C62EC62E831603134F08013A0319D22E72
:103E0C00033A0319D42E013A0319D62E073A031993
:103E1C00E82E013A0319F82EC62EC62EC62E08001F
:103E2C00831203132308803AFF0080307F02031DA6
:103E3C00212F01302202031C242F252F442F8930DF
:103E4C000A168A15FB230A168A1500300A168A15DB
:103E5C00FB230A168A15C8300A168A15FB230A1684
:103E6C008A1500300A168A15FB230A168A150130AA
:103E7C000A168A15FB230A168A15892F8312031337
:103E8C00A31F492F4A2F692F89300A168A15FB2345
:103E9C000A168A1500300A168A15FB230A168A158B
:103EAC00C8300A168A15FB230A168A15FF300A1623
:103EBC008A15FB230A168A15FF300A168A15FB236E
:103ECC000A168A15892F89300A168A15FB230A16B9
:103EDC008A1500300A168A15FB230A168A1500303B
:103EEC000A168A15FB230A168A1500300A168A153B
:103EFC00FB230A168A1500300A168A15FB230A16AC
:103F0C008A15892F892F080083120313A601A11F7C
:103F1C00902F912F9A2FA009A109A00A0319A10A89
:103F2C00A6010314A60D9A2FA31F9D2F9E2FA82F19
:103F3C00A209A309A20A0319A30A0130A4002408A8
:103F4C00A606A82FA701A801210820040319AF2F4A
:103F5C00B02FEE2FA5010314A50DC02F01300310B7
:103F6C00A00DA10DFF3E031DB52F0130A4002408A8
:103F7C00A507C02FA11FC32FC42FB42FC62FC62F28
:103F8C0001300310A70DA80DFF3E031DC72F2108FC
:103F9C002302031DD32F20082202031CD62FD72F58
:103FAC00DF2F2008A2022108031CA303A30227145D
:103FBC00DF2F01300310A10CA00CFF3E031DE02FDE
:103FCC000130A502031DEB2FEC2FC62FEE2FEE2F89
:103FDC002608031DF22FF82FA709A809A70A031911
:103FEC00A80AF82F2808A101A1072708A001A007FB
:043FFC00FF2F08008B
:02400E0032FF7F
:00000001FF
