:060000000A128A11122809
:10000800FE00030EF9000408FA000A08FB00831238
:1000180003137F08FC000A128A15BF2C0A168A11DE
:10002800002C0030831603133702D530031936022B
:10003800031C1F2820286D2800303702EA300319D6
:1000480036020318282829286D281530831203132F
:10005800A6000030A7008316031336098312031382
:10006800AE0083160313370983120313AF00AE0AD9
:100078000319AF0A2E08EA3EA0002F080318013E14
:10008800003EA1000530A2000030A3000A168A1124
:10009800A5240A128A11831203132108A901A907AA
:1000A8002008A801A8070A168A1160270A128A11CF
:1000B8008312031326080F3E83160313B00083121E
:1000C800031327080318013E003E83160313B100EB
:1000D800772A00303702AA3003193602031C752824
:1000E8007628C32800303702D530031936020318A2
:1000F8007E287F28C3282B3083120313A6000030E4
:10010800A70083160313360983120313AE00831660
:100118000313370983120313AF00AE0A0319AF0A9A
:100128002E08D53EA0002F080318013E003EA1006E
:100138000A30A2000030A3000A168A11A5240A1268
:100148008A11831203132108A901A9072008A8010D
:10015800A8070A168A1160270A128A118312031344
:100168002608143E83160313B000831203132708CE
:100178000318013E003E83160313B100772A0030AE
:100188003702803003193602031CCB28CC281929E2
:1001980000303702AA30031936020318D428D528AC
:1001A80019292A3083120313A6000030A7008316EA
:1001B8000313360983120313AE008316031337099A
:1001C80083120313AF00AE0A0319AF0A2E08AA3E22
:1001D800A0002F080318013E003EA1000A30A2002B
:1001E8000030A3000A168A11A5240A128A11831264
:1001F80003132108A901A9072008A801A8070A16BE
:100208008A1160270A128A118312031326081E3ED8
:1002180083160313B0008312031327080318013E43
:10022800003E83160313B100772A003037026B3083
:1002380003193602031C212922296F2900303702AD
:1002480080300319360203182A292B296F29153003
:1002580083120313A6000030A70083160313360980
:1002680083120313AE008316031337098312031393
:10027800AF00AE0A0319AF0A2E08803EA0002F086F
:100288000318013E003EA1000A30A2000030A3007E
:100298000A168A11A5240A128A1183120313210847
:1002A800A901A9072008A801A8070A168A1160272A
:1002B8000A128A11831203132608283E8316031391
:1002C800B0008312031327080318013E003E83166B
:1002D8000313B100772A003037024D300319360274
:1002E800031C77297829C529003037026B30031998
:1002F8003602031880298129C5291E308312031369
:10030800A6000030A70083160313360983120313CF
:10031800AE0083160313370983120313AF00AE0A26
:100328000319AF0A2E086B3EA0002F080318013EE0
:10033800003EA1000A30A2000030A3000A168A116C
:10034800A5240A128A11831203132108A901A907F7
:100358002008A801A8070A168A1160270A128A111C
:10036800831203132608323E83160313B000831248
:10037800031327080318013E003E83160313B10038
:10038800772A00303702383003193602031CCD298A
:10039800CE291B2A003037024D30031936020318C4
:1003A800D629D7291B2A153083120313A60000303B
:1003B800A70083160313360983120313AE008316AE
:1003C8000313370983120313AF00AE0A0319AF0AE8
:1003D8002E084D3EA0002F080318013E003EA10044
:1003E8000A30A2000030A3000A168A11A5240A12B6
:1003F8008A11831203132108A901A9072008A8015B
:10040800A8070A168A1160270A128A118312031391
:1004180026083C3E83160313B000831203132708F3
:100428000318013E003E83160313B100772A0030FB
:1004380037022B3003193602031C232A242A772A71
:100448000030370238300319360203182C2A2D2AB7
:10045800772A0D3083120313A6000030A7008316F5
:100468000313360983120313AE00831603133709E7
:1004780083120313AF00AE0A0319AF0A2E08383EE1
:10048800A0002F080318013E003EA1000A30A20078
:100498000030A3000A168A11A5240A128A118312B1
:1004A80003132108A901A9072008A801A8070A160B
:1004B8008A1160270A128A11831203132608463EFE
:1004C80083160313B0008312031327080318013E91
:1004D800003E83160313B100772A772A772A772AF2
:1004E800772A772A772A0800FF3083120313E2005D
:1004F8006208EB00E901EA010A168A11AF250A121F
:100508008A11862AF01F892A8A2A9C2AF013023027
:100518000A128A1129260A128A110A128A157421C6
:100528000A128A110A128A11CA240A128A119C2AEA
:100538007D08031DA02AA92C7D080A168A111927EF
:100548000A128A1183120313E2006208EB00FD010C
:10055800A92CA92C0A128A153A200A128A11BF2C32
:100568000A128A15EA210A128A11831203135908FA
:10057800F33EE9005A080318013EFF3EEA00690904
:10058800E2006A09E300E20A0319E30A6208C83EC6
:10059800A30063080318013E003EA400A5010A1643
:1005A8008A11B0270A128A11BF2CF4308312031360
:1005B800D9000130DA00C830DB000030DC000A1254
:1005C8008A1566250A128A11BF2C5A308312031322
:1005D800D9000030DA000130DB000030DC000A12FC
:1005E8008A1579230A128A11BF2C83160313B401C2
:1005F800B501992C0A128A15EA210A128A11831266
:1006080003135A08ED01ED075908EC01EC07EE0158
:10061800EF01E501E6016D08803AFF0080307F02B6
:10062800031D182BC9306C02031C1B2B1C2B272BFA
:10063800831203136C08643EEE006D080318013E34
:10064800003EEF00272B831203136D08803AFF004A
:1006580080307F02031D322BC8306C020318352B03
:10066800362B412B831203136C089C3EEE006D0859
:100678000318013EFF3EEF00412B831203136F085E
:10068800803AFF0081307F02031D4C2B90306E02B0
:10069800031C4F2B502B6E2B831203136F08803AC9
:1006A800FF0081307F02031D5B2BF4306E020318BC
:1006B8005E2B5F2B6E2B831203136E08703EEE00C9
:1006C8006F080318013EFE3EEF000130E5000030E0
:1006D800E6006E2B831203136F08803AFF00803008
:1006E8007F02031D792BC8306E02031C7C2B7D2BE7
:1006F800A52B831203136F08803AFF0081307F0215
:10070800031D882B90306E0203188B2B8C2BA52B86
:10071800831203136E09E2006F09E300E20A03196A
:10072800E30A6208903EEE0063080318013E013EAA
:10073800EF00EE09EF09EE0A0319EF0AE501E601F9
:10074800A52B831203136F08803AFF0080307F02C5
:10075800031DB02BC8306E020318B32BB42BBF2B6C
:1007680083120313EF1BB92BBA2BBF2B0130E50003
:100778000030E600BF2B83120313EF1FC42BC52BD9
:10078800D72B6F08803AFF007F307F02031DCE2BE6
:1007980038306E02031CD12BD22BD72B83120313B4
:1007A800E501E601D72B831203136F08803AFF0097
:1007B8007F307F02031DE22B38306E02031CE52BCD
:1007C800E62BBF2C831203136F08803AFF00813099
:1007D8007F02031DF12BF5306E02031CF42BF52B61
:1007E800F72BBF2CBF2C831203136C09E2006D0991
:1007F800E300E20A0319E30A6208903EA3006308D3
:100808000318013E013EA400A5010A168A11B0276B
:100818000A128A11033083120313E4008A30E300BA
:100828005630E200E20B162CE30B162CE40B162CC8
:100838001D2C831203136F08B701B7076E08B601A2
:10084800B6070A168A11FD240A128A1183120313A5
:100858003608BF003708C0003808C1006630BC0041
:100868006630BD003F30BE000A128A1512260A12F1
:100878008A11831203133C08A8003D08A9003E080A
:10088800AA000A128A1519240A128A11831203135C
:100898002908E801E8072808E701E7076808A3012D
:1008A800A3076708A201A2070A128A1500210A12E3
:1008B8008A11033083120313E4008A30E3005630B0
:1008C800E200E20B652CE30B652CE40B652C6C2C29
:1008D800831203136D08A401A4076C08A301A307DE
:1008E800A5010A168A11B0270A128A110330831249
:1008F8000313E4008A30E3005630E200E20B822C56
:10090800E30B822CE40B822C892CF4308312031322
:10091800D9000130DA00C830DB000030DC000A12F0
:100928008A1566250A128A11992C831603134E0814
:10093800031D9F2CFE2ABF2CBF2C0A168A11D32612
:100948000A128A11BF2CBF2CBF2C831203136B0809
:10095800003A0319AE2A013A0319B42A033A0319D3
:10096800D92A013A0319E92A073A0319F92A013A57
:100978000319A12CBF2CFF3083120313E200620875
:10098800EB00862A862A0A128A1112284930840026
:10099800903083120313C5000408C6001030C70046
:1009A8004508840083170008C800C50A4608840063
:1009B800831348088000C60AC70BD42C1B2E0130AD
:1009C8000A168A118E230A128A112B3083120313F6
:1009D800C5004508B40083160313310883120313B6
:1009E800B601B60783160313300883120313B50143
:1009F800B50783160313390883120313B801B80720
:100A080083160313380883120313B701B707493055
:100A18000A128A1500270A128A1100300A168A114A
:100A28003C230A128A11493083120313A7000030AD
:100A3800A8000A168A1129250A128A1140300A16B6
:100A48008A113C230A128A11831603134108803A3B
:100A5800FF0080307F02031D332D01304002031C4C
:100A6800362D372D4A2D831603134008FF3EE23EEC
:100A780084008313000883120313A7008030A800A2
:100A88000A168A1129250A128A115D2D8316031365
:100A98004008053EE23E84008313000883120313D6
:100AA800A7008030A8000A168A1129250A128A117F
:100AB8005D2D44300A168A113C230A128A118316C6
:100AC80003134008DC3E84008313000883120313D9
:100AD800A7008030A8000A168A1129250A128A114F
:100AE8004D300A168A113C230A128A1106308312E5
:100AF8000313A0000030A100831603134008013E31
:100B080083120313A2008316031341080318013E3E
:100B1800003E83120313A3000A128A1598200A12B2
:100B28008A11831203132008E23E8400831300080D
:100B3800A7008030A8000A168A1129250A128A11EE
:100B4800282E01300A168A118E230A128A110030C3
:100B58000A168A113C230A128A111B3083120313C6
:100B6800A7008030A8000A168A1129250A128A11BE
:100B780040300A168A113C230A128A1182308312E5
:100B88000313A7008030A8000A168A1129250A1223
:100B98008A1144300A168A113C230A128A117630C7
:100BA80083120313A7008030A8000A168A1129258A
:100BB8000A128A114D300A168A113C230A128A1128
:100BC800863083120313A7008030A8000A168A1102
:100BD80029250A128A11282E01300A168A118E2315
:100BE8000A128A1100300A168A113C230A128A1145
:100BF8000B3083120313A7008030A8000A168A114D
:100C080029250A128A1144300A168A113C230A122D
:100C18008A11383083120313A7008030A8000A16FF
:100C28008A1129250A128A11282E282E282E831681
:100C380003135208003A0319E32C013A0319A52DAE
:100C4800033A0319F02D282E080083120313A40079
:100C58008E300A168A1155250A128A1107300A168B
:100C68008A1155250A128A11213083120313A30011
:100C78007630A200A20B3E2EA30B3E2E64000A166D
:100C88008A11D1240A128A1183120313A20022089E
:100C980083160313C8008E300A168A1155250A12C6
:100CA8008A110D300A168A1155250A128A11213027
:100CB80083120313A3007630A200A20B612EA30BAC
:100CC800612E64000A168A11D1240A128A1183122D
:100CD8000313A200220883160313D10083120313FF
:100CE800A408031D782E792EA92E8E300A168A1193
:100CF80055250A128A1113300A168A1155250A1227
:100D08008A11213083120313A3007630A200A20BAC
:100D18008B2EA30B8B2E64000A168A11D1240A127B
:100D28008A1183120313A200220883160313CA0030
:100D38000A168A11D1240A128A1183120313A200F7
:100D4800220883160313CB00482F83122408013A84
:100D5800031DAF2EB02EE02E8E300A168A115525AF
:100D68000A128A1114300A168A1155250A128A1194
:100D7800213083120313A3007630A200A20BC22EE7
:100D8800A30BC22E64000A168A11D1240A128A11F2
:100D980083120313A200220883160313C6000A163F
:100DA8008A11D1240A128A1183120313A20022087D
:100DB80083160313C700482F83122408023A031D21
:100DC800E62EE72E482F8E300A168A1155250A126C
:100DD8008A1113300A168A1155250A128A112130F0
:100DE80083120313A3007630A200A20BF92EA30BE3
:100DF800F92E64000A168A11D1240A128A11831264
:100E08000313A200220883160313CA000A168A11C4
:100E1800D1240A128A1183120313A200220883160E
:100E28000313CB008E300A168A1155250A128A112F
:100E380014300A168A1155250A128A112130831294
:100E48000313A3007630A200A20B282FA30B282F90
:100E580064000A168A11D1240A128A118312031314
:100E6800A200220883160313C6000A168A11D12489
:100E78000A128A1183120313A2002208831603138D
:100E8800C700482F482F482F0800FF1B532F8313F4
:100E98007F1883170008840A0319FF0A080007301F
:100EA8008A000408840A82070034013400340A34B2
:100EB800003464340034E8340334103427342034E4
:100EC8004334683461347234673469346E34673457
:100ED80020344D346F3464346534203400345A344B
:100EE800653472346F342034533474346534703458
:100EF8005F344D346F3474346F3472340034493491
:100F080052343A342534643463346D3420344434F0
:100F18003A34253464340034203420344534583489
:100F28004934543420342034003420344334683471
:100F38006134723467346534203400345334633494
:100F480061346E345F3433343634303400344334EF
:100F580061346C34693462345F3449345234003457
:100F680046346C3477345F34573461346C346C34C1
:100F78000034443472346934763465345F3432343E
:100F88006D340034443472346934763465345F34F3
:100F98004C34003443344F344E344634493452349C
:100FA8004D34003444347234323400343C343C34EC
:100FB8003C3400343E343E343E34003444347234DD
:100FC8004C34003443346834673400344334613477
:100FD8006C340034533463346E34003446346C3427
:100FE8007734003464008001840A0406031900344D
:040FF8000406F72FC5
:10100A00003083120313A71B0130A800A901A80905
:10101A00A909A80A0319A90A2708803AFF008030FB
:10102A007F02031D1A2801302602003003180130FE
:10103A00831203132807A00029080318290AA1000C
:10104A002708A301A3072608A201A2070A168A11E4
:10105A00A5240A128A15831203132108A701A707D8
:10106A002008A601A6073928080083160313D2010F
:10107A000314D20D083083120313A3000030A40016
:10108A00A5010A168A11B0270A128A154C28F01FE0
:10109A004F2850288428F0130A128A11CA240A12E7
:1010AA008A1584288428FD014C28FD014C2801302A
:1010BA0083120313A3000030A400A5010314A50D95
:1010CA000A168A11B0270A128A15FD014C28013026
:1010DA0083120313A3000030A400A5010A168A1183
:1010EA00B0270A128A15FD014C2883160313C4017E
:1010FA00C501FD01D201972897284C284C287D0864
:10110A00013A03195828033A03195A28013A0319CC
:10111A005C28073A03196C28013A03197A284C28E3
:10112A004C284C28080083120313A601A31F9E28EB
:10113A009F28A828A209A309A20A0319A30AA6019B
:10114A000314A60DA828A11FAB28AC28B228A00911
:10115A00A109A00A0319A10AB22821082004031927
:10116A00B728B828EE28A5010314A50DC828013010
:10117A000310A00DA10DFF3E031DBD280130A400E0
:10118A002408A507C828A11FCB28CC28BC28CE280C
:10119A00CE2821082302031DD42820082202031C7A
:1011AA00D728D828DF282008A2022108031CA30375
:1011BA00A302DF2801300310A10CA00CFF3E031D7F
:1011CA00E0280130A502031DEB28EC28CE28EE28E2
:1011DA00EE282608031DF228F828A209A309A20A64
:1011EA000319A30AF8282308A101A1072208A001CC
:1011FA00A007FF280800831203132308803AFF0080
:10120A0080307F02031D0B2901302202031C0E29A4
:10121A000F292E2989300A168A1155250A128A158C
:10122A0000300A168A1155250A128A1532300A1612
:10123A008A1155250A128A1500300A168A1155256F
:10124A000A128A1501300A168A1155250A128A15B8
:10125A00732983120313A31F33293429532989308D
:10126A000A168A1155250A128A1500300A168A1199
:10127A0055250A128A1532300A168A1155250A127C
:10128A008A15FF300A168A1155250A128A15FF3067
:10129A000A168A1155250A128A15732989300A16DF
:1012AA008A1155250A128A1500300A168A115525FF
:1012BA000A128A1500300A168A1155250A128A1549
:1012CA0000300A168A1155250A128A1500300A16A4
:1012DA008A1155250A128A1573297329080083125F
:1012EA000313B001B101B401B501B201B301B601F2
:1012FA00B7013708803AFF0080307F02031D872933
:10130A0008303602031C8A298B298D29C329C3294F
:10131A000A168A11B8230A128A1583120313290896
:10132A00B501B5072808B401B40703303502E9301E
:10133A00031934020318A229A329AF293408B007D4
:10134A000318B10A3508B1070130B2070318B30A06
:10135A000030B3070130B6070318B70A0030B707E1
:10136A003708803AFF0080307F02031DBE2908300B
:10137A003602031CC129C2298D29C32983120313EA
:10138A003308A701A7073208A601A6073108A90151
:10139A00A9073008A801A8070A168A1160270A12A5
:1013AA008A1583120313270883160313B701B70795
:1013BA0083120313260883160313B601B6070A120B
:1013CA008A1115200A128A15080083120313DB01F9
:1013DA00DC01DD01DE01DF01E0016008803AFF0087
:1013EA0080307F02031DFB29C8305F02031CFE29DF
:1013FA00FF29012A5A2A5A2A0A128A1574210A121C
:10140A008A15831603133708831203135C02031D1C
:10141A00142A831603133608831203135B02031874
:10142A00172A182A2D2A831603133708831203133F
:10143A00DC01DC0783160313360883120313DB016E
:10144A00DB076008DE01DE075F08DD01DD072D2A04
:10145A000230A3000030A400A5010314A50D0A164A
:10146A008A11B0270A128A15F01F3C2A3D2A442AFB
:10147A00F0130A128A11CA240A128A15442A02305F
:10148A0083120313DF070318E00A0030E00760083D
:10149A00803AFF0080307F02031D552AC8305F0260
:1014AA00031C582A592A012A5A2A831203135E084E
:1014BA00DA01DA075D08D901D907632A080083121D
:1014CA0003132308031D6A2A722A2208210420040E
:1014DA00031D702A712A882A722A0030A00000305F
:1014EA00A1000030A200E02AE02A882A0130A500E3
:1014FA002508A30701300310A20CA10CA00CFF3E83
:10150A00031D802A882AFE302205031D8D2A8E2A71
:10151A007B2AA62AA62A0130A5002508A30701309E
:10152A00A007003003180130A1070030031801306A
:10153A00A20701300310A20CA10CA00CFF3E031D50
:10154A009F2AFF302205031DAB2AAC2A902AB92A0A
:10155A00B92A0130A30201300310A00DA10DA20D7A
:10156A00FF3E031DB12AB92AA11FBC2ABD2AAE2AF1
:10157A002318C02AC12AC72AFF30A0057F30A10537
:10158A00FF30A2050310A30C2308A500A601A7019A
:10159A0010300310A50DA60DA70DFF3E031DCE2A80
:1015AA002508A0042608A1042708A2042408031D6C
:1015BA00DF2AE02AA2170800831203130619E62A73
:1015CA00E72AFB2A0130F200720883160313D007B8
:1015DA000A305002031CF22AF32AFF2A711EF62A45
:1015EA00F72AFF2AF1157112FF2AFF2A831603131D
:1015FA00D0017116831203138619042B052B192B9C
:10160A000130F200720883160313CC070A304C0229
:10161A00031C102B112B1D2BF01D142B152B1D2B0E
:10162A007015F0111D2B1D2B83160313CC01F01519
:10163A0083120313061A222B232B372B0130F200B5
:10164A00720883160313CD070A304D02031C2E2B92
:10165A002F2B3B2BF01E322B332B3B2B7016F01209
:10166A003B2B3B2B83160313CD01F0168312031376
:10167A00861A402B412B552B0130F2007208831633
:10168A000313CF070A304F02031C4C2B4D2B592B47
:10169A00711D502B512B592BF1147111592B592BA8
:1016AA0083160313CF01711583120313061B5E2BD6
:1016BA005F2B732B0130F200720883160313C907DC
:1016CA000A304902031C6A2B6B2B782BF01C6E2BF9
:1016DA006F2B782B7014F010782B782B831603134A
:1016EA00C901F014782B080083160313B801B90155
:1016FA0083120313E001E1015A08A301A307590861
:10170A00A201A2070A128A1500210A128A15D62BEB
:10171A0001300A128A1129260A128A15831603131E
:10172A00C808031D992B9A2B9F2B5108031D9E2B2A
:10173A00A32B9F2BCE010314CE0D0D2C460883122A
:10174A000313DD00DE015D08E0005E08E1006108C8
:10175A00DE006008DD005D08DE00DD015D08E000F6
:10176A005E08E10083160313470883120313DD00A2
:10177A00DE015D08E0070318E10A5E08E107600878
:10178A0083160313B8070318B90A831203136108EF
:10179A0083160313B9070A128A11CA240A128A1570
:1017AA00D62B831203135A08A701A7075908A601C3
:1017BA00A6070A128A1505200A128A15831203132C
:1017CA002608DD002708DE00831603133908831272
:1017DA000313A701A70783160313380883120313F9
:1017EA00A601A6070A128A1505200A128A1583126B
:1017FA0003135E08803ADF002708803A5F02031D60
:10180A00082C26085D0203180B2C0C2C8D2B0D2C92
:10181A00003083120313A2000030A3000A128A15B3
:10182A0000210A128A150800831203132808AC0043
:10183A002908AD002A08AE0003102D0D2E0DAF00A9
:10184A002F08B500B508031D2B2C2C2C362C003084
:10185A00AB000030AA000030A9000030A800BE2C5E
:10186A00BE2C2808AC002908AD002A08AE001730A3
:10187A000310AE0CAD0CAC0CFF3E031D3D2C2C0826
:10188A00AF002F08B000A917FF30A805FF30A9053F
:10189A000030AA052808B1002908B2002A08B300B6
:1018AA00B4018E30B502B51F5B2C5C2C812C350837
:1018BA00803A8F3E0318622C632C6E2C0030AB00EA
:1018CA000030AA000030A9000030A800BE2CBE2CAF
:1018DA006E2C01300310B40CB30CB20CB10CFF3EE9
:1018EA00031D6F2C0130AC002C08B507031D7E2C9C
:1018FA007F2C6E2CA52CA52C18303502031C862CA7
:10190A00872C9E2C0030AB000030AA000030A900C2
:10191A000030A800BE2CBE2C9E2C0130AC00031057
:10192A00B10DB20DB30DB40DAC0B942C0130B50250
:10193A009E2CB508031DA22CA32C922CA52CA52CF9
:10194A003008031DA92CB52CB109B209B309B40991
:10195A00B10A0319B20A0319B30A0319B40AB52C56
:10196A003408AB003308AA003208A9003108A800DD
:10197A00BE2C08000B1DC22CC32C122D0B11643077
:10198A008100013083160313B2070318B30A00302B
:10199A00B3077017FA30F2000030F3003308F5018C
:1019AA00F5073208F401F4070A168A1149260A12C1
:1019BA008A1573087204031DE32CE42CE62CF01735
:1019CA00E62CF430F2000130F300831603133308D7
:1019DA00F501F5073208F401F4070A168A114926B7
:1019EA000A128A1573087204031DFC2CFD2C032DA0
:1019FA0071148312031301308606032DFD08031D9B
:101A0A00072D082D122D0A168A11DE250A128A15AB
:101A1A00F8007808FD00122D122D831203138C1E74
:101A2A00172D182D342D1A08F8008316031355089C
:101A3A00A03E84007808831380005508013E0F39C0
:101A4A00F8007808D7005708560603192D2D2E2DB1
:101A5A00342D5708F8007808D500342D342D831218
:101A6A000C1E382D392D5A2D831603130C1E3E2DAC
:101A7A003F2D5A2D5B08A03E84008317000883126D
:101A8A00031399000130F800780883160313DB0763
:101A9A000F30F8007808DB055B085A06031D562D3F
:101AAA00572D5A2D0C125A2D5A2D7C088312FF00DD
:101ABA007B088A007A088400790E8300FE0E7E0E67
:101ACA00090083160313BA01BB01831203135C08CE
:101ADA00A301A3075B08A201A2070A168A1182259D
:101AEA000A128A15CF2D00300A128A1129260A12E3
:101AFA008A1583160313C808031D842D852D8A2D84
:101B0A005108031D892D8E2D8A2DCE010314CE0D69
:101B1A00062E4A0883120313DD00DE015D08E00089
:101B2A005E08E1006108DE006008DD005D08DE0095
:101B3A00DD015D08E0005E08E100831603134B082F
:101B4A0083120313DD00DE015D08E0070318E10AD2
:101B5A005E08E107600883160313BA070318BB0A75
:101B6A0083120313610883160313BB07831203133B
:101B7A00600883160313B4070318B50A8312031304
:101B8A00610883160313B5070A128A11CA240A12B6
:101B9A008A15CF2D831203135A08A701A7075908DC
:101BAA00A601A6070A128A1505200A128A158312A7
:101BBA0003132608DD002708DE00831603133B08FB
:101BCA0083120313A701A707831603133A08831284
:101BDA000313A601A6070A128A1505200A128A15F6
:101BEA00831203135E08803ADF002708803A5F02F7
:101BFA00031D012E26085D020318042E052E782DDA
:101C0A00062E003083120313A2000030A3000A1626
:101C1A008A1182250A128A150800831203133C08C6
:101C2A00C2003D08C3003E08C4000310430D440D22
:101C3A00C5004508C600C608031D242E252E2D2ED4
:101C4A000030BC000030BD000030BE00FF2EFF2E69
:101C5A003F08C2004008C3004108C4000310430DF6
:101C6A00440DC5004508CB00CB08031D3D2E3E2E72
:101C7A00462E0030BC000030BD000030BE00FF2EF2
:101C8A00FF2E4B087B3EC2004208C6073C08C20032
:101C9A003D08C3003E08C40010300310C40CC30C36
:101CAA00C20CFF3E031D522E4208C5004508CB0058
:101CBA003F08C2004008C3004108C40010300310A6
:101CCA00C40CC30CC20CFF3E031D642E4208C5009F
:101CDA004508CB068030C2004208CB05BD17C017A5
:101CEA00FF30BF05FF30C0050030C1050030C70016
:101CFA000030C8000030C9000730C2004208CA00DC
:101D0A00862E3C1C892E8A2E9B2E3F08C707400828
:101D1A0003110318400A0319932EC8074108031137
:101D2A000318410A03199A2EC9079B2E0130031082
:101D3A00BE0CBD0CBC0CFF3E031D9C2E01300310D3
:101D4A00BF0DC00DC10DFF3E031DA42E0130CA02F6
:101D5A00031DB02EB12E862EB22E0930C2004208C3
:101D6A00CA00B72E3C1CBA2EBB2ECC2E3F08C70782
:101D7A00400803110318400A0319C42EC807410872
:101D8A0003110318410A0319CB2EC907CC2E0130BF
:101D9A000310BE0CBD0CBC0CFF3E031DCD2E013042
:101DAA000310C90CC80CC70CFF3E031DD52E013009
:101DBA00CA02031DE12EE22EB72EE32E4708A00029
:101DCA004808A1004908A2004608C2004208A30028
:101DDA004B08C3004308A4000A128A1564220A1297
:101DEA008A15831203132008BC002108BD002208AB
:101DFA00BE00FF2E080083120313C3003530B9005A
:101E0A003908BC00E62F4408253A03190D2F0E2F76
:101E1A001A2F4408B9004308840039088313800044
:101E2A000130B9003908C307E62FBD01212FFA2F67
:101E3A00362F362FE62F362F0130B407FF303407FE
:101E4A0084000A128A1153270A128A15C400003A1A
:101E5A000319FA2F643A0319362F0D3A0319362F4C
:101E6A00E62F3C08840083130008BF00840A000898
:101E7A00C0000230B9003908BC07C01F452F462FE1
:101E8A00502F0330B9003908BD04BF09C009BF0A81
:101E9A000319C00A502FC4010314C40D4408053A9B
:101EAA00031D582F592F5B2F832F832F4408B90006
:101EBA003907013E84000A128A1153270A128A1529
:101ECA00BA000A128A1153270A128A15BB003B0864
:101EDA004002031D722F3A083F020318752F762F0E
:101EEA00782F832F832F0130B9003908C40744089B
:101EFA00053A031D812F822F5B2F832F3D0803395B
:101F0A000319882F892F952F2D30B9004308840093
:101F1A003908831380000130B9003908C307952FA7
:101F2A004408B9003908BE00DA2F0A30AE00003082
:101F3A00AF003E08B9003907013E84000A128A112F
:101F4A0053270A128A15A6000A128A1153270A125F
:101F5A008A15A7004008A901A9073F08A801A807F0
:101F6A000A168A1160270A128A1583120313270890
:101F7A00B101B1072608B001B0070A168A118D26E9
:101F8A000A128A15831203132E08303EBA003A0841
:101F9A00C4004408B9004308840039088313800048
:101FAA000130B9003908C307DA2FFF30B900390800
:101FBA00BE073E08FF3A031DE32FE42F9A2FE62FB0
:101FCA00E62F0130B407FF30340784000A128A1161
:101FDA0053270A128A15B9003908C400C408031D18
:101FEA00F72FF82F082FFA2FFA2F430884008313AC
:061FFA008001FF2F08002A
:1026780083120313A300A31723080A168A118E23B3
:102688000A168A11080053344A3465346E345C34AF
:102698004134923496347E348A349A348E343C34BD
:1026A80083120313A2000911891009142208880053
:1026B800091509110730A1007D30A000A00B622B7D
:1026C800A10B622B08007E088A007F0882000A1688
:1026D8008A1167230A168A118000840A04087D0675
:1026E80003190034FF0A0319FE0A6B2B8312031324
:1026F800A200A1018C1122089300822B8C1D852B2E
:10270800862B822B872B1308A0002008A1008C1190
:102718008D2B080083120313A200091189100910D8
:1027280022088800091509110D30A100FB30A0000E
:10273800A00B9C2BA10B9C2BA12B0800831203132D
:1027480085013F30831603138500A13083120313DC
:102758009F000230831603139F0053308312031324
:10276800A000A00BB52B080000300A168A110E260F
:102778000A168A1183120313AA00AB012A08AC00B7
:102788002B08AD002D08A901A9072C08A801A80746
:10279800CD2B080083120313981CD32BD42BD92BD1
:1027A800181218160310E62BE62B83160313550888
:1027B8005606031DE02BE12BE32B0310E62B031435
:1027C800E62BE62B080080300A168A1155250A16D2
:1027D8008A1184300A168A1155250A168A119630EC
:1027E8000A168A1155250A168A1100300A168A1106
:1027F80055250A168A110800F001F101FD0183131D
:10280800A0308400DC300A128A11F6270A168A11D1
:10281800831790308400B0300A128A11F6270A16FE
:102828008A118313E930FD001330FE004730FF00A2
:10283800DC3084000A168A116B230A168A11830178
:102848000A128A11782A831203139E011F152C2C51
:102858001F192F2C302C2C2C000000000000831294
:1028680003131E08A200A3012208A4002308A50040
:1028780001300310A40DA50DFF3E031D3D2C83164A
:1028880003131E08831203132508A101A1072408B6
:10289800A001A0074F2C0800831603138717BF3029
:1028A80083120313A0002008831603138705181545
:1028B8001430990018138312031318138316031383
:1028C80018128312031398171816831603130C1281
:1028D8008C1698160030DB00DA00D600831203133A
:1028E800A000200883160313D500080002308316C1
:1028F80003139F00831203138801890183160313AE
:102908008801890101300A168A118E230A168A1154
:1029180038300A168A118E230A168A110C300A16C4
:102928008A118E230A168A1106300A168A118E23F6
:102938000A168A1102300A168A118E230A168A117B
:10294800080083120313A401A501AA2C201CAD2C96
:10295800AE2CB42C2208A4070318A50A2308A5073F
:1029680001300310A20DA30DFF3E031DB52C01304D
:102978000310A10CA00CFF3E031DBC2C2108200451
:10298800031DC72CC82CAA2CC92C2508A101A107F6
:102998002408A001A007D02C0800D32CD32C0A1699
:1029A8008A11CE230A168A11031CDB2CDC2CD32CAB
:1029B8008B13831603135608A03E84008313000864
:1029C80083120313A0002008A1000130A0002008F2
:1029D80083160313D6070F3083120313A0002008B1
:1029E80083160313D6058B17831203132108FC2CB7
:1029F800080083120313BB01B71F032D042D0D2DEF
:102A0800B609B709B60A0319B70ABB010314BB0D07
:102A18000D2D3608A0003708A100A2018E30B9009C
:102A28003908A3003B08BA003A08A4000A128A151C
:102A380064220A168A11831203132008B60021089B
:102A4800B7002208B800282D0800432D831203136D
:102A58002808FF00270884000A128A1149270A1645
:102A68008A110A168A1154230A168A110130831210
:102A78000313A7070318A80A0030A807432D8312D9
:102A880003132808FF00270884000A128A1149271F
:102A98000A168A110038031D522D532D2A2D542D44
:102AA800080083120313A1005A2D5A2D831603130D
:102AB8005A08013E0F395B060319632D642D5A2D00
:102AC8008B13831203132108A000831603135A08DB
:102AD800A03E840083120313200883178000831606
:102AE80003135A08013E0F3983120313A00020086C
:102AF80083160313DA000C168B17080083120313CE
:102B08002208A4002408A5002308A4002408A6007D
:102B180089300A168A1155250A168A118312031359
:102B280026080A168A1155250A168A1183120313D4
:102B380025080A168A1155250A168A1180300A16A0
:102B48008A1155250A168A1100300A168A11552548
:102B58000A168A110800FD01FC308316031386004B
:102B6800903083120313A3002308831603138705E9
:102B780040309400A130831203139400043083166C
:102B8800031381000A168A1150240A168A110A169C
:102B98008A11A2230A168A110A168A117A240A1699
:102BA8008A110A168A11E7230A168A118B160B173F
:102BB8008B1708000A128A15E1220A168A11F11DDC
:102BC800E62DE72DEB2DF11101300D2E0D2E701D88
:102BD800EE2DEF2DF32D701102300D2E0D2E701EDF
:102BE800F62DF72DFB2D701203300D2E0D2EF11C36
:102BF800FE2DFF2D032EF11004300D2E0D2E701C0E
:102C0800062E072E0B2E701005300D2E0D2E0030BF
:102C18000D2E080083120313A7002A2E9F111F12DE
:102C28009F123B2E9F151F129F123B2E9F111F169E
:102C38009F123B2E9F151F169F123B2E9F111F128E
:102C48009F163B2E0030482E482E3B2E2708003A70
:102C58000319122E013A0319162E033A03191A2ED4
:102C6800013A03191E2E073A0319222E262E533035
:102C7800A600A60B3D2E0A168A1127240A168A11C9
:102C8800831203132008482E0800730872040319DE
:102C98004E2E4F2E852EF7010314F70D5F2E0130AF
:102CA8000310F20DF30DFF3E031D542E0130F60004
:102CB8007608F7075F2EF31F622E632E532E652EBC
:102CC800652E73087502031D6B2E72087402031CAF
:102CD8006E2E6F2E762E7208F4027308031CF5030D
:102CE800F502762E01300310F30CF20CFF3E031DA3
:102CF800772E0130F702031D822E832E652E852E36
:102D0800852E7508F301F3077408F201F2078C2E7B
:102D18000800831203132F082E040319942E952EEE
:102D2800CB2EB3010314B30DA52E01300310AE0D45
:102D3800AF0DFF3E031D9A2E0130B2003208B307D3
:102D4800A52EAF1FA82EA92E992EAB2EAB2E2F087D
:102D58003102031DB12E2E083002031CB42EB52EED
:102D6800BC2E2E08B0022F08031CB103B102BC2EE2
:102D780001300310AF0CAE0CFF3E031DBD2E013019
:102D8800B302031DC82EC92EAB2ECB2ECB2E310875
:102D9800AF01AF073008AE01AE07D22E08000230EF
:102DA80083120313D900590883160313D200803005
:102DB8000A168A1155250A168A11E22EF01FE52EE9
:102DC800E62E052FF0130A128A11CA240A168A1150
:102DD800052F052FFD01E22EFD01E22EFD01E22E59
:102DE800FD01E22E84300A168A1155250A168A1129
:102DF800FD0183160313D201182F182FFD01E22EAF
:102E0800E22E7D08013A0319EE2E033A0319F02E3B
:102E1800013A0319F22E073A0319F42E013A03195D
:102E2800F62E022FE22EE22E080083120313A000D2
:102E38004B2F5D2F5D2FFF3083160313C007031838
:102E4800C10AFF30C107C11F2A2F2B2F5D2F053064
:102E5800C0000030C1005D2F5D2F013083160313C1
:102E6800C0070318C10A0030C107063040064104F4
:102E7800031D3F2F402F5D2FC001C1015D2F5D2F26
:102E88008316031340085F2F5F2F5D2F5D2F83127A
:102E98002008013A03195D2F033A03195D2F013AFF
:102EA80003191F2F073A0319312F013A0319442F29
:102EB8005D2FFF305F2F080083120313AB01AC01B5
:102EC800270826040319692F6A2FA82FAD010314B8
:102ED800AD0D7A2F01300310A60DA70DFF3E031D7F
:102EE8006F2F0130AA002A08AD077A2FA71F7D2F60
:102EF8007E2F6E2F802F802F01300310AB0DAC0D6D
:102F0800FF3E031D812F27082902031D8D2F260848
:102F18002802031C902F912F992F2608A802270812
:102F2800031CA903A9022B14992F01300310A70C25
:102F3800A60CFF3E031D9A2F0130AD02031DA52FDD
:102F4800A62F802FA82FA82F2C08A701A7072B088A
:102F5800A601A607AF2F08008312031307148714CE
:102F6800A508031DB82FB92FC02F0B300A168A11D8
:102F78007A230A168A11C72F09300A168A117A236A
:102F88000A168A11C72F8312031307108710A80186
:102F9800A901E42F071500008312031307116230FB
:102FA800A7006530A600A60BD72FA70BD72FDC2FBD
:102FB800013083120313A8070318A90A0030A907D0
:102FC80024082902031DEA2F23082802031CED2FD9
:102FD800EE2FCE2F0714871400300A168A117A2391
:102FE8000A168A11831203130710871007150000A9
:082FF800831203130711080006
:02400E0032FF7F
:00000001FF
