:060000000A128A11122809
:10000800FE00030EFA000408FB000A08FC00831235
:1000180003137F08FD000A128A11C12D0A128A15DE
:10002800EA2A0030831203136B02D53003196A02DF
:10003800031C1F282028632800306B02EA300319AC
:100048006A0203182828292863281530A6000030DA
:10005800A7006A09AE006B09AF00AE0A0319AF0A20
:100068002E08EA3EA0002F080318013E003EA1001A
:100078000530A2000030A3000A128A1564220A1271
:100088008A11831203132108A901A9072008A801CE
:10009800A8070A128A15CD240A128A11831203139B
:1000A80026080F3E83160313C6008312031327087E
:1000B8000318013E003E83160313C700372A003099
:1000C80083126B02AA3003196A02031C6C286D287C
:1000D800B02800306B02D53003196A02031875285E
:1000E8007628B0282B30A6000030A7006A09AE0099
:1000F8006B09AF00AE0A0319AF0A2E08D53EA0005F
:100108002F080318013E003EA1000A30A20000306B
:10011800A3000A128A1564220A128A118312031391
:100128002108A901A9072008A801A8070A128A1509
:10013800CD240A128A11831203132608143E83164B
:100148000313C6008312031327080318013E003E59
:1001580083160313C700372A003083126B028030DE
:1001680003196A02031CB928BA28FD2800306B025B
:10017800AA3003196A020318C228C328FD282A30A6
:10018800A6000030A7006A09AE006B09AF00AE0AEE
:100198000319AF0A2E08AA3EA0002F080318013E33
:1001A800003EA1000A30A2000030A3000A128A15FE
:1001B80064220A128A11831203132108A901A907CC
:1001C8002008A801A8070A128A15CD240A128A1144
:1001D8008312031326081E3E83160313C6008312D8
:1001E800031327080318013E003E83160313C700B4
:1001F800372A003083126B026B3003196A02031C22
:10020800062907294A2900306B02803003196A023F
:1002180003180F2910294A291530A6000030A70015
:100228006A09AE006B09AF00AE0A0319AF0A2E08BF
:10023800803EA0002F080318013E003EA1000A30AE
:10024800A2000030A3000A128A1564220A128A1139
:10025800831203132108A901A9072008A801A807E8
:100268000A128A15CD240A128A118312031326084A
:10027800283E83160313C6008312031327080318A6
:10028800013E003E83160313C700372A003083124D
:100298006B024D3003196A02031C5329542997290C
:1002A80000306B026B3003196A0203185C295D2960
:1002B80097291E30A6000030A7006A09AE006B0916
:1002C800AF00AE0A0319AF0A2E086B3EA0002F0834
:1002D8000318013E003EA1000A30A2000030A3002E
:1002E8000A128A1564220A128A118312031321083A
:1002F800A901A9072008A801A8070A128A15CD2470
:100308000A128A11831203132608323E8316031336
:10031800C6008312031327080318013E003E831604
:100328000313C700372A003083126B0238300319D1
:100338006A02031CA029A129E42900306B024D3070
:1003480003196A020318A929AA29E4291530A60065
:100358000030A7006A09AE006B09AF00AE0A0319A6
:10036800AF0A2E084D3EA0002F080318013E003E9C
:10037800A1000A30A2000030A3000A128A156422E4
:100388000A128A11831203132108A901A907200858
:10039800A801A8070A128A15CD240A128A11831205
:1003A800031326083C3E83160313C6008312031367
:1003B80027080318013E003E83160313C700372A97
:1003C800003083126B022B3003196A02031CED29DB
:1003D800EE29372A00306B02383003196A020318F5
:1003E800F629F729372A0D30A6000030A7006A0938
:1003F800AE006B09AF00AE0A0319AF0A2E08383EEB
:10040800A0002F080318013E003EA1000A30A200F8
:100418000030A3000A128A1564220A128A11831274
:1004280003132108A901A9072008A801A8070A128F
:100438008A15CD240A128A11831203132608463E10
:1004480083160313C6008312031327080318013EFB
:10045800003E83160313C700372A372A372A372A5C
:10046800372A372A372A08004A3084009030831206
:100478000313C5000408C6001030C70045088400EF
:1004880083170008C800C50A460884008313480873
:100498008000C60AC70B422AA32B01300A128A150C
:1004A800AF210A128A111B3083120313C5004508B5
:1004B800B4006B08B601B6076A08B501B50783161C
:1004C8000313410883120313B801B80783160313F3
:1004D800400883120313B701B7074A300A128A117A
:1004E800C1240A128A1100300A128A11F4270A124A
:1004F8008A114A3083120313A7000030A8000A1299
:100508008A1590220A128A1140300A128A11F42799
:100518000A128A11831603134908803AFF008030B3
:100528007F02031D992A01304802031C9C2A9D2A38
:10053800B02A831603134808FF3EE83E840083135D
:10054800000883120313A7008030A8000A128A1536
:1005580090220A128A11C32A831603134808053EFB
:10056800E83E84008313000883120313A700803039
:10057800A8000A128A1590220A128A11C32A443046
:100588000A128A11F4270A128A11831603134808DB
:10059800E23E84008313000883120313A70080300F
:1005A800A8000A128A1590220A128A114D300A12DE
:1005B8008A11F4270A128A11063083120313A00045
:1005C8000030A100831603134808013E8312031369
:1005D800A2008316031349080318013E003E831244
:1005E8000313A3000A128A118E260A128A11831293
:1005F80003132008E83E840083130008A700803016
:10060800A8000A128A1590220A128A11B02B01300A
:100618000A128A15AF210A128A111B30831203139A
:10062800C5004508B400831603135A088312031340
:10063800C600C7014608B5004708B600831603136D
:100648005B0883120313C800C9014808B7004908AA
:10065800B8004A300A128A11C1240A128A110030DD
:100668000A128A11F4270A128A114A3083120313D4
:10067800A7000030A8000A128A1590220A128A11CF
:1006880040300A128A11F4270A128A117430831230
:100698000313A7008030A8000A128A1590220A12B4
:1006A8008A1144300A128A11F4270A128A11683012
:1006B80083120313A7008030A8000A128A1590221B
:1006C8000A128A114D300A128A11F4270A128A1165
:1006D800783083120313A7008030A8000A128A1505
:1006E80090220A128A11B02B01300A128A15AF2102
:1006F8000A128A1100300A128A11F4270A128A1182
:100708000B3083120313A7008030A8000A128A1541
:1007180090220A128A1144300A128A11F4270A1206
:100728008A112A3083120313A7008030A8000A1206
:100738008A1590220A128A11B02BB02BB02B83167F
:1007480003135808003A0319512A013A03190B2BCD
:10075800033A0319782BB02B0800FF3083120313D8
:10076800E2006208E700E501E6010A128A1548235B
:100778000A128A11BF2B83160313D608031DC52B33
:10078800C62B0E2CF01FC92BCA2B0E2CF0130A12E5
:100798008A119F270A128A110A128A1138220A120C
:1007A8008A110E2C0E2C01300A128A153D240A12C9
:1007B8008A1183120313EC01A02C02300A128A1545
:1007C8003D240A128A1183120313EC01A02C033072
:1007D8000A128A153D240A128A1183120313EC01A6
:1007E800A02C04300A128A153D240A128A11831299
:1007F8000313EC01A02C05300A128A153D240A12B5
:100808008A1183120313E2006208E700EC01A02CAE
:10081800A02CA02C831203136C08013A0319D72BC0
:10082800033A0319E12B013A0319EB2B073A031991
:10083800F52B013A0319FF2BA02CA02C0A128A15BC
:100848006D250A128A11B62C0A128A15D1250A12A8
:100858008A11831203135B08E601E6075A08E501CB
:10086800E5076509E2006609E300E20A0319E30AFD
:100878006208903EA30063080318013E013EA400ED
:10088800A5010A128A151D250A128A11B62C0330F1
:1008980083120313E4008A30E3005630E200E20BCF
:1008A800532CE30B532CE40B532C5A2CC8308312D3
:1008B8000313A2000030A3000A128A15DC260A12CC
:1008C8008A11B62C033083120313E4008A30E30044
:1008D8005630E200E20B6E2CE30B6E2CE40B6E2C10
:1008E800752CE83083120313A2000330A3000A1208
:1008F8008A15DC260A128A11A63083120313A20075
:10090800FF30A3000A128A1554260A128A11E83009
:1009180083120313A2000330A3000A128A15DC26EF
:100928000A128A11B62CB62C0A128A1584240A12C5
:100938008A11B62CB62CB62C831203136708003A1A
:100948000319222C013A0319282C033A03194B2CBA
:10095800013A0319662C073A0319B62C013A031910
:10096800982CB62CFF3083120313E2006208E700CC
:10097800BF2BBF2B0A128A11122883120313C3003C
:100988003530B9003908BC00A72D4408253A0319A9
:10099800CE2CCF2CDB2C4408B9004308840039083E
:1009A800831380000130B9003908C307A72DBD01A2
:1009B800E22CBB2DF72CF72CA72DF72C0130B40710
:1009C800FF30340784000A128A110A270A128A1192
:1009D800C400003A0319BB2D643A0319F72C0D3AE9
:1009E8000319F72CA72D3C08840083130008BF00C7
:1009F800840A0008C0000230B9003908BC07C01FCB
:100A0800062D072D112D0330B9003908BD04BF0983
:100A1800C009BF0A0319C00A112DC4010314C40D6B
:100A28004408053A031D192D1A2D1C2D442D442D5B
:100A38004408B9003907013E84000A128A110A27BE
:100A48000A128A11BA000A128A110A270A128A118E
:100A5800BB003B084002031D332D3A083F02031830
:100A6800362D372D392D442D442D0130B900390844
:100A7800C4074408053A031D422D432D1C2D442D5F
:100A88003D0803390319492D4A2D562D2D30B9003B
:100A9800430884003908831380000130B9003908FD
:100AA800C307562D4408B9003908BE009B2D0A30EB
:100AB800AE000030AF003E08B9003907013E84009F
:100AC8000A128A110A270A128A11A6000A128A1122
:100AD8000A270A128A11A7004008A901A9073F0896
:100AE800A801A8070A128A15CD240A128A118312AE
:100AF80003132708B101B1072608B001B0070A128D
:100B08008A15F7230A128A11831203132E08303E1E
:100B1800BA003A08C4004408B900430884003908F8
:100B2800831380000130B9003908C3079B2DFF30BB
:100B3800B9003908BE073E08FF3A031DA42DA52DAC
:100B48005B2DA72DA72D0130B407FF303407840093
:100B58000A128A110A270A128A11B9003908C40030
:100B6800C408031DB82DB92DC92CBB2DBB2D4308B6
:100B7800840083138001C02D08000B1DC42DC52DD2
:100B88004A2E0B11643081000130E8070318E90A86
:100B98000030E9076F140A30F2000030F3006908EA
:100BA800F501F5076808F401F4070A128A15B3235A
:100BB8000A128A1173087204031DE32DE42DE62D31
:100BC8007017E62D3230F2000030F3008312031361
:100BD8006908F501F5076808F401F4070A128A158F
:100BE800B3230A128A1173087204031DFC2DFD2D0C
:100BF800FF2DF114FF2DFA30F2000030F3008312BC
:100C080003136908F501F5076808F401F4070A12E7
:100C18008A15B3230A128A1173087204031D152E4C
:100C2800162E182EF017182EF430F2000130F300AB
:100C3800831203136908F501F5076808F401F4073E
:100C48000A128A15B3230A128A1173087204031D43
:100C58002E2E2F2E372E711483120313E801E9016B
:100C680001308606372E83120313EC08031D3D2E30
:100C78003E2E4A2E0A128A1518230A128A11F800E3
:100C8800780883120313EC004A2E4A2E8C1E4D2E30
:100C98004E2E5C2E1A08F800780883160313D1002C
:100CA8005108F800F9017808C0007908C1005C2EE5
:100CB80083120C1E602E612E822E831603130C1EC7
:100CC800662E672E822E831203136E08B03E8400B0
:100CD8008313000899000130F8007808EE070F30F8
:100CE800F8007808EE056E086D06031D7C2E7D2E33
:100CF800822E831603130C12822E822E7D088312F5
:100D0800FF007C088A007B0884007A0E8300FE0EB0
:100D18007E0E090083120313A601A31F942E952E9D
:100D28009E2EA209A309A20A0319A30AA601031465
:100D3800A60D9E2EA11FA12EA22EA82EA009A109A4
:100D4800A00A0319A10AA82E210820040319AD2E10
:100D5800AE2EE42EA5010314A50DBE2E01300310FE
:100D6800A00DA10DFF3E031DB32E0130A4002408E1
:100D7800A507BE2EA11FC12EC22EB22EC42EC42E70
:100D880021082302031DCA2E20082202031CCD2E8F
:100D9800CE2ED52E2008A2022108031CA303A302ED
:100DA800D52E01300310A10CA00CFF3E031DD62E3A
:100DB8000130A502031DE12EE22EC42EE42EE42EFE
:100DC8002608031DE82EEE2EA209A309A20A03197C
:100DD800A30AEE2E2308A101A1072208A001A0075B
:100DE800F52E080064008001840A04060319003403
:040DF8000406F72EC8
:100E0000FF1B0A2F83137F1883170008840A031916
:100E1000FF0A080007308A000408840A82070034A9
:100E2000013400340A34003464340034E8340334C8
:100E300010342734203443346834613472346734D6
:100E400069346E34673420344D346F34643465341F
:100E5000203400344134443443343A342534643447
:100E6000203444346934733474343A34253464346B
:100E70000034203420344534583449345434203438
:100E8000203400342034433468346134723467349D
:100E90006534203400345334633461346E345F3449
:100EA0003334363430340034433461346C34693490
:100EB00062345F3449345234003446346C3477340D
:100EC0005F34573461346C346C34003444347234DD
:100ED0006934763465345F3432346D3400344434EC
:100EE00072346934763465345F344C3400344334BE
:100EF0004F344E344634493452344D340034443443
:100F00007234323400343C343C343C3400343E34AB
:100F10003E343E340034443472344C340034433470
:100F2000683467340034433461346C3400345334EF
:100F300063346E34003446346C34773400348312B6
:100F40000313B001B101B201B3013308803AFF00CD
:100F500080307F02031DAE2F0A303202031CB12FF6
:100F6000B22FB42FD52FD52F0A128A15D9210A12E4
:100F70008A11831203132808B0070318B10A29083D
:100F8000B1070130B2070318B30A0030B3073308C2
:100F9000803AFF0080307F02031DD02F0A303202DA
:100FA000031CD32FD42FB42FD52F0A308312031351
:100FB000A6000030A7003108A901A9073008A80140
:100FC000A8070A128A15CD240A128A118312031364
:100FD0002708EB01EB072608EA01EA070A128A1143
:100FE00015200A128A11080083120313A300A31705
:0E0FF00023080A128A15AF210A128A1108007E
:1012B60080300A128A15EF210A128A1584300A1222
:1012C6008A15EF210A128A15080045343C34573432
:1012D60060344E3433348434883470347C348C3403
:1012E60080343C3483120313A200091189100914B7
:1012F60022088800091509110730A1007D30A000D9
:10130600A00B8329A10B832908007E088A007F0889
:1013160082000A128A1588210A128A158000840A18
:1013260004087D0603190034FF0A0319FE0A8C29F6
:1013360083120313A200A1018C1122089300A32992
:101346008C1DA629A729A329A8291308A0002008CF
:10135600A1008C11AE29080083120313A200091103
:101366008910091022088800091509110D30A100FD
:10137600FB30A000A00BBD29A10BBD29C229080086
:101386008312031385013F30831603138500A130B2
:10139600831203139F000230831603139F005330FA
:1013A60083120313A000A00BD629080000300A12EE
:1013B6008A1578230A128A1583120313AA00AB0131
:1013C6002A08AC002B08AD002D08A901A9072C0896
:1013D600A801A807EE29080083120313A100F42927
:1013E600F4296D08013E0F396E060319FB29FC2905
:1013F600F4298B132108A0006D08B03E8400200854
:10140600831380006D08013E0F39A0002008ED000F
:10141600831603130C168B170800831203139E0101
:101426001F15152A1F19182A192A152A0000000047
:101436000000831203131E08A200A3012208A400C1
:101446002308A50001300310A40DA50DFF3E031DC2
:10145600262A831603131E08831203132508A101E7
:10146600A1072408A001A007382A08000230831625
:1014760003139F0083120313880189018316031344
:101486008801890101300A128A15AF210A128A15CC
:1014960038300A128A15AF210A128A150C300A1240
:1014A6008A15AF210A128A1506300A128A15AF214B
:1014B6000A128A1502300A128A15AF210A128A15F3
:1014C600080083120313A401A501692A201C6C2AB3
:1014D6006D2A732A2208A4070318A50A2308A5075C
:1014E60001300310A20DA30DFF3E031D742A013027
:1014F6000310A10CA00CFF3E031D7B2A210820042B
:10150600031D862A872A692A882A2508A101A10798
:101516002408A001A0078F2A0800AA2A8312031311
:101526002808FF00270884000A128A1100270A12D9
:101536008A150A128A1575210A128A150130831234
:101546000313A7070318A80A0030A807AA2A8312BC
:1015560003132808FF00270884000A128A110027AF
:101566000A128A150038031DB92ABA2A912ABB2AFB
:101576000800831603138717BF3083120313A000D6
:1015860020088316031387051815143099001813BD
:1015960083120313181383160313181283120313EB
:1015A60098171816831603130C128C16981600300B
:1015B60083120313EE00ED0083160313DD0083127E
:1015C6000313A000200883160313DC000800F001B3
:1015D600F101EF01E801E901EA01EB01EC01ED019E
:1015E600EE018313A0308400E2300A128A11F62637
:1015F6000A128A15831790308400A0300A128A11C5
:10160600F6260A128A158313EF30FD000930FE0014
:101616006830FF00E23084000A128A158C210A1213
:101626008A1583010A128A11B12B0A128A156827B4
:101636000A128A15711E202B212B252B71120130BF
:10164600472B472B701D282B292B2D2B7011023071
:10165600472B472B701E302B312B352B7012033046
:10166600472B472B711D382B392B3D2B711104301D
:10167600472B472B701C402B412B452B70100530F8
:10168600472B472B0030472B08008B130A128A156D
:10169600C3210A128A150A128A1539220A128A15D4
:1016A6000A128A15BC220A128A150A128A155B21A9
:1016B6000A128A15FC3083160313860090308312B3
:1016C6000313A300230883160313870540309400F1
:1016D600A130831203139400043083160313810090
:1016E6008B160B178B178B17080083120313A70093
:1016F600942B9F111F129F12A52B9F151F129F122D
:10170600A52B9F111F169F12A52B9F151F169F1203
:10171600A52B9F111F129F16A52B0030B22BB22BA3
:10172600A52B2708003A03197C2B013A0319802BB5
:10173600033A0319842B013A0319882B073A031934
:101746008C2B902B5330A600A60BA72B0A128A15BA
:1017560010220A128A15831203132008B22B0800DE
:10176600730872040319B82BB92BEF2BF701031476
:10177600F70DC92B01300310F20DF30DFF3E031DCB
:10178600BE2B0130F6007608F707C92BF31FCC2BCA
:10179600CD2BBD2BCF2BCF2B73087502031DD52B5D
:1017A60072087402031CD82BD92BE02B7208F402A2
:1017B6007308031CF503F502E02B01300310F30C4C
:1017C600F20CFF3E031DE12B0130F702031DEC2B4B
:1017D600ED2BCF2BEF2BEF2B7508F301F3077408D6
:1017E600F201F207F62B0800831203132F082E04CA
:1017F6000319FE2BFF2B352CB3010314B30D0F2C4D
:1018060001300310AE0DAF0DFF3E031D042C013059
:10181600B2003208B3070F2CAF1F122C132C032C67
:10182600152C152C2F083102031D1B2C2E083002F7
:10183600031C1E2C1F2C262C2E08B0022F08031C5E
:10184600B103B102262C01300310AF0CAE0CFF3EE3
:10185600031D272C0130B302031D322C332C152C0B
:10186600352C352C3108AF01AF073008AE01AE0775
:101876003C2C080083120313A0006F2C812C812CB2
:10188600FF3083160313C8070318C90AFF30C907B8
:10189600C91F4E2C4F2C812C0530C8000030C900C2
:1018A600812C812C013083160313C8070318C90A3B
:1018B6000030C907063048064904031D632C642C12
:1018C600812CC801C901812C812C83160313480879
:1018D600832C832C812C812C83122008013A031936
:1018E600812C033A0319812C013A0319432C073A38
:1018F6000319552C013A0319682C812CFF30832CCF
:101906000800023083120313DA005A088316031301
:10191600D80080300A128A15EF210A128A15932CF4
:10192600F01F962C972CB72CF0130A128A11382226
:101936000A128A15B72CB72CEC01932CEC01932CC8
:10194600EC01932CEC01932C84300A128A15EF21BA
:101956000A128A1583120313EC0183160313D801A6
:10196600CC2CCC2C932C932C831203136C08013AA9
:1019760003199F2C033A0319A12C013A0319A32C2E
:10198600073A0319A52C013A0319A72C932C932C7B
:10199600932C080083120313AB01AC01270826041D
:1019A6000319D62CD72C152DAD010314AD0DE72C3C
:1019B60001300310A60DA70DFF3E031DDC2C0130E0
:1019C600AA002A08AD07E72CA71FEA2CEB2CDB2C74
:1019D600ED2CED2C01300310AB0DAC0DFF3E031DBD
:1019E600EE2C27082902031DFA2C26082802031CC0
:1019F600FD2CFE2C062D2608A8022708031CA90389
:101A0600A9022B14062D01300310A70CA60CFF3ECD
:101A1600031D072D0130AD02031D122D132DED2CD4
:101A2600152D152D2C08A701A7072B08A601A6071B
:101A36001C2D08008312031307148714A508031D21
:101A4600252D262D2D2D0F300A128A159B210A12BF
:101A56008A15342D0D300A128A159B210A128A1511
:101A6600342D8312031307108710A801A901512DE5
:101A7600071500008312031307116230A7006530B3
:101A8600A600A60B442DA70B442D492D0130831229
:101A96000313A8070318A90A0030A9072408290276
:101AA600031D572D23082802031C5A2D5B2D3B2DA1
:101AB6000714871400300A128A159B210A128A1508
:101AC60083120313071087100715000083120313F0
:101AD6000711080083160313D8010314D80D083024
:101AE60083120313A3000030A400A5010A128A156D
:101AF6001D250A128A157F2DF01F822D832DBB2DE1
:101B0600F0130A128A1138220A128A15BB2DBB2D30
:101B1600EC017F2DEC017F2D0130A3000030A400E5
:101B2600A5010314A50D0A128A151D250A128A1588
:101B360083120313EC017F2D0130A3000030A400B3
:101B4600A5010A128A151D250A128A158312031386
:101B5600EC017F2D83160313CE01CF0183120313ED
:101B6600EC0183160313D801D02DD02D7F2D7F2DA8
:101B7600831203136C08013A03198B2D033A0319D8
:101B86008D2D013A03198F2D073A03199F2D013A1E
:101B96000319AD2D7F2D7F2D7F2D08008312031392
:101BA600DC01DD01DE01DF0183160313D601031418
:101BB600D60D83120313E001E1016108803AFF00AC
:101BC60081307F02031DE92D90306002031CEC2D4D
:101BD600ED2DEF2D472E472E0A128A119F270A1246
:101BE6008A15831203136B085D02031DFC2D6A0818
:101BF6005C020318FF2D002E0D2E6B08DD01DD079C
:101C06006A08DC01DC076108DF01DF076008DE0126
:101C1600DE070D2E0130A3000030A400A501031439
:101C2600A50D0A128A151D250A128A15F01F1C2EEB
:101C36001D2E242EF0130A128A1138220A128A1532
:101C4600242E831203135F0883160313CB01CB07DD
:101C5600831203135E0883160313CA01CA070130F1
:101C660083120313E0070318E10A0030E107610855
:101C7600803AFF0081307F02031D432E90306002C0
:101C8600031C462E472EEF2D83160313D60183120F
:101C960003135F08DB01DB075E08DA01DA07532E60
:101CA6000800831203132208A400240883160313D2
:101CB600E100831203132308A400240883160313E8
:101CC600E00083120313A31B692E6A2E892E893026
:101CD6000A128A15EF210A128A1500300A128A158D
:101CE600EF210A128A1564300A128A15EF210A12A8
:101CF6008A1500300A128A15EF210A128A15013058
:101D06000A128A15EF210A128A15A72E89300A129D
:101D16008A15EF210A128A1500300A128A15EF2158
:101D26000A128A1564300A128A15EF210A128A15D8
:101D3600FF300A128A15EF210A128A15FF300A129D
:101D46008A15EF210A128A159D300A128A15EF218B
:101D56000A128A158316031360080A128A15EF21E0
:101D66000A128A158316031361080A128A15EF21CF
:101D76000A128A1589300A128A15EF210A128A1563
:101D860000300A128A15EF210A128A1500300A124B
:101D96008A15EF210A128A1500300A128A15EF21D8
:101DA6000A128A1500300A128A15EF210A128A15BC
:101DB600080083160313C001C1018312031322080E
:101DC600A400240883160313DB00831203132308DD
:101DD600A400240883160313DA0083120313A31B3B
:101DE600F52EF62E152F89300A128A15EF210A12C2
:101DF6008A1500300A128A15EF210A128A15C83090
:101E06000A128A15EF210A128A1580300A128A15DB
:101E1600EF210A128A1500300A128A15EF210A12DA
:101E26008A15332F89300A128A15EF210A128A156C
:101E3600FF300A128A15EF210A128A1538300A1263
:101E46008A15EF210A128A1580300A128A15EF21A7
:101E56000A128A1500300A128A15EF210A128A150B
:101E66009C300A128A15EF210A128A15831603136B
:101E76005A080A128A15EF210A128A1583160313C5
:101E86005B080A128A15EF210A128A1589300A128E
:101E96008A15EF210A128A1500300A128A15EF21D7
:101EA6000A128A1500300A128A15EF210A128A15BB
:101EB60000300A128A15EF210A128A1500300A121A
:101EC6008A15EF210A128A150800831203130619D0
:101ED6006D2F6E2F822F0130F200720883160313C6
:101EE600D7070A305702031C792F7A2F862FF11E47
:101EF6007D2F7E2F862F7116F112862F862F831641
:101F06000313D701F1168312031386198B2F8C2F17
:101F1600A02F0130F200720883160313D3070A308C
:101F26005302031C972F982FA42FF01D9B2F9C2F35
:101F3600A42F7015F011A42FA42F83160313D30119
:101F4600F01583120313061AA92FAA2FBE2F0130EC
:101F5600F200720883160313D4070A305402031CD6
:101F6600B52FB62FC22FF01EB92FBA2FC22F70165B
:101F7600F012C22FC22F83160313D401F016831258
:101F86000313861AC72FC82FDC2F0130F200720800
:101F960083160313D5070A305502031CD32FD42FFB
:101FA600E02FF11DD72FD82FE02F7115F111E02F5B
:101FB600E02F83160313D501F11583120313061BB5
:101FC600E52FE62FFA2F0130F2007208831603136D
:101FD600D0070A305002031CF12FF22FFF2FF01CFE
:101FE600F52FF62FFF2F7014F010FF2FFF2F8316FB
:0A1FF6000313D001F014FF2F0800C0
:02400E0032FF7F
:00000001FF
