:060000000A128A11122809
:10000800FE00030EF9000408FA000A08FB00831238
:1000180003137F08FC000A128A11912D0A128A150F
:10002800362C0030831203136B02D53003196A0291
:10003800031C1F282028632800306B02EA300319AC
:100048006A0203182828292863281530A6000030DA
:10005800A7006A09AE006B09AF00AE0A0319AF0A20
:100068002E08EA3EA0002F080318013E003EA1001A
:100078000530A2000030A3000A128A15AF230A1225
:100088008A11831203132108A901A9072008A801CE
:10009800A8070A128A15A1250A128A1183120313C6
:1000A80026080F3E83160313C40083120313270880
:1000B8000318013E003E83160313C500372A00309B
:1000C80083126B02AA3003196A02031C6C286D287C
:1000D800B02800306B02D53003196A02031875285E
:1000E8007628B0282B30A6000030A7006A09AE0099
:1000F8006B09AF00AE0A0319AF0A2E08D53EA0005F
:100108002F080318013E003EA1000A30A20000306B
:10011800A3000A128A15AF230A128A118312031345
:100128002108A901A9072008A801A8070A128A1509
:10013800A1250A128A11831203132608143E831676
:100148000313C4008312031327080318013E003E5B
:1001580083160313C500372A003083126B028030E0
:1001680003196A02031CB928BA28FD2800306B025B
:10017800AA3003196A020318C228C328FD282A30A6
:10018800A6000030A7006A09AE006B09AF00AE0AEE
:100198000319AF0A2E08AA3EA0002F080318013E33
:1001A800003EA1000A30A2000030A3000A128A15FE
:1001B800AF230A128A11831203132108A901A90780
:1001C8002008A801A8070A128A15A1250A128A116F
:1001D8008312031326081E3E83160313C4008312DA
:1001E800031327080318013E003E83160313C500B6
:1001F800372A003083126B026B3003196A02031C22
:10020800062907294A2900306B02803003196A023F
:1002180003180F2910294A291530A6000030A70015
:100228006A09AE006B09AF00AE0A0319AF0A2E08BF
:10023800803EA0002F080318013E003EA1000A30AE
:10024800A2000030A3000A128A15AF230A128A11ED
:10025800831203132108A901A9072008A801A807E8
:100268000A128A15A1250A128A1183120313260875
:10027800283E83160313C4008312031327080318A8
:10028800013E003E83160313C500372A003083124F
:100298006B024D3003196A02031C5329542997290C
:1002A80000306B026B3003196A0203185C295D2960
:1002B80097291E30A6000030A7006A09AE006B0916
:1002C800AF00AE0A0319AF0A2E086B3EA0002F0834
:1002D8000318013E003EA1000A30A2000030A3002E
:1002E8000A128A15AF230A128A11831203132108EE
:1002F800A901A9072008A801A8070A128A15A1259B
:100308000A128A11831203132608323E8316031336
:10031800C4008312031327080318013E003E831606
:100328000313C500372A003083126B0238300319D3
:100338006A02031CA029A129E42900306B024D3070
:1003480003196A020318A929AA29E4291530A60065
:100358000030A7006A09AE006B09AF00AE0A0319A6
:10036800AF0A2E084D3EA0002F080318013E003E9C
:10037800A1000A30A2000030A3000A128A15AF2398
:100388000A128A11831203132108A901A907200858
:10039800A801A8070A128A15A1250A128A11831230
:1003A800031326083C3E83160313C4008312031369
:1003B80027080318013E003E83160313C500372A99
:1003C800003083126B022B3003196A02031CED29DB
:1003D800EE29372A00306B02383003196A020318F5
:1003E800F629F729372A0D30A6000030A7006A0938
:1003F800AE006B09AF00AE0A0319AF0A2E08383EEB
:10040800A0002F080318013E003EA1000A30A200F8
:100418000030A3000A128A15AF230A128A11831228
:1004280003132108A901A9072008A801A8070A128F
:100438008A15A1250A128A11831203132608463E3B
:1004480083160313C4008312031327080318013EFD
:10045800003E83160313C500372A372A372A372A5E
:10046800372A372A372A08004A3084009030831206
:100478000313C5000408C6001030C70045088400EF
:1004880083170008C800C50A460884008313480873
:100498008000C60AC70B422A7A2B01300A128A1535
:1004A80075220A128A110B3083120313C5004508FE
:1004B800B4006B08B601B6076A08B501B50783161C
:1004C8000313490883120313B801B80783160313EB
:1004D800480883120313B701B7074A300A128A1172
:1004E80091240A128A1100300A128A1508220A1267
:1004F8008A114A3083120313A7000030A8000A1299
:100508008A15DB230A128A1140300A128A1508223A
:100518000A128A11831603134708803AFF008030B5
:100528007F02031D992A01304602031C9C2A9D2A3A
:10053800B02A831603134608FF3EE13E8400831366
:10054800000883120313A7008030A8000A128A1536
:10055800DB230A128A11C32A831603134608043EB2
:10056800E13E84008313000883120313A700803040
:10057800A8000A128A15DB230A128A11C32A4430FA
:100588000A128A1508220A128A11831603134608CA
:10059800DC3E84008313000883120313A700803015
:1005A800A8000A128A15DB230A128A114D300A1292
:1005B8008A1508220A128A11053083120313A00033
:1005C8000030A100831603134608013E831203136B
:1005D800A2008316031347080318013E003E831246
:1005E8000313A3000A128A1191270A128A1183128F
:1005F80003132008E13E840083130008A70080301D
:10060800A8000A128A15DB230A128A11842B0130EA
:100618000A128A1575220A128A110B3083120313E3
:10062800C5004508B4008316031356088312031344
:10063800C600C7014608B5004708B600831603136D
:10064800570883120313C800C9014808B7004908AE
:10065800B8004A300A128A1191240A128A1100300D
:100668000A128A1508220A128A114A3083120313C1
:10067800A7000030A8000A128A15DB230A128A1183
:1006880040300A128A1508220A128A11523083123F
:100698000313A7008030A8000A128A15DB230A1268
:1006A8008A1144300A128A1508220A128A11463021
:1006B80083120313A7008030A8000A128A15DB23CF
:1006C8000A128A114D300A128A1508220A128A1152
:1006D800563083120313A7008030A8000A128A1527
:1006E800DB230A128A11842B842B842B8316031391
:1006F8005408003A0319512A013A03190B2B842B89
:1007080008000A128A1507240A128A118B2BFF3057
:1007180083120313E2006208E700E501E60183168D
:100728000313D208031D992B9A2BE22B711C9D2BC6
:100738009E2BE22B71100A128A1541260A128A1181
:100748000A128A1138220A128A11E22BE22B01308E
:100758000A128A155A250A128A1183120313EC0108
:10076800732C02300A128A155A250A128A1183122A
:100778000313EC01732C03300A128A155A250A1246
:100788008A1183120313EC01732C04300A128A15A0
:100798005A250A128A1183120313EC01732C0530AF
:1007A8000A128A155A250A128A1183120313E200C3
:1007B8006208E700EC01732C732C732C831203136B
:1007C8006C08013A0319AB2B033A0319B52B013A0C
:1007D8000319BF2B073A0319C92B013A0319D32B65
:1007E800732C732C0A128A1596260A128A11862CE3
:1007F8000A128A15FB260A128A11831203135B0850
:10080800E601E6075A08E501E5076509E200660919
:10081800E300E20A0319E30A6208903EA3006308B2
:100828000318013E013EA400A5010A128A15F1250C
:100838000A128A11862C033083120313E4008A30CB
:10084800E3005630E200E20B272CE30B272CE40BE5
:10085800272C2E2CD03083120313A2000730A300BC
:100868000A128A1578270A128A11862C03308312F5
:100878000313E4008A30E3005630E200E20B422C16
:10088800E30B422CE40B422C492CE830831203136F
:10089800A2000330A3000A128A1578270A128A11C7
:1008A800A63083120313A200FF30A3000A128A1194
:1008B80009270A128A11E83083120313A2000330B1
:1008C800A3000A128A1578270A128A11862C0A129E
:1008D8008A150F230A128A11862C862C862C8312DD
:1008E80003136708003A0319F62B013A0319FC2B86
:1008F800033A03191F2C013A03193A2C073A031932
:100908006B2C862CFF3083120313E2006208E70089
:100918008B2B8B2B0A128A11122883120313C30004
:100928003530B9003908BC00772D4408253A031939
:100938009E2C9F2CAB2C4408B9004308840039082E
:10094800831380000130B9003908C307772DBD0132
:10095800B22C8B2DC72CC72C772DC72C0130B40790
:10096800FF30340784000A128A150A200A128A11F5
:10097800C400003A03198B2D643A0319C72C0D3AA9
:100988000319C72C772D3C08840083130008BF0087
:10099800840A0008C0000230B9003908BC07C01F2B
:1009A800D62CD72CE12C0330B9003908BD04BF0977
:1009B800C009BF0A0319C00AE12CC4010314C40DFD
:1009C8004408053A031DE92CEA2CEC2C142D142DAF
:1009D8004408B9003907013E84000A128A150A2022
:1009E8000A128A11BA000A128A150A200A128A11F2
:1009F800BB003B084002031D032D3A083F020318C1
:100A0800062D072D092D142D142D0130B900390894
:100A1800C4074408053A031D122D132DEC2C142D80
:100A28003D0803390319192D1A2D262D2D30B9002B
:100A3800430884003908831380000130B90039085D
:100A4800C307262D4408B9003908BE006B2D0A30AB
:100A5800AE000030AF003E08B9003907013E8400FF
:100A68000A128A150A200A128A11A6000A128A1581
:100A78000A200A128A11A7004008A901A9073F08FD
:100A8800A801A8070A128A15A1250A128A11831239
:100A980003132708B101B1072608B001B0070A12ED
:100AA8008A1514250A128A11831203132E08303E60
:100AB800BA003A08C4004408B90043088400390859
:100AC800831380000130B9003908C3076B2DFF304C
:100AD800B9003908BE073E08FF3A031D742D752D6D
:100AE8002B2D772D772D0130B407FF303407840084
:100AF8000A128A150A200A128A11B9003908C40094
:100B0800C408031D882D892D992C8B2D8B2D430806
:100B1800840083138001902D08008C1E942D952D40
:100B2800B72D1A08F8006D08A03E840078088313D2
:100B380080006D08013E0F39F8007808831603130A
:100B4800D8005808831203136E060319AC2DAD2D77
:100B5800B72D831603135808F80078088312031377
:100B6800ED00B72DB72D0C1EBA2DBB2DDB2D83162E
:100B780003130C1EC02DC12DDB2D831203136F0828
:100B8800B03E84008313000899000130F80078080B
:100B9800EF070F30F8007808EF056F087D06031D92
:100BA800D62DD72DDB2D831603130C12DB2D0B1D31
:100BB800DE2DDF2D652E0B1164308312810001308C
:100BC800E8070318E90A0030E907F0170A30F200CD
:100BD8000030F3006908F501F5076808F401F40727
:100BE8000A128A15D0240A128A1173087204031D86
:100BF800FE2DFF2D012E7017012E3230F20000302D
:100C0800F300831203136908F501F5076808F40176
:100C1800F4070A128A15D0240A128A11730872047A
:100C2800031D172E182E1A2E71151A2EFA30F200DF
:100C38000030F300831203136908F501F50768080B
:100C4800F401F4070A128A15D0240A128A117308CB
:100C58007204031D302E312E332E7114332EF430CE
:100C6800F2000130F300831203136908F501F50758
:100C78006808F401F4070A128A15D0240A128A11A6
:100C880073087204031D492E4A2E522EF114831242
:100C98000313E801E90101308606522E831203137B
:100CA800EC08031D582E592E652E0A128A15652444
:100CB8000A128A11F800780883120313EC00652ED3
:100CC800652E7C088312FF007B088A007A0884005E
:100CD800790E8300FE0E7E0E090083120313061997
:100CE800762E772E8B2E0130F200720883160313AE
:100CF800D3070A305302031C822E832E8F2E711FB6
:100D0800862E872E8F2EF11671138F2E8F2E831617
:100D18000313D3017117831203138619942E952E8A
:100D2800A92E0130F200720883160313CF070A3088
:100D38004F02031CA02EA12EAD2EF01DA42EA52E11
:100D4800AD2E7015F011AD2EAD2E83160313CF0105
:100D5800F01583120313061AB22EB32EC72E0130D4
:100D6800F200720883160313D0070A305002031CDE
:100D7800BE2EBF2ECB2EF01EC22EC32ECB2E70162B
:100D8800F012CB2ECB2E83160313D001F01683124C
:100D98000313861AD02ED12EE52E0130F2007208E8
:100DA80083160313D1070A305102031CDC2EDD2EF3
:100DB800E92E711EE02EE12EE92EF1157112E92EB1
:100DC800E92E83160313D101711683120313061B30
:100DD800EE2EEF2E032F0130F20072088316031354
:100DE800CE070A304E02031CFA2EFB2E082FF01CE9
:100DF800FE2EFF2E082F7014F010082F082F8316D0
:100E08000313CE01F014082F0800831203132208DD
:100E1800A400240883160313DB008312031323089A
:100E2800A400240883160313DA0083120313A31BF8
:100E38001E2F1F2F3E2F89300A128A15CC220A1224
:100E48008A1100300A128A15CC220A128A116430DB
:100E58000A128A15CC220A128A1100300A128A153F
:100E6800CC220A128A1101300A128A15CC220A12DF
:100E78008A115C2F89300A128A15CC220A128A112B
:100E880000300A128A15CC220A128A1164300A121A
:100E98008A15CC220A128A11FF300A128A15CC222E
:100EA8000A128A11FF300A128A15CC220A128A11F4
:100EB8009D300A128A15CC220A128A11831603134E
:100EC8005A080A128A15CC220A128A1183160313A9
:100ED8005B080A128A15CC220A128A1189300A1272
:100EE8008A15CC220A128A1100300A128A15CC22DD
:100EF8000A128A1100300A128A15CC220A128A11A3
:100F080000300A128A15CC220A128A1100300A12FD
:100F18008A15CC220A128A11080083120313A6012B
:100F2800A31F972F982FA12FA209A309A20A03197B
:100F3800A30AA6010314A60DA12FA11FA42FA52F54
:100F4800AB2FA009A109A00A0319A10AAB2F2108F8
:100F580020040319B02FB12FE72FA5010314A50D05
:100F6800C12F01300310A00DA10DFF3E031DB62FA8
:100F78000130A4002408A507C12FA11FC42FC52F25
:100F8800B52FC72FC72F21082302031DCD2F2008F7
:100F98002202031CD02FD12FD82F2008A20221080B
:100FA800031CA303A302D82F01300310A10CA00C2B
:100FB800FF3E031DD92F0130A502031DE42FE52FA5
:100FC800C72FE72FE72F2608031DEB2FF12FA209C4
:100FD800A309A20A0319A30AF12F2308A101A10753
:0A0FE8002208A001A007F82F08005E
:10100000FF1B0A2883137F1883170008840A03191B
:10101000FF0A080008308A000408840A82070034A6
:10102000013400340A34003464340034E8340334C6
:10103000103427344134443443343A34253464344E
:10104000203444346934733474343A342534643489
:1010500000345334633461346E345F3433343634A3
:1010600030340034433461346C34693462345F3476
:1010700049345234003446346C3477345F34573456
:1010800061346C346C3400344434723469347634F2
:1010900065345F3432346D3400344434723469342E
:1010A000763465345F344C34003443344F344E343A
:1010B0004634493452344D3400344434723432347A
:1010C00000343C343C343C3400343E343E343E3412
:1010D0000034443472344C340034433461346C345E
:1010E0000034533463346E34003446346C34773413
:0210F0000034CA
:1014000064008001840A0406031900340406012ADA
:1014100083120313A300A31723080A128A15752247
:101420000A128A15080023341A3435343E342C3419
:101430005E3462344E345A3466343C340A3480307C
:101440000A128A15CC220A128A1584300A128A15C9
:10145000CC220A128A1508008E300A128A15CC2274
:101460000A128A158312031322080A128A15CC2243
:101470000A128A15080083120313A20009118910A9
:10148000091422088800091509110730A1007D30D0
:10149000A000A00B492AA10B492A08007E088A0057
:1014A0007F0882000A128A154E220A128A158000CD
:1014B000840A04087D0603190034FF0A0319FE0A92
:1014C000522A83120313A200A1018C112208930057
:1014D000692A8C1D6C2A6D2A692A6E2A1308A000BD
:1014E0002008A1008C11742A080083120313A200A3
:1014F00009118910091022088800091509110D30F9
:10150000A100FB30A000A00B832AA10B832A882A0C
:1015100008008312031385013F30831603138500EF
:10152000A130831203139F000230831603139F0020
:10153000533083120313A000A00B9C2A0800003034
:101540000A128A1595240A128A1583120313AA0017
:10155000AB012A08AC002B08AD002D08A901A90792
:101560002C08A801A807B42A080083120313981CAA
:10157000BA2ABB2AC02A181218160310CB2ACB2A63
:101580006D086E06031DC52AC62AC82A0310CB2A79
:101590000314CB2ACB2A080083120313A100D12AFB
:1015A000D12A7D08013E0F396F060319D82AD92A9E
:1015B000D12A8B132108A0007D08B03E84002008AA
:1015C000831380007D08013E0F39A0002008FD0034
:1015D000831603130C168B170800EF2AEF2A0A1242
:1015E0008A15B5220A128A15031CF72AF82AEF2A4F
:1015F0008B13831203136E08A03E8400831300082C
:10160000A0002008A1000130A0002008EE070F3044
:10161000A0002008EE058B1721080E2B08001330C0
:1016200083120313A2000030A3000A128A152C2291
:101630000A128A150A128A15ED220A128A158312D5
:101640000313A400240883160313E7000A128A1563
:10165000ED220A128A1583120313A40024088316AC
:101660000313E7040800831603138717BF308312A0
:101670000313A000200883160313870518151430E0
:1016800099001813831203131813831603131812E7
:101690008312031398171816831603130C128C1653
:1016A0009816003083120313EF00FD00EE00A00037
:1016B0002008ED000800831203139E011F15602B04
:1016C0001F19632B642B602B0000000000008312A5
:1016D00003131E08A200A3012208A4002308A500EA
:1016E00001300310A40DA50DFF3E031D712B8316C1
:1016F00003131E08831203132508A101A107240860
:10170000A001A007832B08000230831603139F005B
:101710008312031388018901831603138801890149
:1017200001300A128A1575220A128A1538300A12F7
:101730008A1575220A128A150C300A128A1575222A
:101740000A128A1506300A128A1575220A128A159B
:1017500002300A128A1575220A128A1508008312AD
:101760000313A401A501B42B201CB72BB82BBE2B4F
:101770002208A4070318A50A2308A50701300310AF
:10178000A20DA30DFF3E031DBF2B01300310A10CC2
:10179000A00CFF3E031DC62B21082004031DD12BE6
:1017A000D22BB42BD32B2508A101A1072408A0011B
:1017B000A007DA2B0800F52B831203132808FF007B
:1017C000270884000A128A1500200A128A150A12B4
:1017D0008A153B220A128A15013083120313A707C8
:1017E0000318A80A0030A807F52B83120313280852
:1017F000FF00270884000A128A1500200A128A15A1
:101800000038031D042C052CDC2B062C08008B1340
:101810000A128A1589220A128A150A128A15842345
:101820000A128A150A128A1533230A128A150A1215
:101830008A151F220A128A15FC30831603138600AC
:10184000903083120313A300230883160313870524
:1018500040309400A13083120313940004308316A7
:10186000031381008B168B178B170800F001F10111
:10187000FD0183136830840070300A128A1500223B
:101880000A128A15A0308400DC300A128A15002260
:101890000A128A15831790308400A0300A128A1524
:1018A00000220A128A158313E830FD000A30FE0078
:1018B0001330FF00DC3084000A128A1552220A120B
:1018C0008A1583010A128A11852B0A128A11712640
:1018D0000A128A15F11E6D2C6E2C722CF112013039
:1018E000942C942C701D752C762C7A2C701102304F
:1018F000942C942C701E7D2C7E2C822C7012033024
:10190000942C942CF11D852C862C8A2CF1110430FA
:10191000942C942C701C8D2C8E2C922C70100530D5
:10192000942C942C0030942C080083120313A700ED
:10193000B12C9F111F129F12C22C9F151F129F12B4
:10194000C22C9F111F169F12C22C9F151F169F128B
:10195000C22C9F111F129F16C22C0030CF2CCF2CEF
:10196000C22C2708003A0319992C013A03199D2C1F
:10197000033A0319A12C013A0319A52C073A0319BC
:10198000A92CAD2C5330A600A60BC42C0A128A1524
:101990005B230A128A15831203132008CF2C080038
:1019A000730872040319D52CD62C0C2DF7010314DF
:1019B000F70DE62C01300310F20DF30DFF3E031D71
:1019C000DB2C0130F6007608F707E62CF31FE92C34
:1019D000EA2CDA2CEC2CEC2C73087502031DF22C8B
:1019E00072087402031CF52CF62CFD2C7208F4020C
:1019F0007308031CF503F502FD2C01300310F30CF2
:101A0000F20CFF3E031DFE2C0130F702031D092DD1
:101A10000A2DEC2C0C2D0C2D7508F301F30774081E
:101A2000F201F207132D0800831203132F082E046E
:101A300003191B2D1C2D522DB3010314B30D2C2D96
:101A400001300310AE0DAF0DFF3E031D212D0130FF
:101A5000B2003208B3072C2DAF1F2F2D302D202DB3
:101A6000322D322D2F083102031D382D2E08300261
:101A7000031C3B2D3C2D432D2E08B0022F08031CC8
:101A8000B103B102432D01300310AF0CAE0CFF3E89
:101A9000031D442D0130B302031D4F2D502D322D57
:101AA000522D522D3108AF01AF073008AE01AE07FD
:101AB000592D080083120313A0008C2D9E2D9E2DFE
:101AC000FF3083160313C6070318C70AFF30C70782
:101AD000C71F6B2D6C2D9E2D0430C6000030C70033
:101AE0009E2D9E2D013083160313C6070318C70AC7
:101AF0000030C707053046064704031D802D812DA1
:101B00009E2DC601C7019E2D9E2D831603134608E8
:101B1000A02DA02D9E2D9E2D83122008013A031981
:101B20009E2D033A03199E2D013A0319602D073AA1
:101B30000319722D013A0319852D9E2DFF30A02D1A
:101B4000080083120313AB01AC0127082604031914
:101B5000AA2DAB2DE92DAD010314AD0DBB2D013028
:101B60000310A60DA70DFF3E031DB02D0130AA00E6
:101B70002A08AD07BB2DA71FBE2DBF2DAF2DC12D30
:101B8000C12D01300310AB0DAC0DFF3E031DC22D66
:101B900027082902031DCE2D26082802031CD12D5B
:101BA000D22DDA2D2608A8022708031CA903A902B2
:101BB0002B14DA2D01300310A70CA60CFF3E031DD9
:101BC000DB2D0130AD02031DE62DE72DC12DE92DE2
:101BD000E92D2C08A701A7072B08A601A607F02DC1
:101BE00008008312031307148714A508031DF92D99
:101BF000FA2D012E0F300A128A1561220A128A1557
:101C0000082E0D300A128A1561220A128A15082E32
:101C10008312031307108710A801A901252E0715A9
:101C200000008312031307116230A7006530A6007D
:101C3000A60B182EA70B182E1D2E0130831203138E
:101C4000A8070318A90A0030A90724082902031DC0
:101C50002B2E23082802031C2E2E2F2E0F2E0714A6
:101C6000871400300A128A1561220A128A1583121B
:101C700003130710871007150000831203130711C1
:101C8000080083120313B001B101B201B30133089C
:101C9000803AFF0080307F02031D502E0A3032024E
:101CA000031C532E542E562E772E772E0A128A1589
:101CB0009F220A128A15831203132808B0070318FB
:101CC000B10A2908B1070130B2070318B30A00307E
:101CD000B3073308803AFF0080307F02031D722E65
:101CE0000A303202031C752E762E562E772E0A30BD
:101CF00083120313A6000030A7003108A901A90729
:101D00003008A801A8070A128A15A1250A128A1507
:101D1000831203132708EB01EB072608EA01EA0701
:101D20000A128A1115200A128A1508008316031355
:101D3000D4010314D40D083083120313A300003020
:101D4000A400A5010A128A15F1250A128A15A82EE7
:101D5000711CAB2EAC2EE52E71100A128A1138229E
:101D60000A128A15E52EE52EEC01A82EEC01A82E0C
:101D70000130A3000030A400A5010314A50D0A1230
:101D80008A15F1250A128A1583120313EC01A82E75
:101D90000130A3000030A400A5010A128A15F12524
:101DA0000A128A1583120313EC01A82E831603135B
:101DB000CC01CD0183120313EC0183160313D4016C
:101DC000FA2EFA2EA82EA82EA82E831203136C0822
:101DD000013A0319B42E033A0319B62E013A031936
:101DE000B82E073A0319C82E013A0319D62EA82E89
:101DF000A82EA82E080083120313DC01DD01DE01EA
:101E0000DF0183160313D2010314D20D83120313CF
:101E1000E001E1016108803AFF0081307F02031D8B
:101E2000132F90306002031C162F172F192F6B2FC2
:101E30006B2F0A128A1541260A128A158312031380
:101E40006B085D02031D262F6A085C020318292F08
:101E50002A2F372F6B08DD01DD076A08DC01DC075C
:101E60006108DF01DF076008DE01DE07372F013080
:101E7000A3000030A400A5010314A50D0A128A15C1
:101E8000F1250A128A150A128A1138220A128A15B5
:101E9000831203135F0883160313C901C907831252
:101EA00003135E0883160313C801C80701308312A9
:101EB0000313E0070318E10A0030E1076108803AE4
:101EC000FF0081307F02031D672F90306002031CEA
:101ED0006A2F6B2F192F83160313D201831203135A
:101EE0005F08DB01DB075E08DA01DA07772F0800FD
:101EF000831203132208A400240883160313D700B7
:101F0000831203132308A400240883160313D600A6
:101F100083120313A31B8D2F8E2FAD2F89300A122E
:101F20008A15CC220A128A1500300A128A15CC2290
:101F30000A128A15C8300A128A15CC220A128A158A
:101F400080300A128A15CC220A128A1500300A1231
:101F50008A15CC220A128A15CB2F89300A128A15CB
:101F6000CC220A128A15FF300A128A15CC220A12D4
:101F70008A1538300A128A15CC220A128A15803046
:101F80000A128A15CC220A128A1500300A128A1502
:101F9000CC220A128A159C300A128A15CC220A1207
:101FA0008A158316031356080A128A15CC220A12C0
:101FB0008A158316031357080A128A15CC220A12AF
:101FC0008A1589300A128A15CC220A128A15003025
:101FD0000A128A15CC220A128A1500300A128A15B2
:101FE000CC220A128A1500300A128A15CC220A1253
:101FF0008A1500300A128A15CC220A128A150800A6
:02400E0032FF7F
:00000001FF
